{"contracts/BuildLinkFunctionsConsumer.sol":{"BuildLinkFunctionsConsumer":{"abi":[{"inputs":[{"internalType":"address","name":"_admin","type":"address"}],"stateMutability":"nonpayable","type":"constructor"},{"inputs":[],"name":"EmptyArgs","type":"error"},{"inputs":[],"name":"EmptySource","type":"error"},{"inputs":[],"name":"NoInlineSecrets","type":"error"},{"inputs":[],"name":"OnlyAdmin","type":"error"},{"inputs":[],"name":"OnlyRouterCanFulfill","type":"error"},{"anonymous":false,"inputs":[{"indexed":true,"internalType":"address","name":"vault","type":"address"},{"indexed":true,"internalType":"uint256","name":"milestoneIndex","type":"uint256"}],"name":"ApprovalFailed","type":"event"},{"anonymous":false,"inputs":[{"indexed":true,"internalType":"address","name":"vault","type":"address"},{"indexed":true,"internalType":"uint256","name":"milestoneIndex","type":"uint256"}],"name":"MilestoneVerified","type":"event"},{"anonymous":false,"inputs":[{"indexed":true,"internalType":"bytes32","name":"requestId","type":"bytes32"},{"indexed":false,"internalType":"bytes","name":"response","type":"bytes"},{"indexed":false,"internalType":"bytes","name":"err","type":"bytes"}],"name":"OracleResponse","type":"event"},{"anonymous":false,"inputs":[{"indexed":true,"internalType":"bytes32","name":"id","type":"bytes32"}],"name":"RequestFulfilled","type":"event"},{"anonymous":false,"inputs":[{"indexed":true,"internalType":"bytes32","name":"id","type":"bytes32"}],"name":"RequestSent","type":"event"},{"inputs":[],"name":"CALLBACK_GAS_LIMIT","outputs":[{"internalType":"uint32","name":"","type":"uint32"}],"stateMutability":"view","type":"function"},{"inputs":[],"name":"DON_ID","outputs":[{"internalType":"bytes32","name":"","type":"bytes32"}],"stateMutability":"view","type":"function"},{"inputs":[],"name":"SUBSCRIPTION_ID","outputs":[{"internalType":"uint64","name":"","type":"uint64"}],"stateMutability":"view","type":"function"},{"inputs":[],"name":"admin","outputs":[{"internalType":"address","name":"","type":"address"}],"stateMutability":"view","type":"function"},{"inputs":[{"internalType":"bytes32","name":"requestId","type":"bytes32"},{"internalType":"bytes","name":"response","type":"bytes"},{"internalType":"bytes","name":"err","type":"bytes"}],"name":"handleOracleFulfillment","outputs":[],"stateMutability":"nonpayable","type":"function"},{"inputs":[],"name":"latestError","outputs":[{"internalType":"bytes","name":"","type":"bytes"}],"stateMutability":"view","type":"function"},{"inputs":[],"name":"latestRequestId","outputs":[{"internalType":"bytes32","name":"","type":"bytes32"}],"stateMutability":"view","type":"function"},{"inputs":[],"name":"latestResponse","outputs":[{"internalType":"bytes","name":"","type":"bytes"}],"stateMutability":"view","type":"function"},{"inputs":[{"internalType":"bytes32","name":"","type":"bytes32"}],"name":"pendingRequests","outputs":[{"internalType":"address","name":"vault","type":"address"},{"internalType":"uint256","name":"milestoneIndex","type":"uint256"}],"stateMutability":"view","type":"function"},{"inputs":[{"internalType":"address","name":"vaultAddress","type":"address"},{"internalType":"uint256","name":"milestoneIndex","type":"uint256"},{"internalType":"string","name":"procoreProjectId","type":"string"},{"internalType":"string","name":"proofHash","type":"string"}],"name":"sendRequest","outputs":[{"internalType":"bytes32","name":"requestId","type":"bytes32"}],"stateMutability":"nonpayable","type":"function"}],"evm":{"bytecode":{"linkReferences":{},"object":"60c060405234801561001057600080fd5b50604051611bf3380380611bf383398101604081905261002f916100a2565b73f9b8fc078197181c841c296c876945aaa425b2786080526001600160a01b0381166100915760405162461bcd60e51b815260206004820152600d60248201526c24b73b30b634b21030b236b4b760991b604482015260640160405180910390fd5b6001600160a01b031660a0526100d2565b6000602082840312156100b457600080fd5b81516001600160a01b03811681146100cb57600080fd5b9392505050565b60805160a051611aee610105600039600081816101ae015261035a0152600081816101fb0152610c420152611aee6000f3fe608060405234801561001057600080fd5b506004361061009e5760003560e01c806333d608f11161006657806333d608f114610162578063bef3a2f014610181578063de20060d14610196578063f851a440146101a9578063fffeb84e146101e857600080fd5b8063030932bb146100a35780630ca76175146100c85780630cde9f3c146100dd5780631aa46f59146101075780632795ad2014610110575b600080fd5b6100ab608f81565b6040516001600160401b0390911681526020015b60405180910390f35b6100db6100d63660046112d9565b6101f0565b005b6100f97166756e2d626173652d6d61696e6e65742d3160701b81565b6040519081526020016100bf565b6100f960015481565b61014361011e366004611345565b600060208190529081526040902080546001909101546001600160a01b039091169082565b604080516001600160a01b0390931683526020830191909152016100bf565b61016c620493e081565b60405163ffffffff90911681526020016100bf565b610189610274565b6040516100bf91906113a4565b6100f96101a4366004611417565b610302565b6101d07f000000000000000000000000000000000000000000000000000000000000000081565b6040516001600160a01b0390911681526020016100bf565b61018961062d565b336001600160a01b037f000000000000000000000000000000000000000000000000000000000000000016146102395760405163c6829f8360e01b815260040160405180910390fd5b61024483838361063a565b60405183907f85e1543bf2f84fe80c6badbce3648c8539ad1df4d2b3d822938ca0538be727e690600090a2505050565b60028054610281906114a2565b80601f01602080910402602001604051908101604052809291908181526020018280546102ad906114a2565b80156102fa5780601f106102cf576101008083540402835291602001916102fa565b820191906000526020600020905b8154815290600101906020018083116102dd57829003601f168201915b505050505081565b60006001600160a01b03871661034f5760405162461bcd60e51b815260206004820152600d60248201526c125b9d985b1a59081d985d5b1d609a1b60448201526064015b60405180910390fd5b336001600160a01b037f00000000000000000000000000000000000000000000000000000000000000001614806103f85750336001600160a01b0316876001600160a01b031663ca4b208b6040518163ffffffff1660e01b8152600401602060405180830381865afa1580156103c9573d6000803e3d6000fd5b505050506040513d601f19601f820116820180604052508101906103ed91906114dc565b6001600160a01b0316145b6104355760405162461bcd60e51b815260206004820152600e60248201526d139bdd08185d5d1a1bdc9a5e995960921b6044820152606401610346565b6104766040805160e0810190915280600081526020016000815260200160008152602001606081526020016060815260200160608152602001606081525090565b61049c60405180610280016040528061025c815260200161185d61025c91398290610822565b60408051600380825260808201909252600091816020015b60608152602001906001900390816104b457905050905086868080601f0160208091040260200160405190810160405280939291908181526020018383808284376000920182905250855186945090925015159050610515576105156114f9565b602002602001018190525061052988610833565b8160018151811061053c5761053c6114f9565b602002602001018190525084848080601f016020809104026020016040519081016040528093929190818152602001838380828437600092019190915250508351849250600291508110610592576105926114f9565b60209081029190910101526105a7828261093b565b6105d46105b383610965565b608f620493e07166756e2d626173652d6d61696e6e65742d3160701b610c3d565b6040805180820182526001600160a01b039b8c16815260208082019b8c5260008481529081905291909120905181546001600160a01b0319169b169a909a178a5597516001998a01555050509484905550919392505050565b60038054610281906114a2565b6002610646838261155d565b506003610653828261155d565b50827fa676854a79f96561744d5f417f3f050b4e3590ddc0f25140205c77f69d1daee9838360405161068692919061161c565b60405180910390a280511580156106e15750604080518082019091526008815267185c1c1c9bdd995960c21b6020918201528251908301207f2b29265fc125740ae6bbc5035ae7af720b6932f4a3e44ba5ac02955c21ca9a05145b156107fe5760008381526020818152604091829020825180840190935280546001600160a01b031680845260019091015491830191909152156107fc57602081015181516040516001600160a01b03909116907f4633ed43e960eab00c94e71920ad1775bd86ec373f63649db940d18a424de79690600090a38051602082015160405163c438b40f60e01b81526001600160a01b039092169163c438b40f916107909160040190815260200190565b600060405180830381600087803b1580156107aa57600080fd5b505af19250505080156107bb575060015b6107fc57602081015181516040516001600160a01b03909116907f8bcfaecc80bd05f8635fa1b1446e0f622abffe311dabb5b372ee72876d2c8cd290600090a35b505b5050600090815260208190526040812080546001600160a01b031916815560010155565b61082f8260008084610d0f565b5050565b60608160000361085a5750506040805180820190915260018152600360fc1b602082015290565b8160005b8115610884578061086e81611660565b915061087d9050600a8361168f565b915061085e565b6000816001600160401b0381111561089e5761089e611237565b6040519080825280601f01601f1916602001820160405280156108c8576020820181803683370190505b5090505b8415610933576108dd6001836116a3565b91506108ea600a866116b6565b6108f59060306116ca565b60f81b81838151811061090a5761090a6114f9565b60200101906001600160f81b031916908160001a90535061092c600a8661168f565b94506108cc565b949350505050565b805160000361095d5760405163fe936cb760e01b815260040160405180910390fd5b60a090910152565b60606000610974610100610d8d565b90506109ad6040518060400160405280600c81526020016b31b7b232a637b1b0ba34b7b760a11b81525082610dae90919063ffffffff16565b82516109cb9060028111156109c4576109c46116dd565b8290610dcc565b6040805180820190915260088152676c616e677561676560c01b60208201526109f5908290610dae565b6040830151610a0c9080156109c4576109c46116dd565b604080518082019091526006815265736f7572636560d01b6020820152610a34908290610dae565b6060830151610a44908290610dae565b60a08301515115610ad8576040805180820190915260048152636172677360e01b6020820152610a75908290610dae565b610a7e81610e05565b60005b8360a0015151811015610ace57610abe8460a001518281518110610aa757610aa76114f9565b602002602001015183610dae90919063ffffffff16565b610ac781611660565b9050610a81565b50610ad881610e29565b60808301515115610b9c57600083602001516002811115610afb57610afb6116dd565b03610b195760405163a80d31f760e01b815260040160405180910390fd5b60408051808201909152600f81526e39b2b1b932ba39a637b1b0ba34b7b760891b6020820152610b4a908290610dae565b610b63836020015160028111156109c4576109c46116dd565b6040805180820190915260078152667365637265747360c81b6020820152610b8c908290610dae565b6080830151610b9c908290610e47565b60c08301515115610c355760408051808201909152600981526862797465734172677360b81b6020820152610bd2908290610dae565b610bdb81610e05565b60005b8360c0015151811015610c2b57610c1b8460c001518281518110610c0457610c046114f9565b602002602001015183610e4790919063ffffffff16565b610c2481611660565b9050610bde565b50610c3581610e29565b515192915050565b6000807f00000000000000000000000000000000000000000000000000000000000000006001600160a01b031663461d27628688600188886040518663ffffffff1660e01b8152600401610c959594939291906116f3565b6020604051808303816000875af1158015610cb4573d6000803e3d6000fd5b505050506040513d601f19601f82011682018060405250810190610cd8919061173c565b60405190915081907f1131472297a800fee664d1d89cfa8f7676ff07189ecc53f80bbb5f4969099db890600090a295945050505050565b8051600003610d31576040516322ce3edd60e01b815260040160405180910390fd5b83836002811115610d4457610d446116dd565b90816002811115610d5757610d576116dd565b90525060408401828015610d6d57610d6d6116dd565b90818015610d7d57610d7d6116dd565b9052506060909301929092525050565b610d95611202565b8051610da19083610e54565b5060006020820152919050565b610dbb8260038351610ece565b8151610dc79082610fed565b505050565b8151610dd99060c2611015565b5061082f8282604051602001610df191815260200190565b604051602081830303815290604052610e47565b610e1081600461107e565b600181602001818151610e2391906116ca565b90525050565b610e3481600761107e565b600181602001818151610e2391906116a3565b610dbb8260028351610ece565b604080518082019091526060815260006020820152610e746020836116b6565b15610e9c57610e846020836116b6565b610e8f9060206116a3565b610e9990836116ca565b91505b602080840183905260405180855260008152908184010181811015610ec057600080fd5b604052508290505b92915050565b6017816001600160401b031611610efa578251610ef49060e0600585901b168317611015565b50505050565b60ff816001600160401b031611610f3a578251610f22906018611fe0600586901b1617611015565b508251610ef4906001600160401b0383166001611095565b61ffff816001600160401b031611610f7b578251610f63906019611fe0600586901b1617611015565b508251610ef4906001600160401b0383166002611095565b63ffffffff816001600160401b031611610fbe578251610fa690601a611fe0600586901b1617611015565b508251610ef4906001600160401b0383166004611095565b8251610fd590601b611fe0600586901b1617611015565b508251610ef4906001600160401b0383166008611095565b60408051808201909152606081526000602082015261100e8383845161111a565b9392505050565b604080518082019091526060815260006020820152825151600061103a8260016116ca565b90508460200151821061105b5761105b85611056836002611755565b6111eb565b8451602083820101858153508051821115611074578181525b5093949350505050565b8151610dc790601f611fe0600585901b1617611015565b60408051808201909152606081526000602082015283515160006110b982856116ca565b905085602001518111156110d6576110d686611056836002611755565b600060016110e686610100611850565b6110f091906116a3565b9050865182810187831982511617815250805183111561110e578281525b50959695505050505050565b604080518082019091526060815260006020820152825182111561113d57600080fd5b835151600061114c84836116ca565b905085602001518111156111695761116986611056836002611755565b855180518382016020019160009180851115611183578482525b505050602086015b602086106111c357805182526111a26020836116ca565b91506111af6020826116ca565b90506111bc6020876116a3565b955061118b565b51815160001960208890036101000a0190811690199190911617905250849150509392505050565b81516111f78383610e54565b50610ef48382610fed565b604051806040016040528061122a604051806040016040528060608152602001600081525090565b8152602001600081525090565b634e487b7160e01b600052604160045260246000fd5b600082601f83011261125e57600080fd5b81356001600160401b038082111561127857611278611237565b604051601f8301601f19908116603f011681019082821181831017156112a0576112a0611237565b816040528381528660208588010111156112b957600080fd5b836020870160208301376000602085830101528094505050505092915050565b6000806000606084860312156112ee57600080fd5b8335925060208401356001600160401b038082111561130c57600080fd5b6113188783880161124d565b9350604086013591508082111561132e57600080fd5b5061133b8682870161124d565b9150509250925092565b60006020828403121561135757600080fd5b5035919050565b6000815180845260005b8181101561138457602081850181015186830182015201611368565b506000602082860101526020601f19601f83011685010191505092915050565b60208152600061100e602083018461135e565b6001600160a01b03811681146113cc57600080fd5b50565b60008083601f8401126113e157600080fd5b5081356001600160401b038111156113f857600080fd5b60208301915083602082850101111561141057600080fd5b9250929050565b6000806000806000806080878903121561143057600080fd5b863561143b816113b7565b95506020870135945060408701356001600160401b038082111561145e57600080fd5b61146a8a838b016113cf565b9096509450606089013591508082111561148357600080fd5b5061149089828a016113cf565b979a9699509497509295939492505050565b600181811c908216806114b657607f821691505b6020821081036114d657634e487b7160e01b600052602260045260246000fd5b50919050565b6000602082840312156114ee57600080fd5b815161100e816113b7565b634e487b7160e01b600052603260045260246000fd5b601f821115610dc757600081815260208120601f850160051c810160208610156115365750805b601f850160051c820191505b8181101561155557828155600101611542565b505050505050565b81516001600160401b0381111561157657611576611237565b61158a8161158484546114a2565b8461150f565b602080601f8311600181146115bf57600084156115a75750858301515b600019600386901b1c1916600185901b178555611555565b600085815260208120601f198616915b828110156115ee578886015182559484019460019091019084016115cf565b508582101561160c5787850151600019600388901b60f8161c191681555b5050505050600190811b01905550565b60408152600061162f604083018561135e565b8281036020840152611641818561135e565b95945050505050565b634e487b7160e01b600052601160045260246000fd5b6000600182016116725761167261164a565b5060010190565b634e487b7160e01b600052601260045260246000fd5b60008261169e5761169e611679565b500490565b81810381811115610ec857610ec861164a565b6000826116c5576116c5611679565b500690565b80820180821115610ec857610ec861164a565b634e487b7160e01b600052602160045260246000fd5b6001600160401b038616815260a06020820152600061171560a083018761135e565b61ffff9590951660408301525063ffffffff92909216606083015260809091015292915050565b60006020828403121561174e57600080fd5b5051919050565b8082028115828204841417610ec857610ec861164a565b600181815b808511156117a757816000190482111561178d5761178d61164a565b8085161561179a57918102915b93841c9390800290611771565b509250929050565b6000826117be57506001610ec8565b816117cb57506000610ec8565b81600181146117e157600281146117eb57611807565b6001915050610ec8565b60ff8411156117fc576117fc61164a565b50506001821b610ec8565b5060208310610133831016604e8410600b841016171561182a575081810a610ec8565b611834838361176c565b80600019048211156118485761184861164a565b029392505050565b600061100e83836117af56fe636f6e73742070726f636f726550726f6a6563744964203d20617267735b305d3b636f6e7374206d696c6573746f6e65496e646578203d20617267735b315d3b636f6e73742070726f6f6648617368203d20617267735b325d3b636f6e737420726573203d2061776169742046756e6374696f6e732e6d616b654874747052657175657374287b202075726c3a202768747470733a2f2f6275696c646c696e6b2d66726f6e74656e642e76657263656c2e6170702f6170692f70726f636f72652f776562686f6f6b272c20206d6574686f643a2027504f5354272c2020686561646572733a207b2027436f6e74656e742d54797065273a20276170706c69636174696f6e2f6a736f6e27207d2c2020646174613a207b2070726f636f726550726f6a65637449643a2070726f636f726550726f6a65637449642c206d696c6573746f6e65496e6465783a207061727365496e74286d696c6573746f6e65496e646578292c2070726f6f66486173683a2070726f6f6648617368207d7d293b696620287265732e6572726f7229207468726f77204572726f722827576562686f6f6b2072657175657374206661696c65643a2027202b207265732e6d657373616765293b636f6e737420737461747573203d207265732e64617461202626207265732e646174612e737461747573203f207265732e646174612e737461747573203a202772656a6563746564273b72657475726e2046756e6374696f6e732e656e636f6465537472696e6728737461747573203d3d3d2027617070726f76656427203f2027617070726f76656427203a202772656a656374656427293ba264697066735822122074e042ad3ecf7da488dffe7e96d07da847faaecd64457269b12fae4f1d99d4a264736f6c63430008140033","opcodes":"PUSH1 0xC0 PUSH1 0x40 MSTORE CALLVALUE DUP1 ISZERO PUSH2 0x10 JUMPI PUSH1 0x0 DUP1 REVERT JUMPDEST POP PUSH1 0x40 MLOAD PUSH2 0x1BF3 CODESIZE SUB DUP1 PUSH2 0x1BF3 DUP4 CODECOPY DUP2 ADD PUSH1 0x40 DUP2 SWAP1 MSTORE PUSH2 0x2F SWAP2 PUSH2 0xA2 JUMP JUMPDEST PUSH20 0xF9B8FC078197181C841C296C876945AAA425B278 PUSH1 0x80 MSTORE PUSH1 0x1 PUSH1 0x1 PUSH1 0xA0 SHL SUB DUP2 AND PUSH2 0x91 JUMPI PUSH1 0x40 MLOAD PUSH3 0x461BCD PUSH1 0xE5 SHL DUP2 MSTORE PUSH1 0x20 PUSH1 0x4 DUP3 ADD MSTORE PUSH1 0xD PUSH1 0x24 DUP3 ADD MSTORE PUSH13 0x24B73B30B634B21030B236B4B7 PUSH1 0x99 SHL PUSH1 0x44 DUP3 ADD MSTORE PUSH1 0x64 ADD PUSH1 0x40 MLOAD DUP1 SWAP2 SUB SWAP1 REVERT JUMPDEST PUSH1 0x1 PUSH1 0x1 PUSH1 0xA0 SHL SUB AND PUSH1 0xA0 MSTORE PUSH2 0xD2 JUMP JUMPDEST PUSH1 0x0 PUSH1 0x20 DUP3 DUP5 SUB SLT ISZERO PUSH2 0xB4 JUMPI PUSH1 0x0 DUP1 REVERT JUMPDEST DUP2 MLOAD PUSH1 0x1 PUSH1 0x1 PUSH1 0xA0 SHL SUB DUP2 AND DUP2 EQ PUSH2 0xCB JUMPI PUSH1 0x0 DUP1 REVERT JUMPDEST SWAP4 SWAP3 POP POP POP JUMP JUMPDEST PUSH1 0x80 MLOAD PUSH1 0xA0 MLOAD PUSH2 0x1AEE PUSH2 0x105 PUSH1 0x0 CODECOPY PUSH1 0x0 DUP2 DUP2 PUSH2 0x1AE ADD MSTORE PUSH2 0x35A ADD MSTORE PUSH1 0x0 DUP2 DUP2 PUSH2 0x1FB ADD MSTORE PUSH2 0xC42 ADD MSTORE PUSH2 0x1AEE PUSH1 0x0 RETURN INVALID PUSH1 0x80 PUSH1 0x40 MSTORE CALLVALUE DUP1 ISZERO PUSH2 0x10 JUMPI PUSH1 0x0 DUP1 REVERT JUMPDEST POP PUSH1 0x4 CALLDATASIZE LT PUSH2 0x9E JUMPI PUSH1 0x0 CALLDATALOAD PUSH1 0xE0 SHR DUP1 PUSH4 0x33D608F1 GT PUSH2 0x66 JUMPI DUP1 PUSH4 0x33D608F1 EQ PUSH2 0x162 JUMPI DUP1 PUSH4 0xBEF3A2F0 EQ PUSH2 0x181 JUMPI DUP1 PUSH4 0xDE20060D EQ PUSH2 0x196 JUMPI DUP1 PUSH4 0xF851A440 EQ PUSH2 0x1A9 JUMPI DUP1 PUSH4 0xFFFEB84E EQ PUSH2 0x1E8 JUMPI PUSH1 0x0 DUP1 REVERT JUMPDEST DUP1 PUSH4 0x30932BB EQ PUSH2 0xA3 JUMPI DUP1 PUSH4 0xCA76175 EQ PUSH2 0xC8 JUMPI DUP1 PUSH4 0xCDE9F3C EQ PUSH2 0xDD JUMPI DUP1 PUSH4 0x1AA46F59 EQ PUSH2 0x107 JUMPI DUP1 PUSH4 0x2795AD20 EQ PUSH2 0x110 JUMPI JUMPDEST PUSH1 0x0 DUP1 REVERT JUMPDEST PUSH2 0xAB PUSH1 0x8F DUP2 JUMP JUMPDEST PUSH1 0x40 MLOAD PUSH1 0x1 PUSH1 0x1 PUSH1 0x40 SHL SUB SWAP1 SWAP2 AND DUP2 MSTORE PUSH1 0x20 ADD JUMPDEST PUSH1 0x40 MLOAD DUP1 SWAP2 SUB SWAP1 RETURN JUMPDEST PUSH2 0xDB PUSH2 0xD6 CALLDATASIZE PUSH1 0x4 PUSH2 0x12D9 JUMP JUMPDEST PUSH2 0x1F0 JUMP JUMPDEST STOP JUMPDEST PUSH2 0xF9 PUSH18 0x66756E2D626173652D6D61696E6E65742D31 PUSH1 0x70 SHL DUP2 JUMP JUMPDEST PUSH1 0x40 MLOAD SWAP1 DUP2 MSTORE PUSH1 0x20 ADD PUSH2 0xBF JUMP JUMPDEST PUSH2 0xF9 PUSH1 0x1 SLOAD DUP2 JUMP JUMPDEST PUSH2 0x143 PUSH2 0x11E CALLDATASIZE PUSH1 0x4 PUSH2 0x1345 JUMP JUMPDEST PUSH1 0x0 PUSH1 0x20 DUP2 SWAP1 MSTORE SWAP1 DUP2 MSTORE PUSH1 0x40 SWAP1 KECCAK256 DUP1 SLOAD PUSH1 0x1 SWAP1 SWAP2 ADD SLOAD PUSH1 0x1 PUSH1 0x1 PUSH1 0xA0 SHL SUB SWAP1 SWAP2 AND SWAP1 DUP3 JUMP JUMPDEST PUSH1 0x40 DUP1 MLOAD PUSH1 0x1 PUSH1 0x1 PUSH1 0xA0 SHL SUB SWAP1 SWAP4 AND DUP4 MSTORE PUSH1 0x20 DUP4 ADD SWAP2 SWAP1 SWAP2 MSTORE ADD PUSH2 0xBF JUMP JUMPDEST PUSH2 0x16C PUSH3 0x493E0 DUP2 JUMP JUMPDEST PUSH1 0x40 MLOAD PUSH4 0xFFFFFFFF SWAP1 SWAP2 AND DUP2 MSTORE PUSH1 0x20 ADD PUSH2 0xBF JUMP JUMPDEST PUSH2 0x189 PUSH2 0x274 JUMP JUMPDEST PUSH1 0x40 MLOAD PUSH2 0xBF SWAP2 SWAP1 PUSH2 0x13A4 JUMP JUMPDEST PUSH2 0xF9 PUSH2 0x1A4 CALLDATASIZE PUSH1 0x4 PUSH2 0x1417 JUMP JUMPDEST PUSH2 0x302 JUMP JUMPDEST PUSH2 0x1D0 PUSH32 0x0 DUP2 JUMP JUMPDEST PUSH1 0x40 MLOAD PUSH1 0x1 PUSH1 0x1 PUSH1 0xA0 SHL SUB SWAP1 SWAP2 AND DUP2 MSTORE PUSH1 0x20 ADD PUSH2 0xBF JUMP JUMPDEST PUSH2 0x189 PUSH2 0x62D JUMP JUMPDEST CALLER PUSH1 0x1 PUSH1 0x1 PUSH1 0xA0 SHL SUB PUSH32 0x0 AND EQ PUSH2 0x239 JUMPI PUSH1 0x40 MLOAD PUSH4 0xC6829F83 PUSH1 0xE0 SHL DUP2 MSTORE PUSH1 0x4 ADD PUSH1 0x40 MLOAD DUP1 SWAP2 SUB SWAP1 REVERT JUMPDEST PUSH2 0x244 DUP4 DUP4 DUP4 PUSH2 0x63A JUMP JUMPDEST PUSH1 0x40 MLOAD DUP4 SWAP1 PUSH32 0x85E1543BF2F84FE80C6BADBCE3648C8539AD1DF4D2B3D822938CA0538BE727E6 SWAP1 PUSH1 0x0 SWAP1 LOG2 POP POP POP JUMP JUMPDEST PUSH1 0x2 DUP1 SLOAD PUSH2 0x281 SWAP1 PUSH2 0x14A2 JUMP JUMPDEST DUP1 PUSH1 0x1F ADD PUSH1 0x20 DUP1 SWAP2 DIV MUL PUSH1 0x20 ADD PUSH1 0x40 MLOAD SWAP1 DUP2 ADD PUSH1 0x40 MSTORE DUP1 SWAP3 SWAP2 SWAP1 DUP2 DUP2 MSTORE PUSH1 0x20 ADD DUP3 DUP1 SLOAD PUSH2 0x2AD SWAP1 PUSH2 0x14A2 JUMP JUMPDEST DUP1 ISZERO PUSH2 0x2FA JUMPI DUP1 PUSH1 0x1F LT PUSH2 0x2CF JUMPI PUSH2 0x100 DUP1 DUP4 SLOAD DIV MUL DUP4 MSTORE SWAP2 PUSH1 0x20 ADD SWAP2 PUSH2 0x2FA JUMP JUMPDEST DUP3 ADD SWAP2 SWAP1 PUSH1 0x0 MSTORE PUSH1 0x20 PUSH1 0x0 KECCAK256 SWAP1 JUMPDEST DUP2 SLOAD DUP2 MSTORE SWAP1 PUSH1 0x1 ADD SWAP1 PUSH1 0x20 ADD DUP1 DUP4 GT PUSH2 0x2DD JUMPI DUP3 SWAP1 SUB PUSH1 0x1F AND DUP3 ADD SWAP2 JUMPDEST POP POP POP POP POP DUP2 JUMP JUMPDEST PUSH1 0x0 PUSH1 0x1 PUSH1 0x1 PUSH1 0xA0 SHL SUB DUP8 AND PUSH2 0x34F JUMPI PUSH1 0x40 MLOAD PUSH3 0x461BCD PUSH1 0xE5 SHL DUP2 MSTORE PUSH1 0x20 PUSH1 0x4 DUP3 ADD MSTORE PUSH1 0xD PUSH1 0x24 DUP3 ADD MSTORE PUSH13 0x125B9D985B1A59081D985D5B1D PUSH1 0x9A SHL PUSH1 0x44 DUP3 ADD MSTORE PUSH1 0x64 ADD JUMPDEST PUSH1 0x40 MLOAD DUP1 SWAP2 SUB SWAP1 REVERT JUMPDEST CALLER PUSH1 0x1 PUSH1 0x1 PUSH1 0xA0 SHL SUB PUSH32 0x0 AND EQ DUP1 PUSH2 0x3F8 JUMPI POP CALLER PUSH1 0x1 PUSH1 0x1 PUSH1 0xA0 SHL SUB AND DUP8 PUSH1 0x1 PUSH1 0x1 PUSH1 0xA0 SHL SUB AND PUSH4 0xCA4B208B PUSH1 0x40 MLOAD DUP2 PUSH4 0xFFFFFFFF AND PUSH1 0xE0 SHL DUP2 MSTORE PUSH1 0x4 ADD PUSH1 0x20 PUSH1 0x40 MLOAD DUP1 DUP4 SUB DUP2 DUP7 GAS STATICCALL ISZERO DUP1 ISZERO PUSH2 0x3C9 JUMPI RETURNDATASIZE PUSH1 0x0 DUP1 RETURNDATACOPY RETURNDATASIZE PUSH1 0x0 REVERT JUMPDEST POP POP POP POP PUSH1 0x40 MLOAD RETURNDATASIZE PUSH1 0x1F NOT PUSH1 0x1F DUP3 ADD AND DUP3 ADD DUP1 PUSH1 0x40 MSTORE POP DUP2 ADD SWAP1 PUSH2 0x3ED SWAP2 SWAP1 PUSH2 0x14DC JUMP JUMPDEST PUSH1 0x1 PUSH1 0x1 PUSH1 0xA0 SHL SUB AND EQ JUMPDEST PUSH2 0x435 JUMPI PUSH1 0x40 MLOAD PUSH3 0x461BCD PUSH1 0xE5 SHL DUP2 MSTORE PUSH1 0x20 PUSH1 0x4 DUP3 ADD MSTORE PUSH1 0xE PUSH1 0x24 DUP3 ADD MSTORE PUSH14 0x139BDD08185D5D1A1BDC9A5E9959 PUSH1 0x92 SHL PUSH1 0x44 DUP3 ADD MSTORE PUSH1 0x64 ADD PUSH2 0x346 JUMP JUMPDEST PUSH2 0x476 PUSH1 0x40 DUP1 MLOAD PUSH1 0xE0 DUP2 ADD SWAP1 SWAP2 MSTORE DUP1 PUSH1 0x0 DUP2 MSTORE PUSH1 0x20 ADD PUSH1 0x0 DUP2 MSTORE PUSH1 0x20 ADD PUSH1 0x0 DUP2 MSTORE PUSH1 0x20 ADD PUSH1 0x60 DUP2 MSTORE PUSH1 0x20 ADD PUSH1 0x60 DUP2 MSTORE PUSH1 0x20 ADD PUSH1 0x60 DUP2 MSTORE PUSH1 0x20 ADD PUSH1 0x60 DUP2 MSTORE POP SWAP1 JUMP JUMPDEST PUSH2 0x49C PUSH1 0x40 MLOAD DUP1 PUSH2 0x280 ADD PUSH1 0x40 MSTORE DUP1 PUSH2 0x25C DUP2 MSTORE PUSH1 0x20 ADD PUSH2 0x185D PUSH2 0x25C SWAP2 CODECOPY DUP3 SWAP1 PUSH2 0x822 JUMP JUMPDEST PUSH1 0x40 DUP1 MLOAD PUSH1 0x3 DUP1 DUP3 MSTORE PUSH1 0x80 DUP3 ADD SWAP1 SWAP3 MSTORE PUSH1 0x0 SWAP2 DUP2 PUSH1 0x20 ADD JUMPDEST PUSH1 0x60 DUP2 MSTORE PUSH1 0x20 ADD SWAP1 PUSH1 0x1 SWAP1 SUB SWAP1 DUP2 PUSH2 0x4B4 JUMPI SWAP1 POP POP SWAP1 POP DUP7 DUP7 DUP1 DUP1 PUSH1 0x1F ADD PUSH1 0x20 DUP1 SWAP2 DIV MUL PUSH1 0x20 ADD PUSH1 0x40 MLOAD SWAP1 DUP2 ADD PUSH1 0x40 MSTORE DUP1 SWAP4 SWAP3 SWAP2 SWAP1 DUP2 DUP2 MSTORE PUSH1 0x20 ADD DUP4 DUP4 DUP1 DUP3 DUP5 CALLDATACOPY PUSH1 0x0 SWAP3 ADD DUP3 SWAP1 MSTORE POP DUP6 MLOAD DUP7 SWAP5 POP SWAP1 SWAP3 POP ISZERO ISZERO SWAP1 POP PUSH2 0x515 JUMPI PUSH2 0x515 PUSH2 0x14F9 JUMP JUMPDEST PUSH1 0x20 MUL PUSH1 0x20 ADD ADD DUP2 SWAP1 MSTORE POP PUSH2 0x529 DUP9 PUSH2 0x833 JUMP JUMPDEST DUP2 PUSH1 0x1 DUP2 MLOAD DUP2 LT PUSH2 0x53C JUMPI PUSH2 0x53C PUSH2 0x14F9 JUMP JUMPDEST PUSH1 0x20 MUL PUSH1 0x20 ADD ADD DUP2 SWAP1 MSTORE POP DUP5 DUP5 DUP1 DUP1 PUSH1 0x1F ADD PUSH1 0x20 DUP1 SWAP2 DIV MUL PUSH1 0x20 ADD PUSH1 0x40 MLOAD SWAP1 DUP2 ADD PUSH1 0x40 MSTORE DUP1 SWAP4 SWAP3 SWAP2 SWAP1 DUP2 DUP2 MSTORE PUSH1 0x20 ADD DUP4 DUP4 DUP1 DUP3 DUP5 CALLDATACOPY PUSH1 0x0 SWAP3 ADD SWAP2 SWAP1 SWAP2 MSTORE POP POP DUP4 MLOAD DUP5 SWAP3 POP PUSH1 0x2 SWAP2 POP DUP2 LT PUSH2 0x592 JUMPI PUSH2 0x592 PUSH2 0x14F9 JUMP JUMPDEST PUSH1 0x20 SWAP1 DUP2 MUL SWAP2 SWAP1 SWAP2 ADD ADD MSTORE PUSH2 0x5A7 DUP3 DUP3 PUSH2 0x93B JUMP JUMPDEST PUSH2 0x5D4 PUSH2 0x5B3 DUP4 PUSH2 0x965 JUMP JUMPDEST PUSH1 0x8F PUSH3 0x493E0 PUSH18 0x66756E2D626173652D6D61696E6E65742D31 PUSH1 0x70 SHL PUSH2 0xC3D JUMP JUMPDEST PUSH1 0x40 DUP1 MLOAD DUP1 DUP3 ADD DUP3 MSTORE PUSH1 0x1 PUSH1 0x1 PUSH1 0xA0 SHL SUB SWAP12 DUP13 AND DUP2 MSTORE PUSH1 0x20 DUP1 DUP3 ADD SWAP12 DUP13 MSTORE PUSH1 0x0 DUP5 DUP2 MSTORE SWAP1 DUP2 SWAP1 MSTORE SWAP2 SWAP1 SWAP2 KECCAK256 SWAP1 MLOAD DUP2 SLOAD PUSH1 0x1 PUSH1 0x1 PUSH1 0xA0 SHL SUB NOT AND SWAP12 AND SWAP11 SWAP1 SWAP11 OR DUP11 SSTORE SWAP8 MLOAD PUSH1 0x1 SWAP10 DUP11 ADD SSTORE POP POP POP SWAP5 DUP5 SWAP1 SSTORE POP SWAP2 SWAP4 SWAP3 POP POP POP JUMP JUMPDEST PUSH1 0x3 DUP1 SLOAD PUSH2 0x281 SWAP1 PUSH2 0x14A2 JUMP JUMPDEST PUSH1 0x2 PUSH2 0x646 DUP4 DUP3 PUSH2 0x155D JUMP JUMPDEST POP PUSH1 0x3 PUSH2 0x653 DUP3 DUP3 PUSH2 0x155D JUMP JUMPDEST POP DUP3 PUSH32 0xA676854A79F96561744D5F417F3F050B4E3590DDC0F25140205C77F69D1DAEE9 DUP4 DUP4 PUSH1 0x40 MLOAD PUSH2 0x686 SWAP3 SWAP2 SWAP1 PUSH2 0x161C JUMP JUMPDEST PUSH1 0x40 MLOAD DUP1 SWAP2 SUB SWAP1 LOG2 DUP1 MLOAD ISZERO DUP1 ISZERO PUSH2 0x6E1 JUMPI POP PUSH1 0x40 DUP1 MLOAD DUP1 DUP3 ADD SWAP1 SWAP2 MSTORE PUSH1 0x8 DUP2 MSTORE PUSH8 0x185C1C1C9BDD9959 PUSH1 0xC2 SHL PUSH1 0x20 SWAP2 DUP3 ADD MSTORE DUP3 MLOAD SWAP1 DUP4 ADD KECCAK256 PUSH32 0x2B29265FC125740AE6BBC5035AE7AF720B6932F4A3E44BA5AC02955C21CA9A05 EQ JUMPDEST ISZERO PUSH2 0x7FE JUMPI PUSH1 0x0 DUP4 DUP2 MSTORE PUSH1 0x20 DUP2 DUP2 MSTORE PUSH1 0x40 SWAP2 DUP3 SWAP1 KECCAK256 DUP3 MLOAD DUP1 DUP5 ADD SWAP1 SWAP4 MSTORE DUP1 SLOAD PUSH1 0x1 PUSH1 0x1 PUSH1 0xA0 SHL SUB AND DUP1 DUP5 MSTORE PUSH1 0x1 SWAP1 SWAP2 ADD SLOAD SWAP2 DUP4 ADD SWAP2 SWAP1 SWAP2 MSTORE ISZERO PUSH2 0x7FC JUMPI PUSH1 0x20 DUP2 ADD MLOAD DUP2 MLOAD PUSH1 0x40 MLOAD PUSH1 0x1 PUSH1 0x1 PUSH1 0xA0 SHL SUB SWAP1 SWAP2 AND SWAP1 PUSH32 0x4633ED43E960EAB00C94E71920AD1775BD86EC373F63649DB940D18A424DE796 SWAP1 PUSH1 0x0 SWAP1 LOG3 DUP1 MLOAD PUSH1 0x20 DUP3 ADD MLOAD PUSH1 0x40 MLOAD PUSH4 0xC438B40F PUSH1 0xE0 SHL DUP2 MSTORE PUSH1 0x1 PUSH1 0x1 PUSH1 0xA0 SHL SUB SWAP1 SWAP3 AND SWAP2 PUSH4 0xC438B40F SWAP2 PUSH2 0x790 SWAP2 PUSH1 0x4 ADD SWAP1 DUP2 MSTORE PUSH1 0x20 ADD SWAP1 JUMP JUMPDEST PUSH1 0x0 PUSH1 0x40 MLOAD DUP1 DUP4 SUB DUP2 PUSH1 0x0 DUP8 DUP1 EXTCODESIZE ISZERO DUP1 ISZERO PUSH2 0x7AA JUMPI PUSH1 0x0 DUP1 REVERT JUMPDEST POP GAS CALL SWAP3 POP POP POP DUP1 ISZERO PUSH2 0x7BB JUMPI POP PUSH1 0x1 JUMPDEST PUSH2 0x7FC JUMPI PUSH1 0x20 DUP2 ADD MLOAD DUP2 MLOAD PUSH1 0x40 MLOAD PUSH1 0x1 PUSH1 0x1 PUSH1 0xA0 SHL SUB SWAP1 SWAP2 AND SWAP1 PUSH32 0x8BCFAECC80BD05F8635FA1B1446E0F622ABFFE311DABB5B372EE72876D2C8CD2 SWAP1 PUSH1 0x0 SWAP1 LOG3 JUMPDEST POP JUMPDEST POP POP PUSH1 0x0 SWAP1 DUP2 MSTORE PUSH1 0x20 DUP2 SWAP1 MSTORE PUSH1 0x40 DUP2 KECCAK256 DUP1 SLOAD PUSH1 0x1 PUSH1 0x1 PUSH1 0xA0 SHL SUB NOT AND DUP2 SSTORE PUSH1 0x1 ADD SSTORE JUMP JUMPDEST PUSH2 0x82F DUP3 PUSH1 0x0 DUP1 DUP5 PUSH2 0xD0F JUMP JUMPDEST POP POP JUMP JUMPDEST PUSH1 0x60 DUP2 PUSH1 0x0 SUB PUSH2 0x85A JUMPI POP POP PUSH1 0x40 DUP1 MLOAD DUP1 DUP3 ADD SWAP1 SWAP2 MSTORE PUSH1 0x1 DUP2 MSTORE PUSH1 0x3 PUSH1 0xFC SHL PUSH1 0x20 DUP3 ADD MSTORE SWAP1 JUMP JUMPDEST DUP2 PUSH1 0x0 JUMPDEST DUP2 ISZERO PUSH2 0x884 JUMPI DUP1 PUSH2 0x86E DUP2 PUSH2 0x1660 JUMP JUMPDEST SWAP2 POP PUSH2 0x87D SWAP1 POP PUSH1 0xA DUP4 PUSH2 0x168F JUMP JUMPDEST SWAP2 POP PUSH2 0x85E JUMP JUMPDEST PUSH1 0x0 DUP2 PUSH1 0x1 PUSH1 0x1 PUSH1 0x40 SHL SUB DUP2 GT ISZERO PUSH2 0x89E JUMPI PUSH2 0x89E PUSH2 0x1237 JUMP JUMPDEST PUSH1 0x40 MLOAD SWAP1 DUP1 DUP3 MSTORE DUP1 PUSH1 0x1F ADD PUSH1 0x1F NOT AND PUSH1 0x20 ADD DUP3 ADD PUSH1 0x40 MSTORE DUP1 ISZERO PUSH2 0x8C8 JUMPI PUSH1 0x20 DUP3 ADD DUP2 DUP1 CALLDATASIZE DUP4 CALLDATACOPY ADD SWAP1 POP JUMPDEST POP SWAP1 POP JUMPDEST DUP5 ISZERO PUSH2 0x933 JUMPI PUSH2 0x8DD PUSH1 0x1 DUP4 PUSH2 0x16A3 JUMP JUMPDEST SWAP2 POP PUSH2 0x8EA PUSH1 0xA DUP7 PUSH2 0x16B6 JUMP JUMPDEST PUSH2 0x8F5 SWAP1 PUSH1 0x30 PUSH2 0x16CA JUMP JUMPDEST PUSH1 0xF8 SHL DUP2 DUP4 DUP2 MLOAD DUP2 LT PUSH2 0x90A JUMPI PUSH2 0x90A PUSH2 0x14F9 JUMP JUMPDEST PUSH1 0x20 ADD ADD SWAP1 PUSH1 0x1 PUSH1 0x1 PUSH1 0xF8 SHL SUB NOT AND SWAP1 DUP2 PUSH1 0x0 BYTE SWAP1 MSTORE8 POP PUSH2 0x92C PUSH1 0xA DUP7 PUSH2 0x168F JUMP JUMPDEST SWAP5 POP PUSH2 0x8CC JUMP JUMPDEST SWAP5 SWAP4 POP POP POP POP JUMP JUMPDEST DUP1 MLOAD PUSH1 0x0 SUB PUSH2 0x95D JUMPI PUSH1 0x40 MLOAD PUSH4 0xFE936CB7 PUSH1 0xE0 SHL DUP2 MSTORE PUSH1 0x4 ADD PUSH1 0x40 MLOAD DUP1 SWAP2 SUB SWAP1 REVERT JUMPDEST PUSH1 0xA0 SWAP1 SWAP2 ADD MSTORE JUMP JUMPDEST PUSH1 0x60 PUSH1 0x0 PUSH2 0x974 PUSH2 0x100 PUSH2 0xD8D JUMP JUMPDEST SWAP1 POP PUSH2 0x9AD PUSH1 0x40 MLOAD DUP1 PUSH1 0x40 ADD PUSH1 0x40 MSTORE DUP1 PUSH1 0xC DUP2 MSTORE PUSH1 0x20 ADD PUSH12 0x31B7B232A637B1B0BA34B7B7 PUSH1 0xA1 SHL DUP2 MSTORE POP DUP3 PUSH2 0xDAE SWAP1 SWAP2 SWAP1 PUSH4 0xFFFFFFFF AND JUMP JUMPDEST DUP3 MLOAD PUSH2 0x9CB SWAP1 PUSH1 0x2 DUP2 GT ISZERO PUSH2 0x9C4 JUMPI PUSH2 0x9C4 PUSH2 0x16DD JUMP JUMPDEST DUP3 SWAP1 PUSH2 0xDCC JUMP JUMPDEST PUSH1 0x40 DUP1 MLOAD DUP1 DUP3 ADD SWAP1 SWAP2 MSTORE PUSH1 0x8 DUP2 MSTORE PUSH8 0x6C616E6775616765 PUSH1 0xC0 SHL PUSH1 0x20 DUP3 ADD MSTORE PUSH2 0x9F5 SWAP1 DUP3 SWAP1 PUSH2 0xDAE JUMP JUMPDEST PUSH1 0x40 DUP4 ADD MLOAD PUSH2 0xA0C SWAP1 DUP1 ISZERO PUSH2 0x9C4 JUMPI PUSH2 0x9C4 PUSH2 0x16DD JUMP JUMPDEST PUSH1 0x40 DUP1 MLOAD DUP1 DUP3 ADD SWAP1 SWAP2 MSTORE PUSH1 0x6 DUP2 MSTORE PUSH6 0x736F75726365 PUSH1 0xD0 SHL PUSH1 0x20 DUP3 ADD MSTORE PUSH2 0xA34 SWAP1 DUP3 SWAP1 PUSH2 0xDAE JUMP JUMPDEST PUSH1 0x60 DUP4 ADD MLOAD PUSH2 0xA44 SWAP1 DUP3 SWAP1 PUSH2 0xDAE JUMP JUMPDEST PUSH1 0xA0 DUP4 ADD MLOAD MLOAD ISZERO PUSH2 0xAD8 JUMPI PUSH1 0x40 DUP1 MLOAD DUP1 DUP3 ADD SWAP1 SWAP2 MSTORE PUSH1 0x4 DUP2 MSTORE PUSH4 0x61726773 PUSH1 0xE0 SHL PUSH1 0x20 DUP3 ADD MSTORE PUSH2 0xA75 SWAP1 DUP3 SWAP1 PUSH2 0xDAE JUMP JUMPDEST PUSH2 0xA7E DUP2 PUSH2 0xE05 JUMP JUMPDEST PUSH1 0x0 JUMPDEST DUP4 PUSH1 0xA0 ADD MLOAD MLOAD DUP2 LT ISZERO PUSH2 0xACE JUMPI PUSH2 0xABE DUP5 PUSH1 0xA0 ADD MLOAD DUP3 DUP2 MLOAD DUP2 LT PUSH2 0xAA7 JUMPI PUSH2 0xAA7 PUSH2 0x14F9 JUMP JUMPDEST PUSH1 0x20 MUL PUSH1 0x20 ADD ADD MLOAD DUP4 PUSH2 0xDAE SWAP1 SWAP2 SWAP1 PUSH4 0xFFFFFFFF AND JUMP JUMPDEST PUSH2 0xAC7 DUP2 PUSH2 0x1660 JUMP JUMPDEST SWAP1 POP PUSH2 0xA81 JUMP JUMPDEST POP PUSH2 0xAD8 DUP2 PUSH2 0xE29 JUMP JUMPDEST PUSH1 0x80 DUP4 ADD MLOAD MLOAD ISZERO PUSH2 0xB9C JUMPI PUSH1 0x0 DUP4 PUSH1 0x20 ADD MLOAD PUSH1 0x2 DUP2 GT ISZERO PUSH2 0xAFB JUMPI PUSH2 0xAFB PUSH2 0x16DD JUMP JUMPDEST SUB PUSH2 0xB19 JUMPI PUSH1 0x40 MLOAD PUSH4 0xA80D31F7 PUSH1 0xE0 SHL DUP2 MSTORE PUSH1 0x4 ADD PUSH1 0x40 MLOAD DUP1 SWAP2 SUB SWAP1 REVERT JUMPDEST PUSH1 0x40 DUP1 MLOAD DUP1 DUP3 ADD SWAP1 SWAP2 MSTORE PUSH1 0xF DUP2 MSTORE PUSH15 0x39B2B1B932BA39A637B1B0BA34B7B7 PUSH1 0x89 SHL PUSH1 0x20 DUP3 ADD MSTORE PUSH2 0xB4A SWAP1 DUP3 SWAP1 PUSH2 0xDAE JUMP JUMPDEST PUSH2 0xB63 DUP4 PUSH1 0x20 ADD MLOAD PUSH1 0x2 DUP2 GT ISZERO PUSH2 0x9C4 JUMPI PUSH2 0x9C4 PUSH2 0x16DD JUMP JUMPDEST PUSH1 0x40 DUP1 MLOAD DUP1 DUP3 ADD SWAP1 SWAP2 MSTORE PUSH1 0x7 DUP2 MSTORE PUSH7 0x73656372657473 PUSH1 0xC8 SHL PUSH1 0x20 DUP3 ADD MSTORE PUSH2 0xB8C SWAP1 DUP3 SWAP1 PUSH2 0xDAE JUMP JUMPDEST PUSH1 0x80 DUP4 ADD MLOAD PUSH2 0xB9C SWAP1 DUP3 SWAP1 PUSH2 0xE47 JUMP JUMPDEST PUSH1 0xC0 DUP4 ADD MLOAD MLOAD ISZERO PUSH2 0xC35 JUMPI PUSH1 0x40 DUP1 MLOAD DUP1 DUP3 ADD SWAP1 SWAP2 MSTORE PUSH1 0x9 DUP2 MSTORE PUSH9 0x627974657341726773 PUSH1 0xB8 SHL PUSH1 0x20 DUP3 ADD MSTORE PUSH2 0xBD2 SWAP1 DUP3 SWAP1 PUSH2 0xDAE JUMP JUMPDEST PUSH2 0xBDB DUP2 PUSH2 0xE05 JUMP JUMPDEST PUSH1 0x0 JUMPDEST DUP4 PUSH1 0xC0 ADD MLOAD MLOAD DUP2 LT ISZERO PUSH2 0xC2B JUMPI PUSH2 0xC1B DUP5 PUSH1 0xC0 ADD MLOAD DUP3 DUP2 MLOAD DUP2 LT PUSH2 0xC04 JUMPI PUSH2 0xC04 PUSH2 0x14F9 JUMP JUMPDEST PUSH1 0x20 MUL PUSH1 0x20 ADD ADD MLOAD DUP4 PUSH2 0xE47 SWAP1 SWAP2 SWAP1 PUSH4 0xFFFFFFFF AND JUMP JUMPDEST PUSH2 0xC24 DUP2 PUSH2 0x1660 JUMP JUMPDEST SWAP1 POP PUSH2 0xBDE JUMP JUMPDEST POP PUSH2 0xC35 DUP2 PUSH2 0xE29 JUMP JUMPDEST MLOAD MLOAD SWAP3 SWAP2 POP POP JUMP JUMPDEST PUSH1 0x0 DUP1 PUSH32 0x0 PUSH1 0x1 PUSH1 0x1 PUSH1 0xA0 SHL SUB AND PUSH4 0x461D2762 DUP7 DUP9 PUSH1 0x1 DUP9 DUP9 PUSH1 0x40 MLOAD DUP7 PUSH4 0xFFFFFFFF AND PUSH1 0xE0 SHL DUP2 MSTORE PUSH1 0x4 ADD PUSH2 0xC95 SWAP6 SWAP5 SWAP4 SWAP3 SWAP2 SWAP1 PUSH2 0x16F3 JUMP JUMPDEST PUSH1 0x20 PUSH1 0x40 MLOAD DUP1 DUP4 SUB DUP2 PUSH1 0x0 DUP8 GAS CALL ISZERO DUP1 ISZERO PUSH2 0xCB4 JUMPI RETURNDATASIZE PUSH1 0x0 DUP1 RETURNDATACOPY RETURNDATASIZE PUSH1 0x0 REVERT JUMPDEST POP POP POP POP PUSH1 0x40 MLOAD RETURNDATASIZE PUSH1 0x1F NOT PUSH1 0x1F DUP3 ADD AND DUP3 ADD DUP1 PUSH1 0x40 MSTORE POP DUP2 ADD SWAP1 PUSH2 0xCD8 SWAP2 SWAP1 PUSH2 0x173C JUMP JUMPDEST PUSH1 0x40 MLOAD SWAP1 SWAP2 POP DUP2 SWAP1 PUSH32 0x1131472297A800FEE664D1D89CFA8F7676FF07189ECC53F80BBB5F4969099DB8 SWAP1 PUSH1 0x0 SWAP1 LOG2 SWAP6 SWAP5 POP POP POP POP POP JUMP JUMPDEST DUP1 MLOAD PUSH1 0x0 SUB PUSH2 0xD31 JUMPI PUSH1 0x40 MLOAD PUSH4 0x22CE3EDD PUSH1 0xE0 SHL DUP2 MSTORE PUSH1 0x4 ADD PUSH1 0x40 MLOAD DUP1 SWAP2 SUB SWAP1 REVERT JUMPDEST DUP4 DUP4 PUSH1 0x2 DUP2 GT ISZERO PUSH2 0xD44 JUMPI PUSH2 0xD44 PUSH2 0x16DD JUMP JUMPDEST SWAP1 DUP2 PUSH1 0x2 DUP2 GT ISZERO PUSH2 0xD57 JUMPI PUSH2 0xD57 PUSH2 0x16DD JUMP JUMPDEST SWAP1 MSTORE POP PUSH1 0x40 DUP5 ADD DUP3 DUP1 ISZERO PUSH2 0xD6D JUMPI PUSH2 0xD6D PUSH2 0x16DD JUMP JUMPDEST SWAP1 DUP2 DUP1 ISZERO PUSH2 0xD7D JUMPI PUSH2 0xD7D PUSH2 0x16DD JUMP JUMPDEST SWAP1 MSTORE POP PUSH1 0x60 SWAP1 SWAP4 ADD SWAP3 SWAP1 SWAP3 MSTORE POP POP JUMP JUMPDEST PUSH2 0xD95 PUSH2 0x1202 JUMP JUMPDEST DUP1 MLOAD PUSH2 0xDA1 SWAP1 DUP4 PUSH2 0xE54 JUMP JUMPDEST POP PUSH1 0x0 PUSH1 0x20 DUP3 ADD MSTORE SWAP2 SWAP1 POP JUMP JUMPDEST PUSH2 0xDBB DUP3 PUSH1 0x3 DUP4 MLOAD PUSH2 0xECE JUMP JUMPDEST DUP2 MLOAD PUSH2 0xDC7 SWAP1 DUP3 PUSH2 0xFED JUMP JUMPDEST POP POP POP JUMP JUMPDEST DUP2 MLOAD PUSH2 0xDD9 SWAP1 PUSH1 0xC2 PUSH2 0x1015 JUMP JUMPDEST POP PUSH2 0x82F DUP3 DUP3 PUSH1 0x40 MLOAD PUSH1 0x20 ADD PUSH2 0xDF1 SWAP2 DUP2 MSTORE PUSH1 0x20 ADD SWAP1 JUMP JUMPDEST PUSH1 0x40 MLOAD PUSH1 0x20 DUP2 DUP4 SUB SUB DUP2 MSTORE SWAP1 PUSH1 0x40 MSTORE PUSH2 0xE47 JUMP JUMPDEST PUSH2 0xE10 DUP2 PUSH1 0x4 PUSH2 0x107E JUMP JUMPDEST PUSH1 0x1 DUP2 PUSH1 0x20 ADD DUP2 DUP2 MLOAD PUSH2 0xE23 SWAP2 SWAP1 PUSH2 0x16CA JUMP JUMPDEST SWAP1 MSTORE POP POP JUMP JUMPDEST PUSH2 0xE34 DUP2 PUSH1 0x7 PUSH2 0x107E JUMP JUMPDEST PUSH1 0x1 DUP2 PUSH1 0x20 ADD DUP2 DUP2 MLOAD PUSH2 0xE23 SWAP2 SWAP1 PUSH2 0x16A3 JUMP JUMPDEST PUSH2 0xDBB DUP3 PUSH1 0x2 DUP4 MLOAD PUSH2 0xECE JUMP JUMPDEST PUSH1 0x40 DUP1 MLOAD DUP1 DUP3 ADD SWAP1 SWAP2 MSTORE PUSH1 0x60 DUP2 MSTORE PUSH1 0x0 PUSH1 0x20 DUP3 ADD MSTORE PUSH2 0xE74 PUSH1 0x20 DUP4 PUSH2 0x16B6 JUMP JUMPDEST ISZERO PUSH2 0xE9C JUMPI PUSH2 0xE84 PUSH1 0x20 DUP4 PUSH2 0x16B6 JUMP JUMPDEST PUSH2 0xE8F SWAP1 PUSH1 0x20 PUSH2 0x16A3 JUMP JUMPDEST PUSH2 0xE99 SWAP1 DUP4 PUSH2 0x16CA JUMP JUMPDEST SWAP2 POP JUMPDEST PUSH1 0x20 DUP1 DUP5 ADD DUP4 SWAP1 MSTORE PUSH1 0x40 MLOAD DUP1 DUP6 MSTORE PUSH1 0x0 DUP2 MSTORE SWAP1 DUP2 DUP5 ADD ADD DUP2 DUP2 LT ISZERO PUSH2 0xEC0 JUMPI PUSH1 0x0 DUP1 REVERT JUMPDEST PUSH1 0x40 MSTORE POP DUP3 SWAP1 POP JUMPDEST SWAP3 SWAP2 POP POP JUMP JUMPDEST PUSH1 0x17 DUP2 PUSH1 0x1 PUSH1 0x1 PUSH1 0x40 SHL SUB AND GT PUSH2 0xEFA JUMPI DUP3 MLOAD PUSH2 0xEF4 SWAP1 PUSH1 0xE0 PUSH1 0x5 DUP6 SWAP1 SHL AND DUP4 OR PUSH2 0x1015 JUMP JUMPDEST POP POP POP POP JUMP JUMPDEST PUSH1 0xFF DUP2 PUSH1 0x1 PUSH1 0x1 PUSH1 0x40 SHL SUB AND GT PUSH2 0xF3A JUMPI DUP3 MLOAD PUSH2 0xF22 SWAP1 PUSH1 0x18 PUSH2 0x1FE0 PUSH1 0x5 DUP7 SWAP1 SHL AND OR PUSH2 0x1015 JUMP JUMPDEST POP DUP3 MLOAD PUSH2 0xEF4 SWAP1 PUSH1 0x1 PUSH1 0x1 PUSH1 0x40 SHL SUB DUP4 AND PUSH1 0x1 PUSH2 0x1095 JUMP JUMPDEST PUSH2 0xFFFF DUP2 PUSH1 0x1 PUSH1 0x1 PUSH1 0x40 SHL SUB AND GT PUSH2 0xF7B JUMPI DUP3 MLOAD PUSH2 0xF63 SWAP1 PUSH1 0x19 PUSH2 0x1FE0 PUSH1 0x5 DUP7 SWAP1 SHL AND OR PUSH2 0x1015 JUMP JUMPDEST POP DUP3 MLOAD PUSH2 0xEF4 SWAP1 PUSH1 0x1 PUSH1 0x1 PUSH1 0x40 SHL SUB DUP4 AND PUSH1 0x2 PUSH2 0x1095 JUMP JUMPDEST PUSH4 0xFFFFFFFF DUP2 PUSH1 0x1 PUSH1 0x1 PUSH1 0x40 SHL SUB AND GT PUSH2 0xFBE JUMPI DUP3 MLOAD PUSH2 0xFA6 SWAP1 PUSH1 0x1A PUSH2 0x1FE0 PUSH1 0x5 DUP7 SWAP1 SHL AND OR PUSH2 0x1015 JUMP JUMPDEST POP DUP3 MLOAD PUSH2 0xEF4 SWAP1 PUSH1 0x1 PUSH1 0x1 PUSH1 0x40 SHL SUB DUP4 AND PUSH1 0x4 PUSH2 0x1095 JUMP JUMPDEST DUP3 MLOAD PUSH2 0xFD5 SWAP1 PUSH1 0x1B PUSH2 0x1FE0 PUSH1 0x5 DUP7 SWAP1 SHL AND OR PUSH2 0x1015 JUMP JUMPDEST POP DUP3 MLOAD PUSH2 0xEF4 SWAP1 PUSH1 0x1 PUSH1 0x1 PUSH1 0x40 SHL SUB DUP4 AND PUSH1 0x8 PUSH2 0x1095 JUMP JUMPDEST PUSH1 0x40 DUP1 MLOAD DUP1 DUP3 ADD SWAP1 SWAP2 MSTORE PUSH1 0x60 DUP2 MSTORE PUSH1 0x0 PUSH1 0x20 DUP3 ADD MSTORE PUSH2 0x100E DUP4 DUP4 DUP5 MLOAD PUSH2 0x111A JUMP JUMPDEST SWAP4 SWAP3 POP POP POP JUMP JUMPDEST PUSH1 0x40 DUP1 MLOAD DUP1 DUP3 ADD SWAP1 SWAP2 MSTORE PUSH1 0x60 DUP2 MSTORE PUSH1 0x0 PUSH1 0x20 DUP3 ADD MSTORE DUP3 MLOAD MLOAD PUSH1 0x0 PUSH2 0x103A DUP3 PUSH1 0x1 PUSH2 0x16CA JUMP JUMPDEST SWAP1 POP DUP5 PUSH1 0x20 ADD MLOAD DUP3 LT PUSH2 0x105B JUMPI PUSH2 0x105B DUP6 PUSH2 0x1056 DUP4 PUSH1 0x2 PUSH2 0x1755 JUMP JUMPDEST PUSH2 0x11EB JUMP JUMPDEST DUP5 MLOAD PUSH1 0x20 DUP4 DUP3 ADD ADD DUP6 DUP2 MSTORE8 POP DUP1 MLOAD DUP3 GT ISZERO PUSH2 0x1074 JUMPI DUP2 DUP2 MSTORE JUMPDEST POP SWAP4 SWAP5 SWAP4 POP POP POP POP JUMP JUMPDEST DUP2 MLOAD PUSH2 0xDC7 SWAP1 PUSH1 0x1F PUSH2 0x1FE0 PUSH1 0x5 DUP6 SWAP1 SHL AND OR PUSH2 0x1015 JUMP JUMPDEST PUSH1 0x40 DUP1 MLOAD DUP1 DUP3 ADD SWAP1 SWAP2 MSTORE PUSH1 0x60 DUP2 MSTORE PUSH1 0x0 PUSH1 0x20 DUP3 ADD MSTORE DUP4 MLOAD MLOAD PUSH1 0x0 PUSH2 0x10B9 DUP3 DUP6 PUSH2 0x16CA JUMP JUMPDEST SWAP1 POP DUP6 PUSH1 0x20 ADD MLOAD DUP2 GT ISZERO PUSH2 0x10D6 JUMPI PUSH2 0x10D6 DUP7 PUSH2 0x1056 DUP4 PUSH1 0x2 PUSH2 0x1755 JUMP JUMPDEST PUSH1 0x0 PUSH1 0x1 PUSH2 0x10E6 DUP7 PUSH2 0x100 PUSH2 0x1850 JUMP JUMPDEST PUSH2 0x10F0 SWAP2 SWAP1 PUSH2 0x16A3 JUMP JUMPDEST SWAP1 POP DUP7 MLOAD DUP3 DUP2 ADD DUP8 DUP4 NOT DUP3 MLOAD AND OR DUP2 MSTORE POP DUP1 MLOAD DUP4 GT ISZERO PUSH2 0x110E JUMPI DUP3 DUP2 MSTORE JUMPDEST POP SWAP6 SWAP7 SWAP6 POP POP POP POP POP POP JUMP JUMPDEST PUSH1 0x40 DUP1 MLOAD DUP1 DUP3 ADD SWAP1 SWAP2 MSTORE PUSH1 0x60 DUP2 MSTORE PUSH1 0x0 PUSH1 0x20 DUP3 ADD MSTORE DUP3 MLOAD DUP3 GT ISZERO PUSH2 0x113D JUMPI PUSH1 0x0 DUP1 REVERT JUMPDEST DUP4 MLOAD MLOAD PUSH1 0x0 PUSH2 0x114C DUP5 DUP4 PUSH2 0x16CA JUMP JUMPDEST SWAP1 POP DUP6 PUSH1 0x20 ADD MLOAD DUP2 GT ISZERO PUSH2 0x1169 JUMPI PUSH2 0x1169 DUP7 PUSH2 0x1056 DUP4 PUSH1 0x2 PUSH2 0x1755 JUMP JUMPDEST DUP6 MLOAD DUP1 MLOAD DUP4 DUP3 ADD PUSH1 0x20 ADD SWAP2 PUSH1 0x0 SWAP2 DUP1 DUP6 GT ISZERO PUSH2 0x1183 JUMPI DUP5 DUP3 MSTORE JUMPDEST POP POP POP PUSH1 0x20 DUP7 ADD JUMPDEST PUSH1 0x20 DUP7 LT PUSH2 0x11C3 JUMPI DUP1 MLOAD DUP3 MSTORE PUSH2 0x11A2 PUSH1 0x20 DUP4 PUSH2 0x16CA JUMP JUMPDEST SWAP2 POP PUSH2 0x11AF PUSH1 0x20 DUP3 PUSH2 0x16CA JUMP JUMPDEST SWAP1 POP PUSH2 0x11BC PUSH1 0x20 DUP8 PUSH2 0x16A3 JUMP JUMPDEST SWAP6 POP PUSH2 0x118B JUMP JUMPDEST MLOAD DUP2 MLOAD PUSH1 0x0 NOT PUSH1 0x20 DUP9 SWAP1 SUB PUSH2 0x100 EXP ADD SWAP1 DUP2 AND SWAP1 NOT SWAP2 SWAP1 SWAP2 AND OR SWAP1 MSTORE POP DUP5 SWAP2 POP POP SWAP4 SWAP3 POP POP POP JUMP JUMPDEST DUP2 MLOAD PUSH2 0x11F7 DUP4 DUP4 PUSH2 0xE54 JUMP JUMPDEST POP PUSH2 0xEF4 DUP4 DUP3 PUSH2 0xFED JUMP JUMPDEST PUSH1 0x40 MLOAD DUP1 PUSH1 0x40 ADD PUSH1 0x40 MSTORE DUP1 PUSH2 0x122A PUSH1 0x40 MLOAD DUP1 PUSH1 0x40 ADD PUSH1 0x40 MSTORE DUP1 PUSH1 0x60 DUP2 MSTORE PUSH1 0x20 ADD PUSH1 0x0 DUP2 MSTORE POP SWAP1 JUMP JUMPDEST DUP2 MSTORE PUSH1 0x20 ADD PUSH1 0x0 DUP2 MSTORE POP SWAP1 JUMP JUMPDEST PUSH4 0x4E487B71 PUSH1 0xE0 SHL PUSH1 0x0 MSTORE PUSH1 0x41 PUSH1 0x4 MSTORE PUSH1 0x24 PUSH1 0x0 REVERT JUMPDEST PUSH1 0x0 DUP3 PUSH1 0x1F DUP4 ADD SLT PUSH2 0x125E JUMPI PUSH1 0x0 DUP1 REVERT JUMPDEST DUP2 CALLDATALOAD PUSH1 0x1 PUSH1 0x1 PUSH1 0x40 SHL SUB DUP1 DUP3 GT ISZERO PUSH2 0x1278 JUMPI PUSH2 0x1278 PUSH2 0x1237 JUMP JUMPDEST PUSH1 0x40 MLOAD PUSH1 0x1F DUP4 ADD PUSH1 0x1F NOT SWAP1 DUP2 AND PUSH1 0x3F ADD AND DUP2 ADD SWAP1 DUP3 DUP3 GT DUP2 DUP4 LT OR ISZERO PUSH2 0x12A0 JUMPI PUSH2 0x12A0 PUSH2 0x1237 JUMP JUMPDEST DUP2 PUSH1 0x40 MSTORE DUP4 DUP2 MSTORE DUP7 PUSH1 0x20 DUP6 DUP9 ADD ADD GT ISZERO PUSH2 0x12B9 JUMPI PUSH1 0x0 DUP1 REVERT JUMPDEST DUP4 PUSH1 0x20 DUP8 ADD PUSH1 0x20 DUP4 ADD CALLDATACOPY PUSH1 0x0 PUSH1 0x20 DUP6 DUP4 ADD ADD MSTORE DUP1 SWAP5 POP POP POP POP POP SWAP3 SWAP2 POP POP JUMP JUMPDEST PUSH1 0x0 DUP1 PUSH1 0x0 PUSH1 0x60 DUP5 DUP7 SUB SLT ISZERO PUSH2 0x12EE JUMPI PUSH1 0x0 DUP1 REVERT JUMPDEST DUP4 CALLDATALOAD SWAP3 POP PUSH1 0x20 DUP5 ADD CALLDATALOAD PUSH1 0x1 PUSH1 0x1 PUSH1 0x40 SHL SUB DUP1 DUP3 GT ISZERO PUSH2 0x130C JUMPI PUSH1 0x0 DUP1 REVERT JUMPDEST PUSH2 0x1318 DUP8 DUP4 DUP9 ADD PUSH2 0x124D JUMP JUMPDEST SWAP4 POP PUSH1 0x40 DUP7 ADD CALLDATALOAD SWAP2 POP DUP1 DUP3 GT ISZERO PUSH2 0x132E JUMPI PUSH1 0x0 DUP1 REVERT JUMPDEST POP PUSH2 0x133B DUP7 DUP3 DUP8 ADD PUSH2 0x124D JUMP JUMPDEST SWAP2 POP POP SWAP3 POP SWAP3 POP SWAP3 JUMP JUMPDEST PUSH1 0x0 PUSH1 0x20 DUP3 DUP5 SUB SLT ISZERO PUSH2 0x1357 JUMPI PUSH1 0x0 DUP1 REVERT JUMPDEST POP CALLDATALOAD SWAP2 SWAP1 POP JUMP JUMPDEST PUSH1 0x0 DUP2 MLOAD DUP1 DUP5 MSTORE PUSH1 0x0 JUMPDEST DUP2 DUP2 LT ISZERO PUSH2 0x1384 JUMPI PUSH1 0x20 DUP2 DUP6 ADD DUP2 ADD MLOAD DUP7 DUP4 ADD DUP3 ADD MSTORE ADD PUSH2 0x1368 JUMP JUMPDEST POP PUSH1 0x0 PUSH1 0x20 DUP3 DUP7 ADD ADD MSTORE PUSH1 0x20 PUSH1 0x1F NOT PUSH1 0x1F DUP4 ADD AND DUP6 ADD ADD SWAP2 POP POP SWAP3 SWAP2 POP POP JUMP JUMPDEST PUSH1 0x20 DUP2 MSTORE PUSH1 0x0 PUSH2 0x100E PUSH1 0x20 DUP4 ADD DUP5 PUSH2 0x135E JUMP JUMPDEST PUSH1 0x1 PUSH1 0x1 PUSH1 0xA0 SHL SUB DUP2 AND DUP2 EQ PUSH2 0x13CC JUMPI PUSH1 0x0 DUP1 REVERT JUMPDEST POP JUMP JUMPDEST PUSH1 0x0 DUP1 DUP4 PUSH1 0x1F DUP5 ADD SLT PUSH2 0x13E1 JUMPI PUSH1 0x0 DUP1 REVERT JUMPDEST POP DUP2 CALLDATALOAD PUSH1 0x1 PUSH1 0x1 PUSH1 0x40 SHL SUB DUP2 GT ISZERO PUSH2 0x13F8 JUMPI PUSH1 0x0 DUP1 REVERT JUMPDEST PUSH1 0x20 DUP4 ADD SWAP2 POP DUP4 PUSH1 0x20 DUP3 DUP6 ADD ADD GT ISZERO PUSH2 0x1410 JUMPI PUSH1 0x0 DUP1 REVERT JUMPDEST SWAP3 POP SWAP3 SWAP1 POP JUMP JUMPDEST PUSH1 0x0 DUP1 PUSH1 0x0 DUP1 PUSH1 0x0 DUP1 PUSH1 0x80 DUP8 DUP10 SUB SLT ISZERO PUSH2 0x1430 JUMPI PUSH1 0x0 DUP1 REVERT JUMPDEST DUP7 CALLDATALOAD PUSH2 0x143B DUP2 PUSH2 0x13B7 JUMP JUMPDEST SWAP6 POP PUSH1 0x20 DUP8 ADD CALLDATALOAD SWAP5 POP PUSH1 0x40 DUP8 ADD CALLDATALOAD PUSH1 0x1 PUSH1 0x1 PUSH1 0x40 SHL SUB DUP1 DUP3 GT ISZERO PUSH2 0x145E JUMPI PUSH1 0x0 DUP1 REVERT JUMPDEST PUSH2 0x146A DUP11 DUP4 DUP12 ADD PUSH2 0x13CF JUMP JUMPDEST SWAP1 SWAP7 POP SWAP5 POP PUSH1 0x60 DUP10 ADD CALLDATALOAD SWAP2 POP DUP1 DUP3 GT ISZERO PUSH2 0x1483 JUMPI PUSH1 0x0 DUP1 REVERT JUMPDEST POP PUSH2 0x1490 DUP10 DUP3 DUP11 ADD PUSH2 0x13CF JUMP JUMPDEST SWAP8 SWAP11 SWAP7 SWAP10 POP SWAP5 SWAP8 POP SWAP3 SWAP6 SWAP4 SWAP5 SWAP3 POP POP POP JUMP JUMPDEST PUSH1 0x1 DUP2 DUP2 SHR SWAP1 DUP3 AND DUP1 PUSH2 0x14B6 JUMPI PUSH1 0x7F DUP3 AND SWAP2 POP JUMPDEST PUSH1 0x20 DUP3 LT DUP2 SUB PUSH2 0x14D6 JUMPI PUSH4 0x4E487B71 PUSH1 0xE0 SHL PUSH1 0x0 MSTORE PUSH1 0x22 PUSH1 0x4 MSTORE PUSH1 0x24 PUSH1 0x0 REVERT JUMPDEST POP SWAP2 SWAP1 POP JUMP JUMPDEST PUSH1 0x0 PUSH1 0x20 DUP3 DUP5 SUB SLT ISZERO PUSH2 0x14EE JUMPI PUSH1 0x0 DUP1 REVERT JUMPDEST DUP2 MLOAD PUSH2 0x100E DUP2 PUSH2 0x13B7 JUMP JUMPDEST PUSH4 0x4E487B71 PUSH1 0xE0 SHL PUSH1 0x0 MSTORE PUSH1 0x32 PUSH1 0x4 MSTORE PUSH1 0x24 PUSH1 0x0 REVERT JUMPDEST PUSH1 0x1F DUP3 GT ISZERO PUSH2 0xDC7 JUMPI PUSH1 0x0 DUP2 DUP2 MSTORE PUSH1 0x20 DUP2 KECCAK256 PUSH1 0x1F DUP6 ADD PUSH1 0x5 SHR DUP2 ADD PUSH1 0x20 DUP7 LT ISZERO PUSH2 0x1536 JUMPI POP DUP1 JUMPDEST PUSH1 0x1F DUP6 ADD PUSH1 0x5 SHR DUP3 ADD SWAP2 POP JUMPDEST DUP2 DUP2 LT ISZERO PUSH2 0x1555 JUMPI DUP3 DUP2 SSTORE PUSH1 0x1 ADD PUSH2 0x1542 JUMP JUMPDEST POP POP POP POP POP POP JUMP JUMPDEST DUP2 MLOAD PUSH1 0x1 PUSH1 0x1 PUSH1 0x40 SHL SUB DUP2 GT ISZERO PUSH2 0x1576 JUMPI PUSH2 0x1576 PUSH2 0x1237 JUMP JUMPDEST PUSH2 0x158A DUP2 PUSH2 0x1584 DUP5 SLOAD PUSH2 0x14A2 JUMP JUMPDEST DUP5 PUSH2 0x150F JUMP JUMPDEST PUSH1 0x20 DUP1 PUSH1 0x1F DUP4 GT PUSH1 0x1 DUP2 EQ PUSH2 0x15BF JUMPI PUSH1 0x0 DUP5 ISZERO PUSH2 0x15A7 JUMPI POP DUP6 DUP4 ADD MLOAD JUMPDEST PUSH1 0x0 NOT PUSH1 0x3 DUP7 SWAP1 SHL SHR NOT AND PUSH1 0x1 DUP6 SWAP1 SHL OR DUP6 SSTORE PUSH2 0x1555 JUMP JUMPDEST PUSH1 0x0 DUP6 DUP2 MSTORE PUSH1 0x20 DUP2 KECCAK256 PUSH1 0x1F NOT DUP7 AND SWAP2 JUMPDEST DUP3 DUP2 LT ISZERO PUSH2 0x15EE JUMPI DUP9 DUP7 ADD MLOAD DUP3 SSTORE SWAP5 DUP5 ADD SWAP5 PUSH1 0x1 SWAP1 SWAP2 ADD SWAP1 DUP5 ADD PUSH2 0x15CF JUMP JUMPDEST POP DUP6 DUP3 LT ISZERO PUSH2 0x160C JUMPI DUP8 DUP6 ADD MLOAD PUSH1 0x0 NOT PUSH1 0x3 DUP9 SWAP1 SHL PUSH1 0xF8 AND SHR NOT AND DUP2 SSTORE JUMPDEST POP POP POP POP POP PUSH1 0x1 SWAP1 DUP2 SHL ADD SWAP1 SSTORE POP JUMP JUMPDEST PUSH1 0x40 DUP2 MSTORE PUSH1 0x0 PUSH2 0x162F PUSH1 0x40 DUP4 ADD DUP6 PUSH2 0x135E JUMP JUMPDEST DUP3 DUP2 SUB PUSH1 0x20 DUP5 ADD MSTORE PUSH2 0x1641 DUP2 DUP6 PUSH2 0x135E JUMP JUMPDEST SWAP6 SWAP5 POP POP POP POP POP JUMP JUMPDEST PUSH4 0x4E487B71 PUSH1 0xE0 SHL PUSH1 0x0 MSTORE PUSH1 0x11 PUSH1 0x4 MSTORE PUSH1 0x24 PUSH1 0x0 REVERT JUMPDEST PUSH1 0x0 PUSH1 0x1 DUP3 ADD PUSH2 0x1672 JUMPI PUSH2 0x1672 PUSH2 0x164A JUMP JUMPDEST POP PUSH1 0x1 ADD SWAP1 JUMP JUMPDEST PUSH4 0x4E487B71 PUSH1 0xE0 SHL PUSH1 0x0 MSTORE PUSH1 0x12 PUSH1 0x4 MSTORE PUSH1 0x24 PUSH1 0x0 REVERT JUMPDEST PUSH1 0x0 DUP3 PUSH2 0x169E JUMPI PUSH2 0x169E PUSH2 0x1679 JUMP JUMPDEST POP DIV SWAP1 JUMP JUMPDEST DUP2 DUP2 SUB DUP2 DUP2 GT ISZERO PUSH2 0xEC8 JUMPI PUSH2 0xEC8 PUSH2 0x164A JUMP JUMPDEST PUSH1 0x0 DUP3 PUSH2 0x16C5 JUMPI PUSH2 0x16C5 PUSH2 0x1679 JUMP JUMPDEST POP MOD SWAP1 JUMP JUMPDEST DUP1 DUP3 ADD DUP1 DUP3 GT ISZERO PUSH2 0xEC8 JUMPI PUSH2 0xEC8 PUSH2 0x164A JUMP JUMPDEST PUSH4 0x4E487B71 PUSH1 0xE0 SHL PUSH1 0x0 MSTORE PUSH1 0x21 PUSH1 0x4 MSTORE PUSH1 0x24 PUSH1 0x0 REVERT JUMPDEST PUSH1 0x1 PUSH1 0x1 PUSH1 0x40 SHL SUB DUP7 AND DUP2 MSTORE PUSH1 0xA0 PUSH1 0x20 DUP3 ADD MSTORE PUSH1 0x0 PUSH2 0x1715 PUSH1 0xA0 DUP4 ADD DUP8 PUSH2 0x135E JUMP JUMPDEST PUSH2 0xFFFF SWAP6 SWAP1 SWAP6 AND PUSH1 0x40 DUP4 ADD MSTORE POP PUSH4 0xFFFFFFFF SWAP3 SWAP1 SWAP3 AND PUSH1 0x60 DUP4 ADD MSTORE PUSH1 0x80 SWAP1 SWAP2 ADD MSTORE SWAP3 SWAP2 POP POP JUMP JUMPDEST PUSH1 0x0 PUSH1 0x20 DUP3 DUP5 SUB SLT ISZERO PUSH2 0x174E JUMPI PUSH1 0x0 DUP1 REVERT JUMPDEST POP MLOAD SWAP2 SWAP1 POP JUMP JUMPDEST DUP1 DUP3 MUL DUP2 ISZERO DUP3 DUP3 DIV DUP5 EQ OR PUSH2 0xEC8 JUMPI PUSH2 0xEC8 PUSH2 0x164A JUMP JUMPDEST PUSH1 0x1 DUP2 DUP2 JUMPDEST DUP1 DUP6 GT ISZERO PUSH2 0x17A7 JUMPI DUP2 PUSH1 0x0 NOT DIV DUP3 GT ISZERO PUSH2 0x178D JUMPI PUSH2 0x178D PUSH2 0x164A JUMP JUMPDEST DUP1 DUP6 AND ISZERO PUSH2 0x179A JUMPI SWAP2 DUP2 MUL SWAP2 JUMPDEST SWAP4 DUP5 SHR SWAP4 SWAP1 DUP1 MUL SWAP1 PUSH2 0x1771 JUMP JUMPDEST POP SWAP3 POP SWAP3 SWAP1 POP JUMP JUMPDEST PUSH1 0x0 DUP3 PUSH2 0x17BE JUMPI POP PUSH1 0x1 PUSH2 0xEC8 JUMP JUMPDEST DUP2 PUSH2 0x17CB JUMPI POP PUSH1 0x0 PUSH2 0xEC8 JUMP JUMPDEST DUP2 PUSH1 0x1 DUP2 EQ PUSH2 0x17E1 JUMPI PUSH1 0x2 DUP2 EQ PUSH2 0x17EB JUMPI PUSH2 0x1807 JUMP JUMPDEST PUSH1 0x1 SWAP2 POP POP PUSH2 0xEC8 JUMP JUMPDEST PUSH1 0xFF DUP5 GT ISZERO PUSH2 0x17FC JUMPI PUSH2 0x17FC PUSH2 0x164A JUMP JUMPDEST POP POP PUSH1 0x1 DUP3 SHL PUSH2 0xEC8 JUMP JUMPDEST POP PUSH1 0x20 DUP4 LT PUSH2 0x133 DUP4 LT AND PUSH1 0x4E DUP5 LT PUSH1 0xB DUP5 LT AND OR ISZERO PUSH2 0x182A JUMPI POP DUP2 DUP2 EXP PUSH2 0xEC8 JUMP JUMPDEST PUSH2 0x1834 DUP4 DUP4 PUSH2 0x176C JUMP JUMPDEST DUP1 PUSH1 0x0 NOT DIV DUP3 GT ISZERO PUSH2 0x1848 JUMPI PUSH2 0x1848 PUSH2 0x164A JUMP JUMPDEST MUL SWAP4 SWAP3 POP POP POP JUMP JUMPDEST PUSH1 0x0 PUSH2 0x100E DUP4 DUP4 PUSH2 0x17AF JUMP INVALID PUSH4 0x6F6E7374 KECCAK256 PUSH17 0x726F636F726550726F6A6563744964203D KECCAK256 PUSH2 0x7267 PUSH20 0x5B305D3B636F6E7374206D696C6573746F6E6549 PUSH15 0x646578203D20617267735B315D3B63 PUSH16 0x6E73742070726F6F6648617368203D20 PUSH2 0x7267 PUSH20 0x5B325D3B636F6E737420726573203D2061776169 PUSH21 0x2046756E6374696F6E732E6D616B65487474705265 PUSH18 0x75657374287B202075726C3A202768747470 PUSH20 0x3A2F2F6275696C646C696E6B2D66726F6E74656E PUSH5 0x2E76657263 PUSH6 0x6C2E6170702F PUSH2 0x7069 0x2F PUSH17 0x726F636F72652F776562686F6F6B272C20 KECCAK256 PUSH14 0x6574686F643A2027504F5354272C KECCAK256 KECCAK256 PUSH9 0x6561646572733A207B KECCAK256 0x27 NUMBER PUSH16 0x6E74656E742D54797065273A20276170 PUSH17 0x6C69636174696F6E2F6A736F6E27207D2C KECCAK256 KECCAK256 PUSH5 0x6174613A20 PUSH28 0x2070726F636F726550726F6A65637449643A2070726F636F72655072 PUSH16 0x6A65637449642C206D696C6573746F6E PUSH6 0x496E6465783A KECCAK256 PUSH17 0x61727365496E74286D696C6573746F6E65 0x49 PUSH15 0x646578292C2070726F6F6648617368 GASPRICE KECCAK256 PUSH17 0x726F6F6648617368207D7D293B69662028 PUSH19 0x65732E6572726F7229207468726F7720457272 PUSH16 0x722827576562686F6F6B207265717565 PUSH20 0x74206661696C65643A2027202B207265732E6D65 PUSH20 0x73616765293B636F6E737420737461747573203D KECCAK256 PUSH19 0x65732E64617461202626207265732E64617461 0x2E PUSH20 0x7461747573203F207265732E646174612E737461 PUSH21 0x7573203A202772656A6563746564273B7265747572 PUSH15 0x2046756E6374696F6E732E656E636F PUSH5 0x6553747269 PUSH15 0x6728737461747573203D3D3D202761 PUSH17 0x70726F76656427203F2027617070726F76 PUSH6 0x6427203A2027 PUSH19 0x656A656374656427293BA26469706673582212 KECCAK256 PUSH21 0xE042AD3ECF7DA488DFFE7E96D07DA847FAAECD6445 PUSH19 0x69B12FAE4F1D99D4A264736F6C634300081400 CALLER "},"methodIdentifiers":{"CALLBACK_GAS_LIMIT()":"33d608f1","DON_ID()":"0cde9f3c","SUBSCRIPTION_ID()":"030932bb","admin()":"f851a440","handleOracleFulfillment(bytes32,bytes,bytes)":"0ca76175","latestError()":"fffeb84e","latestRequestId()":"1aa46f59","latestResponse()":"bef3a2f0","pendingRequests(bytes32)":"2795ad20","sendRequest(address,uint256,string,string)":"de20060d"}}}}}