{"contracts/BuildLinkFunctionsConsumer.sol":{"BuildLinkFunctionsConsumer":{"abi":[{"inputs":[{"internalType":"address","name":"_admin","type":"address"}],"stateMutability":"nonpayable","type":"constructor"},{"inputs":[],"name":"EmptyArgs","type":"error"},{"inputs":[],"name":"EmptySource","type":"error"},{"inputs":[],"name":"NoInlineSecrets","type":"error"},{"inputs":[],"name":"OnlyAdmin","type":"error"},{"inputs":[],"name":"OnlyRouterCanFulfill","type":"error"},{"anonymous":false,"inputs":[{"indexed":true,"internalType":"address","name":"vault","type":"address"},{"indexed":true,"internalType":"uint256","name":"milestoneIndex","type":"uint256"}],"name":"ApprovalFailed","type":"event"},{"anonymous":false,"inputs":[{"indexed":true,"internalType":"address","name":"vault","type":"address"},{"indexed":true,"internalType":"uint256","name":"milestoneIndex","type":"uint256"}],"name":"MilestoneVerified","type":"event"},{"anonymous":false,"inputs":[{"indexed":true,"internalType":"bytes32","name":"requestId","type":"bytes32"},{"indexed":false,"internalType":"bytes","name":"response","type":"bytes"},{"indexed":false,"internalType":"bytes","name":"err","type":"bytes"}],"name":"OracleResponse","type":"event"},{"anonymous":false,"inputs":[{"indexed":true,"internalType":"bytes32","name":"id","type":"bytes32"}],"name":"RequestFulfilled","type":"event"},{"anonymous":false,"inputs":[{"indexed":true,"internalType":"bytes32","name":"id","type":"bytes32"}],"name":"RequestSent","type":"event"},{"inputs":[],"name":"CALLBACK_GAS_LIMIT","outputs":[{"internalType":"uint32","name":"","type":"uint32"}],"stateMutability":"view","type":"function"},{"inputs":[],"name":"DON_ID","outputs":[{"internalType":"bytes32","name":"","type":"bytes32"}],"stateMutability":"view","type":"function"},{"inputs":[],"name":"SUBSCRIPTION_ID","outputs":[{"internalType":"uint64","name":"","type":"uint64"}],"stateMutability":"view","type":"function"},{"inputs":[],"name":"admin","outputs":[{"internalType":"address","name":"","type":"address"}],"stateMutability":"view","type":"function"},{"inputs":[{"internalType":"bytes32","name":"requestId","type":"bytes32"},{"internalType":"bytes","name":"response","type":"bytes"},{"internalType":"bytes","name":"err","type":"bytes"}],"name":"handleOracleFulfillment","outputs":[],"stateMutability":"nonpayable","type":"function"},{"inputs":[],"name":"latestError","outputs":[{"internalType":"bytes","name":"","type":"bytes"}],"stateMutability":"view","type":"function"},{"inputs":[],"name":"latestRequestId","outputs":[{"internalType":"bytes32","name":"","type":"bytes32"}],"stateMutability":"view","type":"function"},{"inputs":[],"name":"latestResponse","outputs":[{"internalType":"bytes","name":"","type":"bytes"}],"stateMutability":"view","type":"function"},{"inputs":[{"internalType":"bytes32","name":"","type":"bytes32"}],"name":"pendingRequests","outputs":[{"internalType":"address","name":"vault","type":"address"},{"internalType":"uint256","name":"milestoneIndex","type":"uint256"}],"stateMutability":"view","type":"function"},{"inputs":[{"internalType":"address","name":"vaultAddress","type":"address"},{"internalType":"uint256","name":"milestoneIndex","type":"uint256"},{"internalType":"string","name":"procoreProjectId","type":"string"}],"name":"sendRequest","outputs":[{"internalType":"bytes32","name":"requestId","type":"bytes32"}],"stateMutability":"nonpayable","type":"function"}],"evm":{"bytecode":{"linkReferences":{},"object":"60c060405234801561001057600080fd5b50604051611a58380380611a5883398101604081905261002f916100a2565b73f9b8fc078197181c841c296c876945aaa425b2786080526001600160a01b0381166100915760405162461bcd60e51b815260206004820152600d60248201526c24b73b30b634b21030b236b4b760991b604482015260640160405180910390fd5b6001600160a01b031660a0526100d2565b6000602082840312156100b457600080fd5b81516001600160a01b03811681146100cb57600080fd5b9392505050565b60805160a051611953610105600039600081816101ae01526102810152600081816101fb0152610b4b01526119536000f3fe608060405234801561001057600080fd5b506004361061009e5760003560e01c80632795ad20116100665780632795ad201461012357806333d608f114610175578063bef3a2f014610194578063f851a440146101a9578063fffeb84e146101e857600080fd5b8063030932bb146100a35780630ca76175146100c85780630cde9f3c146100dd5780631aa46f59146101075780631b1f5c2414610110575b600080fd5b6100ab608f81565b6040516001600160401b0390911681526020015b60405180910390f35b6100db6100d63660046111e2565b6101f0565b005b6100f97166756e2d626173652d6d61696e6e65742d3160701b81565b6040519081526020016100bf565b6100f960015481565b6100f961011e36600461124e565b610274565b6101566101313660046112e2565b600060208190529081526040902080546001909101546001600160a01b039091169082565b604080516001600160a01b0390931683526020830191909152016100bf565b61017f620493e081565b60405163ffffffff90911681526020016100bf565b61019c6104a8565b6040516100bf9190611341565b6101d07f000000000000000000000000000000000000000000000000000000000000000081565b6040516001600160a01b0390911681526020016100bf565b61019c610536565b336001600160a01b037f000000000000000000000000000000000000000000000000000000000000000016146102395760405163c6829f8360e01b815260040160405180910390fd5b610244838383610543565b60405183907f85e1543bf2f84fe80c6badbce3648c8539ad1df4d2b3d822938ca0538be727e690600090a2505050565b6000336001600160a01b037f000000000000000000000000000000000000000000000000000000000000000016146102bf57604051634755657960e01b815260040160405180910390fd5b6001600160a01b0385166103095760405162461bcd60e51b815260206004820152600d60248201526c125b9d985b1a59081d985d5b1d609a1b604482015260640160405180910390fd5b61034a6040805160e0810190915280600081526020016000815260200160008152602001606081526020016060815260200160608152602001606081525090565b61037060405180610260016040528061022c81526020016116f261022c9139829061072b565b60408051600280825260608201909252600091816020015b606081526020019060019003908161038857905050905084848080601f01602080910402602001604051908101604052809392919081815260200183838082843760009201829052508551869450909250151590506103e9576103e9611354565b60200260200101819052506103fd8661073c565b8160018151811061041057610410611354565b60209081029190910101526104258282610844565b6104526104318361086e565b608f620493e07166756e2d626173652d6d61696e6e65742d3160701b610b46565b6040805180820182526001600160a01b03998a1681526020808201998a5260008481529081905291909120905181546001600160a01b031916991698909817885595516001978801555050509282905550919050565b600280546104b59061136a565b80601f01602080910402602001604051908101604052809291908181526020018280546104e19061136a565b801561052e5780601f106105035761010080835404028352916020019161052e565b820191906000526020600020905b81548152906001019060200180831161051157829003601f168201915b505050505081565b600380546104b59061136a565b600261054f83826113f2565b50600361055c82826113f2565b50827fa676854a79f96561744d5f417f3f050b4e3590ddc0f25140205c77f69d1daee9838360405161058f9291906114b1565b60405180910390a280511580156105ea5750604080518082019091526008815267185c1c1c9bdd995960c21b6020918201528251908301207f2b29265fc125740ae6bbc5035ae7af720b6932f4a3e44ba5ac02955c21ca9a05145b156107075760008381526020818152604091829020825180840190935280546001600160a01b0316808452600190910154918301919091521561070557602081015181516040516001600160a01b03909116907f4633ed43e960eab00c94e71920ad1775bd86ec373f63649db940d18a424de79690600090a38051602082015160405163c438b40f60e01b81526001600160a01b039092169163c438b40f916106999160040190815260200190565b600060405180830381600087803b1580156106b357600080fd5b505af19250505080156106c4575060015b61070557602081015181516040516001600160a01b03909116907f8bcfaecc80bd05f8635fa1b1446e0f622abffe311dabb5b372ee72876d2c8cd290600090a35b505b5050600090815260208190526040812080546001600160a01b031916815560010155565b6107388260008084610c18565b5050565b6060816000036107635750506040805180820190915260018152600360fc1b602082015290565b8160005b811561078d5780610777816114f5565b91506107869050600a83611524565b9150610767565b6000816001600160401b038111156107a7576107a7611140565b6040519080825280601f01601f1916602001820160405280156107d1576020820181803683370190505b5090505b841561083c576107e6600183611538565b91506107f3600a8661154b565b6107fe90603061155f565b60f81b81838151811061081357610813611354565b60200101906001600160f81b031916908160001a905350610835600a86611524565b94506107d5565b949350505050565b80516000036108665760405163fe936cb760e01b815260040160405180910390fd5b60a090910152565b6060600061087d610100610c96565b90506108b66040518060400160405280600c81526020016b31b7b232a637b1b0ba34b7b760a11b81525082610cb790919063ffffffff16565b82516108d49060028111156108cd576108cd611572565b8290610cd5565b6040805180820190915260088152676c616e677561676560c01b60208201526108fe908290610cb7565b60408301516109159080156108cd576108cd611572565b604080518082019091526006815265736f7572636560d01b602082015261093d908290610cb7565b606083015161094d908290610cb7565b60a083015151156109e1576040805180820190915260048152636172677360e01b602082015261097e908290610cb7565b61098781610d0e565b60005b8360a00151518110156109d7576109c78460a0015182815181106109b0576109b0611354565b602002602001015183610cb790919063ffffffff16565b6109d0816114f5565b905061098a565b506109e181610d32565b60808301515115610aa557600083602001516002811115610a0457610a04611572565b03610a225760405163a80d31f760e01b815260040160405180910390fd5b60408051808201909152600f81526e39b2b1b932ba39a637b1b0ba34b7b760891b6020820152610a53908290610cb7565b610a6c836020015160028111156108cd576108cd611572565b6040805180820190915260078152667365637265747360c81b6020820152610a95908290610cb7565b6080830151610aa5908290610d50565b60c08301515115610b3e5760408051808201909152600981526862797465734172677360b81b6020820152610adb908290610cb7565b610ae481610d0e565b60005b8360c0015151811015610b3457610b248460c001518281518110610b0d57610b0d611354565b602002602001015183610d5090919063ffffffff16565b610b2d816114f5565b9050610ae7565b50610b3e81610d32565b515192915050565b6000807f00000000000000000000000000000000000000000000000000000000000000006001600160a01b031663461d27628688600188886040518663ffffffff1660e01b8152600401610b9e959493929190611588565b6020604051808303816000875af1158015610bbd573d6000803e3d6000fd5b505050506040513d601f19601f82011682018060405250810190610be191906115d1565b60405190915081907f1131472297a800fee664d1d89cfa8f7676ff07189ecc53f80bbb5f4969099db890600090a295945050505050565b8051600003610c3a576040516322ce3edd60e01b815260040160405180910390fd5b83836002811115610c4d57610c4d611572565b90816002811115610c6057610c60611572565b90525060408401828015610c7657610c76611572565b90818015610c8657610c86611572565b9052506060909301929092525050565b610c9e61110b565b8051610caa9083610d5d565b5060006020820152919050565b610cc48260038351610dd7565b8151610cd09082610ef6565b505050565b8151610ce29060c2610f1e565b506107388282604051602001610cfa91815260200190565b604051602081830303815290604052610d50565b610d19816004610f87565b600181602001818151610d2c919061155f565b90525050565b610d3d816007610f87565b600181602001818151610d2c9190611538565b610cc48260028351610dd7565b604080518082019091526060815260006020820152610d7d60208361154b565b15610da557610d8d60208361154b565b610d98906020611538565b610da2908361155f565b91505b602080840183905260405180855260008152908184010181811015610dc957600080fd5b604052508290505b92915050565b6017816001600160401b031611610e03578251610dfd9060e0600585901b168317610f1e565b50505050565b60ff816001600160401b031611610e43578251610e2b906018611fe0600586901b1617610f1e565b508251610dfd906001600160401b0383166001610f9e565b61ffff816001600160401b031611610e84578251610e6c906019611fe0600586901b1617610f1e565b508251610dfd906001600160401b0383166002610f9e565b63ffffffff816001600160401b031611610ec7578251610eaf90601a611fe0600586901b1617610f1e565b508251610dfd906001600160401b0383166004610f9e565b8251610ede90601b611fe0600586901b1617610f1e565b508251610dfd906001600160401b0383166008610f9e565b604080518082019091526060815260006020820152610f1783838451611023565b9392505050565b6040805180820190915260608152600060208201528251516000610f4382600161155f565b905084602001518210610f6457610f6485610f5f8360026115ea565b6110f4565b8451602083820101858153508051821115610f7d578181525b5093949350505050565b8151610cd090601f611fe0600585901b1617610f1e565b6040805180820190915260608152600060208201528351516000610fc2828561155f565b90508560200151811115610fdf57610fdf86610f5f8360026115ea565b60006001610fef866101006116e5565b610ff99190611538565b90508651828101878319825116178152508051831115611017578281525b50959695505050505050565b604080518082019091526060815260006020820152825182111561104657600080fd5b8351516000611055848361155f565b905085602001518111156110725761107286610f5f8360026115ea565b85518051838201602001916000918085111561108c578482525b505050602086015b602086106110cc57805182526110ab60208361155f565b91506110b860208261155f565b90506110c5602087611538565b9550611094565b51815160001960208890036101000a0190811690199190911617905250849150509392505050565b81516111008383610d5d565b50610dfd8382610ef6565b6040518060400160405280611133604051806040016040528060608152602001600081525090565b8152602001600081525090565b634e487b7160e01b600052604160045260246000fd5b600082601f83011261116757600080fd5b81356001600160401b038082111561118157611181611140565b604051601f8301601f19908116603f011681019082821181831017156111a9576111a9611140565b816040528381528660208588010111156111c257600080fd5b836020870160208301376000602085830101528094505050505092915050565b6000806000606084860312156111f757600080fd5b8335925060208401356001600160401b038082111561121557600080fd5b61122187838801611156565b9350604086013591508082111561123757600080fd5b5061124486828701611156565b9150509250925092565b6000806000806060858703121561126457600080fd5b84356001600160a01b038116811461127b57600080fd5b93506020850135925060408501356001600160401b038082111561129e57600080fd5b818701915087601f8301126112b257600080fd5b8135818111156112c157600080fd5b8860208285010111156112d357600080fd5b95989497505060200194505050565b6000602082840312156112f457600080fd5b5035919050565b6000815180845260005b8181101561132157602081850181015186830182015201611305565b506000602082860101526020601f19601f83011685010191505092915050565b602081526000610f1760208301846112fb565b634e487b7160e01b600052603260045260246000fd5b600181811c9082168061137e57607f821691505b60208210810361139e57634e487b7160e01b600052602260045260246000fd5b50919050565b601f821115610cd057600081815260208120601f850160051c810160208610156113cb5750805b601f850160051c820191505b818110156113ea578281556001016113d7565b505050505050565b81516001600160401b0381111561140b5761140b611140565b61141f81611419845461136a565b846113a4565b602080601f831160018114611454576000841561143c5750858301515b600019600386901b1c1916600185901b1785556113ea565b600085815260208120601f198616915b8281101561148357888601518255948401946001909101908401611464565b50858210156114a15787850151600019600388901b60f8161c191681555b5050505050600190811b01905550565b6040815260006114c460408301856112fb565b82810360208401526114d681856112fb565b95945050505050565b634e487b7160e01b600052601160045260246000fd5b600060018201611507576115076114df565b5060010190565b634e487b7160e01b600052601260045260246000fd5b6000826115335761153361150e565b500490565b81810381811115610dd157610dd16114df565b60008261155a5761155a61150e565b500690565b80820180821115610dd157610dd16114df565b634e487b7160e01b600052602160045260246000fd5b6001600160401b038616815260a0602082015260006115aa60a08301876112fb565b61ffff9590951660408301525063ffffffff92909216606083015260809091015292915050565b6000602082840312156115e357600080fd5b5051919050565b8082028115828204841417610dd157610dd16114df565b600181815b8085111561163c578160001904821115611622576116226114df565b8085161561162f57918102915b93841c9390800290611606565b509250929050565b60008261165357506001610dd1565b8161166057506000610dd1565b816001811461167657600281146116805761169c565b6001915050610dd1565b60ff841115611691576116916114df565b50506001821b610dd1565b5060208310610133831016604e8410600b84101617156116bf575081810a610dd1565b6116c98383611601565b80600019048211156116dd576116dd6114df565b029392505050565b6000610f17838361164456fe636f6e73742070726f636f726550726f6a6563744964203d20617267735b305d3b636f6e7374206d696c6573746f6e65496e646578203d20617267735b315d3b636f6e737420726573203d2061776169742046756e6374696f6e732e6d616b654874747052657175657374287b202075726c3a202768747470733a2f2f6275696c646c696e6b2d66726f6e74656e642e76657263656c2e6170702f6170692f70726f636f72652f776562686f6f6b272c20206d6574686f643a2027504f5354272c2020686561646572733a207b2027436f6e74656e742d54797065273a20276170706c69636174696f6e2f6a736f6e27207d2c2020646174613a207b2070726f636f726550726f6a65637449643a2070726f636f726550726f6a65637449642c206d696c6573746f6e65496e6465783a207061727365496e74286d696c6573746f6e65496e64657829207d7d293b696620287265732e6572726f7229207468726f77204572726f722827576562686f6f6b2072657175657374206661696c65643a2027202b207265732e6d657373616765293b636f6e737420737461747573203d207265732e64617461202626207265732e646174612e737461747573203f207265732e646174612e737461747573203a202772656a6563746564273b72657475726e2046756e6374696f6e732e656e636f6465537472696e6728737461747573203d3d3d2027617070726f76656427203f2027617070726f76656427203a202772656a656374656427293ba264697066735822122097845e0e268be5024a6c8dc9e259e41eb966cef24c079373053d45794a1f87fb64736f6c63430008140033","opcodes":"PUSH1 0xC0 PUSH1 0x40 MSTORE CALLVALUE DUP1 ISZERO PUSH2 0x10 JUMPI PUSH1 0x0 DUP1 REVERT JUMPDEST POP PUSH1 0x40 MLOAD PUSH2 0x1A58 CODESIZE SUB DUP1 PUSH2 0x1A58 DUP4 CODECOPY DUP2 ADD PUSH1 0x40 DUP2 SWAP1 MSTORE PUSH2 0x2F SWAP2 PUSH2 0xA2 JUMP JUMPDEST PUSH20 0xF9B8FC078197181C841C296C876945AAA425B278 PUSH1 0x80 MSTORE PUSH1 0x1 PUSH1 0x1 PUSH1 0xA0 SHL SUB DUP2 AND PUSH2 0x91 JUMPI PUSH1 0x40 MLOAD PUSH3 0x461BCD PUSH1 0xE5 SHL DUP2 MSTORE PUSH1 0x20 PUSH1 0x4 DUP3 ADD MSTORE PUSH1 0xD PUSH1 0x24 DUP3 ADD MSTORE PUSH13 0x24B73B30B634B21030B236B4B7 PUSH1 0x99 SHL PUSH1 0x44 DUP3 ADD MSTORE PUSH1 0x64 ADD PUSH1 0x40 MLOAD DUP1 SWAP2 SUB SWAP1 REVERT JUMPDEST PUSH1 0x1 PUSH1 0x1 PUSH1 0xA0 SHL SUB AND PUSH1 0xA0 MSTORE PUSH2 0xD2 JUMP JUMPDEST PUSH1 0x0 PUSH1 0x20 DUP3 DUP5 SUB SLT ISZERO PUSH2 0xB4 JUMPI PUSH1 0x0 DUP1 REVERT JUMPDEST DUP2 MLOAD PUSH1 0x1 PUSH1 0x1 PUSH1 0xA0 SHL SUB DUP2 AND DUP2 EQ PUSH2 0xCB JUMPI PUSH1 0x0 DUP1 REVERT JUMPDEST SWAP4 SWAP3 POP POP POP JUMP JUMPDEST PUSH1 0x80 MLOAD PUSH1 0xA0 MLOAD PUSH2 0x1953 PUSH2 0x105 PUSH1 0x0 CODECOPY PUSH1 0x0 DUP2 DUP2 PUSH2 0x1AE ADD MSTORE PUSH2 0x281 ADD MSTORE PUSH1 0x0 DUP2 DUP2 PUSH2 0x1FB ADD MSTORE PUSH2 0xB4B ADD MSTORE PUSH2 0x1953 PUSH1 0x0 RETURN INVALID PUSH1 0x80 PUSH1 0x40 MSTORE CALLVALUE DUP1 ISZERO PUSH2 0x10 JUMPI PUSH1 0x0 DUP1 REVERT JUMPDEST POP PUSH1 0x4 CALLDATASIZE LT PUSH2 0x9E JUMPI PUSH1 0x0 CALLDATALOAD PUSH1 0xE0 SHR DUP1 PUSH4 0x2795AD20 GT PUSH2 0x66 JUMPI DUP1 PUSH4 0x2795AD20 EQ PUSH2 0x123 JUMPI DUP1 PUSH4 0x33D608F1 EQ PUSH2 0x175 JUMPI DUP1 PUSH4 0xBEF3A2F0 EQ PUSH2 0x194 JUMPI DUP1 PUSH4 0xF851A440 EQ PUSH2 0x1A9 JUMPI DUP1 PUSH4 0xFFFEB84E EQ PUSH2 0x1E8 JUMPI PUSH1 0x0 DUP1 REVERT JUMPDEST DUP1 PUSH4 0x30932BB EQ PUSH2 0xA3 JUMPI DUP1 PUSH4 0xCA76175 EQ PUSH2 0xC8 JUMPI DUP1 PUSH4 0xCDE9F3C EQ PUSH2 0xDD JUMPI DUP1 PUSH4 0x1AA46F59 EQ PUSH2 0x107 JUMPI DUP1 PUSH4 0x1B1F5C24 EQ PUSH2 0x110 JUMPI JUMPDEST PUSH1 0x0 DUP1 REVERT JUMPDEST PUSH2 0xAB PUSH1 0x8F DUP2 JUMP JUMPDEST PUSH1 0x40 MLOAD PUSH1 0x1 PUSH1 0x1 PUSH1 0x40 SHL SUB SWAP1 SWAP2 AND DUP2 MSTORE PUSH1 0x20 ADD JUMPDEST PUSH1 0x40 MLOAD DUP1 SWAP2 SUB SWAP1 RETURN JUMPDEST PUSH2 0xDB PUSH2 0xD6 CALLDATASIZE PUSH1 0x4 PUSH2 0x11E2 JUMP JUMPDEST PUSH2 0x1F0 JUMP JUMPDEST STOP JUMPDEST PUSH2 0xF9 PUSH18 0x66756E2D626173652D6D61696E6E65742D31 PUSH1 0x70 SHL DUP2 JUMP JUMPDEST PUSH1 0x40 MLOAD SWAP1 DUP2 MSTORE PUSH1 0x20 ADD PUSH2 0xBF JUMP JUMPDEST PUSH2 0xF9 PUSH1 0x1 SLOAD DUP2 JUMP JUMPDEST PUSH2 0xF9 PUSH2 0x11E CALLDATASIZE PUSH1 0x4 PUSH2 0x124E JUMP JUMPDEST PUSH2 0x274 JUMP JUMPDEST PUSH2 0x156 PUSH2 0x131 CALLDATASIZE PUSH1 0x4 PUSH2 0x12E2 JUMP JUMPDEST PUSH1 0x0 PUSH1 0x20 DUP2 SWAP1 MSTORE SWAP1 DUP2 MSTORE PUSH1 0x40 SWAP1 KECCAK256 DUP1 SLOAD PUSH1 0x1 SWAP1 SWAP2 ADD SLOAD PUSH1 0x1 PUSH1 0x1 PUSH1 0xA0 SHL SUB SWAP1 SWAP2 AND SWAP1 DUP3 JUMP JUMPDEST PUSH1 0x40 DUP1 MLOAD PUSH1 0x1 PUSH1 0x1 PUSH1 0xA0 SHL SUB SWAP1 SWAP4 AND DUP4 MSTORE PUSH1 0x20 DUP4 ADD SWAP2 SWAP1 SWAP2 MSTORE ADD PUSH2 0xBF JUMP JUMPDEST PUSH2 0x17F PUSH3 0x493E0 DUP2 JUMP JUMPDEST PUSH1 0x40 MLOAD PUSH4 0xFFFFFFFF SWAP1 SWAP2 AND DUP2 MSTORE PUSH1 0x20 ADD PUSH2 0xBF JUMP JUMPDEST PUSH2 0x19C PUSH2 0x4A8 JUMP JUMPDEST PUSH1 0x40 MLOAD PUSH2 0xBF SWAP2 SWAP1 PUSH2 0x1341 JUMP JUMPDEST PUSH2 0x1D0 PUSH32 0x0 DUP2 JUMP JUMPDEST PUSH1 0x40 MLOAD PUSH1 0x1 PUSH1 0x1 PUSH1 0xA0 SHL SUB SWAP1 SWAP2 AND DUP2 MSTORE PUSH1 0x20 ADD PUSH2 0xBF JUMP JUMPDEST PUSH2 0x19C PUSH2 0x536 JUMP JUMPDEST CALLER PUSH1 0x1 PUSH1 0x1 PUSH1 0xA0 SHL SUB PUSH32 0x0 AND EQ PUSH2 0x239 JUMPI PUSH1 0x40 MLOAD PUSH4 0xC6829F83 PUSH1 0xE0 SHL DUP2 MSTORE PUSH1 0x4 ADD PUSH1 0x40 MLOAD DUP1 SWAP2 SUB SWAP1 REVERT JUMPDEST PUSH2 0x244 DUP4 DUP4 DUP4 PUSH2 0x543 JUMP JUMPDEST PUSH1 0x40 MLOAD DUP4 SWAP1 PUSH32 0x85E1543BF2F84FE80C6BADBCE3648C8539AD1DF4D2B3D822938CA0538BE727E6 SWAP1 PUSH1 0x0 SWAP1 LOG2 POP POP POP JUMP JUMPDEST PUSH1 0x0 CALLER PUSH1 0x1 PUSH1 0x1 PUSH1 0xA0 SHL SUB PUSH32 0x0 AND EQ PUSH2 0x2BF JUMPI PUSH1 0x40 MLOAD PUSH4 0x47556579 PUSH1 0xE0 SHL DUP2 MSTORE PUSH1 0x4 ADD PUSH1 0x40 MLOAD DUP1 SWAP2 SUB SWAP1 REVERT JUMPDEST PUSH1 0x1 PUSH1 0x1 PUSH1 0xA0 SHL SUB DUP6 AND PUSH2 0x309 JUMPI PUSH1 0x40 MLOAD PUSH3 0x461BCD PUSH1 0xE5 SHL DUP2 MSTORE PUSH1 0x20 PUSH1 0x4 DUP3 ADD MSTORE PUSH1 0xD PUSH1 0x24 DUP3 ADD MSTORE PUSH13 0x125B9D985B1A59081D985D5B1D PUSH1 0x9A SHL PUSH1 0x44 DUP3 ADD MSTORE PUSH1 0x64 ADD PUSH1 0x40 MLOAD DUP1 SWAP2 SUB SWAP1 REVERT JUMPDEST PUSH2 0x34A PUSH1 0x40 DUP1 MLOAD PUSH1 0xE0 DUP2 ADD SWAP1 SWAP2 MSTORE DUP1 PUSH1 0x0 DUP2 MSTORE PUSH1 0x20 ADD PUSH1 0x0 DUP2 MSTORE PUSH1 0x20 ADD PUSH1 0x0 DUP2 MSTORE PUSH1 0x20 ADD PUSH1 0x60 DUP2 MSTORE PUSH1 0x20 ADD PUSH1 0x60 DUP2 MSTORE PUSH1 0x20 ADD PUSH1 0x60 DUP2 MSTORE PUSH1 0x20 ADD PUSH1 0x60 DUP2 MSTORE POP SWAP1 JUMP JUMPDEST PUSH2 0x370 PUSH1 0x40 MLOAD DUP1 PUSH2 0x260 ADD PUSH1 0x40 MSTORE DUP1 PUSH2 0x22C DUP2 MSTORE PUSH1 0x20 ADD PUSH2 0x16F2 PUSH2 0x22C SWAP2 CODECOPY DUP3 SWAP1 PUSH2 0x72B JUMP JUMPDEST PUSH1 0x40 DUP1 MLOAD PUSH1 0x2 DUP1 DUP3 MSTORE PUSH1 0x60 DUP3 ADD SWAP1 SWAP3 MSTORE PUSH1 0x0 SWAP2 DUP2 PUSH1 0x20 ADD JUMPDEST PUSH1 0x60 DUP2 MSTORE PUSH1 0x20 ADD SWAP1 PUSH1 0x1 SWAP1 SUB SWAP1 DUP2 PUSH2 0x388 JUMPI SWAP1 POP POP SWAP1 POP DUP5 DUP5 DUP1 DUP1 PUSH1 0x1F ADD PUSH1 0x20 DUP1 SWAP2 DIV MUL PUSH1 0x20 ADD PUSH1 0x40 MLOAD SWAP1 DUP2 ADD PUSH1 0x40 MSTORE DUP1 SWAP4 SWAP3 SWAP2 SWAP1 DUP2 DUP2 MSTORE PUSH1 0x20 ADD DUP4 DUP4 DUP1 DUP3 DUP5 CALLDATACOPY PUSH1 0x0 SWAP3 ADD DUP3 SWAP1 MSTORE POP DUP6 MLOAD DUP7 SWAP5 POP SWAP1 SWAP3 POP ISZERO ISZERO SWAP1 POP PUSH2 0x3E9 JUMPI PUSH2 0x3E9 PUSH2 0x1354 JUMP JUMPDEST PUSH1 0x20 MUL PUSH1 0x20 ADD ADD DUP2 SWAP1 MSTORE POP PUSH2 0x3FD DUP7 PUSH2 0x73C JUMP JUMPDEST DUP2 PUSH1 0x1 DUP2 MLOAD DUP2 LT PUSH2 0x410 JUMPI PUSH2 0x410 PUSH2 0x1354 JUMP JUMPDEST PUSH1 0x20 SWAP1 DUP2 MUL SWAP2 SWAP1 SWAP2 ADD ADD MSTORE PUSH2 0x425 DUP3 DUP3 PUSH2 0x844 JUMP JUMPDEST PUSH2 0x452 PUSH2 0x431 DUP4 PUSH2 0x86E JUMP JUMPDEST PUSH1 0x8F PUSH3 0x493E0 PUSH18 0x66756E2D626173652D6D61696E6E65742D31 PUSH1 0x70 SHL PUSH2 0xB46 JUMP JUMPDEST PUSH1 0x40 DUP1 MLOAD DUP1 DUP3 ADD DUP3 MSTORE PUSH1 0x1 PUSH1 0x1 PUSH1 0xA0 SHL SUB SWAP10 DUP11 AND DUP2 MSTORE PUSH1 0x20 DUP1 DUP3 ADD SWAP10 DUP11 MSTORE PUSH1 0x0 DUP5 DUP2 MSTORE SWAP1 DUP2 SWAP1 MSTORE SWAP2 SWAP1 SWAP2 KECCAK256 SWAP1 MLOAD DUP2 SLOAD PUSH1 0x1 PUSH1 0x1 PUSH1 0xA0 SHL SUB NOT AND SWAP10 AND SWAP9 SWAP1 SWAP9 OR DUP9 SSTORE SWAP6 MLOAD PUSH1 0x1 SWAP8 DUP9 ADD SSTORE POP POP POP SWAP3 DUP3 SWAP1 SSTORE POP SWAP2 SWAP1 POP JUMP JUMPDEST PUSH1 0x2 DUP1 SLOAD PUSH2 0x4B5 SWAP1 PUSH2 0x136A JUMP JUMPDEST DUP1 PUSH1 0x1F ADD PUSH1 0x20 DUP1 SWAP2 DIV MUL PUSH1 0x20 ADD PUSH1 0x40 MLOAD SWAP1 DUP2 ADD PUSH1 0x40 MSTORE DUP1 SWAP3 SWAP2 SWAP1 DUP2 DUP2 MSTORE PUSH1 0x20 ADD DUP3 DUP1 SLOAD PUSH2 0x4E1 SWAP1 PUSH2 0x136A JUMP JUMPDEST DUP1 ISZERO PUSH2 0x52E JUMPI DUP1 PUSH1 0x1F LT PUSH2 0x503 JUMPI PUSH2 0x100 DUP1 DUP4 SLOAD DIV MUL DUP4 MSTORE SWAP2 PUSH1 0x20 ADD SWAP2 PUSH2 0x52E JUMP JUMPDEST DUP3 ADD SWAP2 SWAP1 PUSH1 0x0 MSTORE PUSH1 0x20 PUSH1 0x0 KECCAK256 SWAP1 JUMPDEST DUP2 SLOAD DUP2 MSTORE SWAP1 PUSH1 0x1 ADD SWAP1 PUSH1 0x20 ADD DUP1 DUP4 GT PUSH2 0x511 JUMPI DUP3 SWAP1 SUB PUSH1 0x1F AND DUP3 ADD SWAP2 JUMPDEST POP POP POP POP POP DUP2 JUMP JUMPDEST PUSH1 0x3 DUP1 SLOAD PUSH2 0x4B5 SWAP1 PUSH2 0x136A JUMP JUMPDEST PUSH1 0x2 PUSH2 0x54F DUP4 DUP3 PUSH2 0x13F2 JUMP JUMPDEST POP PUSH1 0x3 PUSH2 0x55C DUP3 DUP3 PUSH2 0x13F2 JUMP JUMPDEST POP DUP3 PUSH32 0xA676854A79F96561744D5F417F3F050B4E3590DDC0F25140205C77F69D1DAEE9 DUP4 DUP4 PUSH1 0x40 MLOAD PUSH2 0x58F SWAP3 SWAP2 SWAP1 PUSH2 0x14B1 JUMP JUMPDEST PUSH1 0x40 MLOAD DUP1 SWAP2 SUB SWAP1 LOG2 DUP1 MLOAD ISZERO DUP1 ISZERO PUSH2 0x5EA JUMPI POP PUSH1 0x40 DUP1 MLOAD DUP1 DUP3 ADD SWAP1 SWAP2 MSTORE PUSH1 0x8 DUP2 MSTORE PUSH8 0x185C1C1C9BDD9959 PUSH1 0xC2 SHL PUSH1 0x20 SWAP2 DUP3 ADD MSTORE DUP3 MLOAD SWAP1 DUP4 ADD KECCAK256 PUSH32 0x2B29265FC125740AE6BBC5035AE7AF720B6932F4A3E44BA5AC02955C21CA9A05 EQ JUMPDEST ISZERO PUSH2 0x707 JUMPI PUSH1 0x0 DUP4 DUP2 MSTORE PUSH1 0x20 DUP2 DUP2 MSTORE PUSH1 0x40 SWAP2 DUP3 SWAP1 KECCAK256 DUP3 MLOAD DUP1 DUP5 ADD SWAP1 SWAP4 MSTORE DUP1 SLOAD PUSH1 0x1 PUSH1 0x1 PUSH1 0xA0 SHL SUB AND DUP1 DUP5 MSTORE PUSH1 0x1 SWAP1 SWAP2 ADD SLOAD SWAP2 DUP4 ADD SWAP2 SWAP1 SWAP2 MSTORE ISZERO PUSH2 0x705 JUMPI PUSH1 0x20 DUP2 ADD MLOAD DUP2 MLOAD PUSH1 0x40 MLOAD PUSH1 0x1 PUSH1 0x1 PUSH1 0xA0 SHL SUB SWAP1 SWAP2 AND SWAP1 PUSH32 0x4633ED43E960EAB00C94E71920AD1775BD86EC373F63649DB940D18A424DE796 SWAP1 PUSH1 0x0 SWAP1 LOG3 DUP1 MLOAD PUSH1 0x20 DUP3 ADD MLOAD PUSH1 0x40 MLOAD PUSH4 0xC438B40F PUSH1 0xE0 SHL DUP2 MSTORE PUSH1 0x1 PUSH1 0x1 PUSH1 0xA0 SHL SUB SWAP1 SWAP3 AND SWAP2 PUSH4 0xC438B40F SWAP2 PUSH2 0x699 SWAP2 PUSH1 0x4 ADD SWAP1 DUP2 MSTORE PUSH1 0x20 ADD SWAP1 JUMP JUMPDEST PUSH1 0x0 PUSH1 0x40 MLOAD DUP1 DUP4 SUB DUP2 PUSH1 0x0 DUP8 DUP1 EXTCODESIZE ISZERO DUP1 ISZERO PUSH2 0x6B3 JUMPI PUSH1 0x0 DUP1 REVERT JUMPDEST POP GAS CALL SWAP3 POP POP POP DUP1 ISZERO PUSH2 0x6C4 JUMPI POP PUSH1 0x1 JUMPDEST PUSH2 0x705 JUMPI PUSH1 0x20 DUP2 ADD MLOAD DUP2 MLOAD PUSH1 0x40 MLOAD PUSH1 0x1 PUSH1 0x1 PUSH1 0xA0 SHL SUB SWAP1 SWAP2 AND SWAP1 PUSH32 0x8BCFAECC80BD05F8635FA1B1446E0F622ABFFE311DABB5B372EE72876D2C8CD2 SWAP1 PUSH1 0x0 SWAP1 LOG3 JUMPDEST POP JUMPDEST POP POP PUSH1 0x0 SWAP1 DUP2 MSTORE PUSH1 0x20 DUP2 SWAP1 MSTORE PUSH1 0x40 DUP2 KECCAK256 DUP1 SLOAD PUSH1 0x1 PUSH1 0x1 PUSH1 0xA0 SHL SUB NOT AND DUP2 SSTORE PUSH1 0x1 ADD SSTORE JUMP JUMPDEST PUSH2 0x738 DUP3 PUSH1 0x0 DUP1 DUP5 PUSH2 0xC18 JUMP JUMPDEST POP POP JUMP JUMPDEST PUSH1 0x60 DUP2 PUSH1 0x0 SUB PUSH2 0x763 JUMPI POP POP PUSH1 0x40 DUP1 MLOAD DUP1 DUP3 ADD SWAP1 SWAP2 MSTORE PUSH1 0x1 DUP2 MSTORE PUSH1 0x3 PUSH1 0xFC SHL PUSH1 0x20 DUP3 ADD MSTORE SWAP1 JUMP JUMPDEST DUP2 PUSH1 0x0 JUMPDEST DUP2 ISZERO PUSH2 0x78D JUMPI DUP1 PUSH2 0x777 DUP2 PUSH2 0x14F5 JUMP JUMPDEST SWAP2 POP PUSH2 0x786 SWAP1 POP PUSH1 0xA DUP4 PUSH2 0x1524 JUMP JUMPDEST SWAP2 POP PUSH2 0x767 JUMP JUMPDEST PUSH1 0x0 DUP2 PUSH1 0x1 PUSH1 0x1 PUSH1 0x40 SHL SUB DUP2 GT ISZERO PUSH2 0x7A7 JUMPI PUSH2 0x7A7 PUSH2 0x1140 JUMP JUMPDEST PUSH1 0x40 MLOAD SWAP1 DUP1 DUP3 MSTORE DUP1 PUSH1 0x1F ADD PUSH1 0x1F NOT AND PUSH1 0x20 ADD DUP3 ADD PUSH1 0x40 MSTORE DUP1 ISZERO PUSH2 0x7D1 JUMPI PUSH1 0x20 DUP3 ADD DUP2 DUP1 CALLDATASIZE DUP4 CALLDATACOPY ADD SWAP1 POP JUMPDEST POP SWAP1 POP JUMPDEST DUP5 ISZERO PUSH2 0x83C JUMPI PUSH2 0x7E6 PUSH1 0x1 DUP4 PUSH2 0x1538 JUMP JUMPDEST SWAP2 POP PUSH2 0x7F3 PUSH1 0xA DUP7 PUSH2 0x154B JUMP JUMPDEST PUSH2 0x7FE SWAP1 PUSH1 0x30 PUSH2 0x155F JUMP JUMPDEST PUSH1 0xF8 SHL DUP2 DUP4 DUP2 MLOAD DUP2 LT PUSH2 0x813 JUMPI PUSH2 0x813 PUSH2 0x1354 JUMP JUMPDEST PUSH1 0x20 ADD ADD SWAP1 PUSH1 0x1 PUSH1 0x1 PUSH1 0xF8 SHL SUB NOT AND SWAP1 DUP2 PUSH1 0x0 BYTE SWAP1 MSTORE8 POP PUSH2 0x835 PUSH1 0xA DUP7 PUSH2 0x1524 JUMP JUMPDEST SWAP5 POP PUSH2 0x7D5 JUMP JUMPDEST SWAP5 SWAP4 POP POP POP POP JUMP JUMPDEST DUP1 MLOAD PUSH1 0x0 SUB PUSH2 0x866 JUMPI PUSH1 0x40 MLOAD PUSH4 0xFE936CB7 PUSH1 0xE0 SHL DUP2 MSTORE PUSH1 0x4 ADD PUSH1 0x40 MLOAD DUP1 SWAP2 SUB SWAP1 REVERT JUMPDEST PUSH1 0xA0 SWAP1 SWAP2 ADD MSTORE JUMP JUMPDEST PUSH1 0x60 PUSH1 0x0 PUSH2 0x87D PUSH2 0x100 PUSH2 0xC96 JUMP JUMPDEST SWAP1 POP PUSH2 0x8B6 PUSH1 0x40 MLOAD DUP1 PUSH1 0x40 ADD PUSH1 0x40 MSTORE DUP1 PUSH1 0xC DUP2 MSTORE PUSH1 0x20 ADD PUSH12 0x31B7B232A637B1B0BA34B7B7 PUSH1 0xA1 SHL DUP2 MSTORE POP DUP3 PUSH2 0xCB7 SWAP1 SWAP2 SWAP1 PUSH4 0xFFFFFFFF AND JUMP JUMPDEST DUP3 MLOAD PUSH2 0x8D4 SWAP1 PUSH1 0x2 DUP2 GT ISZERO PUSH2 0x8CD JUMPI PUSH2 0x8CD PUSH2 0x1572 JUMP JUMPDEST DUP3 SWAP1 PUSH2 0xCD5 JUMP JUMPDEST PUSH1 0x40 DUP1 MLOAD DUP1 DUP3 ADD SWAP1 SWAP2 MSTORE PUSH1 0x8 DUP2 MSTORE PUSH8 0x6C616E6775616765 PUSH1 0xC0 SHL PUSH1 0x20 DUP3 ADD MSTORE PUSH2 0x8FE SWAP1 DUP3 SWAP1 PUSH2 0xCB7 JUMP JUMPDEST PUSH1 0x40 DUP4 ADD MLOAD PUSH2 0x915 SWAP1 DUP1 ISZERO PUSH2 0x8CD JUMPI PUSH2 0x8CD PUSH2 0x1572 JUMP JUMPDEST PUSH1 0x40 DUP1 MLOAD DUP1 DUP3 ADD SWAP1 SWAP2 MSTORE PUSH1 0x6 DUP2 MSTORE PUSH6 0x736F75726365 PUSH1 0xD0 SHL PUSH1 0x20 DUP3 ADD MSTORE PUSH2 0x93D SWAP1 DUP3 SWAP1 PUSH2 0xCB7 JUMP JUMPDEST PUSH1 0x60 DUP4 ADD MLOAD PUSH2 0x94D SWAP1 DUP3 SWAP1 PUSH2 0xCB7 JUMP JUMPDEST PUSH1 0xA0 DUP4 ADD MLOAD MLOAD ISZERO PUSH2 0x9E1 JUMPI PUSH1 0x40 DUP1 MLOAD DUP1 DUP3 ADD SWAP1 SWAP2 MSTORE PUSH1 0x4 DUP2 MSTORE PUSH4 0x61726773 PUSH1 0xE0 SHL PUSH1 0x20 DUP3 ADD MSTORE PUSH2 0x97E SWAP1 DUP3 SWAP1 PUSH2 0xCB7 JUMP JUMPDEST PUSH2 0x987 DUP2 PUSH2 0xD0E JUMP JUMPDEST PUSH1 0x0 JUMPDEST DUP4 PUSH1 0xA0 ADD MLOAD MLOAD DUP2 LT ISZERO PUSH2 0x9D7 JUMPI PUSH2 0x9C7 DUP5 PUSH1 0xA0 ADD MLOAD DUP3 DUP2 MLOAD DUP2 LT PUSH2 0x9B0 JUMPI PUSH2 0x9B0 PUSH2 0x1354 JUMP JUMPDEST PUSH1 0x20 MUL PUSH1 0x20 ADD ADD MLOAD DUP4 PUSH2 0xCB7 SWAP1 SWAP2 SWAP1 PUSH4 0xFFFFFFFF AND JUMP JUMPDEST PUSH2 0x9D0 DUP2 PUSH2 0x14F5 JUMP JUMPDEST SWAP1 POP PUSH2 0x98A JUMP JUMPDEST POP PUSH2 0x9E1 DUP2 PUSH2 0xD32 JUMP JUMPDEST PUSH1 0x80 DUP4 ADD MLOAD MLOAD ISZERO PUSH2 0xAA5 JUMPI PUSH1 0x0 DUP4 PUSH1 0x20 ADD MLOAD PUSH1 0x2 DUP2 GT ISZERO PUSH2 0xA04 JUMPI PUSH2 0xA04 PUSH2 0x1572 JUMP JUMPDEST SUB PUSH2 0xA22 JUMPI PUSH1 0x40 MLOAD PUSH4 0xA80D31F7 PUSH1 0xE0 SHL DUP2 MSTORE PUSH1 0x4 ADD PUSH1 0x40 MLOAD DUP1 SWAP2 SUB SWAP1 REVERT JUMPDEST PUSH1 0x40 DUP1 MLOAD DUP1 DUP3 ADD SWAP1 SWAP2 MSTORE PUSH1 0xF DUP2 MSTORE PUSH15 0x39B2B1B932BA39A637B1B0BA34B7B7 PUSH1 0x89 SHL PUSH1 0x20 DUP3 ADD MSTORE PUSH2 0xA53 SWAP1 DUP3 SWAP1 PUSH2 0xCB7 JUMP JUMPDEST PUSH2 0xA6C DUP4 PUSH1 0x20 ADD MLOAD PUSH1 0x2 DUP2 GT ISZERO PUSH2 0x8CD JUMPI PUSH2 0x8CD PUSH2 0x1572 JUMP JUMPDEST PUSH1 0x40 DUP1 MLOAD DUP1 DUP3 ADD SWAP1 SWAP2 MSTORE PUSH1 0x7 DUP2 MSTORE PUSH7 0x73656372657473 PUSH1 0xC8 SHL PUSH1 0x20 DUP3 ADD MSTORE PUSH2 0xA95 SWAP1 DUP3 SWAP1 PUSH2 0xCB7 JUMP JUMPDEST PUSH1 0x80 DUP4 ADD MLOAD PUSH2 0xAA5 SWAP1 DUP3 SWAP1 PUSH2 0xD50 JUMP JUMPDEST PUSH1 0xC0 DUP4 ADD MLOAD MLOAD ISZERO PUSH2 0xB3E JUMPI PUSH1 0x40 DUP1 MLOAD DUP1 DUP3 ADD SWAP1 SWAP2 MSTORE PUSH1 0x9 DUP2 MSTORE PUSH9 0x627974657341726773 PUSH1 0xB8 SHL PUSH1 0x20 DUP3 ADD MSTORE PUSH2 0xADB SWAP1 DUP3 SWAP1 PUSH2 0xCB7 JUMP JUMPDEST PUSH2 0xAE4 DUP2 PUSH2 0xD0E JUMP JUMPDEST PUSH1 0x0 JUMPDEST DUP4 PUSH1 0xC0 ADD MLOAD MLOAD DUP2 LT ISZERO PUSH2 0xB34 JUMPI PUSH2 0xB24 DUP5 PUSH1 0xC0 ADD MLOAD DUP3 DUP2 MLOAD DUP2 LT PUSH2 0xB0D JUMPI PUSH2 0xB0D PUSH2 0x1354 JUMP JUMPDEST PUSH1 0x20 MUL PUSH1 0x20 ADD ADD MLOAD DUP4 PUSH2 0xD50 SWAP1 SWAP2 SWAP1 PUSH4 0xFFFFFFFF AND JUMP JUMPDEST PUSH2 0xB2D DUP2 PUSH2 0x14F5 JUMP JUMPDEST SWAP1 POP PUSH2 0xAE7 JUMP JUMPDEST POP PUSH2 0xB3E DUP2 PUSH2 0xD32 JUMP JUMPDEST MLOAD MLOAD SWAP3 SWAP2 POP POP JUMP JUMPDEST PUSH1 0x0 DUP1 PUSH32 0x0 PUSH1 0x1 PUSH1 0x1 PUSH1 0xA0 SHL SUB AND PUSH4 0x461D2762 DUP7 DUP9 PUSH1 0x1 DUP9 DUP9 PUSH1 0x40 MLOAD DUP7 PUSH4 0xFFFFFFFF AND PUSH1 0xE0 SHL DUP2 MSTORE PUSH1 0x4 ADD PUSH2 0xB9E SWAP6 SWAP5 SWAP4 SWAP3 SWAP2 SWAP1 PUSH2 0x1588 JUMP JUMPDEST PUSH1 0x20 PUSH1 0x40 MLOAD DUP1 DUP4 SUB DUP2 PUSH1 0x0 DUP8 GAS CALL ISZERO DUP1 ISZERO PUSH2 0xBBD JUMPI RETURNDATASIZE PUSH1 0x0 DUP1 RETURNDATACOPY RETURNDATASIZE PUSH1 0x0 REVERT JUMPDEST POP POP POP POP PUSH1 0x40 MLOAD RETURNDATASIZE PUSH1 0x1F NOT PUSH1 0x1F DUP3 ADD AND DUP3 ADD DUP1 PUSH1 0x40 MSTORE POP DUP2 ADD SWAP1 PUSH2 0xBE1 SWAP2 SWAP1 PUSH2 0x15D1 JUMP JUMPDEST PUSH1 0x40 MLOAD SWAP1 SWAP2 POP DUP2 SWAP1 PUSH32 0x1131472297A800FEE664D1D89CFA8F7676FF07189ECC53F80BBB5F4969099DB8 SWAP1 PUSH1 0x0 SWAP1 LOG2 SWAP6 SWAP5 POP POP POP POP POP JUMP JUMPDEST DUP1 MLOAD PUSH1 0x0 SUB PUSH2 0xC3A JUMPI PUSH1 0x40 MLOAD PUSH4 0x22CE3EDD PUSH1 0xE0 SHL DUP2 MSTORE PUSH1 0x4 ADD PUSH1 0x40 MLOAD DUP1 SWAP2 SUB SWAP1 REVERT JUMPDEST DUP4 DUP4 PUSH1 0x2 DUP2 GT ISZERO PUSH2 0xC4D JUMPI PUSH2 0xC4D PUSH2 0x1572 JUMP JUMPDEST SWAP1 DUP2 PUSH1 0x2 DUP2 GT ISZERO PUSH2 0xC60 JUMPI PUSH2 0xC60 PUSH2 0x1572 JUMP JUMPDEST SWAP1 MSTORE POP PUSH1 0x40 DUP5 ADD DUP3 DUP1 ISZERO PUSH2 0xC76 JUMPI PUSH2 0xC76 PUSH2 0x1572 JUMP JUMPDEST SWAP1 DUP2 DUP1 ISZERO PUSH2 0xC86 JUMPI PUSH2 0xC86 PUSH2 0x1572 JUMP JUMPDEST SWAP1 MSTORE POP PUSH1 0x60 SWAP1 SWAP4 ADD SWAP3 SWAP1 SWAP3 MSTORE POP POP JUMP JUMPDEST PUSH2 0xC9E PUSH2 0x110B JUMP JUMPDEST DUP1 MLOAD PUSH2 0xCAA SWAP1 DUP4 PUSH2 0xD5D JUMP JUMPDEST POP PUSH1 0x0 PUSH1 0x20 DUP3 ADD MSTORE SWAP2 SWAP1 POP JUMP JUMPDEST PUSH2 0xCC4 DUP3 PUSH1 0x3 DUP4 MLOAD PUSH2 0xDD7 JUMP JUMPDEST DUP2 MLOAD PUSH2 0xCD0 SWAP1 DUP3 PUSH2 0xEF6 JUMP JUMPDEST POP POP POP JUMP JUMPDEST DUP2 MLOAD PUSH2 0xCE2 SWAP1 PUSH1 0xC2 PUSH2 0xF1E JUMP JUMPDEST POP PUSH2 0x738 DUP3 DUP3 PUSH1 0x40 MLOAD PUSH1 0x20 ADD PUSH2 0xCFA SWAP2 DUP2 MSTORE PUSH1 0x20 ADD SWAP1 JUMP JUMPDEST PUSH1 0x40 MLOAD PUSH1 0x20 DUP2 DUP4 SUB SUB DUP2 MSTORE SWAP1 PUSH1 0x40 MSTORE PUSH2 0xD50 JUMP JUMPDEST PUSH2 0xD19 DUP2 PUSH1 0x4 PUSH2 0xF87 JUMP JUMPDEST PUSH1 0x1 DUP2 PUSH1 0x20 ADD DUP2 DUP2 MLOAD PUSH2 0xD2C SWAP2 SWAP1 PUSH2 0x155F JUMP JUMPDEST SWAP1 MSTORE POP POP JUMP JUMPDEST PUSH2 0xD3D DUP2 PUSH1 0x7 PUSH2 0xF87 JUMP JUMPDEST PUSH1 0x1 DUP2 PUSH1 0x20 ADD DUP2 DUP2 MLOAD PUSH2 0xD2C SWAP2 SWAP1 PUSH2 0x1538 JUMP JUMPDEST PUSH2 0xCC4 DUP3 PUSH1 0x2 DUP4 MLOAD PUSH2 0xDD7 JUMP JUMPDEST PUSH1 0x40 DUP1 MLOAD DUP1 DUP3 ADD SWAP1 SWAP2 MSTORE PUSH1 0x60 DUP2 MSTORE PUSH1 0x0 PUSH1 0x20 DUP3 ADD MSTORE PUSH2 0xD7D PUSH1 0x20 DUP4 PUSH2 0x154B JUMP JUMPDEST ISZERO PUSH2 0xDA5 JUMPI PUSH2 0xD8D PUSH1 0x20 DUP4 PUSH2 0x154B JUMP JUMPDEST PUSH2 0xD98 SWAP1 PUSH1 0x20 PUSH2 0x1538 JUMP JUMPDEST PUSH2 0xDA2 SWAP1 DUP4 PUSH2 0x155F JUMP JUMPDEST SWAP2 POP JUMPDEST PUSH1 0x20 DUP1 DUP5 ADD DUP4 SWAP1 MSTORE PUSH1 0x40 MLOAD DUP1 DUP6 MSTORE PUSH1 0x0 DUP2 MSTORE SWAP1 DUP2 DUP5 ADD ADD DUP2 DUP2 LT ISZERO PUSH2 0xDC9 JUMPI PUSH1 0x0 DUP1 REVERT JUMPDEST PUSH1 0x40 MSTORE POP DUP3 SWAP1 POP JUMPDEST SWAP3 SWAP2 POP POP JUMP JUMPDEST PUSH1 0x17 DUP2 PUSH1 0x1 PUSH1 0x1 PUSH1 0x40 SHL SUB AND GT PUSH2 0xE03 JUMPI DUP3 MLOAD PUSH2 0xDFD SWAP1 PUSH1 0xE0 PUSH1 0x5 DUP6 SWAP1 SHL AND DUP4 OR PUSH2 0xF1E JUMP JUMPDEST POP POP POP POP JUMP JUMPDEST PUSH1 0xFF DUP2 PUSH1 0x1 PUSH1 0x1 PUSH1 0x40 SHL SUB AND GT PUSH2 0xE43 JUMPI DUP3 MLOAD PUSH2 0xE2B SWAP1 PUSH1 0x18 PUSH2 0x1FE0 PUSH1 0x5 DUP7 SWAP1 SHL AND OR PUSH2 0xF1E JUMP JUMPDEST POP DUP3 MLOAD PUSH2 0xDFD SWAP1 PUSH1 0x1 PUSH1 0x1 PUSH1 0x40 SHL SUB DUP4 AND PUSH1 0x1 PUSH2 0xF9E JUMP JUMPDEST PUSH2 0xFFFF DUP2 PUSH1 0x1 PUSH1 0x1 PUSH1 0x40 SHL SUB AND GT PUSH2 0xE84 JUMPI DUP3 MLOAD PUSH2 0xE6C SWAP1 PUSH1 0x19 PUSH2 0x1FE0 PUSH1 0x5 DUP7 SWAP1 SHL AND OR PUSH2 0xF1E JUMP JUMPDEST POP DUP3 MLOAD PUSH2 0xDFD SWAP1 PUSH1 0x1 PUSH1 0x1 PUSH1 0x40 SHL SUB DUP4 AND PUSH1 0x2 PUSH2 0xF9E JUMP JUMPDEST PUSH4 0xFFFFFFFF DUP2 PUSH1 0x1 PUSH1 0x1 PUSH1 0x40 SHL SUB AND GT PUSH2 0xEC7 JUMPI DUP3 MLOAD PUSH2 0xEAF SWAP1 PUSH1 0x1A PUSH2 0x1FE0 PUSH1 0x5 DUP7 SWAP1 SHL AND OR PUSH2 0xF1E JUMP JUMPDEST POP DUP3 MLOAD PUSH2 0xDFD SWAP1 PUSH1 0x1 PUSH1 0x1 PUSH1 0x40 SHL SUB DUP4 AND PUSH1 0x4 PUSH2 0xF9E JUMP JUMPDEST DUP3 MLOAD PUSH2 0xEDE SWAP1 PUSH1 0x1B PUSH2 0x1FE0 PUSH1 0x5 DUP7 SWAP1 SHL AND OR PUSH2 0xF1E JUMP JUMPDEST POP DUP3 MLOAD PUSH2 0xDFD SWAP1 PUSH1 0x1 PUSH1 0x1 PUSH1 0x40 SHL SUB DUP4 AND PUSH1 0x8 PUSH2 0xF9E JUMP JUMPDEST PUSH1 0x40 DUP1 MLOAD DUP1 DUP3 ADD SWAP1 SWAP2 MSTORE PUSH1 0x60 DUP2 MSTORE PUSH1 0x0 PUSH1 0x20 DUP3 ADD MSTORE PUSH2 0xF17 DUP4 DUP4 DUP5 MLOAD PUSH2 0x1023 JUMP JUMPDEST SWAP4 SWAP3 POP POP POP JUMP JUMPDEST PUSH1 0x40 DUP1 MLOAD DUP1 DUP3 ADD SWAP1 SWAP2 MSTORE PUSH1 0x60 DUP2 MSTORE PUSH1 0x0 PUSH1 0x20 DUP3 ADD MSTORE DUP3 MLOAD MLOAD PUSH1 0x0 PUSH2 0xF43 DUP3 PUSH1 0x1 PUSH2 0x155F JUMP JUMPDEST SWAP1 POP DUP5 PUSH1 0x20 ADD MLOAD DUP3 LT PUSH2 0xF64 JUMPI PUSH2 0xF64 DUP6 PUSH2 0xF5F DUP4 PUSH1 0x2 PUSH2 0x15EA JUMP JUMPDEST PUSH2 0x10F4 JUMP JUMPDEST DUP5 MLOAD PUSH1 0x20 DUP4 DUP3 ADD ADD DUP6 DUP2 MSTORE8 POP DUP1 MLOAD DUP3 GT ISZERO PUSH2 0xF7D JUMPI DUP2 DUP2 MSTORE JUMPDEST POP SWAP4 SWAP5 SWAP4 POP POP POP POP JUMP JUMPDEST DUP2 MLOAD PUSH2 0xCD0 SWAP1 PUSH1 0x1F PUSH2 0x1FE0 PUSH1 0x5 DUP6 SWAP1 SHL AND OR PUSH2 0xF1E JUMP JUMPDEST PUSH1 0x40 DUP1 MLOAD DUP1 DUP3 ADD SWAP1 SWAP2 MSTORE PUSH1 0x60 DUP2 MSTORE PUSH1 0x0 PUSH1 0x20 DUP3 ADD MSTORE DUP4 MLOAD MLOAD PUSH1 0x0 PUSH2 0xFC2 DUP3 DUP6 PUSH2 0x155F JUMP JUMPDEST SWAP1 POP DUP6 PUSH1 0x20 ADD MLOAD DUP2 GT ISZERO PUSH2 0xFDF JUMPI PUSH2 0xFDF DUP7 PUSH2 0xF5F DUP4 PUSH1 0x2 PUSH2 0x15EA JUMP JUMPDEST PUSH1 0x0 PUSH1 0x1 PUSH2 0xFEF DUP7 PUSH2 0x100 PUSH2 0x16E5 JUMP JUMPDEST PUSH2 0xFF9 SWAP2 SWAP1 PUSH2 0x1538 JUMP JUMPDEST SWAP1 POP DUP7 MLOAD DUP3 DUP2 ADD DUP8 DUP4 NOT DUP3 MLOAD AND OR DUP2 MSTORE POP DUP1 MLOAD DUP4 GT ISZERO PUSH2 0x1017 JUMPI DUP3 DUP2 MSTORE JUMPDEST POP SWAP6 SWAP7 SWAP6 POP POP POP POP POP POP JUMP JUMPDEST PUSH1 0x40 DUP1 MLOAD DUP1 DUP3 ADD SWAP1 SWAP2 MSTORE PUSH1 0x60 DUP2 MSTORE PUSH1 0x0 PUSH1 0x20 DUP3 ADD MSTORE DUP3 MLOAD DUP3 GT ISZERO PUSH2 0x1046 JUMPI PUSH1 0x0 DUP1 REVERT JUMPDEST DUP4 MLOAD MLOAD PUSH1 0x0 PUSH2 0x1055 DUP5 DUP4 PUSH2 0x155F JUMP JUMPDEST SWAP1 POP DUP6 PUSH1 0x20 ADD MLOAD DUP2 GT ISZERO PUSH2 0x1072 JUMPI PUSH2 0x1072 DUP7 PUSH2 0xF5F DUP4 PUSH1 0x2 PUSH2 0x15EA JUMP JUMPDEST DUP6 MLOAD DUP1 MLOAD DUP4 DUP3 ADD PUSH1 0x20 ADD SWAP2 PUSH1 0x0 SWAP2 DUP1 DUP6 GT ISZERO PUSH2 0x108C JUMPI DUP5 DUP3 MSTORE JUMPDEST POP POP POP PUSH1 0x20 DUP7 ADD JUMPDEST PUSH1 0x20 DUP7 LT PUSH2 0x10CC JUMPI DUP1 MLOAD DUP3 MSTORE PUSH2 0x10AB PUSH1 0x20 DUP4 PUSH2 0x155F JUMP JUMPDEST SWAP2 POP PUSH2 0x10B8 PUSH1 0x20 DUP3 PUSH2 0x155F JUMP JUMPDEST SWAP1 POP PUSH2 0x10C5 PUSH1 0x20 DUP8 PUSH2 0x1538 JUMP JUMPDEST SWAP6 POP PUSH2 0x1094 JUMP JUMPDEST MLOAD DUP2 MLOAD PUSH1 0x0 NOT PUSH1 0x20 DUP9 SWAP1 SUB PUSH2 0x100 EXP ADD SWAP1 DUP2 AND SWAP1 NOT SWAP2 SWAP1 SWAP2 AND OR SWAP1 MSTORE POP DUP5 SWAP2 POP POP SWAP4 SWAP3 POP POP POP JUMP JUMPDEST DUP2 MLOAD PUSH2 0x1100 DUP4 DUP4 PUSH2 0xD5D JUMP JUMPDEST POP PUSH2 0xDFD DUP4 DUP3 PUSH2 0xEF6 JUMP JUMPDEST PUSH1 0x40 MLOAD DUP1 PUSH1 0x40 ADD PUSH1 0x40 MSTORE DUP1 PUSH2 0x1133 PUSH1 0x40 MLOAD DUP1 PUSH1 0x40 ADD PUSH1 0x40 MSTORE DUP1 PUSH1 0x60 DUP2 MSTORE PUSH1 0x20 ADD PUSH1 0x0 DUP2 MSTORE POP SWAP1 JUMP JUMPDEST DUP2 MSTORE PUSH1 0x20 ADD PUSH1 0x0 DUP2 MSTORE POP SWAP1 JUMP JUMPDEST PUSH4 0x4E487B71 PUSH1 0xE0 SHL PUSH1 0x0 MSTORE PUSH1 0x41 PUSH1 0x4 MSTORE PUSH1 0x24 PUSH1 0x0 REVERT JUMPDEST PUSH1 0x0 DUP3 PUSH1 0x1F DUP4 ADD SLT PUSH2 0x1167 JUMPI PUSH1 0x0 DUP1 REVERT JUMPDEST DUP2 CALLDATALOAD PUSH1 0x1 PUSH1 0x1 PUSH1 0x40 SHL SUB DUP1 DUP3 GT ISZERO PUSH2 0x1181 JUMPI PUSH2 0x1181 PUSH2 0x1140 JUMP JUMPDEST PUSH1 0x40 MLOAD PUSH1 0x1F DUP4 ADD PUSH1 0x1F NOT SWAP1 DUP2 AND PUSH1 0x3F ADD AND DUP2 ADD SWAP1 DUP3 DUP3 GT DUP2 DUP4 LT OR ISZERO PUSH2 0x11A9 JUMPI PUSH2 0x11A9 PUSH2 0x1140 JUMP JUMPDEST DUP2 PUSH1 0x40 MSTORE DUP4 DUP2 MSTORE DUP7 PUSH1 0x20 DUP6 DUP9 ADD ADD GT ISZERO PUSH2 0x11C2 JUMPI PUSH1 0x0 DUP1 REVERT JUMPDEST DUP4 PUSH1 0x20 DUP8 ADD PUSH1 0x20 DUP4 ADD CALLDATACOPY PUSH1 0x0 PUSH1 0x20 DUP6 DUP4 ADD ADD MSTORE DUP1 SWAP5 POP POP POP POP POP SWAP3 SWAP2 POP POP JUMP JUMPDEST PUSH1 0x0 DUP1 PUSH1 0x0 PUSH1 0x60 DUP5 DUP7 SUB SLT ISZERO PUSH2 0x11F7 JUMPI PUSH1 0x0 DUP1 REVERT JUMPDEST DUP4 CALLDATALOAD SWAP3 POP PUSH1 0x20 DUP5 ADD CALLDATALOAD PUSH1 0x1 PUSH1 0x1 PUSH1 0x40 SHL SUB DUP1 DUP3 GT ISZERO PUSH2 0x1215 JUMPI PUSH1 0x0 DUP1 REVERT JUMPDEST PUSH2 0x1221 DUP8 DUP4 DUP9 ADD PUSH2 0x1156 JUMP JUMPDEST SWAP4 POP PUSH1 0x40 DUP7 ADD CALLDATALOAD SWAP2 POP DUP1 DUP3 GT ISZERO PUSH2 0x1237 JUMPI PUSH1 0x0 DUP1 REVERT JUMPDEST POP PUSH2 0x1244 DUP7 DUP3 DUP8 ADD PUSH2 0x1156 JUMP JUMPDEST SWAP2 POP POP SWAP3 POP SWAP3 POP SWAP3 JUMP JUMPDEST PUSH1 0x0 DUP1 PUSH1 0x0 DUP1 PUSH1 0x60 DUP6 DUP8 SUB SLT ISZERO PUSH2 0x1264 JUMPI PUSH1 0x0 DUP1 REVERT JUMPDEST DUP5 CALLDATALOAD PUSH1 0x1 PUSH1 0x1 PUSH1 0xA0 SHL SUB DUP2 AND DUP2 EQ PUSH2 0x127B JUMPI PUSH1 0x0 DUP1 REVERT JUMPDEST SWAP4 POP PUSH1 0x20 DUP6 ADD CALLDATALOAD SWAP3 POP PUSH1 0x40 DUP6 ADD CALLDATALOAD PUSH1 0x1 PUSH1 0x1 PUSH1 0x40 SHL SUB DUP1 DUP3 GT ISZERO PUSH2 0x129E JUMPI PUSH1 0x0 DUP1 REVERT JUMPDEST DUP2 DUP8 ADD SWAP2 POP DUP8 PUSH1 0x1F DUP4 ADD SLT PUSH2 0x12B2 JUMPI PUSH1 0x0 DUP1 REVERT JUMPDEST DUP2 CALLDATALOAD DUP2 DUP2 GT ISZERO PUSH2 0x12C1 JUMPI PUSH1 0x0 DUP1 REVERT JUMPDEST DUP9 PUSH1 0x20 DUP3 DUP6 ADD ADD GT ISZERO PUSH2 0x12D3 JUMPI PUSH1 0x0 DUP1 REVERT JUMPDEST SWAP6 SWAP9 SWAP5 SWAP8 POP POP PUSH1 0x20 ADD SWAP5 POP POP POP JUMP JUMPDEST PUSH1 0x0 PUSH1 0x20 DUP3 DUP5 SUB SLT ISZERO PUSH2 0x12F4 JUMPI PUSH1 0x0 DUP1 REVERT JUMPDEST POP CALLDATALOAD SWAP2 SWAP1 POP JUMP JUMPDEST PUSH1 0x0 DUP2 MLOAD DUP1 DUP5 MSTORE PUSH1 0x0 JUMPDEST DUP2 DUP2 LT ISZERO PUSH2 0x1321 JUMPI PUSH1 0x20 DUP2 DUP6 ADD DUP2 ADD MLOAD DUP7 DUP4 ADD DUP3 ADD MSTORE ADD PUSH2 0x1305 JUMP JUMPDEST POP PUSH1 0x0 PUSH1 0x20 DUP3 DUP7 ADD ADD MSTORE PUSH1 0x20 PUSH1 0x1F NOT PUSH1 0x1F DUP4 ADD AND DUP6 ADD ADD SWAP2 POP POP SWAP3 SWAP2 POP POP JUMP JUMPDEST PUSH1 0x20 DUP2 MSTORE PUSH1 0x0 PUSH2 0xF17 PUSH1 0x20 DUP4 ADD DUP5 PUSH2 0x12FB JUMP JUMPDEST PUSH4 0x4E487B71 PUSH1 0xE0 SHL PUSH1 0x0 MSTORE PUSH1 0x32 PUSH1 0x4 MSTORE PUSH1 0x24 PUSH1 0x0 REVERT JUMPDEST PUSH1 0x1 DUP2 DUP2 SHR SWAP1 DUP3 AND DUP1 PUSH2 0x137E JUMPI PUSH1 0x7F DUP3 AND SWAP2 POP JUMPDEST PUSH1 0x20 DUP3 LT DUP2 SUB PUSH2 0x139E JUMPI PUSH4 0x4E487B71 PUSH1 0xE0 SHL PUSH1 0x0 MSTORE PUSH1 0x22 PUSH1 0x4 MSTORE PUSH1 0x24 PUSH1 0x0 REVERT JUMPDEST POP SWAP2 SWAP1 POP JUMP JUMPDEST PUSH1 0x1F DUP3 GT ISZERO PUSH2 0xCD0 JUMPI PUSH1 0x0 DUP2 DUP2 MSTORE PUSH1 0x20 DUP2 KECCAK256 PUSH1 0x1F DUP6 ADD PUSH1 0x5 SHR DUP2 ADD PUSH1 0x20 DUP7 LT ISZERO PUSH2 0x13CB JUMPI POP DUP1 JUMPDEST PUSH1 0x1F DUP6 ADD PUSH1 0x5 SHR DUP3 ADD SWAP2 POP JUMPDEST DUP2 DUP2 LT ISZERO PUSH2 0x13EA JUMPI DUP3 DUP2 SSTORE PUSH1 0x1 ADD PUSH2 0x13D7 JUMP JUMPDEST POP POP POP POP POP POP JUMP JUMPDEST DUP2 MLOAD PUSH1 0x1 PUSH1 0x1 PUSH1 0x40 SHL SUB DUP2 GT ISZERO PUSH2 0x140B JUMPI PUSH2 0x140B PUSH2 0x1140 JUMP JUMPDEST PUSH2 0x141F DUP2 PUSH2 0x1419 DUP5 SLOAD PUSH2 0x136A JUMP JUMPDEST DUP5 PUSH2 0x13A4 JUMP JUMPDEST PUSH1 0x20 DUP1 PUSH1 0x1F DUP4 GT PUSH1 0x1 DUP2 EQ PUSH2 0x1454 JUMPI PUSH1 0x0 DUP5 ISZERO PUSH2 0x143C JUMPI POP DUP6 DUP4 ADD MLOAD JUMPDEST PUSH1 0x0 NOT PUSH1 0x3 DUP7 SWAP1 SHL SHR NOT AND PUSH1 0x1 DUP6 SWAP1 SHL OR DUP6 SSTORE PUSH2 0x13EA JUMP JUMPDEST PUSH1 0x0 DUP6 DUP2 MSTORE PUSH1 0x20 DUP2 KECCAK256 PUSH1 0x1F NOT DUP7 AND SWAP2 JUMPDEST DUP3 DUP2 LT ISZERO PUSH2 0x1483 JUMPI DUP9 DUP7 ADD MLOAD DUP3 SSTORE SWAP5 DUP5 ADD SWAP5 PUSH1 0x1 SWAP1 SWAP2 ADD SWAP1 DUP5 ADD PUSH2 0x1464 JUMP JUMPDEST POP DUP6 DUP3 LT ISZERO PUSH2 0x14A1 JUMPI DUP8 DUP6 ADD MLOAD PUSH1 0x0 NOT PUSH1 0x3 DUP9 SWAP1 SHL PUSH1 0xF8 AND SHR NOT AND DUP2 SSTORE JUMPDEST POP POP POP POP POP PUSH1 0x1 SWAP1 DUP2 SHL ADD SWAP1 SSTORE POP JUMP JUMPDEST PUSH1 0x40 DUP2 MSTORE PUSH1 0x0 PUSH2 0x14C4 PUSH1 0x40 DUP4 ADD DUP6 PUSH2 0x12FB JUMP JUMPDEST DUP3 DUP2 SUB PUSH1 0x20 DUP5 ADD MSTORE PUSH2 0x14D6 DUP2 DUP6 PUSH2 0x12FB JUMP JUMPDEST SWAP6 SWAP5 POP POP POP POP POP JUMP JUMPDEST PUSH4 0x4E487B71 PUSH1 0xE0 SHL PUSH1 0x0 MSTORE PUSH1 0x11 PUSH1 0x4 MSTORE PUSH1 0x24 PUSH1 0x0 REVERT JUMPDEST PUSH1 0x0 PUSH1 0x1 DUP3 ADD PUSH2 0x1507 JUMPI PUSH2 0x1507 PUSH2 0x14DF JUMP JUMPDEST POP PUSH1 0x1 ADD SWAP1 JUMP JUMPDEST PUSH4 0x4E487B71 PUSH1 0xE0 SHL PUSH1 0x0 MSTORE PUSH1 0x12 PUSH1 0x4 MSTORE PUSH1 0x24 PUSH1 0x0 REVERT JUMPDEST PUSH1 0x0 DUP3 PUSH2 0x1533 JUMPI PUSH2 0x1533 PUSH2 0x150E JUMP JUMPDEST POP DIV SWAP1 JUMP JUMPDEST DUP2 DUP2 SUB DUP2 DUP2 GT ISZERO PUSH2 0xDD1 JUMPI PUSH2 0xDD1 PUSH2 0x14DF JUMP JUMPDEST PUSH1 0x0 DUP3 PUSH2 0x155A JUMPI PUSH2 0x155A PUSH2 0x150E JUMP JUMPDEST POP MOD SWAP1 JUMP JUMPDEST DUP1 DUP3 ADD DUP1 DUP3 GT ISZERO PUSH2 0xDD1 JUMPI PUSH2 0xDD1 PUSH2 0x14DF JUMP JUMPDEST PUSH4 0x4E487B71 PUSH1 0xE0 SHL PUSH1 0x0 MSTORE PUSH1 0x21 PUSH1 0x4 MSTORE PUSH1 0x24 PUSH1 0x0 REVERT JUMPDEST PUSH1 0x1 PUSH1 0x1 PUSH1 0x40 SHL SUB DUP7 AND DUP2 MSTORE PUSH1 0xA0 PUSH1 0x20 DUP3 ADD MSTORE PUSH1 0x0 PUSH2 0x15AA PUSH1 0xA0 DUP4 ADD DUP8 PUSH2 0x12FB JUMP JUMPDEST PUSH2 0xFFFF SWAP6 SWAP1 SWAP6 AND PUSH1 0x40 DUP4 ADD MSTORE POP PUSH4 0xFFFFFFFF SWAP3 SWAP1 SWAP3 AND PUSH1 0x60 DUP4 ADD MSTORE PUSH1 0x80 SWAP1 SWAP2 ADD MSTORE SWAP3 SWAP2 POP POP JUMP JUMPDEST PUSH1 0x0 PUSH1 0x20 DUP3 DUP5 SUB SLT ISZERO PUSH2 0x15E3 JUMPI PUSH1 0x0 DUP1 REVERT JUMPDEST POP MLOAD SWAP2 SWAP1 POP JUMP JUMPDEST DUP1 DUP3 MUL DUP2 ISZERO DUP3 DUP3 DIV DUP5 EQ OR PUSH2 0xDD1 JUMPI PUSH2 0xDD1 PUSH2 0x14DF JUMP JUMPDEST PUSH1 0x1 DUP2 DUP2 JUMPDEST DUP1 DUP6 GT ISZERO PUSH2 0x163C JUMPI DUP2 PUSH1 0x0 NOT DIV DUP3 GT ISZERO PUSH2 0x1622 JUMPI PUSH2 0x1622 PUSH2 0x14DF JUMP JUMPDEST DUP1 DUP6 AND ISZERO PUSH2 0x162F JUMPI SWAP2 DUP2 MUL SWAP2 JUMPDEST SWAP4 DUP5 SHR SWAP4 SWAP1 DUP1 MUL SWAP1 PUSH2 0x1606 JUMP JUMPDEST POP SWAP3 POP SWAP3 SWAP1 POP JUMP JUMPDEST PUSH1 0x0 DUP3 PUSH2 0x1653 JUMPI POP PUSH1 0x1 PUSH2 0xDD1 JUMP JUMPDEST DUP2 PUSH2 0x1660 JUMPI POP PUSH1 0x0 PUSH2 0xDD1 JUMP JUMPDEST DUP2 PUSH1 0x1 DUP2 EQ PUSH2 0x1676 JUMPI PUSH1 0x2 DUP2 EQ PUSH2 0x1680 JUMPI PUSH2 0x169C JUMP JUMPDEST PUSH1 0x1 SWAP2 POP POP PUSH2 0xDD1 JUMP JUMPDEST PUSH1 0xFF DUP5 GT ISZERO PUSH2 0x1691 JUMPI PUSH2 0x1691 PUSH2 0x14DF JUMP JUMPDEST POP POP PUSH1 0x1 DUP3 SHL PUSH2 0xDD1 JUMP JUMPDEST POP PUSH1 0x20 DUP4 LT PUSH2 0x133 DUP4 LT AND PUSH1 0x4E DUP5 LT PUSH1 0xB DUP5 LT AND OR ISZERO PUSH2 0x16BF JUMPI POP DUP2 DUP2 EXP PUSH2 0xDD1 JUMP JUMPDEST PUSH2 0x16C9 DUP4 DUP4 PUSH2 0x1601 JUMP JUMPDEST DUP1 PUSH1 0x0 NOT DIV DUP3 GT ISZERO PUSH2 0x16DD JUMPI PUSH2 0x16DD PUSH2 0x14DF JUMP JUMPDEST MUL SWAP4 SWAP3 POP POP POP JUMP JUMPDEST PUSH1 0x0 PUSH2 0xF17 DUP4 DUP4 PUSH2 0x1644 JUMP INVALID PUSH4 0x6F6E7374 KECCAK256 PUSH17 0x726F636F726550726F6A6563744964203D KECCAK256 PUSH2 0x7267 PUSH20 0x5B305D3B636F6E7374206D696C6573746F6E6549 PUSH15 0x646578203D20617267735B315D3B63 PUSH16 0x6E737420726573203D20617761697420 CHAINID PUSH22 0x6E6374696F6E732E6D616B6548747470526571756573 PUSH21 0x287B202075726C3A202768747470733A2F2F627569 PUSH13 0x646C696E6B2D66726F6E74656E PUSH5 0x2E76657263 PUSH6 0x6C2E6170702F PUSH2 0x7069 0x2F PUSH17 0x726F636F72652F776562686F6F6B272C20 KECCAK256 PUSH14 0x6574686F643A2027504F5354272C KECCAK256 KECCAK256 PUSH9 0x6561646572733A207B KECCAK256 0x27 NUMBER PUSH16 0x6E74656E742D54797065273A20276170 PUSH17 0x6C69636174696F6E2F6A736F6E27207D2C KECCAK256 KECCAK256 PUSH5 0x6174613A20 PUSH28 0x2070726F636F726550726F6A65637449643A2070726F636F72655072 PUSH16 0x6A65637449642C206D696C6573746F6E PUSH6 0x496E6465783A KECCAK256 PUSH17 0x61727365496E74286D696C6573746F6E65 0x49 PUSH15 0x64657829207D7D293B696620287265 PUSH20 0x2E6572726F7229207468726F77204572726F7228 0x27 JUMPI PUSH6 0x62686F6F6B20 PUSH19 0x657175657374206661696C65643A2027202B20 PUSH19 0x65732E6D657373616765293B636F6E73742073 PUSH21 0x61747573203D207265732E64617461202626207265 PUSH20 0x2E646174612E737461747573203F207265732E64 PUSH2 0x7461 0x2E PUSH20 0x7461747573203A202772656A6563746564273B72 PUSH6 0x7475726E2046 PUSH22 0x6E6374696F6E732E656E636F6465537472696E672873 PUSH21 0x61747573203D3D3D2027617070726F76656427203F KECCAK256 0x27 PUSH2 0x7070 PUSH19 0x6F76656427203A202772656A65637465642729 EXTCODESIZE LOG2 PUSH5 0x6970667358 0x22 SLT KECCAK256 SWAP8 DUP5 0x5E 0xE 0x26 DUP12 0xE5 MUL 0x4A PUSH13 0x8DC9E259E41EB966CEF24C0793 PUSH20 0x53D45794A1F87FB64736F6C6343000814003300 "},"methodIdentifiers":{"CALLBACK_GAS_LIMIT()":"33d608f1","DON_ID()":"0cde9f3c","SUBSCRIPTION_ID()":"030932bb","admin()":"f851a440","handleOracleFulfillment(bytes32,bytes,bytes)":"0ca76175","latestError()":"fffeb84e","latestRequestId()":"1aa46f59","latestResponse()":"bef3a2f0","pendingRequests(bytes32)":"2795ad20","sendRequest(address,uint256,string)":"1b1f5c24"}}}}}