{"contracts/EscrowVaultUSDC.sol":{"EscrowVaultUSDC":{"abi":[{"inputs":[{"internalType":"address","name":"_usdc","type":"address"},{"internalType":"address","name":"_contractor","type":"address"},{"internalType":"uint256","name":"_retainageBps","type":"uint256"},{"internalType":"uint256","name":"_retainageReleaseThresholdBps","type":"uint256"}],"stateMutability":"nonpayable","type":"constructor"},{"anonymous":false,"inputs":[{"indexed":true,"internalType":"address","name":"from","type":"address"},{"indexed":false,"internalType":"uint256","name":"amount","type":"uint256"}],"name":"Funded","type":"event"},{"anonymous":false,"inputs":[{"indexed":true,"internalType":"uint256","name":"milestoneId","type":"uint256"}],"name":"MilestoneApproved","type":"event"},{"anonymous":false,"inputs":[{"indexed":true,"internalType":"uint256","name":"milestoneId","type":"uint256"},{"indexed":false,"internalType":"uint256","name":"amount","type":"uint256"},{"indexed":false,"internalType":"uint256","name":"netPayable","type":"uint256"}],"name":"MilestoneCreated","type":"event"},{"anonymous":false,"inputs":[{"indexed":true,"internalType":"uint256","name":"milestoneId","type":"uint256"},{"indexed":false,"internalType":"string","name":"reason","type":"string"}],"name":"MilestoneDisputed","type":"event"},{"anonymous":false,"inputs":[{"indexed":true,"internalType":"uint256","name":"milestoneId","type":"uint256"},{"indexed":false,"internalType":"uint256","name":"netAmount","type":"uint256"},{"indexed":false,"internalType":"uint256","name":"retainageAmount","type":"uint256"}],"name":"MilestonePaid","type":"event"},{"anonymous":false,"inputs":[{"indexed":true,"internalType":"uint256","name":"milestoneId","type":"uint256"},{"indexed":false,"internalType":"bytes32","name":"proofHash","type":"bytes32"}],"name":"MilestoneSubmitted","type":"event"},{"anonymous":false,"inputs":[{"indexed":false,"internalType":"uint256","name":"amount","type":"uint256"}],"name":"RetainageReleased","type":"event"},{"inputs":[{"internalType":"uint256","name":"milestoneId","type":"uint256"}],"name":"approveMilestone","outputs":[],"stateMutability":"nonpayable","type":"function"},{"inputs":[],"name":"contractor","outputs":[{"internalType":"address","name":"","type":"address"}],"stateMutability":"view","type":"function"},{"inputs":[{"internalType":"uint256","name":"amount","type":"uint256"}],"name":"createMilestone","outputs":[{"internalType":"uint256","name":"id","type":"uint256"}],"stateMutability":"nonpayable","type":"function"},{"inputs":[{"internalType":"uint256","name":"amount","type":"uint256"}],"name":"depositFunds","outputs":[],"stateMutability":"nonpayable","type":"function"},{"inputs":[],"name":"developer","outputs":[{"internalType":"address","name":"","type":"address"}],"stateMutability":"view","type":"function"},{"inputs":[{"internalType":"uint256","name":"milestoneId","type":"uint256"},{"internalType":"string","name":"reason","type":"string"}],"name":"disputeMilestone","outputs":[],"stateMutability":"nonpayable","type":"function"},{"inputs":[],"name":"milestoneCount","outputs":[{"internalType":"uint256","name":"","type":"uint256"}],"stateMutability":"view","type":"function"},{"inputs":[{"internalType":"uint256","name":"","type":"uint256"}],"name":"milestones","outputs":[{"internalType":"uint256","name":"amount","type":"uint256"},{"internalType":"uint256","name":"netPayable","type":"uint256"},{"internalType":"enum EscrowVaultUSDC.MilestoneStatus","name":"status","type":"uint8"},{"internalType":"bytes32","name":"proofHash","type":"bytes32"},{"internalType":"uint64","name":"submittedAt","type":"uint64"},{"internalType":"uint64","name":"approvedAt","type":"uint64"},{"internalType":"uint64","name":"paidAt","type":"uint64"}],"stateMutability":"view","type":"function"},{"inputs":[{"internalType":"uint256","name":"milestoneId","type":"uint256"}],"name":"payMilestone","outputs":[],"stateMutability":"nonpayable","type":"function"},{"inputs":[],"name":"releaseRetainage","outputs":[],"stateMutability":"nonpayable","type":"function"},{"inputs":[],"name":"retainageBps","outputs":[{"internalType":"uint256","name":"","type":"uint256"}],"stateMutability":"view","type":"function"},{"inputs":[],"name":"retainageHeld","outputs":[{"internalType":"uint256","name":"","type":"uint256"}],"stateMutability":"view","type":"function"},{"inputs":[],"name":"retainageReleaseThresholdBps","outputs":[{"internalType":"uint256","name":"","type":"uint256"}],"stateMutability":"view","type":"function"},{"inputs":[{"internalType":"uint256","name":"milestoneId","type":"uint256"},{"internalType":"bytes32","name":"proofHash","type":"bytes32"}],"name":"submitMilestone","outputs":[],"stateMutability":"nonpayable","type":"function"},{"inputs":[],"name":"totalDeposited","outputs":[{"internalType":"uint256","name":"","type":"uint256"}],"stateMutability":"view","type":"function"},{"inputs":[],"name":"totalPaid","outputs":[{"internalType":"uint256","name":"","type":"uint256"}],"stateMutability":"view","type":"function"},{"inputs":[],"name":"usdc","outputs":[{"internalType":"contract IERC20","name":"","type":"address"}],"stateMutability":"view","type":"function"}],"evm":{"bytecode":{"linkReferences":{},"object":"6101006040523480156200001257600080fd5b50604051620017dc380380620017dc83398101604081905262000035916200015b565b6001600160a01b038416620000805760405162461bcd60e51b815260206004820152600c60248201526b496e76616c6964205553444360a01b60448201526064015b60405180910390fd5b6001600160a01b038316620000cd5760405162461bcd60e51b815260206004820152601260248201527124b73b30b634b21031b7b73a3930b1ba37b960711b604482015260640162000077565b6107d0821115620001165760405162461bcd60e51b81526020600482015260126024820152710a4cae8c2d2dcc2ceca40e8dede40d0d2ced60731b604482015260640162000077565b6001600160a01b039384166080523360a0529190921660c05260e091909152600055620001a3565b80516001600160a01b03811681146200015657600080fd5b919050565b600080600080608085870312156200017257600080fd5b6200017d856200013e565b93506200018d602086016200013e565b6040860151606090960151949790965092505050565b60805160a05160c05160e05161158f6200024d600039600081816101ae015281816108f901526110990152600081816102760152818161059501528181610a940152610b990152600081816101fb015281816102ac015281816106920152818161081701528181610d7001528181610ec70152611017015260008181610149015281816104c1015281816105c401528181610743015281816109510152610ac3015261158f6000f3fe608060405234801561001057600080fd5b506004361061010b5760003560e01c8063c4f5cae0116100a2578063e7b0f66611610071578063e7b0f66614610239578063e89e4ed614610242578063f6a2807314610268578063fbfd204514610271578063ff50abdc1461029857600080fd5b8063c4f5cae0146101e3578063ca4b208b146101f6578063cbe39ad01461021d578063d2bd56d01461022657600080fd5b806369db0a7e116100de57806369db0a7e1461018357806378b69604146101965780639e453d8c146101a9578063c438b40f146101d057600080fd5b806304e265b3146101105780630681ca551461011a5780633b76594d146101315780633e413bee14610144575b600080fd5b6101186102a1565b005b6004545b6040519081526020015b60405180910390f35b61011861013f36600461129a565b610687565b61016b7f000000000000000000000000000000000000000000000000000000000000000081565b6040516001600160a01b039091168152602001610128565b61011861019136600461129a565b61080c565b6101186101a43660046112b3565b610b8e565b61011e7f000000000000000000000000000000000000000000000000000000000000000081565b6101186101de36600461129a565b610d65565b6101186101f13660046112d5565b610ebc565b61016b7f000000000000000000000000000000000000000000000000000000000000000081565b61011e60035481565b61011e61023436600461129a565b61100a565b61011e60025481565b61025561025036600461129a565b611235565b6040516101289796959493929190611367565b61011e60005481565b61016b7f000000000000000000000000000000000000000000000000000000000000000081565b61011e60015481565b336001600160a01b037f000000000000000000000000000000000000000000000000000000000000000016146102f25760405162461bcd60e51b81526004016102e9906113c9565b60405180910390fd5b600454600080805b838110156103b757600360048281548110610317576103176113f1565b600091825260209091206002600590920201015460ff16600481111561033f5761033f611351565b03610356578261034e8161141d565b9350506103a5565b600480828154811061036a5761036a6113f1565b600091825260209091206002600590920201015460ff16600481111561039257610392611351565b036103a557816103a18161141d565b9250505b806103af8161141d565b9150506102fa565b5060006103c48285611436565b90506000811161040f5760405162461bcd60e51b81526020600482015260166024820152754e6f20656c696769626c65206d696c6573746f6e657360501b60448201526064016102e9565b6000548161041f8561271061144f565b6104299190611466565b101561046b5760405162461bcd60e51b8152602060048201526011602482015270151a1c995cda1bdb19081b9bdd081b595d607a1b60448201526064016102e9565b600354806104aa5760405162461bcd60e51b815260206004820152600c60248201526b4e6f2072657461696e61676560a01b60448201526064016102e9565b6040516370a0823160e01b815230600482015281907f00000000000000000000000000000000000000000000000000000000000000006001600160a01b0316906370a0823190602401602060405180830381865afa158015610510573d6000803e3d6000fd5b505050506040513d601f19601f820116820180604052508101906105349190611488565b10156105795760405162461bcd60e51b8152602060048201526014602482015273496e73756666696369656e742062616c616e636560601b60448201526064016102e9565b600060035560405163a9059cbb60e01b81526001600160a01b037f000000000000000000000000000000000000000000000000000000000000000081166004830152602482018390527f0000000000000000000000000000000000000000000000000000000000000000169063a9059cbb906044016020604051808303816000875af115801561060d573d6000803e3d6000fd5b505050506040513d601f19601f8201168201806040525081019061063191906114a1565b61064d5760405162461bcd60e51b81526004016102e9906114ca565b6040518181527f7da60aef752d91c97b4a6dc4bcddf55a6492fa61f1a65132e1472a1760a751b29060200160405180910390a15050505050565b336001600160a01b037f000000000000000000000000000000000000000000000000000000000000000016146106cf5760405162461bcd60e51b81526004016102e9906113c9565b6000811161070a5760405162461bcd60e51b81526020600482015260086024820152670416d6f756e743d360c41b60448201526064016102e9565b806001600082825461071c91906114f3565b90915550506040516323b872dd60e01b8152336004820152306024820152604481018290527f00000000000000000000000000000000000000000000000000000000000000006001600160a01b0316906323b872dd906064016020604051808303816000875af1158015610794573d6000803e3d6000fd5b505050506040513d601f19601f820116820180604052508101906107b891906114a1565b6107d45760405162461bcd60e51b81526004016102e9906114ca565b60405181815233907f5af8184bef8e4b45eb9f6ed7734d04da38ced226495548f46e0c8ff8d7d9a5249060200160405180910390a250565b336001600160a01b037f000000000000000000000000000000000000000000000000000000000000000016146108545760405162461bcd60e51b81526004016102e9906113c9565b60045481106108755760405162461bcd60e51b81526004016102e990611506565b60006004828154811061088a5761088a6113f1565b60009182526020909120600590910201905060028082015460ff1660048111156108b6576108b6611351565b146108f25760405162461bcd60e51b815260206004820152600c60248201526b139bdd08185c1c1c9bdd995960a21b60448201526064016102e9565b60006127107f00000000000000000000000000000000000000000000000000000000000000008360000154610927919061144f565b6109319190611466565b60018301546040516370a0823160e01b81523060048201529192509081907f00000000000000000000000000000000000000000000000000000000000000006001600160a01b0316906370a0823190602401602060405180830381865afa1580156109a0573d6000803e3d6000fd5b505050506040513d601f19601f820116820180604052508101906109c49190611488565b1015610a125760405162461bcd60e51b815260206004820152601b60248201527f496e73756666696369656e7420657363726f772062616c616e6365000000000060448201526064016102e9565b6002838101805460ff1916600317905560048401805467ffffffffffffffff4216600160801b0267ffffffffffffffff60801b199091161790558054829190600090610a5f9084906114f3565b925050819055508160036000828254610a7891906114f3565b909155505060405163a9059cbb60e01b81526001600160a01b037f000000000000000000000000000000000000000000000000000000000000000081166004830152602482018390527f0000000000000000000000000000000000000000000000000000000000000000169063a9059cbb906044016020604051808303816000875af1158015610b0c573d6000803e3d6000fd5b505050506040513d601f19601f82011682018060405250810190610b3091906114a1565b610b4c5760405162461bcd60e51b81526004016102e9906114ca565b604080518281526020810184905285917fafc8fc5dd6037bf38d34d9d51bb5ecc0af143248332c63ae9e83bbef6d4638d991015b60405180910390a250505050565b336001600160a01b037f00000000000000000000000000000000000000000000000000000000000000001614610bf85760405162461bcd60e51b815260206004820152600f60248201526e27b7363c9031b7b73a3930b1ba37b960891b60448201526064016102e9565b6004548210610c195760405162461bcd60e51b81526004016102e990611506565b80610c565760405162461bcd60e51b815260206004820152600d60248201526c24b73b30b634b210383937b7b360991b60448201526064016102e9565b600060048381548110610c6b57610c6b6113f1565b6000918252602082206005909102019150600282015460ff166004811115610c9557610c95611351565b1480610cb957506004600282015460ff166004811115610cb757610cb7611351565b145b610cf45760405162461bcd60e51b815260206004820152600c60248201526b57726f6e672073746174757360a01b60448201526064016102e9565b60028101805460ff191660011790556003810182905560048101805467ffffffffffffffff421667ffffffffffffffff1990911617905560405182815283907f7287d4e2124e164c3e1c3f79240dfe987824d65cbde320cca075a436de20a0589060200160405180910390a2505050565b336001600160a01b037f00000000000000000000000000000000000000000000000000000000000000001614610dad5760405162461bcd60e51b81526004016102e9906113c9565b6004548110610dce5760405162461bcd60e51b81526004016102e990611506565b600060048281548110610de357610de36113f1565b6000918252602090912060059091020190506001600282015460ff166004811115610e1057610e10611351565b14610e4d5760405162461bcd60e51b815260206004820152600d60248201526c139bdd081cdd589b5a5d1d1959609a1b60448201526064016102e9565b6002818101805460ff191660018302179055506004810180546fffffffffffffffff00000000000000001916600160401b4267ffffffffffffffff160217905560405182907f0adffe31a62a9e7e5068bdd6f839470d57dd0e18fac8a8d525196283eb9b392a90600090a25050565b336001600160a01b037f00000000000000000000000000000000000000000000000000000000000000001614610f045760405162461bcd60e51b81526004016102e9906113c9565b6004548310610f255760405162461bcd60e51b81526004016102e990611506565b600060048481548110610f3a57610f3a6113f1565b6000918252602090912060059091020190506001600282015460ff166004811115610f6757610f67611351565b1480610f8a575060028082015460ff166004811115610f8857610f88611351565b145b610fc75760405162461bcd60e51b815260206004820152600e60248201526d4e6f742064697370757461626c6560901b60448201526064016102e9565b60028101805460ff1916600417905560405184907f365d08ff2df448ec87654cbda15ec8f08a648e967a4492300f4a05869512b3f890610b80908690869061152a565b6000336001600160a01b037f000000000000000000000000000000000000000000000000000000000000000016146110545760405162461bcd60e51b81526004016102e9906113c9565b6000821161108f5760405162461bcd60e51b81526020600482015260086024820152670416d6f756e743d360c41b60448201526064016102e9565b60006127106110be7f00000000000000000000000000000000000000000000000000000000000000008561144f565b6110c89190611466565b905060006110d68285611436565b905060046040518060e001604052808681526020018381526020016000600481111561110457611104611351565b81526000602080830182905260408084018390526060840183905260809093018290528454600181810187559583529181902084516005909302019182558301518185015590820151600282018054939492939192909160ff19169083600481111561117257611172611351565b02179055506060820151600382015560808201516004918201805460a085015160c09095015167ffffffffffffffff908116600160801b0267ffffffffffffffff60801b19968216600160401b026fffffffffffffffffffffffffffffffff199093169190941617179390931617909155546111f090600190611436565b604080518681526020810184905291945084917fb59c2d823e6ca395c24829d80f43a97d9c6fd711596372c5a4663af872f4b9d2910160405180910390a25050919050565b6004818154811061124557600080fd5b600091825260209091206005909102018054600182015460028301546003840154600490940154929450909260ff9091169167ffffffffffffffff80821691600160401b8104821691600160801b9091041687565b6000602082840312156112ac57600080fd5b5035919050565b600080604083850312156112c657600080fd5b50508035926020909101359150565b6000806000604084860312156112ea57600080fd5b83359250602084013567ffffffffffffffff8082111561130957600080fd5b818601915086601f83011261131d57600080fd5b81358181111561132c57600080fd5b87602082850101111561133e57600080fd5b6020830194508093505050509250925092565b634e487b7160e01b600052602160045260246000fd5b8781526020810187905260e081016005871061139357634e487b7160e01b600052602160045260246000fd5b6040820196909652606081019490945267ffffffffffffffff928316608085015290821660a08401521660c09091015292915050565b6020808252600e908201526d27b7363c903232bb32b637b832b960911b604082015260600190565b634e487b7160e01b600052603260045260246000fd5b634e487b7160e01b600052601160045260246000fd5b60006001820161142f5761142f611407565b5060010190565b8181038181111561144957611449611407565b92915050565b808202811582820484141761144957611449611407565b60008261148357634e487b7160e01b600052601260045260246000fd5b500490565b60006020828403121561149a57600080fd5b5051919050565b6000602082840312156114b357600080fd5b815180151581146114c357600080fd5b9392505050565b6020808252600f908201526e151c985b9cd9995c8819985a5b1959608a1b604082015260600190565b8082018082111561144957611449611407565b6020808252600a9082015269125b9d985b1a59081a5960b21b604082015260600190565b60208152816020820152818360408301376000818301604090810191909152601f909201601f1916010191905056fea2646970667358221220dfc52b6192e1f47068fd6df7b95a68eb833f80fc404d639a081bb663e6af18a064736f6c63430008140033","opcodes":"PUSH2 0x100 PUSH1 0x40 MSTORE CALLVALUE DUP1 ISZERO PUSH3 0x12 JUMPI PUSH1 0x0 DUP1 REVERT JUMPDEST POP PUSH1 0x40 MLOAD PUSH3 0x17DC CODESIZE SUB DUP1 PUSH3 0x17DC DUP4 CODECOPY DUP2 ADD PUSH1 0x40 DUP2 SWAP1 MSTORE PUSH3 0x35 SWAP2 PUSH3 0x15B JUMP JUMPDEST PUSH1 0x1 PUSH1 0x1 PUSH1 0xA0 SHL SUB DUP5 AND PUSH3 0x80 JUMPI PUSH1 0x40 MLOAD PUSH3 0x461BCD PUSH1 0xE5 SHL DUP2 MSTORE PUSH1 0x20 PUSH1 0x4 DUP3 ADD MSTORE PUSH1 0xC PUSH1 0x24 DUP3 ADD MSTORE PUSH12 0x496E76616C69642055534443 PUSH1 0xA0 SHL PUSH1 0x44 DUP3 ADD MSTORE PUSH1 0x64 ADD JUMPDEST PUSH1 0x40 MLOAD DUP1 SWAP2 SUB SWAP1 REVERT JUMPDEST PUSH1 0x1 PUSH1 0x1 PUSH1 0xA0 SHL SUB DUP4 AND PUSH3 0xCD JUMPI PUSH1 0x40 MLOAD PUSH3 0x461BCD PUSH1 0xE5 SHL DUP2 MSTORE PUSH1 0x20 PUSH1 0x4 DUP3 ADD MSTORE PUSH1 0x12 PUSH1 0x24 DUP3 ADD MSTORE PUSH18 0x24B73B30B634B21031B7B73A3930B1BA37B9 PUSH1 0x71 SHL PUSH1 0x44 DUP3 ADD MSTORE PUSH1 0x64 ADD PUSH3 0x77 JUMP JUMPDEST PUSH2 0x7D0 DUP3 GT ISZERO PUSH3 0x116 JUMPI PUSH1 0x40 MLOAD PUSH3 0x461BCD PUSH1 0xE5 SHL DUP2 MSTORE PUSH1 0x20 PUSH1 0x4 DUP3 ADD MSTORE PUSH1 0x12 PUSH1 0x24 DUP3 ADD MSTORE PUSH18 0xA4CAE8C2D2DCC2CECA40E8DEDE40D0D2CED PUSH1 0x73 SHL PUSH1 0x44 DUP3 ADD MSTORE PUSH1 0x64 ADD PUSH3 0x77 JUMP JUMPDEST PUSH1 0x1 PUSH1 0x1 PUSH1 0xA0 SHL SUB SWAP4 DUP5 AND PUSH1 0x80 MSTORE CALLER PUSH1 0xA0 MSTORE SWAP2 SWAP1 SWAP3 AND PUSH1 0xC0 MSTORE PUSH1 0xE0 SWAP2 SWAP1 SWAP2 MSTORE PUSH1 0x0 SSTORE PUSH3 0x1A3 JUMP JUMPDEST DUP1 MLOAD PUSH1 0x1 PUSH1 0x1 PUSH1 0xA0 SHL SUB DUP2 AND DUP2 EQ PUSH3 0x156 JUMPI PUSH1 0x0 DUP1 REVERT JUMPDEST SWAP2 SWAP1 POP JUMP JUMPDEST PUSH1 0x0 DUP1 PUSH1 0x0 DUP1 PUSH1 0x80 DUP6 DUP8 SUB SLT ISZERO PUSH3 0x172 JUMPI PUSH1 0x0 DUP1 REVERT JUMPDEST PUSH3 0x17D DUP6 PUSH3 0x13E JUMP JUMPDEST SWAP4 POP PUSH3 0x18D PUSH1 0x20 DUP7 ADD PUSH3 0x13E JUMP JUMPDEST PUSH1 0x40 DUP7 ADD MLOAD PUSH1 0x60 SWAP1 SWAP7 ADD MLOAD SWAP5 SWAP8 SWAP1 SWAP7 POP SWAP3 POP POP POP JUMP JUMPDEST PUSH1 0x80 MLOAD PUSH1 0xA0 MLOAD PUSH1 0xC0 MLOAD PUSH1 0xE0 MLOAD PUSH2 0x158F PUSH3 0x24D PUSH1 0x0 CODECOPY PUSH1 0x0 DUP2 DUP2 PUSH2 0x1AE ADD MSTORE DUP2 DUP2 PUSH2 0x8F9 ADD MSTORE PUSH2 0x1099 ADD MSTORE PUSH1 0x0 DUP2 DUP2 PUSH2 0x276 ADD MSTORE DUP2 DUP2 PUSH2 0x595 ADD MSTORE DUP2 DUP2 PUSH2 0xA94 ADD MSTORE PUSH2 0xB99 ADD MSTORE PUSH1 0x0 DUP2 DUP2 PUSH2 0x1FB ADD MSTORE DUP2 DUP2 PUSH2 0x2AC ADD MSTORE DUP2 DUP2 PUSH2 0x692 ADD MSTORE DUP2 DUP2 PUSH2 0x817 ADD MSTORE DUP2 DUP2 PUSH2 0xD70 ADD MSTORE DUP2 DUP2 PUSH2 0xEC7 ADD MSTORE PUSH2 0x1017 ADD MSTORE PUSH1 0x0 DUP2 DUP2 PUSH2 0x149 ADD MSTORE DUP2 DUP2 PUSH2 0x4C1 ADD MSTORE DUP2 DUP2 PUSH2 0x5C4 ADD MSTORE DUP2 DUP2 PUSH2 0x743 ADD MSTORE DUP2 DUP2 PUSH2 0x951 ADD MSTORE PUSH2 0xAC3 ADD MSTORE PUSH2 0x158F PUSH1 0x0 RETURN INVALID PUSH1 0x80 PUSH1 0x40 MSTORE CALLVALUE DUP1 ISZERO PUSH2 0x10 JUMPI PUSH1 0x0 DUP1 REVERT JUMPDEST POP PUSH1 0x4 CALLDATASIZE LT PUSH2 0x10B JUMPI PUSH1 0x0 CALLDATALOAD PUSH1 0xE0 SHR DUP1 PUSH4 0xC4F5CAE0 GT PUSH2 0xA2 JUMPI DUP1 PUSH4 0xE7B0F666 GT PUSH2 0x71 JUMPI DUP1 PUSH4 0xE7B0F666 EQ PUSH2 0x239 JUMPI DUP1 PUSH4 0xE89E4ED6 EQ PUSH2 0x242 JUMPI DUP1 PUSH4 0xF6A28073 EQ PUSH2 0x268 JUMPI DUP1 PUSH4 0xFBFD2045 EQ PUSH2 0x271 JUMPI DUP1 PUSH4 0xFF50ABDC EQ PUSH2 0x298 JUMPI PUSH1 0x0 DUP1 REVERT JUMPDEST DUP1 PUSH4 0xC4F5CAE0 EQ PUSH2 0x1E3 JUMPI DUP1 PUSH4 0xCA4B208B EQ PUSH2 0x1F6 JUMPI DUP1 PUSH4 0xCBE39AD0 EQ PUSH2 0x21D JUMPI DUP1 PUSH4 0xD2BD56D0 EQ PUSH2 0x226 JUMPI PUSH1 0x0 DUP1 REVERT JUMPDEST DUP1 PUSH4 0x69DB0A7E GT PUSH2 0xDE JUMPI DUP1 PUSH4 0x69DB0A7E EQ PUSH2 0x183 JUMPI DUP1 PUSH4 0x78B69604 EQ PUSH2 0x196 JUMPI DUP1 PUSH4 0x9E453D8C EQ PUSH2 0x1A9 JUMPI DUP1 PUSH4 0xC438B40F EQ PUSH2 0x1D0 JUMPI PUSH1 0x0 DUP1 REVERT JUMPDEST DUP1 PUSH4 0x4E265B3 EQ PUSH2 0x110 JUMPI DUP1 PUSH4 0x681CA55 EQ PUSH2 0x11A JUMPI DUP1 PUSH4 0x3B76594D EQ PUSH2 0x131 JUMPI DUP1 PUSH4 0x3E413BEE EQ PUSH2 0x144 JUMPI JUMPDEST PUSH1 0x0 DUP1 REVERT JUMPDEST PUSH2 0x118 PUSH2 0x2A1 JUMP JUMPDEST STOP JUMPDEST PUSH1 0x4 SLOAD JUMPDEST PUSH1 0x40 MLOAD SWAP1 DUP2 MSTORE PUSH1 0x20 ADD JUMPDEST PUSH1 0x40 MLOAD DUP1 SWAP2 SUB SWAP1 RETURN JUMPDEST PUSH2 0x118 PUSH2 0x13F CALLDATASIZE PUSH1 0x4 PUSH2 0x129A JUMP JUMPDEST PUSH2 0x687 JUMP JUMPDEST PUSH2 0x16B PUSH32 0x0 DUP2 JUMP JUMPDEST PUSH1 0x40 MLOAD PUSH1 0x1 PUSH1 0x1 PUSH1 0xA0 SHL SUB SWAP1 SWAP2 AND DUP2 MSTORE PUSH1 0x20 ADD PUSH2 0x128 JUMP JUMPDEST PUSH2 0x118 PUSH2 0x191 CALLDATASIZE PUSH1 0x4 PUSH2 0x129A JUMP JUMPDEST PUSH2 0x80C JUMP JUMPDEST PUSH2 0x118 PUSH2 0x1A4 CALLDATASIZE PUSH1 0x4 PUSH2 0x12B3 JUMP JUMPDEST PUSH2 0xB8E JUMP JUMPDEST PUSH2 0x11E PUSH32 0x0 DUP2 JUMP JUMPDEST PUSH2 0x118 PUSH2 0x1DE CALLDATASIZE PUSH1 0x4 PUSH2 0x129A JUMP JUMPDEST PUSH2 0xD65 JUMP JUMPDEST PUSH2 0x118 PUSH2 0x1F1 CALLDATASIZE PUSH1 0x4 PUSH2 0x12D5 JUMP JUMPDEST PUSH2 0xEBC JUMP JUMPDEST PUSH2 0x16B PUSH32 0x0 DUP2 JUMP JUMPDEST PUSH2 0x11E PUSH1 0x3 SLOAD DUP2 JUMP JUMPDEST PUSH2 0x11E PUSH2 0x234 CALLDATASIZE PUSH1 0x4 PUSH2 0x129A JUMP JUMPDEST PUSH2 0x100A JUMP JUMPDEST PUSH2 0x11E PUSH1 0x2 SLOAD DUP2 JUMP JUMPDEST PUSH2 0x255 PUSH2 0x250 CALLDATASIZE PUSH1 0x4 PUSH2 0x129A JUMP JUMPDEST PUSH2 0x1235 JUMP JUMPDEST PUSH1 0x40 MLOAD PUSH2 0x128 SWAP8 SWAP7 SWAP6 SWAP5 SWAP4 SWAP3 SWAP2 SWAP1 PUSH2 0x1367 JUMP JUMPDEST PUSH2 0x11E PUSH1 0x0 SLOAD DUP2 JUMP JUMPDEST PUSH2 0x16B PUSH32 0x0 DUP2 JUMP JUMPDEST PUSH2 0x11E PUSH1 0x1 SLOAD DUP2 JUMP JUMPDEST CALLER PUSH1 0x1 PUSH1 0x1 PUSH1 0xA0 SHL SUB PUSH32 0x0 AND EQ PUSH2 0x2F2 JUMPI PUSH1 0x40 MLOAD PUSH3 0x461BCD PUSH1 0xE5 SHL DUP2 MSTORE PUSH1 0x4 ADD PUSH2 0x2E9 SWAP1 PUSH2 0x13C9 JUMP JUMPDEST PUSH1 0x40 MLOAD DUP1 SWAP2 SUB SWAP1 REVERT JUMPDEST PUSH1 0x4 SLOAD PUSH1 0x0 DUP1 DUP1 JUMPDEST DUP4 DUP2 LT ISZERO PUSH2 0x3B7 JUMPI PUSH1 0x3 PUSH1 0x4 DUP3 DUP2 SLOAD DUP2 LT PUSH2 0x317 JUMPI PUSH2 0x317 PUSH2 0x13F1 JUMP JUMPDEST PUSH1 0x0 SWAP2 DUP3 MSTORE PUSH1 0x20 SWAP1 SWAP2 KECCAK256 PUSH1 0x2 PUSH1 0x5 SWAP1 SWAP3 MUL ADD ADD SLOAD PUSH1 0xFF AND PUSH1 0x4 DUP2 GT ISZERO PUSH2 0x33F JUMPI PUSH2 0x33F PUSH2 0x1351 JUMP JUMPDEST SUB PUSH2 0x356 JUMPI DUP3 PUSH2 0x34E DUP2 PUSH2 0x141D JUMP JUMPDEST SWAP4 POP POP PUSH2 0x3A5 JUMP JUMPDEST PUSH1 0x4 DUP1 DUP3 DUP2 SLOAD DUP2 LT PUSH2 0x36A JUMPI PUSH2 0x36A PUSH2 0x13F1 JUMP JUMPDEST PUSH1 0x0 SWAP2 DUP3 MSTORE PUSH1 0x20 SWAP1 SWAP2 KECCAK256 PUSH1 0x2 PUSH1 0x5 SWAP1 SWAP3 MUL ADD ADD SLOAD PUSH1 0xFF AND PUSH1 0x4 DUP2 GT ISZERO PUSH2 0x392 JUMPI PUSH2 0x392 PUSH2 0x1351 JUMP JUMPDEST SUB PUSH2 0x3A5 JUMPI DUP2 PUSH2 0x3A1 DUP2 PUSH2 0x141D JUMP JUMPDEST SWAP3 POP POP JUMPDEST DUP1 PUSH2 0x3AF DUP2 PUSH2 0x141D JUMP JUMPDEST SWAP2 POP POP PUSH2 0x2FA JUMP JUMPDEST POP PUSH1 0x0 PUSH2 0x3C4 DUP3 DUP6 PUSH2 0x1436 JUMP JUMPDEST SWAP1 POP PUSH1 0x0 DUP2 GT PUSH2 0x40F JUMPI PUSH1 0x40 MLOAD PUSH3 0x461BCD PUSH1 0xE5 SHL DUP2 MSTORE PUSH1 0x20 PUSH1 0x4 DUP3 ADD MSTORE PUSH1 0x16 PUSH1 0x24 DUP3 ADD MSTORE PUSH22 0x4E6F20656C696769626C65206D696C6573746F6E6573 PUSH1 0x50 SHL PUSH1 0x44 DUP3 ADD MSTORE PUSH1 0x64 ADD PUSH2 0x2E9 JUMP JUMPDEST PUSH1 0x0 SLOAD DUP2 PUSH2 0x41F DUP6 PUSH2 0x2710 PUSH2 0x144F JUMP JUMPDEST PUSH2 0x429 SWAP2 SWAP1 PUSH2 0x1466 JUMP JUMPDEST LT ISZERO PUSH2 0x46B JUMPI PUSH1 0x40 MLOAD PUSH3 0x461BCD PUSH1 0xE5 SHL DUP2 MSTORE PUSH1 0x20 PUSH1 0x4 DUP3 ADD MSTORE PUSH1 0x11 PUSH1 0x24 DUP3 ADD MSTORE PUSH17 0x151A1C995CDA1BDB19081B9BDD081B595D PUSH1 0x7A SHL PUSH1 0x44 DUP3 ADD MSTORE PUSH1 0x64 ADD PUSH2 0x2E9 JUMP JUMPDEST PUSH1 0x3 SLOAD DUP1 PUSH2 0x4AA JUMPI PUSH1 0x40 MLOAD PUSH3 0x461BCD PUSH1 0xE5 SHL DUP2 MSTORE PUSH1 0x20 PUSH1 0x4 DUP3 ADD MSTORE PUSH1 0xC PUSH1 0x24 DUP3 ADD MSTORE PUSH12 0x4E6F2072657461696E616765 PUSH1 0xA0 SHL PUSH1 0x44 DUP3 ADD MSTORE PUSH1 0x64 ADD PUSH2 0x2E9 JUMP JUMPDEST PUSH1 0x40 MLOAD PUSH4 0x70A08231 PUSH1 0xE0 SHL DUP2 MSTORE ADDRESS PUSH1 0x4 DUP3 ADD MSTORE DUP2 SWAP1 PUSH32 0x0 PUSH1 0x1 PUSH1 0x1 PUSH1 0xA0 SHL SUB AND SWAP1 PUSH4 0x70A08231 SWAP1 PUSH1 0x24 ADD PUSH1 0x20 PUSH1 0x40 MLOAD DUP1 DUP4 SUB DUP2 DUP7 GAS STATICCALL ISZERO DUP1 ISZERO PUSH2 0x510 JUMPI RETURNDATASIZE PUSH1 0x0 DUP1 RETURNDATACOPY RETURNDATASIZE PUSH1 0x0 REVERT JUMPDEST POP POP POP POP PUSH1 0x40 MLOAD RETURNDATASIZE PUSH1 0x1F NOT PUSH1 0x1F DUP3 ADD AND DUP3 ADD DUP1 PUSH1 0x40 MSTORE POP DUP2 ADD SWAP1 PUSH2 0x534 SWAP2 SWAP1 PUSH2 0x1488 JUMP JUMPDEST LT ISZERO PUSH2 0x579 JUMPI PUSH1 0x40 MLOAD PUSH3 0x461BCD PUSH1 0xE5 SHL DUP2 MSTORE PUSH1 0x20 PUSH1 0x4 DUP3 ADD MSTORE PUSH1 0x14 PUSH1 0x24 DUP3 ADD MSTORE PUSH20 0x496E73756666696369656E742062616C616E6365 PUSH1 0x60 SHL PUSH1 0x44 DUP3 ADD MSTORE PUSH1 0x64 ADD PUSH2 0x2E9 JUMP JUMPDEST PUSH1 0x0 PUSH1 0x3 SSTORE PUSH1 0x40 MLOAD PUSH4 0xA9059CBB PUSH1 0xE0 SHL DUP2 MSTORE PUSH1 0x1 PUSH1 0x1 PUSH1 0xA0 SHL SUB PUSH32 0x0 DUP2 AND PUSH1 0x4 DUP4 ADD MSTORE PUSH1 0x24 DUP3 ADD DUP4 SWAP1 MSTORE PUSH32 0x0 AND SWAP1 PUSH4 0xA9059CBB SWAP1 PUSH1 0x44 ADD PUSH1 0x20 PUSH1 0x40 MLOAD DUP1 DUP4 SUB DUP2 PUSH1 0x0 DUP8 GAS CALL ISZERO DUP1 ISZERO PUSH2 0x60D JUMPI RETURNDATASIZE PUSH1 0x0 DUP1 RETURNDATACOPY RETURNDATASIZE PUSH1 0x0 REVERT JUMPDEST POP POP POP POP PUSH1 0x40 MLOAD RETURNDATASIZE PUSH1 0x1F NOT PUSH1 0x1F DUP3 ADD AND DUP3 ADD DUP1 PUSH1 0x40 MSTORE POP DUP2 ADD SWAP1 PUSH2 0x631 SWAP2 SWAP1 PUSH2 0x14A1 JUMP JUMPDEST PUSH2 0x64D JUMPI PUSH1 0x40 MLOAD PUSH3 0x461BCD PUSH1 0xE5 SHL DUP2 MSTORE PUSH1 0x4 ADD PUSH2 0x2E9 SWAP1 PUSH2 0x14CA JUMP JUMPDEST PUSH1 0x40 MLOAD DUP2 DUP2 MSTORE PUSH32 0x7DA60AEF752D91C97B4A6DC4BCDDF55A6492FA61F1A65132E1472A1760A751B2 SWAP1 PUSH1 0x20 ADD PUSH1 0x40 MLOAD DUP1 SWAP2 SUB SWAP1 LOG1 POP POP POP POP POP JUMP JUMPDEST CALLER PUSH1 0x1 PUSH1 0x1 PUSH1 0xA0 SHL SUB PUSH32 0x0 AND EQ PUSH2 0x6CF JUMPI PUSH1 0x40 MLOAD PUSH3 0x461BCD PUSH1 0xE5 SHL DUP2 MSTORE PUSH1 0x4 ADD PUSH2 0x2E9 SWAP1 PUSH2 0x13C9 JUMP JUMPDEST PUSH1 0x0 DUP2 GT PUSH2 0x70A JUMPI PUSH1 0x40 MLOAD PUSH3 0x461BCD PUSH1 0xE5 SHL DUP2 MSTORE PUSH1 0x20 PUSH1 0x4 DUP3 ADD MSTORE PUSH1 0x8 PUSH1 0x24 DUP3 ADD MSTORE PUSH8 0x416D6F756E743D3 PUSH1 0xC4 SHL PUSH1 0x44 DUP3 ADD MSTORE PUSH1 0x64 ADD PUSH2 0x2E9 JUMP JUMPDEST DUP1 PUSH1 0x1 PUSH1 0x0 DUP3 DUP3 SLOAD PUSH2 0x71C SWAP2 SWAP1 PUSH2 0x14F3 JUMP JUMPDEST SWAP1 SWAP2 SSTORE POP POP PUSH1 0x40 MLOAD PUSH4 0x23B872DD PUSH1 0xE0 SHL DUP2 MSTORE CALLER PUSH1 0x4 DUP3 ADD MSTORE ADDRESS PUSH1 0x24 DUP3 ADD MSTORE PUSH1 0x44 DUP2 ADD DUP3 SWAP1 MSTORE PUSH32 0x0 PUSH1 0x1 PUSH1 0x1 PUSH1 0xA0 SHL SUB AND SWAP1 PUSH4 0x23B872DD SWAP1 PUSH1 0x64 ADD PUSH1 0x20 PUSH1 0x40 MLOAD DUP1 DUP4 SUB DUP2 PUSH1 0x0 DUP8 GAS CALL ISZERO DUP1 ISZERO PUSH2 0x794 JUMPI RETURNDATASIZE PUSH1 0x0 DUP1 RETURNDATACOPY RETURNDATASIZE PUSH1 0x0 REVERT JUMPDEST POP POP POP POP PUSH1 0x40 MLOAD RETURNDATASIZE PUSH1 0x1F NOT PUSH1 0x1F DUP3 ADD AND DUP3 ADD DUP1 PUSH1 0x40 MSTORE POP DUP2 ADD SWAP1 PUSH2 0x7B8 SWAP2 SWAP1 PUSH2 0x14A1 JUMP JUMPDEST PUSH2 0x7D4 JUMPI PUSH1 0x40 MLOAD PUSH3 0x461BCD PUSH1 0xE5 SHL DUP2 MSTORE PUSH1 0x4 ADD PUSH2 0x2E9 SWAP1 PUSH2 0x14CA JUMP JUMPDEST PUSH1 0x40 MLOAD DUP2 DUP2 MSTORE CALLER SWAP1 PUSH32 0x5AF8184BEF8E4B45EB9F6ED7734D04DA38CED226495548F46E0C8FF8D7D9A524 SWAP1 PUSH1 0x20 ADD PUSH1 0x40 MLOAD DUP1 SWAP2 SUB SWAP1 LOG2 POP JUMP JUMPDEST CALLER PUSH1 0x1 PUSH1 0x1 PUSH1 0xA0 SHL SUB PUSH32 0x0 AND EQ PUSH2 0x854 JUMPI PUSH1 0x40 MLOAD PUSH3 0x461BCD PUSH1 0xE5 SHL DUP2 MSTORE PUSH1 0x4 ADD PUSH2 0x2E9 SWAP1 PUSH2 0x13C9 JUMP JUMPDEST PUSH1 0x4 SLOAD DUP2 LT PUSH2 0x875 JUMPI PUSH1 0x40 MLOAD PUSH3 0x461BCD PUSH1 0xE5 SHL DUP2 MSTORE PUSH1 0x4 ADD PUSH2 0x2E9 SWAP1 PUSH2 0x1506 JUMP JUMPDEST PUSH1 0x0 PUSH1 0x4 DUP3 DUP2 SLOAD DUP2 LT PUSH2 0x88A JUMPI PUSH2 0x88A PUSH2 0x13F1 JUMP JUMPDEST PUSH1 0x0 SWAP2 DUP3 MSTORE PUSH1 0x20 SWAP1 SWAP2 KECCAK256 PUSH1 0x5 SWAP1 SWAP2 MUL ADD SWAP1 POP PUSH1 0x2 DUP1 DUP3 ADD SLOAD PUSH1 0xFF AND PUSH1 0x4 DUP2 GT ISZERO PUSH2 0x8B6 JUMPI PUSH2 0x8B6 PUSH2 0x1351 JUMP JUMPDEST EQ PUSH2 0x8F2 JUMPI PUSH1 0x40 MLOAD PUSH3 0x461BCD PUSH1 0xE5 SHL DUP2 MSTORE PUSH1 0x20 PUSH1 0x4 DUP3 ADD MSTORE PUSH1 0xC PUSH1 0x24 DUP3 ADD MSTORE PUSH12 0x139BDD08185C1C1C9BDD9959 PUSH1 0xA2 SHL PUSH1 0x44 DUP3 ADD MSTORE PUSH1 0x64 ADD PUSH2 0x2E9 JUMP JUMPDEST PUSH1 0x0 PUSH2 0x2710 PUSH32 0x0 DUP4 PUSH1 0x0 ADD SLOAD PUSH2 0x927 SWAP2 SWAP1 PUSH2 0x144F JUMP JUMPDEST PUSH2 0x931 SWAP2 SWAP1 PUSH2 0x1466 JUMP JUMPDEST PUSH1 0x1 DUP4 ADD SLOAD PUSH1 0x40 MLOAD PUSH4 0x70A08231 PUSH1 0xE0 SHL DUP2 MSTORE ADDRESS PUSH1 0x4 DUP3 ADD MSTORE SWAP2 SWAP3 POP SWAP1 DUP2 SWAP1 PUSH32 0x0 PUSH1 0x1 PUSH1 0x1 PUSH1 0xA0 SHL SUB AND SWAP1 PUSH4 0x70A08231 SWAP1 PUSH1 0x24 ADD PUSH1 0x20 PUSH1 0x40 MLOAD DUP1 DUP4 SUB DUP2 DUP7 GAS STATICCALL ISZERO DUP1 ISZERO PUSH2 0x9A0 JUMPI RETURNDATASIZE PUSH1 0x0 DUP1 RETURNDATACOPY RETURNDATASIZE PUSH1 0x0 REVERT JUMPDEST POP POP POP POP PUSH1 0x40 MLOAD RETURNDATASIZE PUSH1 0x1F NOT PUSH1 0x1F DUP3 ADD AND DUP3 ADD DUP1 PUSH1 0x40 MSTORE POP DUP2 ADD SWAP1 PUSH2 0x9C4 SWAP2 SWAP1 PUSH2 0x1488 JUMP JUMPDEST LT ISZERO PUSH2 0xA12 JUMPI PUSH1 0x40 MLOAD PUSH3 0x461BCD PUSH1 0xE5 SHL DUP2 MSTORE PUSH1 0x20 PUSH1 0x4 DUP3 ADD MSTORE PUSH1 0x1B PUSH1 0x24 DUP3 ADD MSTORE PUSH32 0x496E73756666696369656E7420657363726F772062616C616E63650000000000 PUSH1 0x44 DUP3 ADD MSTORE PUSH1 0x64 ADD PUSH2 0x2E9 JUMP JUMPDEST PUSH1 0x2 DUP4 DUP2 ADD DUP1 SLOAD PUSH1 0xFF NOT AND PUSH1 0x3 OR SWAP1 SSTORE PUSH1 0x4 DUP5 ADD DUP1 SLOAD PUSH8 0xFFFFFFFFFFFFFFFF TIMESTAMP AND PUSH1 0x1 PUSH1 0x80 SHL MUL PUSH8 0xFFFFFFFFFFFFFFFF PUSH1 0x80 SHL NOT SWAP1 SWAP2 AND OR SWAP1 SSTORE DUP1 SLOAD DUP3 SWAP2 SWAP1 PUSH1 0x0 SWAP1 PUSH2 0xA5F SWAP1 DUP5 SWAP1 PUSH2 0x14F3 JUMP JUMPDEST SWAP3 POP POP DUP2 SWAP1 SSTORE POP DUP2 PUSH1 0x3 PUSH1 0x0 DUP3 DUP3 SLOAD PUSH2 0xA78 SWAP2 SWAP1 PUSH2 0x14F3 JUMP JUMPDEST SWAP1 SWAP2 SSTORE POP POP PUSH1 0x40 MLOAD PUSH4 0xA9059CBB PUSH1 0xE0 SHL DUP2 MSTORE PUSH1 0x1 PUSH1 0x1 PUSH1 0xA0 SHL SUB PUSH32 0x0 DUP2 AND PUSH1 0x4 DUP4 ADD MSTORE PUSH1 0x24 DUP3 ADD DUP4 SWAP1 MSTORE PUSH32 0x0 AND SWAP1 PUSH4 0xA9059CBB SWAP1 PUSH1 0x44 ADD PUSH1 0x20 PUSH1 0x40 MLOAD DUP1 DUP4 SUB DUP2 PUSH1 0x0 DUP8 GAS CALL ISZERO DUP1 ISZERO PUSH2 0xB0C JUMPI RETURNDATASIZE PUSH1 0x0 DUP1 RETURNDATACOPY RETURNDATASIZE PUSH1 0x0 REVERT JUMPDEST POP POP POP POP PUSH1 0x40 MLOAD RETURNDATASIZE PUSH1 0x1F NOT PUSH1 0x1F DUP3 ADD AND DUP3 ADD DUP1 PUSH1 0x40 MSTORE POP DUP2 ADD SWAP1 PUSH2 0xB30 SWAP2 SWAP1 PUSH2 0x14A1 JUMP JUMPDEST PUSH2 0xB4C JUMPI PUSH1 0x40 MLOAD PUSH3 0x461BCD PUSH1 0xE5 SHL DUP2 MSTORE PUSH1 0x4 ADD PUSH2 0x2E9 SWAP1 PUSH2 0x14CA JUMP JUMPDEST PUSH1 0x40 DUP1 MLOAD DUP3 DUP2 MSTORE PUSH1 0x20 DUP2 ADD DUP5 SWAP1 MSTORE DUP6 SWAP2 PUSH32 0xAFC8FC5DD6037BF38D34D9D51BB5ECC0AF143248332C63AE9E83BBEF6D4638D9 SWAP2 ADD JUMPDEST PUSH1 0x40 MLOAD DUP1 SWAP2 SUB SWAP1 LOG2 POP POP POP POP JUMP JUMPDEST CALLER PUSH1 0x1 PUSH1 0x1 PUSH1 0xA0 SHL SUB PUSH32 0x0 AND EQ PUSH2 0xBF8 JUMPI PUSH1 0x40 MLOAD PUSH3 0x461BCD PUSH1 0xE5 SHL DUP2 MSTORE PUSH1 0x20 PUSH1 0x4 DUP3 ADD MSTORE PUSH1 0xF PUSH1 0x24 DUP3 ADD MSTORE PUSH15 0x27B7363C9031B7B73A3930B1BA37B9 PUSH1 0x89 SHL PUSH1 0x44 DUP3 ADD MSTORE PUSH1 0x64 ADD PUSH2 0x2E9 JUMP JUMPDEST PUSH1 0x4 SLOAD DUP3 LT PUSH2 0xC19 JUMPI PUSH1 0x40 MLOAD PUSH3 0x461BCD PUSH1 0xE5 SHL DUP2 MSTORE PUSH1 0x4 ADD PUSH2 0x2E9 SWAP1 PUSH2 0x1506 JUMP JUMPDEST DUP1 PUSH2 0xC56 JUMPI PUSH1 0x40 MLOAD PUSH3 0x461BCD PUSH1 0xE5 SHL DUP2 MSTORE PUSH1 0x20 PUSH1 0x4 DUP3 ADD MSTORE PUSH1 0xD PUSH1 0x24 DUP3 ADD MSTORE PUSH13 0x24B73B30B634B210383937B7B3 PUSH1 0x99 SHL PUSH1 0x44 DUP3 ADD MSTORE PUSH1 0x64 ADD PUSH2 0x2E9 JUMP JUMPDEST PUSH1 0x0 PUSH1 0x4 DUP4 DUP2 SLOAD DUP2 LT PUSH2 0xC6B JUMPI PUSH2 0xC6B PUSH2 0x13F1 JUMP JUMPDEST PUSH1 0x0 SWAP2 DUP3 MSTORE PUSH1 0x20 DUP3 KECCAK256 PUSH1 0x5 SWAP1 SWAP2 MUL ADD SWAP2 POP PUSH1 0x2 DUP3 ADD SLOAD PUSH1 0xFF AND PUSH1 0x4 DUP2 GT ISZERO PUSH2 0xC95 JUMPI PUSH2 0xC95 PUSH2 0x1351 JUMP JUMPDEST EQ DUP1 PUSH2 0xCB9 JUMPI POP PUSH1 0x4 PUSH1 0x2 DUP3 ADD SLOAD PUSH1 0xFF AND PUSH1 0x4 DUP2 GT ISZERO PUSH2 0xCB7 JUMPI PUSH2 0xCB7 PUSH2 0x1351 JUMP JUMPDEST EQ JUMPDEST PUSH2 0xCF4 JUMPI PUSH1 0x40 MLOAD PUSH3 0x461BCD PUSH1 0xE5 SHL DUP2 MSTORE PUSH1 0x20 PUSH1 0x4 DUP3 ADD MSTORE PUSH1 0xC PUSH1 0x24 DUP3 ADD MSTORE PUSH12 0x57726F6E6720737461747573 PUSH1 0xA0 SHL PUSH1 0x44 DUP3 ADD MSTORE PUSH1 0x64 ADD PUSH2 0x2E9 JUMP JUMPDEST PUSH1 0x2 DUP2 ADD DUP1 SLOAD PUSH1 0xFF NOT AND PUSH1 0x1 OR SWAP1 SSTORE PUSH1 0x3 DUP2 ADD DUP3 SWAP1 SSTORE PUSH1 0x4 DUP2 ADD DUP1 SLOAD PUSH8 0xFFFFFFFFFFFFFFFF TIMESTAMP AND PUSH8 0xFFFFFFFFFFFFFFFF NOT SWAP1 SWAP2 AND OR SWAP1 SSTORE PUSH1 0x40 MLOAD DUP3 DUP2 MSTORE DUP4 SWAP1 PUSH32 0x7287D4E2124E164C3E1C3F79240DFE987824D65CBDE320CCA075A436DE20A058 SWAP1 PUSH1 0x20 ADD PUSH1 0x40 MLOAD DUP1 SWAP2 SUB SWAP1 LOG2 POP POP POP JUMP JUMPDEST CALLER PUSH1 0x1 PUSH1 0x1 PUSH1 0xA0 SHL SUB PUSH32 0x0 AND EQ PUSH2 0xDAD JUMPI PUSH1 0x40 MLOAD PUSH3 0x461BCD PUSH1 0xE5 SHL DUP2 MSTORE PUSH1 0x4 ADD PUSH2 0x2E9 SWAP1 PUSH2 0x13C9 JUMP JUMPDEST PUSH1 0x4 SLOAD DUP2 LT PUSH2 0xDCE JUMPI PUSH1 0x40 MLOAD PUSH3 0x461BCD PUSH1 0xE5 SHL DUP2 MSTORE PUSH1 0x4 ADD PUSH2 0x2E9 SWAP1 PUSH2 0x1506 JUMP JUMPDEST PUSH1 0x0 PUSH1 0x4 DUP3 DUP2 SLOAD DUP2 LT PUSH2 0xDE3 JUMPI PUSH2 0xDE3 PUSH2 0x13F1 JUMP JUMPDEST PUSH1 0x0 SWAP2 DUP3 MSTORE PUSH1 0x20 SWAP1 SWAP2 KECCAK256 PUSH1 0x5 SWAP1 SWAP2 MUL ADD SWAP1 POP PUSH1 0x1 PUSH1 0x2 DUP3 ADD SLOAD PUSH1 0xFF AND PUSH1 0x4 DUP2 GT ISZERO PUSH2 0xE10 JUMPI PUSH2 0xE10 PUSH2 0x1351 JUMP JUMPDEST EQ PUSH2 0xE4D JUMPI PUSH1 0x40 MLOAD PUSH3 0x461BCD PUSH1 0xE5 SHL DUP2 MSTORE PUSH1 0x20 PUSH1 0x4 DUP3 ADD MSTORE PUSH1 0xD PUSH1 0x24 DUP3 ADD MSTORE PUSH13 0x139BDD081CDD589B5A5D1D1959 PUSH1 0x9A SHL PUSH1 0x44 DUP3 ADD MSTORE PUSH1 0x64 ADD PUSH2 0x2E9 JUMP JUMPDEST PUSH1 0x2 DUP2 DUP2 ADD DUP1 SLOAD PUSH1 0xFF NOT AND PUSH1 0x1 DUP4 MUL OR SWAP1 SSTORE POP PUSH1 0x4 DUP2 ADD DUP1 SLOAD PUSH16 0xFFFFFFFFFFFFFFFF0000000000000000 NOT AND PUSH1 0x1 PUSH1 0x40 SHL TIMESTAMP PUSH8 0xFFFFFFFFFFFFFFFF AND MUL OR SWAP1 SSTORE PUSH1 0x40 MLOAD DUP3 SWAP1 PUSH32 0xADFFE31A62A9E7E5068BDD6F839470D57DD0E18FAC8A8D525196283EB9B392A SWAP1 PUSH1 0x0 SWAP1 LOG2 POP POP JUMP JUMPDEST CALLER PUSH1 0x1 PUSH1 0x1 PUSH1 0xA0 SHL SUB PUSH32 0x0 AND EQ PUSH2 0xF04 JUMPI PUSH1 0x40 MLOAD PUSH3 0x461BCD PUSH1 0xE5 SHL DUP2 MSTORE PUSH1 0x4 ADD PUSH2 0x2E9 SWAP1 PUSH2 0x13C9 JUMP JUMPDEST PUSH1 0x4 SLOAD DUP4 LT PUSH2 0xF25 JUMPI PUSH1 0x40 MLOAD PUSH3 0x461BCD PUSH1 0xE5 SHL DUP2 MSTORE PUSH1 0x4 ADD PUSH2 0x2E9 SWAP1 PUSH2 0x1506 JUMP JUMPDEST PUSH1 0x0 PUSH1 0x4 DUP5 DUP2 SLOAD DUP2 LT PUSH2 0xF3A JUMPI PUSH2 0xF3A PUSH2 0x13F1 JUMP JUMPDEST PUSH1 0x0 SWAP2 DUP3 MSTORE PUSH1 0x20 SWAP1 SWAP2 KECCAK256 PUSH1 0x5 SWAP1 SWAP2 MUL ADD SWAP1 POP PUSH1 0x1 PUSH1 0x2 DUP3 ADD SLOAD PUSH1 0xFF AND PUSH1 0x4 DUP2 GT ISZERO PUSH2 0xF67 JUMPI PUSH2 0xF67 PUSH2 0x1351 JUMP JUMPDEST EQ DUP1 PUSH2 0xF8A JUMPI POP PUSH1 0x2 DUP1 DUP3 ADD SLOAD PUSH1 0xFF AND PUSH1 0x4 DUP2 GT ISZERO PUSH2 0xF88 JUMPI PUSH2 0xF88 PUSH2 0x1351 JUMP JUMPDEST EQ JUMPDEST PUSH2 0xFC7 JUMPI PUSH1 0x40 MLOAD PUSH3 0x461BCD PUSH1 0xE5 SHL DUP2 MSTORE PUSH1 0x20 PUSH1 0x4 DUP3 ADD MSTORE PUSH1 0xE PUSH1 0x24 DUP3 ADD MSTORE PUSH14 0x4E6F742064697370757461626C65 PUSH1 0x90 SHL PUSH1 0x44 DUP3 ADD MSTORE PUSH1 0x64 ADD PUSH2 0x2E9 JUMP JUMPDEST PUSH1 0x2 DUP2 ADD DUP1 SLOAD PUSH1 0xFF NOT AND PUSH1 0x4 OR SWAP1 SSTORE PUSH1 0x40 MLOAD DUP5 SWAP1 PUSH32 0x365D08FF2DF448EC87654CBDA15EC8F08A648E967A4492300F4A05869512B3F8 SWAP1 PUSH2 0xB80 SWAP1 DUP7 SWAP1 DUP7 SWAP1 PUSH2 0x152A JUMP JUMPDEST PUSH1 0x0 CALLER PUSH1 0x1 PUSH1 0x1 PUSH1 0xA0 SHL SUB PUSH32 0x0 AND EQ PUSH2 0x1054 JUMPI PUSH1 0x40 MLOAD PUSH3 0x461BCD PUSH1 0xE5 SHL DUP2 MSTORE PUSH1 0x4 ADD PUSH2 0x2E9 SWAP1 PUSH2 0x13C9 JUMP JUMPDEST PUSH1 0x0 DUP3 GT PUSH2 0x108F JUMPI PUSH1 0x40 MLOAD PUSH3 0x461BCD PUSH1 0xE5 SHL DUP2 MSTORE PUSH1 0x20 PUSH1 0x4 DUP3 ADD MSTORE PUSH1 0x8 PUSH1 0x24 DUP3 ADD MSTORE PUSH8 0x416D6F756E743D3 PUSH1 0xC4 SHL PUSH1 0x44 DUP3 ADD MSTORE PUSH1 0x64 ADD PUSH2 0x2E9 JUMP JUMPDEST PUSH1 0x0 PUSH2 0x2710 PUSH2 0x10BE PUSH32 0x0 DUP6 PUSH2 0x144F JUMP JUMPDEST PUSH2 0x10C8 SWAP2 SWAP1 PUSH2 0x1466 JUMP JUMPDEST SWAP1 POP PUSH1 0x0 PUSH2 0x10D6 DUP3 DUP6 PUSH2 0x1436 JUMP JUMPDEST SWAP1 POP PUSH1 0x4 PUSH1 0x40 MLOAD DUP1 PUSH1 0xE0 ADD PUSH1 0x40 MSTORE DUP1 DUP7 DUP2 MSTORE PUSH1 0x20 ADD DUP4 DUP2 MSTORE PUSH1 0x20 ADD PUSH1 0x0 PUSH1 0x4 DUP2 GT ISZERO PUSH2 0x1104 JUMPI PUSH2 0x1104 PUSH2 0x1351 JUMP JUMPDEST DUP2 MSTORE PUSH1 0x0 PUSH1 0x20 DUP1 DUP4 ADD DUP3 SWAP1 MSTORE PUSH1 0x40 DUP1 DUP5 ADD DUP4 SWAP1 MSTORE PUSH1 0x60 DUP5 ADD DUP4 SWAP1 MSTORE PUSH1 0x80 SWAP1 SWAP4 ADD DUP3 SWAP1 MSTORE DUP5 SLOAD PUSH1 0x1 DUP2 DUP2 ADD DUP8 SSTORE SWAP6 DUP4 MSTORE SWAP2 DUP2 SWAP1 KECCAK256 DUP5 MLOAD PUSH1 0x5 SWAP1 SWAP4 MUL ADD SWAP2 DUP3 SSTORE DUP4 ADD MLOAD DUP2 DUP6 ADD SSTORE SWAP1 DUP3 ADD MLOAD PUSH1 0x2 DUP3 ADD DUP1 SLOAD SWAP4 SWAP5 SWAP3 SWAP4 SWAP2 SWAP3 SWAP1 SWAP2 PUSH1 0xFF NOT AND SWAP1 DUP4 PUSH1 0x4 DUP2 GT ISZERO PUSH2 0x1172 JUMPI PUSH2 0x1172 PUSH2 0x1351 JUMP JUMPDEST MUL OR SWAP1 SSTORE POP PUSH1 0x60 DUP3 ADD MLOAD PUSH1 0x3 DUP3 ADD SSTORE PUSH1 0x80 DUP3 ADD MLOAD PUSH1 0x4 SWAP2 DUP3 ADD DUP1 SLOAD PUSH1 0xA0 DUP6 ADD MLOAD PUSH1 0xC0 SWAP1 SWAP6 ADD MLOAD PUSH8 0xFFFFFFFFFFFFFFFF SWAP1 DUP2 AND PUSH1 0x1 PUSH1 0x80 SHL MUL PUSH8 0xFFFFFFFFFFFFFFFF PUSH1 0x80 SHL NOT SWAP7 DUP3 AND PUSH1 0x1 PUSH1 0x40 SHL MUL PUSH16 0xFFFFFFFFFFFFFFFFFFFFFFFFFFFFFFFF NOT SWAP1 SWAP4 AND SWAP2 SWAP1 SWAP5 AND OR OR SWAP4 SWAP1 SWAP4 AND OR SWAP1 SWAP2 SSTORE SLOAD PUSH2 0x11F0 SWAP1 PUSH1 0x1 SWAP1 PUSH2 0x1436 JUMP JUMPDEST PUSH1 0x40 DUP1 MLOAD DUP7 DUP2 MSTORE PUSH1 0x20 DUP2 ADD DUP5 SWAP1 MSTORE SWAP2 SWAP5 POP DUP5 SWAP2 PUSH32 0xB59C2D823E6CA395C24829D80F43A97D9C6FD711596372C5A4663AF872F4B9D2 SWAP2 ADD PUSH1 0x40 MLOAD DUP1 SWAP2 SUB SWAP1 LOG2 POP POP SWAP2 SWAP1 POP JUMP JUMPDEST PUSH1 0x4 DUP2 DUP2 SLOAD DUP2 LT PUSH2 0x1245 JUMPI PUSH1 0x0 DUP1 REVERT JUMPDEST PUSH1 0x0 SWAP2 DUP3 MSTORE PUSH1 0x20 SWAP1 SWAP2 KECCAK256 PUSH1 0x5 SWAP1 SWAP2 MUL ADD DUP1 SLOAD PUSH1 0x1 DUP3 ADD SLOAD PUSH1 0x2 DUP4 ADD SLOAD PUSH1 0x3 DUP5 ADD SLOAD PUSH1 0x4 SWAP1 SWAP5 ADD SLOAD SWAP3 SWAP5 POP SWAP1 SWAP3 PUSH1 0xFF SWAP1 SWAP2 AND SWAP2 PUSH8 0xFFFFFFFFFFFFFFFF DUP1 DUP3 AND SWAP2 PUSH1 0x1 PUSH1 0x40 SHL DUP2 DIV DUP3 AND SWAP2 PUSH1 0x1 PUSH1 0x80 SHL SWAP1 SWAP2 DIV AND DUP8 JUMP JUMPDEST PUSH1 0x0 PUSH1 0x20 DUP3 DUP5 SUB SLT ISZERO PUSH2 0x12AC JUMPI PUSH1 0x0 DUP1 REVERT JUMPDEST POP CALLDATALOAD SWAP2 SWAP1 POP JUMP JUMPDEST PUSH1 0x0 DUP1 PUSH1 0x40 DUP4 DUP6 SUB SLT ISZERO PUSH2 0x12C6 JUMPI PUSH1 0x0 DUP1 REVERT JUMPDEST POP POP DUP1 CALLDATALOAD SWAP3 PUSH1 0x20 SWAP1 SWAP2 ADD CALLDATALOAD SWAP2 POP JUMP JUMPDEST PUSH1 0x0 DUP1 PUSH1 0x0 PUSH1 0x40 DUP5 DUP7 SUB SLT ISZERO PUSH2 0x12EA JUMPI PUSH1 0x0 DUP1 REVERT JUMPDEST DUP4 CALLDATALOAD SWAP3 POP PUSH1 0x20 DUP5 ADD CALLDATALOAD PUSH8 0xFFFFFFFFFFFFFFFF DUP1 DUP3 GT ISZERO PUSH2 0x1309 JUMPI PUSH1 0x0 DUP1 REVERT JUMPDEST DUP2 DUP7 ADD SWAP2 POP DUP7 PUSH1 0x1F DUP4 ADD SLT PUSH2 0x131D JUMPI PUSH1 0x0 DUP1 REVERT JUMPDEST DUP2 CALLDATALOAD DUP2 DUP2 GT ISZERO PUSH2 0x132C JUMPI PUSH1 0x0 DUP1 REVERT JUMPDEST DUP8 PUSH1 0x20 DUP3 DUP6 ADD ADD GT ISZERO PUSH2 0x133E JUMPI PUSH1 0x0 DUP1 REVERT JUMPDEST PUSH1 0x20 DUP4 ADD SWAP5 POP DUP1 SWAP4 POP POP POP POP SWAP3 POP SWAP3 POP SWAP3 JUMP JUMPDEST PUSH4 0x4E487B71 PUSH1 0xE0 SHL PUSH1 0x0 MSTORE PUSH1 0x21 PUSH1 0x4 MSTORE PUSH1 0x24 PUSH1 0x0 REVERT JUMPDEST DUP8 DUP2 MSTORE PUSH1 0x20 DUP2 ADD DUP8 SWAP1 MSTORE PUSH1 0xE0 DUP2 ADD PUSH1 0x5 DUP8 LT PUSH2 0x1393 JUMPI PUSH4 0x4E487B71 PUSH1 0xE0 SHL PUSH1 0x0 MSTORE PUSH1 0x21 PUSH1 0x4 MSTORE PUSH1 0x24 PUSH1 0x0 REVERT JUMPDEST PUSH1 0x40 DUP3 ADD SWAP7 SWAP1 SWAP7 MSTORE PUSH1 0x60 DUP2 ADD SWAP5 SWAP1 SWAP5 MSTORE PUSH8 0xFFFFFFFFFFFFFFFF SWAP3 DUP4 AND PUSH1 0x80 DUP6 ADD MSTORE SWAP1 DUP3 AND PUSH1 0xA0 DUP5 ADD MSTORE AND PUSH1 0xC0 SWAP1 SWAP2 ADD MSTORE SWAP3 SWAP2 POP POP JUMP JUMPDEST PUSH1 0x20 DUP1 DUP3 MSTORE PUSH1 0xE SWAP1 DUP3 ADD MSTORE PUSH14 0x27B7363C903232BB32B637B832B9 PUSH1 0x91 SHL PUSH1 0x40 DUP3 ADD MSTORE PUSH1 0x60 ADD SWAP1 JUMP JUMPDEST PUSH4 0x4E487B71 PUSH1 0xE0 SHL PUSH1 0x0 MSTORE PUSH1 0x32 PUSH1 0x4 MSTORE PUSH1 0x24 PUSH1 0x0 REVERT JUMPDEST PUSH4 0x4E487B71 PUSH1 0xE0 SHL PUSH1 0x0 MSTORE PUSH1 0x11 PUSH1 0x4 MSTORE PUSH1 0x24 PUSH1 0x0 REVERT JUMPDEST PUSH1 0x0 PUSH1 0x1 DUP3 ADD PUSH2 0x142F JUMPI PUSH2 0x142F PUSH2 0x1407 JUMP JUMPDEST POP PUSH1 0x1 ADD SWAP1 JUMP JUMPDEST DUP2 DUP2 SUB DUP2 DUP2 GT ISZERO PUSH2 0x1449 JUMPI PUSH2 0x1449 PUSH2 0x1407 JUMP JUMPDEST SWAP3 SWAP2 POP POP JUMP JUMPDEST DUP1 DUP3 MUL DUP2 ISZERO DUP3 DUP3 DIV DUP5 EQ OR PUSH2 0x1449 JUMPI PUSH2 0x1449 PUSH2 0x1407 JUMP JUMPDEST PUSH1 0x0 DUP3 PUSH2 0x1483 JUMPI PUSH4 0x4E487B71 PUSH1 0xE0 SHL PUSH1 0x0 MSTORE PUSH1 0x12 PUSH1 0x4 MSTORE PUSH1 0x24 PUSH1 0x0 REVERT JUMPDEST POP DIV SWAP1 JUMP JUMPDEST PUSH1 0x0 PUSH1 0x20 DUP3 DUP5 SUB SLT ISZERO PUSH2 0x149A JUMPI PUSH1 0x0 DUP1 REVERT JUMPDEST POP MLOAD SWAP2 SWAP1 POP JUMP JUMPDEST PUSH1 0x0 PUSH1 0x20 DUP3 DUP5 SUB SLT ISZERO PUSH2 0x14B3 JUMPI PUSH1 0x0 DUP1 REVERT JUMPDEST DUP2 MLOAD DUP1 ISZERO ISZERO DUP2 EQ PUSH2 0x14C3 JUMPI PUSH1 0x0 DUP1 REVERT JUMPDEST SWAP4 SWAP3 POP POP POP JUMP JUMPDEST PUSH1 0x20 DUP1 DUP3 MSTORE PUSH1 0xF SWAP1 DUP3 ADD MSTORE PUSH15 0x151C985B9CD9995C8819985A5B1959 PUSH1 0x8A SHL PUSH1 0x40 DUP3 ADD MSTORE PUSH1 0x60 ADD SWAP1 JUMP JUMPDEST DUP1 DUP3 ADD DUP1 DUP3 GT ISZERO PUSH2 0x1449 JUMPI PUSH2 0x1449 PUSH2 0x1407 JUMP JUMPDEST PUSH1 0x20 DUP1 DUP3 MSTORE PUSH1 0xA SWAP1 DUP3 ADD MSTORE PUSH10 0x125B9D985B1A59081A59 PUSH1 0xB2 SHL PUSH1 0x40 DUP3 ADD MSTORE PUSH1 0x60 ADD SWAP1 JUMP JUMPDEST PUSH1 0x20 DUP2 MSTORE DUP2 PUSH1 0x20 DUP3 ADD MSTORE DUP2 DUP4 PUSH1 0x40 DUP4 ADD CALLDATACOPY PUSH1 0x0 DUP2 DUP4 ADD PUSH1 0x40 SWAP1 DUP2 ADD SWAP2 SWAP1 SWAP2 MSTORE PUSH1 0x1F SWAP1 SWAP3 ADD PUSH1 0x1F NOT AND ADD ADD SWAP2 SWAP1 POP JUMP INVALID LOG2 PUSH5 0x6970667358 0x22 SLT KECCAK256 0xDF 0xC5 0x2B PUSH2 0x92E1 DELEGATECALL PUSH17 0x68FD6DF7B95A68EB833F80FC404D639A08 SHL 0xB6 PUSH4 0xE6AF18A0 PUSH5 0x736F6C6343 STOP ADDMOD EQ STOP CALLER "},"methodIdentifiers":{"approveMilestone(uint256)":"c438b40f","contractor()":"fbfd2045","createMilestone(uint256)":"d2bd56d0","depositFunds(uint256)":"3b76594d","developer()":"ca4b208b","disputeMilestone(uint256,string)":"c4f5cae0","milestoneCount()":"0681ca55","milestones(uint256)":"e89e4ed6","payMilestone(uint256)":"69db0a7e","releaseRetainage()":"04e265b3","retainageBps()":"9e453d8c","retainageHeld()":"cbe39ad0","retainageReleaseThresholdBps()":"f6a28073","submitMilestone(uint256,bytes32)":"78b69604","totalDeposited()":"ff50abdc","totalPaid()":"e7b0f666","usdc()":"3e413bee"}}}}}