{"contracts/EscrowVaultUSDC.sol":{"EscrowVaultUSDC":{"abi":[{"inputs":[{"internalType":"address","name":"_usdc","type":"address"},{"internalType":"address","name":"_contractor","type":"address"},{"internalType":"uint256","name":"_retainageBps","type":"uint256"},{"internalType":"uint256","name":"_retainageReleaseThresholdBps","type":"uint256"},{"internalType":"address","name":"_oracleApprover","type":"address"}],"stateMutability":"nonpayable","type":"constructor"},{"anonymous":false,"inputs":[{"indexed":true,"internalType":"address","name":"from","type":"address"},{"indexed":false,"internalType":"uint256","name":"amount","type":"uint256"}],"name":"Funded","type":"event"},{"anonymous":false,"inputs":[{"indexed":true,"internalType":"uint256","name":"milestoneId","type":"uint256"}],"name":"MilestoneApproved","type":"event"},{"anonymous":false,"inputs":[{"indexed":true,"internalType":"uint256","name":"milestoneId","type":"uint256"},{"indexed":false,"internalType":"uint256","name":"amount","type":"uint256"},{"indexed":false,"internalType":"uint256","name":"netPayable","type":"uint256"}],"name":"MilestoneCreated","type":"event"},{"anonymous":false,"inputs":[{"indexed":true,"internalType":"uint256","name":"milestoneId","type":"uint256"},{"indexed":false,"internalType":"string","name":"reason","type":"string"}],"name":"MilestoneDisputed","type":"event"},{"anonymous":false,"inputs":[{"indexed":true,"internalType":"uint256","name":"milestoneId","type":"uint256"},{"indexed":false,"internalType":"uint256","name":"netAmount","type":"uint256"},{"indexed":false,"internalType":"uint256","name":"retainageAmount","type":"uint256"}],"name":"MilestonePaid","type":"event"},{"anonymous":false,"inputs":[{"indexed":true,"internalType":"uint256","name":"milestoneId","type":"uint256"},{"indexed":false,"internalType":"bytes32","name":"proofHash","type":"bytes32"}],"name":"MilestoneSubmitted","type":"event"},{"anonymous":false,"inputs":[{"indexed":true,"internalType":"address","name":"oracleApprover","type":"address"}],"name":"OracleApproverSet","type":"event"},{"anonymous":false,"inputs":[{"indexed":false,"internalType":"uint256","name":"amount","type":"uint256"}],"name":"RetainageReleased","type":"event"},{"inputs":[{"internalType":"uint256","name":"milestoneId","type":"uint256"}],"name":"approveMilestone","outputs":[],"stateMutability":"nonpayable","type":"function"},{"inputs":[],"name":"contractor","outputs":[{"internalType":"address","name":"","type":"address"}],"stateMutability":"view","type":"function"},{"inputs":[{"internalType":"uint256","name":"amount","type":"uint256"}],"name":"createMilestone","outputs":[{"internalType":"uint256","name":"id","type":"uint256"}],"stateMutability":"nonpayable","type":"function"},{"inputs":[{"internalType":"uint256","name":"amount","type":"uint256"}],"name":"depositFunds","outputs":[],"stateMutability":"nonpayable","type":"function"},{"inputs":[],"name":"developer","outputs":[{"internalType":"address","name":"","type":"address"}],"stateMutability":"view","type":"function"},{"inputs":[{"internalType":"uint256","name":"milestoneId","type":"uint256"},{"internalType":"string","name":"reason","type":"string"}],"name":"disputeMilestone","outputs":[],"stateMutability":"nonpayable","type":"function"},{"inputs":[],"name":"milestoneCount","outputs":[{"internalType":"uint256","name":"","type":"uint256"}],"stateMutability":"view","type":"function"},{"inputs":[{"internalType":"uint256","name":"","type":"uint256"}],"name":"milestones","outputs":[{"internalType":"uint256","name":"amount","type":"uint256"},{"internalType":"uint256","name":"netPayable","type":"uint256"},{"internalType":"enum EscrowVaultUSDC.MilestoneStatus","name":"status","type":"uint8"},{"internalType":"bytes32","name":"proofHash","type":"bytes32"},{"internalType":"uint64","name":"submittedAt","type":"uint64"},{"internalType":"uint64","name":"approvedAt","type":"uint64"},{"internalType":"uint64","name":"paidAt","type":"uint64"}],"stateMutability":"view","type":"function"},{"inputs":[],"name":"oracleApprover","outputs":[{"internalType":"address","name":"","type":"address"}],"stateMutability":"view","type":"function"},{"inputs":[{"internalType":"uint256","name":"milestoneId","type":"uint256"}],"name":"payMilestone","outputs":[],"stateMutability":"nonpayable","type":"function"},{"inputs":[],"name":"releaseRetainage","outputs":[],"stateMutability":"nonpayable","type":"function"},{"inputs":[],"name":"retainageBps","outputs":[{"internalType":"uint256","name":"","type":"uint256"}],"stateMutability":"view","type":"function"},{"inputs":[],"name":"retainageHeld","outputs":[{"internalType":"uint256","name":"","type":"uint256"}],"stateMutability":"view","type":"function"},{"inputs":[],"name":"retainageReleaseThresholdBps","outputs":[{"internalType":"uint256","name":"","type":"uint256"}],"stateMutability":"view","type":"function"},{"inputs":[{"internalType":"uint256","name":"milestoneId","type":"uint256"},{"internalType":"bytes32","name":"proofHash","type":"bytes32"}],"name":"submitMilestone","outputs":[],"stateMutability":"nonpayable","type":"function"},{"inputs":[],"name":"totalDeposited","outputs":[{"internalType":"uint256","name":"","type":"uint256"}],"stateMutability":"view","type":"function"},{"inputs":[],"name":"totalPaid","outputs":[{"internalType":"uint256","name":"","type":"uint256"}],"stateMutability":"view","type":"function"},{"inputs":[],"name":"usdc","outputs":[{"internalType":"contract IERC20","name":"","type":"address"}],"stateMutability":"view","type":"function"}],"evm":{"bytecode":{"linkReferences":{},"object":"6101006040523480156200001257600080fd5b506040516200188a3803806200188a83398101604081905262000035916200019d565b6001600160a01b038516620000805760405162461bcd60e51b815260206004820152600c60248201526b496e76616c6964205553444360a01b60448201526064015b60405180910390fd5b6001600160a01b038416620000cd5760405162461bcd60e51b815260206004820152601260248201527124b73b30b634b21031b7b73a3930b1ba37b960711b604482015260640162000077565b6107d0831115620001165760405162461bcd60e51b81526020600482015260126024820152710a4cae8c2d2dcc2ceca40e8dede40d0d2ced60731b604482015260640162000077565b6001600160a01b038581166080523360a05284811660c05260e08490526000838155600480546001600160a01b03191692841692831790556040517ff44ac5d53b2f4dc13a9ac53c7cdd41aa1f6a24ca01e1e8604cd68be903db46cd9190a25050505050620001fb565b80516001600160a01b03811681146200019857600080fd5b919050565b600080600080600060a08688031215620001b657600080fd5b620001c18662000180565b9450620001d16020870162000180565b93506040860151925060608601519150620001ef6080870162000180565b90509295509295909350565b60805160a05160c05160e0516115e5620002a5600039600081816101cc0152818161091801526110ee015260008181610294015281816105b401528181610ab30152610bb8015260008181610219015281816102ca015281816106b10152818161083601528181610d8f01528181610f1c015261106c015260008181610154015281816104e0015281816105e301528181610762015281816109700152610ae201526115e56000f3fe608060405234801561001057600080fd5b50600436106101165760003560e01c8063c4f5cae0116100a2578063e7b0f66611610071578063e7b0f66614610257578063e89e4ed614610260578063f6a2807314610286578063fbfd20451461028f578063ff50abdc146102b657600080fd5b8063c4f5cae014610201578063ca4b208b14610214578063cbe39ad01461023b578063d2bd56d01461024457600080fd5b806369db0a7e116100e957806369db0a7e1461018e57806378b69604146101a157806383fd54b5146101b45780639e453d8c146101c7578063c438b40f146101ee57600080fd5b806304e265b31461011b5780630681ca55146101255780633b76594d1461013c5780633e413bee1461014f575b600080fd5b6101236102bf565b005b6005545b6040519081526020015b60405180910390f35b61012361014a3660046112f0565b6106a6565b6101767f000000000000000000000000000000000000000000000000000000000000000081565b6040516001600160a01b039091168152602001610133565b61012361019c3660046112f0565b61082b565b6101236101af366004611309565b610bad565b600454610176906001600160a01b031681565b6101297f000000000000000000000000000000000000000000000000000000000000000081565b6101236101fc3660046112f0565b610d84565b61012361020f36600461132b565b610f11565b6101767f000000000000000000000000000000000000000000000000000000000000000081565b61012960035481565b6101296102523660046112f0565b61105f565b61012960025481565b61027361026e3660046112f0565b61128b565b60405161013397969594939291906113bd565b61012960005481565b6101767f000000000000000000000000000000000000000000000000000000000000000081565b61012960015481565b336001600160a01b037f000000000000000000000000000000000000000000000000000000000000000016146103105760405162461bcd60e51b81526004016103079061141f565b60405180910390fd5b600554600080805b838110156103d65760036005828154811061033557610335611447565b600091825260209091206002600590920201015460ff16600481111561035d5761035d6113a7565b03610374578261036c81611473565b9350506103c4565b60046005828154811061038957610389611447565b600091825260209091206002600590920201015460ff1660048111156103b1576103b16113a7565b036103c457816103c081611473565b9250505b806103ce81611473565b915050610318565b5060006103e3828561148c565b90506000811161042e5760405162461bcd60e51b81526020600482015260166024820152754e6f20656c696769626c65206d696c6573746f6e657360501b6044820152606401610307565b6000548161043e856127106114a5565b61044891906114bc565b101561048a5760405162461bcd60e51b8152602060048201526011602482015270151a1c995cda1bdb19081b9bdd081b595d607a1b6044820152606401610307565b600354806104c95760405162461bcd60e51b815260206004820152600c60248201526b4e6f2072657461696e61676560a01b6044820152606401610307565b6040516370a0823160e01b815230600482015281907f00000000000000000000000000000000000000000000000000000000000000006001600160a01b0316906370a0823190602401602060405180830381865afa15801561052f573d6000803e3d6000fd5b505050506040513d601f19601f8201168201806040525081019061055391906114de565b10156105985760405162461bcd60e51b8152602060048201526014602482015273496e73756666696369656e742062616c616e636560601b6044820152606401610307565b600060035560405163a9059cbb60e01b81526001600160a01b037f000000000000000000000000000000000000000000000000000000000000000081166004830152602482018390527f0000000000000000000000000000000000000000000000000000000000000000169063a9059cbb906044016020604051808303816000875af115801561062c573d6000803e3d6000fd5b505050506040513d601f19601f8201168201806040525081019061065091906114f7565b61066c5760405162461bcd60e51b815260040161030790611520565b6040518181527f7da60aef752d91c97b4a6dc4bcddf55a6492fa61f1a65132e1472a1760a751b29060200160405180910390a15050505050565b336001600160a01b037f000000000000000000000000000000000000000000000000000000000000000016146106ee5760405162461bcd60e51b81526004016103079061141f565b600081116107295760405162461bcd60e51b81526020600482015260086024820152670416d6f756e743d360c41b6044820152606401610307565b806001600082825461073b9190611549565b90915550506040516323b872dd60e01b8152336004820152306024820152604481018290527f00000000000000000000000000000000000000000000000000000000000000006001600160a01b0316906323b872dd906064016020604051808303816000875af11580156107b3573d6000803e3d6000fd5b505050506040513d601f19601f820116820180604052508101906107d791906114f7565b6107f35760405162461bcd60e51b815260040161030790611520565b60405181815233907f5af8184bef8e4b45eb9f6ed7734d04da38ced226495548f46e0c8ff8d7d9a5249060200160405180910390a250565b336001600160a01b037f000000000000000000000000000000000000000000000000000000000000000016146108735760405162461bcd60e51b81526004016103079061141f565b60055481106108945760405162461bcd60e51b81526004016103079061155c565b6000600582815481106108a9576108a9611447565b60009182526020909120600590910201905060028082015460ff1660048111156108d5576108d56113a7565b146109115760405162461bcd60e51b815260206004820152600c60248201526b139bdd08185c1c1c9bdd995960a21b6044820152606401610307565b60006127107f0000000000000000000000000000000000000000000000000000000000000000836000015461094691906114a5565b61095091906114bc565b60018301546040516370a0823160e01b81523060048201529192509081907f00000000000000000000000000000000000000000000000000000000000000006001600160a01b0316906370a0823190602401602060405180830381865afa1580156109bf573d6000803e3d6000fd5b505050506040513d601f19601f820116820180604052508101906109e391906114de565b1015610a315760405162461bcd60e51b815260206004820152601b60248201527f496e73756666696369656e7420657363726f772062616c616e636500000000006044820152606401610307565b6002838101805460ff1916600317905560048401805467ffffffffffffffff4216600160801b0267ffffffffffffffff60801b199091161790558054829190600090610a7e908490611549565b925050819055508160036000828254610a979190611549565b909155505060405163a9059cbb60e01b81526001600160a01b037f000000000000000000000000000000000000000000000000000000000000000081166004830152602482018390527f0000000000000000000000000000000000000000000000000000000000000000169063a9059cbb906044016020604051808303816000875af1158015610b2b573d6000803e3d6000fd5b505050506040513d601f19601f82011682018060405250810190610b4f91906114f7565b610b6b5760405162461bcd60e51b815260040161030790611520565b604080518281526020810184905285917fafc8fc5dd6037bf38d34d9d51bb5ecc0af143248332c63ae9e83bbef6d4638d991015b60405180910390a250505050565b336001600160a01b037f00000000000000000000000000000000000000000000000000000000000000001614610c175760405162461bcd60e51b815260206004820152600f60248201526e27b7363c9031b7b73a3930b1ba37b960891b6044820152606401610307565b6005548210610c385760405162461bcd60e51b81526004016103079061155c565b80610c755760405162461bcd60e51b815260206004820152600d60248201526c24b73b30b634b210383937b7b360991b6044820152606401610307565b600060058381548110610c8a57610c8a611447565b6000918252602082206005909102019150600282015460ff166004811115610cb457610cb46113a7565b1480610cd857506004600282015460ff166004811115610cd657610cd66113a7565b145b610d135760405162461bcd60e51b815260206004820152600c60248201526b57726f6e672073746174757360a01b6044820152606401610307565b60028101805460ff191660011790556003810182905560048101805467ffffffffffffffff421667ffffffffffffffff1990911617905560405182815283907f7287d4e2124e164c3e1c3f79240dfe987824d65cbde320cca075a436de20a0589060200160405180910390a2505050565b336001600160a01b037f0000000000000000000000000000000000000000000000000000000000000000161480610dc557506004546001600160a01b031633145b610e025760405162461bcd60e51b815260206004820152600e60248201526d139bdd08185d5d1a1bdc9a5e995960921b6044820152606401610307565b6005548110610e235760405162461bcd60e51b81526004016103079061155c565b600060058281548110610e3857610e38611447565b6000918252602090912060059091020190506001600282015460ff166004811115610e6557610e656113a7565b14610ea25760405162461bcd60e51b815260206004820152600d60248201526c139bdd081cdd589b5a5d1d1959609a1b6044820152606401610307565b6002818101805460ff191660018302179055506004810180546fffffffffffffffff00000000000000001916600160401b4267ffffffffffffffff160217905560405182907f0adffe31a62a9e7e5068bdd6f839470d57dd0e18fac8a8d525196283eb9b392a90600090a25050565b336001600160a01b037f00000000000000000000000000000000000000000000000000000000000000001614610f595760405162461bcd60e51b81526004016103079061141f565b6005548310610f7a5760405162461bcd60e51b81526004016103079061155c565b600060058481548110610f8f57610f8f611447565b6000918252602090912060059091020190506001600282015460ff166004811115610fbc57610fbc6113a7565b1480610fdf575060028082015460ff166004811115610fdd57610fdd6113a7565b145b61101c5760405162461bcd60e51b815260206004820152600e60248201526d4e6f742064697370757461626c6560901b6044820152606401610307565b60028101805460ff1916600417905560405184907f365d08ff2df448ec87654cbda15ec8f08a648e967a4492300f4a05869512b3f890610b9f9086908690611580565b6000336001600160a01b037f000000000000000000000000000000000000000000000000000000000000000016146110a95760405162461bcd60e51b81526004016103079061141f565b600082116110e45760405162461bcd60e51b81526020600482015260086024820152670416d6f756e743d360c41b6044820152606401610307565b60006127106111137f0000000000000000000000000000000000000000000000000000000000000000856114a5565b61111d91906114bc565b9050600061112b828561148c565b905060056040518060e0016040528086815260200183815260200160006004811115611159576111596113a7565b81526000602080830182905260408084018390526060840183905260809093018290528454600181810187559583529181902084516005909302019182558301518185015590820151600282018054939492939192909160ff1916908360048111156111c7576111c76113a7565b02179055506060820151600382015560808201516004909101805460a084015160c09094015167ffffffffffffffff908116600160801b0267ffffffffffffffff60801b19958216600160401b026fffffffffffffffffffffffffffffffff19909316919094161717929092161790556005546112469060019061148c565b604080518681526020810184905291945084917fb59c2d823e6ca395c24829d80f43a97d9c6fd711596372c5a4663af872f4b9d2910160405180910390a25050919050565b6005818154811061129b57600080fd5b600091825260209091206005909102018054600182015460028301546003840154600490940154929450909260ff9091169167ffffffffffffffff80821691600160401b8104821691600160801b9091041687565b60006020828403121561130257600080fd5b5035919050565b6000806040838503121561131c57600080fd5b50508035926020909101359150565b60008060006040848603121561134057600080fd5b83359250602084013567ffffffffffffffff8082111561135f57600080fd5b818601915086601f83011261137357600080fd5b81358181111561138257600080fd5b87602082850101111561139457600080fd5b6020830194508093505050509250925092565b634e487b7160e01b600052602160045260246000fd5b8781526020810187905260e08101600587106113e957634e487b7160e01b600052602160045260246000fd5b6040820196909652606081019490945267ffffffffffffffff928316608085015290821660a08401521660c09091015292915050565b6020808252600e908201526d27b7363c903232bb32b637b832b960911b604082015260600190565b634e487b7160e01b600052603260045260246000fd5b634e487b7160e01b600052601160045260246000fd5b6000600182016114855761148561145d565b5060010190565b8181038181111561149f5761149f61145d565b92915050565b808202811582820484141761149f5761149f61145d565b6000826114d957634e487b7160e01b600052601260045260246000fd5b500490565b6000602082840312156114f057600080fd5b5051919050565b60006020828403121561150957600080fd5b8151801515811461151957600080fd5b9392505050565b6020808252600f908201526e151c985b9cd9995c8819985a5b1959608a1b604082015260600190565b8082018082111561149f5761149f61145d565b6020808252600a9082015269125b9d985b1a59081a5960b21b604082015260600190565b60208152816020820152818360408301376000818301604090810191909152601f909201601f1916010191905056fea2646970667358221220350b96d18e21d0e1ac20775a6e2c583a75c9d0a870c2a0b9c0e266505c15aa3364736f6c63430008140033","opcodes":"PUSH2 0x100 PUSH1 0x40 MSTORE CALLVALUE DUP1 ISZERO PUSH3 0x12 JUMPI PUSH1 0x0 DUP1 REVERT JUMPDEST POP PUSH1 0x40 MLOAD PUSH3 0x188A CODESIZE SUB DUP1 PUSH3 0x188A DUP4 CODECOPY DUP2 ADD PUSH1 0x40 DUP2 SWAP1 MSTORE PUSH3 0x35 SWAP2 PUSH3 0x19D JUMP JUMPDEST PUSH1 0x1 PUSH1 0x1 PUSH1 0xA0 SHL SUB DUP6 AND PUSH3 0x80 JUMPI PUSH1 0x40 MLOAD PUSH3 0x461BCD PUSH1 0xE5 SHL DUP2 MSTORE PUSH1 0x20 PUSH1 0x4 DUP3 ADD MSTORE PUSH1 0xC PUSH1 0x24 DUP3 ADD MSTORE PUSH12 0x496E76616C69642055534443 PUSH1 0xA0 SHL PUSH1 0x44 DUP3 ADD MSTORE PUSH1 0x64 ADD JUMPDEST PUSH1 0x40 MLOAD DUP1 SWAP2 SUB SWAP1 REVERT JUMPDEST PUSH1 0x1 PUSH1 0x1 PUSH1 0xA0 SHL SUB DUP5 AND PUSH3 0xCD JUMPI PUSH1 0x40 MLOAD PUSH3 0x461BCD PUSH1 0xE5 SHL DUP2 MSTORE PUSH1 0x20 PUSH1 0x4 DUP3 ADD MSTORE PUSH1 0x12 PUSH1 0x24 DUP3 ADD MSTORE PUSH18 0x24B73B30B634B21031B7B73A3930B1BA37B9 PUSH1 0x71 SHL PUSH1 0x44 DUP3 ADD MSTORE PUSH1 0x64 ADD PUSH3 0x77 JUMP JUMPDEST PUSH2 0x7D0 DUP4 GT ISZERO PUSH3 0x116 JUMPI PUSH1 0x40 MLOAD PUSH3 0x461BCD PUSH1 0xE5 SHL DUP2 MSTORE PUSH1 0x20 PUSH1 0x4 DUP3 ADD MSTORE PUSH1 0x12 PUSH1 0x24 DUP3 ADD MSTORE PUSH18 0xA4CAE8C2D2DCC2CECA40E8DEDE40D0D2CED PUSH1 0x73 SHL PUSH1 0x44 DUP3 ADD MSTORE PUSH1 0x64 ADD PUSH3 0x77 JUMP JUMPDEST PUSH1 0x1 PUSH1 0x1 PUSH1 0xA0 SHL SUB DUP6 DUP2 AND PUSH1 0x80 MSTORE CALLER PUSH1 0xA0 MSTORE DUP5 DUP2 AND PUSH1 0xC0 MSTORE PUSH1 0xE0 DUP5 SWAP1 MSTORE PUSH1 0x0 DUP4 DUP2 SSTORE PUSH1 0x4 DUP1 SLOAD PUSH1 0x1 PUSH1 0x1 PUSH1 0xA0 SHL SUB NOT AND SWAP3 DUP5 AND SWAP3 DUP4 OR SWAP1 SSTORE PUSH1 0x40 MLOAD PUSH32 0xF44AC5D53B2F4DC13A9AC53C7CDD41AA1F6A24CA01E1E8604CD68BE903DB46CD SWAP2 SWAP1 LOG2 POP POP POP POP POP PUSH3 0x1FB JUMP JUMPDEST DUP1 MLOAD PUSH1 0x1 PUSH1 0x1 PUSH1 0xA0 SHL SUB DUP2 AND DUP2 EQ PUSH3 0x198 JUMPI PUSH1 0x0 DUP1 REVERT JUMPDEST SWAP2 SWAP1 POP JUMP JUMPDEST PUSH1 0x0 DUP1 PUSH1 0x0 DUP1 PUSH1 0x0 PUSH1 0xA0 DUP7 DUP9 SUB SLT ISZERO PUSH3 0x1B6 JUMPI PUSH1 0x0 DUP1 REVERT JUMPDEST PUSH3 0x1C1 DUP7 PUSH3 0x180 JUMP JUMPDEST SWAP5 POP PUSH3 0x1D1 PUSH1 0x20 DUP8 ADD PUSH3 0x180 JUMP JUMPDEST SWAP4 POP PUSH1 0x40 DUP7 ADD MLOAD SWAP3 POP PUSH1 0x60 DUP7 ADD MLOAD SWAP2 POP PUSH3 0x1EF PUSH1 0x80 DUP8 ADD PUSH3 0x180 JUMP JUMPDEST SWAP1 POP SWAP3 SWAP6 POP SWAP3 SWAP6 SWAP1 SWAP4 POP JUMP JUMPDEST PUSH1 0x80 MLOAD PUSH1 0xA0 MLOAD PUSH1 0xC0 MLOAD PUSH1 0xE0 MLOAD PUSH2 0x15E5 PUSH3 0x2A5 PUSH1 0x0 CODECOPY PUSH1 0x0 DUP2 DUP2 PUSH2 0x1CC ADD MSTORE DUP2 DUP2 PUSH2 0x918 ADD MSTORE PUSH2 0x10EE ADD MSTORE PUSH1 0x0 DUP2 DUP2 PUSH2 0x294 ADD MSTORE DUP2 DUP2 PUSH2 0x5B4 ADD MSTORE DUP2 DUP2 PUSH2 0xAB3 ADD MSTORE PUSH2 0xBB8 ADD MSTORE PUSH1 0x0 DUP2 DUP2 PUSH2 0x219 ADD MSTORE DUP2 DUP2 PUSH2 0x2CA ADD MSTORE DUP2 DUP2 PUSH2 0x6B1 ADD MSTORE DUP2 DUP2 PUSH2 0x836 ADD MSTORE DUP2 DUP2 PUSH2 0xD8F ADD MSTORE DUP2 DUP2 PUSH2 0xF1C ADD MSTORE PUSH2 0x106C ADD MSTORE PUSH1 0x0 DUP2 DUP2 PUSH2 0x154 ADD MSTORE DUP2 DUP2 PUSH2 0x4E0 ADD MSTORE DUP2 DUP2 PUSH2 0x5E3 ADD MSTORE DUP2 DUP2 PUSH2 0x762 ADD MSTORE DUP2 DUP2 PUSH2 0x970 ADD MSTORE PUSH2 0xAE2 ADD MSTORE PUSH2 0x15E5 PUSH1 0x0 RETURN INVALID PUSH1 0x80 PUSH1 0x40 MSTORE CALLVALUE DUP1 ISZERO PUSH2 0x10 JUMPI PUSH1 0x0 DUP1 REVERT JUMPDEST POP PUSH1 0x4 CALLDATASIZE LT PUSH2 0x116 JUMPI PUSH1 0x0 CALLDATALOAD PUSH1 0xE0 SHR DUP1 PUSH4 0xC4F5CAE0 GT PUSH2 0xA2 JUMPI DUP1 PUSH4 0xE7B0F666 GT PUSH2 0x71 JUMPI DUP1 PUSH4 0xE7B0F666 EQ PUSH2 0x257 JUMPI DUP1 PUSH4 0xE89E4ED6 EQ PUSH2 0x260 JUMPI DUP1 PUSH4 0xF6A28073 EQ PUSH2 0x286 JUMPI DUP1 PUSH4 0xFBFD2045 EQ PUSH2 0x28F JUMPI DUP1 PUSH4 0xFF50ABDC EQ PUSH2 0x2B6 JUMPI PUSH1 0x0 DUP1 REVERT JUMPDEST DUP1 PUSH4 0xC4F5CAE0 EQ PUSH2 0x201 JUMPI DUP1 PUSH4 0xCA4B208B EQ PUSH2 0x214 JUMPI DUP1 PUSH4 0xCBE39AD0 EQ PUSH2 0x23B JUMPI DUP1 PUSH4 0xD2BD56D0 EQ PUSH2 0x244 JUMPI PUSH1 0x0 DUP1 REVERT JUMPDEST DUP1 PUSH4 0x69DB0A7E GT PUSH2 0xE9 JUMPI DUP1 PUSH4 0x69DB0A7E EQ PUSH2 0x18E JUMPI DUP1 PUSH4 0x78B69604 EQ PUSH2 0x1A1 JUMPI DUP1 PUSH4 0x83FD54B5 EQ PUSH2 0x1B4 JUMPI DUP1 PUSH4 0x9E453D8C EQ PUSH2 0x1C7 JUMPI DUP1 PUSH4 0xC438B40F EQ PUSH2 0x1EE JUMPI PUSH1 0x0 DUP1 REVERT JUMPDEST DUP1 PUSH4 0x4E265B3 EQ PUSH2 0x11B JUMPI DUP1 PUSH4 0x681CA55 EQ PUSH2 0x125 JUMPI DUP1 PUSH4 0x3B76594D EQ PUSH2 0x13C JUMPI DUP1 PUSH4 0x3E413BEE EQ PUSH2 0x14F JUMPI JUMPDEST PUSH1 0x0 DUP1 REVERT JUMPDEST PUSH2 0x123 PUSH2 0x2BF JUMP JUMPDEST STOP JUMPDEST PUSH1 0x5 SLOAD JUMPDEST PUSH1 0x40 MLOAD SWAP1 DUP2 MSTORE PUSH1 0x20 ADD JUMPDEST PUSH1 0x40 MLOAD DUP1 SWAP2 SUB SWAP1 RETURN JUMPDEST PUSH2 0x123 PUSH2 0x14A CALLDATASIZE PUSH1 0x4 PUSH2 0x12F0 JUMP JUMPDEST PUSH2 0x6A6 JUMP JUMPDEST PUSH2 0x176 PUSH32 0x0 DUP2 JUMP JUMPDEST PUSH1 0x40 MLOAD PUSH1 0x1 PUSH1 0x1 PUSH1 0xA0 SHL SUB SWAP1 SWAP2 AND DUP2 MSTORE PUSH1 0x20 ADD PUSH2 0x133 JUMP JUMPDEST PUSH2 0x123 PUSH2 0x19C CALLDATASIZE PUSH1 0x4 PUSH2 0x12F0 JUMP JUMPDEST PUSH2 0x82B JUMP JUMPDEST PUSH2 0x123 PUSH2 0x1AF CALLDATASIZE PUSH1 0x4 PUSH2 0x1309 JUMP JUMPDEST PUSH2 0xBAD JUMP JUMPDEST PUSH1 0x4 SLOAD PUSH2 0x176 SWAP1 PUSH1 0x1 PUSH1 0x1 PUSH1 0xA0 SHL SUB AND DUP2 JUMP JUMPDEST PUSH2 0x129 PUSH32 0x0 DUP2 JUMP JUMPDEST PUSH2 0x123 PUSH2 0x1FC CALLDATASIZE PUSH1 0x4 PUSH2 0x12F0 JUMP JUMPDEST PUSH2 0xD84 JUMP JUMPDEST PUSH2 0x123 PUSH2 0x20F CALLDATASIZE PUSH1 0x4 PUSH2 0x132B JUMP JUMPDEST PUSH2 0xF11 JUMP JUMPDEST PUSH2 0x176 PUSH32 0x0 DUP2 JUMP JUMPDEST PUSH2 0x129 PUSH1 0x3 SLOAD DUP2 JUMP JUMPDEST PUSH2 0x129 PUSH2 0x252 CALLDATASIZE PUSH1 0x4 PUSH2 0x12F0 JUMP JUMPDEST PUSH2 0x105F JUMP JUMPDEST PUSH2 0x129 PUSH1 0x2 SLOAD DUP2 JUMP JUMPDEST PUSH2 0x273 PUSH2 0x26E CALLDATASIZE PUSH1 0x4 PUSH2 0x12F0 JUMP JUMPDEST PUSH2 0x128B JUMP JUMPDEST PUSH1 0x40 MLOAD PUSH2 0x133 SWAP8 SWAP7 SWAP6 SWAP5 SWAP4 SWAP3 SWAP2 SWAP1 PUSH2 0x13BD JUMP JUMPDEST PUSH2 0x129 PUSH1 0x0 SLOAD DUP2 JUMP JUMPDEST PUSH2 0x176 PUSH32 0x0 DUP2 JUMP JUMPDEST PUSH2 0x129 PUSH1 0x1 SLOAD DUP2 JUMP JUMPDEST CALLER PUSH1 0x1 PUSH1 0x1 PUSH1 0xA0 SHL SUB PUSH32 0x0 AND EQ PUSH2 0x310 JUMPI PUSH1 0x40 MLOAD PUSH3 0x461BCD PUSH1 0xE5 SHL DUP2 MSTORE PUSH1 0x4 ADD PUSH2 0x307 SWAP1 PUSH2 0x141F JUMP JUMPDEST PUSH1 0x40 MLOAD DUP1 SWAP2 SUB SWAP1 REVERT JUMPDEST PUSH1 0x5 SLOAD PUSH1 0x0 DUP1 DUP1 JUMPDEST DUP4 DUP2 LT ISZERO PUSH2 0x3D6 JUMPI PUSH1 0x3 PUSH1 0x5 DUP3 DUP2 SLOAD DUP2 LT PUSH2 0x335 JUMPI PUSH2 0x335 PUSH2 0x1447 JUMP JUMPDEST PUSH1 0x0 SWAP2 DUP3 MSTORE PUSH1 0x20 SWAP1 SWAP2 KECCAK256 PUSH1 0x2 PUSH1 0x5 SWAP1 SWAP3 MUL ADD ADD SLOAD PUSH1 0xFF AND PUSH1 0x4 DUP2 GT ISZERO PUSH2 0x35D JUMPI PUSH2 0x35D PUSH2 0x13A7 JUMP JUMPDEST SUB PUSH2 0x374 JUMPI DUP3 PUSH2 0x36C DUP2 PUSH2 0x1473 JUMP JUMPDEST SWAP4 POP POP PUSH2 0x3C4 JUMP JUMPDEST PUSH1 0x4 PUSH1 0x5 DUP3 DUP2 SLOAD DUP2 LT PUSH2 0x389 JUMPI PUSH2 0x389 PUSH2 0x1447 JUMP JUMPDEST PUSH1 0x0 SWAP2 DUP3 MSTORE PUSH1 0x20 SWAP1 SWAP2 KECCAK256 PUSH1 0x2 PUSH1 0x5 SWAP1 SWAP3 MUL ADD ADD SLOAD PUSH1 0xFF AND PUSH1 0x4 DUP2 GT ISZERO PUSH2 0x3B1 JUMPI PUSH2 0x3B1 PUSH2 0x13A7 JUMP JUMPDEST SUB PUSH2 0x3C4 JUMPI DUP2 PUSH2 0x3C0 DUP2 PUSH2 0x1473 JUMP JUMPDEST SWAP3 POP POP JUMPDEST DUP1 PUSH2 0x3CE DUP2 PUSH2 0x1473 JUMP JUMPDEST SWAP2 POP POP PUSH2 0x318 JUMP JUMPDEST POP PUSH1 0x0 PUSH2 0x3E3 DUP3 DUP6 PUSH2 0x148C JUMP JUMPDEST SWAP1 POP PUSH1 0x0 DUP2 GT PUSH2 0x42E JUMPI PUSH1 0x40 MLOAD PUSH3 0x461BCD PUSH1 0xE5 SHL DUP2 MSTORE PUSH1 0x20 PUSH1 0x4 DUP3 ADD MSTORE PUSH1 0x16 PUSH1 0x24 DUP3 ADD MSTORE PUSH22 0x4E6F20656C696769626C65206D696C6573746F6E6573 PUSH1 0x50 SHL PUSH1 0x44 DUP3 ADD MSTORE PUSH1 0x64 ADD PUSH2 0x307 JUMP JUMPDEST PUSH1 0x0 SLOAD DUP2 PUSH2 0x43E DUP6 PUSH2 0x2710 PUSH2 0x14A5 JUMP JUMPDEST PUSH2 0x448 SWAP2 SWAP1 PUSH2 0x14BC JUMP JUMPDEST LT ISZERO PUSH2 0x48A JUMPI PUSH1 0x40 MLOAD PUSH3 0x461BCD PUSH1 0xE5 SHL DUP2 MSTORE PUSH1 0x20 PUSH1 0x4 DUP3 ADD MSTORE PUSH1 0x11 PUSH1 0x24 DUP3 ADD MSTORE PUSH17 0x151A1C995CDA1BDB19081B9BDD081B595D PUSH1 0x7A SHL PUSH1 0x44 DUP3 ADD MSTORE PUSH1 0x64 ADD PUSH2 0x307 JUMP JUMPDEST PUSH1 0x3 SLOAD DUP1 PUSH2 0x4C9 JUMPI PUSH1 0x40 MLOAD PUSH3 0x461BCD PUSH1 0xE5 SHL DUP2 MSTORE PUSH1 0x20 PUSH1 0x4 DUP3 ADD MSTORE PUSH1 0xC PUSH1 0x24 DUP3 ADD MSTORE PUSH12 0x4E6F2072657461696E616765 PUSH1 0xA0 SHL PUSH1 0x44 DUP3 ADD MSTORE PUSH1 0x64 ADD PUSH2 0x307 JUMP JUMPDEST PUSH1 0x40 MLOAD PUSH4 0x70A08231 PUSH1 0xE0 SHL DUP2 MSTORE ADDRESS PUSH1 0x4 DUP3 ADD MSTORE DUP2 SWAP1 PUSH32 0x0 PUSH1 0x1 PUSH1 0x1 PUSH1 0xA0 SHL SUB AND SWAP1 PUSH4 0x70A08231 SWAP1 PUSH1 0x24 ADD PUSH1 0x20 PUSH1 0x40 MLOAD DUP1 DUP4 SUB DUP2 DUP7 GAS STATICCALL ISZERO DUP1 ISZERO PUSH2 0x52F JUMPI RETURNDATASIZE PUSH1 0x0 DUP1 RETURNDATACOPY RETURNDATASIZE PUSH1 0x0 REVERT JUMPDEST POP POP POP POP PUSH1 0x40 MLOAD RETURNDATASIZE PUSH1 0x1F NOT PUSH1 0x1F DUP3 ADD AND DUP3 ADD DUP1 PUSH1 0x40 MSTORE POP DUP2 ADD SWAP1 PUSH2 0x553 SWAP2 SWAP1 PUSH2 0x14DE JUMP JUMPDEST LT ISZERO PUSH2 0x598 JUMPI PUSH1 0x40 MLOAD PUSH3 0x461BCD PUSH1 0xE5 SHL DUP2 MSTORE PUSH1 0x20 PUSH1 0x4 DUP3 ADD MSTORE PUSH1 0x14 PUSH1 0x24 DUP3 ADD MSTORE PUSH20 0x496E73756666696369656E742062616C616E6365 PUSH1 0x60 SHL PUSH1 0x44 DUP3 ADD MSTORE PUSH1 0x64 ADD PUSH2 0x307 JUMP JUMPDEST PUSH1 0x0 PUSH1 0x3 SSTORE PUSH1 0x40 MLOAD PUSH4 0xA9059CBB PUSH1 0xE0 SHL DUP2 MSTORE PUSH1 0x1 PUSH1 0x1 PUSH1 0xA0 SHL SUB PUSH32 0x0 DUP2 AND PUSH1 0x4 DUP4 ADD MSTORE PUSH1 0x24 DUP3 ADD DUP4 SWAP1 MSTORE PUSH32 0x0 AND SWAP1 PUSH4 0xA9059CBB SWAP1 PUSH1 0x44 ADD PUSH1 0x20 PUSH1 0x40 MLOAD DUP1 DUP4 SUB DUP2 PUSH1 0x0 DUP8 GAS CALL ISZERO DUP1 ISZERO PUSH2 0x62C JUMPI RETURNDATASIZE PUSH1 0x0 DUP1 RETURNDATACOPY RETURNDATASIZE PUSH1 0x0 REVERT JUMPDEST POP POP POP POP PUSH1 0x40 MLOAD RETURNDATASIZE PUSH1 0x1F NOT PUSH1 0x1F DUP3 ADD AND DUP3 ADD DUP1 PUSH1 0x40 MSTORE POP DUP2 ADD SWAP1 PUSH2 0x650 SWAP2 SWAP1 PUSH2 0x14F7 JUMP JUMPDEST PUSH2 0x66C JUMPI PUSH1 0x40 MLOAD PUSH3 0x461BCD PUSH1 0xE5 SHL DUP2 MSTORE PUSH1 0x4 ADD PUSH2 0x307 SWAP1 PUSH2 0x1520 JUMP JUMPDEST PUSH1 0x40 MLOAD DUP2 DUP2 MSTORE PUSH32 0x7DA60AEF752D91C97B4A6DC4BCDDF55A6492FA61F1A65132E1472A1760A751B2 SWAP1 PUSH1 0x20 ADD PUSH1 0x40 MLOAD DUP1 SWAP2 SUB SWAP1 LOG1 POP POP POP POP POP JUMP JUMPDEST CALLER PUSH1 0x1 PUSH1 0x1 PUSH1 0xA0 SHL SUB PUSH32 0x0 AND EQ PUSH2 0x6EE JUMPI PUSH1 0x40 MLOAD PUSH3 0x461BCD PUSH1 0xE5 SHL DUP2 MSTORE PUSH1 0x4 ADD PUSH2 0x307 SWAP1 PUSH2 0x141F JUMP JUMPDEST PUSH1 0x0 DUP2 GT PUSH2 0x729 JUMPI PUSH1 0x40 MLOAD PUSH3 0x461BCD PUSH1 0xE5 SHL DUP2 MSTORE PUSH1 0x20 PUSH1 0x4 DUP3 ADD MSTORE PUSH1 0x8 PUSH1 0x24 DUP3 ADD MSTORE PUSH8 0x416D6F756E743D3 PUSH1 0xC4 SHL PUSH1 0x44 DUP3 ADD MSTORE PUSH1 0x64 ADD PUSH2 0x307 JUMP JUMPDEST DUP1 PUSH1 0x1 PUSH1 0x0 DUP3 DUP3 SLOAD PUSH2 0x73B SWAP2 SWAP1 PUSH2 0x1549 JUMP JUMPDEST SWAP1 SWAP2 SSTORE POP POP PUSH1 0x40 MLOAD PUSH4 0x23B872DD PUSH1 0xE0 SHL DUP2 MSTORE CALLER PUSH1 0x4 DUP3 ADD MSTORE ADDRESS PUSH1 0x24 DUP3 ADD MSTORE PUSH1 0x44 DUP2 ADD DUP3 SWAP1 MSTORE PUSH32 0x0 PUSH1 0x1 PUSH1 0x1 PUSH1 0xA0 SHL SUB AND SWAP1 PUSH4 0x23B872DD SWAP1 PUSH1 0x64 ADD PUSH1 0x20 PUSH1 0x40 MLOAD DUP1 DUP4 SUB DUP2 PUSH1 0x0 DUP8 GAS CALL ISZERO DUP1 ISZERO PUSH2 0x7B3 JUMPI RETURNDATASIZE PUSH1 0x0 DUP1 RETURNDATACOPY RETURNDATASIZE PUSH1 0x0 REVERT JUMPDEST POP POP POP POP PUSH1 0x40 MLOAD RETURNDATASIZE PUSH1 0x1F NOT PUSH1 0x1F DUP3 ADD AND DUP3 ADD DUP1 PUSH1 0x40 MSTORE POP DUP2 ADD SWAP1 PUSH2 0x7D7 SWAP2 SWAP1 PUSH2 0x14F7 JUMP JUMPDEST PUSH2 0x7F3 JUMPI PUSH1 0x40 MLOAD PUSH3 0x461BCD PUSH1 0xE5 SHL DUP2 MSTORE PUSH1 0x4 ADD PUSH2 0x307 SWAP1 PUSH2 0x1520 JUMP JUMPDEST PUSH1 0x40 MLOAD DUP2 DUP2 MSTORE CALLER SWAP1 PUSH32 0x5AF8184BEF8E4B45EB9F6ED7734D04DA38CED226495548F46E0C8FF8D7D9A524 SWAP1 PUSH1 0x20 ADD PUSH1 0x40 MLOAD DUP1 SWAP2 SUB SWAP1 LOG2 POP JUMP JUMPDEST CALLER PUSH1 0x1 PUSH1 0x1 PUSH1 0xA0 SHL SUB PUSH32 0x0 AND EQ PUSH2 0x873 JUMPI PUSH1 0x40 MLOAD PUSH3 0x461BCD PUSH1 0xE5 SHL DUP2 MSTORE PUSH1 0x4 ADD PUSH2 0x307 SWAP1 PUSH2 0x141F JUMP JUMPDEST PUSH1 0x5 SLOAD DUP2 LT PUSH2 0x894 JUMPI PUSH1 0x40 MLOAD PUSH3 0x461BCD PUSH1 0xE5 SHL DUP2 MSTORE PUSH1 0x4 ADD PUSH2 0x307 SWAP1 PUSH2 0x155C JUMP JUMPDEST PUSH1 0x0 PUSH1 0x5 DUP3 DUP2 SLOAD DUP2 LT PUSH2 0x8A9 JUMPI PUSH2 0x8A9 PUSH2 0x1447 JUMP JUMPDEST PUSH1 0x0 SWAP2 DUP3 MSTORE PUSH1 0x20 SWAP1 SWAP2 KECCAK256 PUSH1 0x5 SWAP1 SWAP2 MUL ADD SWAP1 POP PUSH1 0x2 DUP1 DUP3 ADD SLOAD PUSH1 0xFF AND PUSH1 0x4 DUP2 GT ISZERO PUSH2 0x8D5 JUMPI PUSH2 0x8D5 PUSH2 0x13A7 JUMP JUMPDEST EQ PUSH2 0x911 JUMPI PUSH1 0x40 MLOAD PUSH3 0x461BCD PUSH1 0xE5 SHL DUP2 MSTORE PUSH1 0x20 PUSH1 0x4 DUP3 ADD MSTORE PUSH1 0xC PUSH1 0x24 DUP3 ADD MSTORE PUSH12 0x139BDD08185C1C1C9BDD9959 PUSH1 0xA2 SHL PUSH1 0x44 DUP3 ADD MSTORE PUSH1 0x64 ADD PUSH2 0x307 JUMP JUMPDEST PUSH1 0x0 PUSH2 0x2710 PUSH32 0x0 DUP4 PUSH1 0x0 ADD SLOAD PUSH2 0x946 SWAP2 SWAP1 PUSH2 0x14A5 JUMP JUMPDEST PUSH2 0x950 SWAP2 SWAP1 PUSH2 0x14BC JUMP JUMPDEST PUSH1 0x1 DUP4 ADD SLOAD PUSH1 0x40 MLOAD PUSH4 0x70A08231 PUSH1 0xE0 SHL DUP2 MSTORE ADDRESS PUSH1 0x4 DUP3 ADD MSTORE SWAP2 SWAP3 POP SWAP1 DUP2 SWAP1 PUSH32 0x0 PUSH1 0x1 PUSH1 0x1 PUSH1 0xA0 SHL SUB AND SWAP1 PUSH4 0x70A08231 SWAP1 PUSH1 0x24 ADD PUSH1 0x20 PUSH1 0x40 MLOAD DUP1 DUP4 SUB DUP2 DUP7 GAS STATICCALL ISZERO DUP1 ISZERO PUSH2 0x9BF JUMPI RETURNDATASIZE PUSH1 0x0 DUP1 RETURNDATACOPY RETURNDATASIZE PUSH1 0x0 REVERT JUMPDEST POP POP POP POP PUSH1 0x40 MLOAD RETURNDATASIZE PUSH1 0x1F NOT PUSH1 0x1F DUP3 ADD AND DUP3 ADD DUP1 PUSH1 0x40 MSTORE POP DUP2 ADD SWAP1 PUSH2 0x9E3 SWAP2 SWAP1 PUSH2 0x14DE JUMP JUMPDEST LT ISZERO PUSH2 0xA31 JUMPI PUSH1 0x40 MLOAD PUSH3 0x461BCD PUSH1 0xE5 SHL DUP2 MSTORE PUSH1 0x20 PUSH1 0x4 DUP3 ADD MSTORE PUSH1 0x1B PUSH1 0x24 DUP3 ADD MSTORE PUSH32 0x496E73756666696369656E7420657363726F772062616C616E63650000000000 PUSH1 0x44 DUP3 ADD MSTORE PUSH1 0x64 ADD PUSH2 0x307 JUMP JUMPDEST PUSH1 0x2 DUP4 DUP2 ADD DUP1 SLOAD PUSH1 0xFF NOT AND PUSH1 0x3 OR SWAP1 SSTORE PUSH1 0x4 DUP5 ADD DUP1 SLOAD PUSH8 0xFFFFFFFFFFFFFFFF TIMESTAMP AND PUSH1 0x1 PUSH1 0x80 SHL MUL PUSH8 0xFFFFFFFFFFFFFFFF PUSH1 0x80 SHL NOT SWAP1 SWAP2 AND OR SWAP1 SSTORE DUP1 SLOAD DUP3 SWAP2 SWAP1 PUSH1 0x0 SWAP1 PUSH2 0xA7E SWAP1 DUP5 SWAP1 PUSH2 0x1549 JUMP JUMPDEST SWAP3 POP POP DUP2 SWAP1 SSTORE POP DUP2 PUSH1 0x3 PUSH1 0x0 DUP3 DUP3 SLOAD PUSH2 0xA97 SWAP2 SWAP1 PUSH2 0x1549 JUMP JUMPDEST SWAP1 SWAP2 SSTORE POP POP PUSH1 0x40 MLOAD PUSH4 0xA9059CBB PUSH1 0xE0 SHL DUP2 MSTORE PUSH1 0x1 PUSH1 0x1 PUSH1 0xA0 SHL SUB PUSH32 0x0 DUP2 AND PUSH1 0x4 DUP4 ADD MSTORE PUSH1 0x24 DUP3 ADD DUP4 SWAP1 MSTORE PUSH32 0x0 AND SWAP1 PUSH4 0xA9059CBB SWAP1 PUSH1 0x44 ADD PUSH1 0x20 PUSH1 0x40 MLOAD DUP1 DUP4 SUB DUP2 PUSH1 0x0 DUP8 GAS CALL ISZERO DUP1 ISZERO PUSH2 0xB2B JUMPI RETURNDATASIZE PUSH1 0x0 DUP1 RETURNDATACOPY RETURNDATASIZE PUSH1 0x0 REVERT JUMPDEST POP POP POP POP PUSH1 0x40 MLOAD RETURNDATASIZE PUSH1 0x1F NOT PUSH1 0x1F DUP3 ADD AND DUP3 ADD DUP1 PUSH1 0x40 MSTORE POP DUP2 ADD SWAP1 PUSH2 0xB4F SWAP2 SWAP1 PUSH2 0x14F7 JUMP JUMPDEST PUSH2 0xB6B JUMPI PUSH1 0x40 MLOAD PUSH3 0x461BCD PUSH1 0xE5 SHL DUP2 MSTORE PUSH1 0x4 ADD PUSH2 0x307 SWAP1 PUSH2 0x1520 JUMP JUMPDEST PUSH1 0x40 DUP1 MLOAD DUP3 DUP2 MSTORE PUSH1 0x20 DUP2 ADD DUP5 SWAP1 MSTORE DUP6 SWAP2 PUSH32 0xAFC8FC5DD6037BF38D34D9D51BB5ECC0AF143248332C63AE9E83BBEF6D4638D9 SWAP2 ADD JUMPDEST PUSH1 0x40 MLOAD DUP1 SWAP2 SUB SWAP1 LOG2 POP POP POP POP JUMP JUMPDEST CALLER PUSH1 0x1 PUSH1 0x1 PUSH1 0xA0 SHL SUB PUSH32 0x0 AND EQ PUSH2 0xC17 JUMPI PUSH1 0x40 MLOAD PUSH3 0x461BCD PUSH1 0xE5 SHL DUP2 MSTORE PUSH1 0x20 PUSH1 0x4 DUP3 ADD MSTORE PUSH1 0xF PUSH1 0x24 DUP3 ADD MSTORE PUSH15 0x27B7363C9031B7B73A3930B1BA37B9 PUSH1 0x89 SHL PUSH1 0x44 DUP3 ADD MSTORE PUSH1 0x64 ADD PUSH2 0x307 JUMP JUMPDEST PUSH1 0x5 SLOAD DUP3 LT PUSH2 0xC38 JUMPI PUSH1 0x40 MLOAD PUSH3 0x461BCD PUSH1 0xE5 SHL DUP2 MSTORE PUSH1 0x4 ADD PUSH2 0x307 SWAP1 PUSH2 0x155C JUMP JUMPDEST DUP1 PUSH2 0xC75 JUMPI PUSH1 0x40 MLOAD PUSH3 0x461BCD PUSH1 0xE5 SHL DUP2 MSTORE PUSH1 0x20 PUSH1 0x4 DUP3 ADD MSTORE PUSH1 0xD PUSH1 0x24 DUP3 ADD MSTORE PUSH13 0x24B73B30B634B210383937B7B3 PUSH1 0x99 SHL PUSH1 0x44 DUP3 ADD MSTORE PUSH1 0x64 ADD PUSH2 0x307 JUMP JUMPDEST PUSH1 0x0 PUSH1 0x5 DUP4 DUP2 SLOAD DUP2 LT PUSH2 0xC8A JUMPI PUSH2 0xC8A PUSH2 0x1447 JUMP JUMPDEST PUSH1 0x0 SWAP2 DUP3 MSTORE PUSH1 0x20 DUP3 KECCAK256 PUSH1 0x5 SWAP1 SWAP2 MUL ADD SWAP2 POP PUSH1 0x2 DUP3 ADD SLOAD PUSH1 0xFF AND PUSH1 0x4 DUP2 GT ISZERO PUSH2 0xCB4 JUMPI PUSH2 0xCB4 PUSH2 0x13A7 JUMP JUMPDEST EQ DUP1 PUSH2 0xCD8 JUMPI POP PUSH1 0x4 PUSH1 0x2 DUP3 ADD SLOAD PUSH1 0xFF AND PUSH1 0x4 DUP2 GT ISZERO PUSH2 0xCD6 JUMPI PUSH2 0xCD6 PUSH2 0x13A7 JUMP JUMPDEST EQ JUMPDEST PUSH2 0xD13 JUMPI PUSH1 0x40 MLOAD PUSH3 0x461BCD PUSH1 0xE5 SHL DUP2 MSTORE PUSH1 0x20 PUSH1 0x4 DUP3 ADD MSTORE PUSH1 0xC PUSH1 0x24 DUP3 ADD MSTORE PUSH12 0x57726F6E6720737461747573 PUSH1 0xA0 SHL PUSH1 0x44 DUP3 ADD MSTORE PUSH1 0x64 ADD PUSH2 0x307 JUMP JUMPDEST PUSH1 0x2 DUP2 ADD DUP1 SLOAD PUSH1 0xFF NOT AND PUSH1 0x1 OR SWAP1 SSTORE PUSH1 0x3 DUP2 ADD DUP3 SWAP1 SSTORE PUSH1 0x4 DUP2 ADD DUP1 SLOAD PUSH8 0xFFFFFFFFFFFFFFFF TIMESTAMP AND PUSH8 0xFFFFFFFFFFFFFFFF NOT SWAP1 SWAP2 AND OR SWAP1 SSTORE PUSH1 0x40 MLOAD DUP3 DUP2 MSTORE DUP4 SWAP1 PUSH32 0x7287D4E2124E164C3E1C3F79240DFE987824D65CBDE320CCA075A436DE20A058 SWAP1 PUSH1 0x20 ADD PUSH1 0x40 MLOAD DUP1 SWAP2 SUB SWAP1 LOG2 POP POP POP JUMP JUMPDEST CALLER PUSH1 0x1 PUSH1 0x1 PUSH1 0xA0 SHL SUB PUSH32 0x0 AND EQ DUP1 PUSH2 0xDC5 JUMPI POP PUSH1 0x4 SLOAD PUSH1 0x1 PUSH1 0x1 PUSH1 0xA0 SHL SUB AND CALLER EQ JUMPDEST PUSH2 0xE02 JUMPI PUSH1 0x40 MLOAD PUSH3 0x461BCD PUSH1 0xE5 SHL DUP2 MSTORE PUSH1 0x20 PUSH1 0x4 DUP3 ADD MSTORE PUSH1 0xE PUSH1 0x24 DUP3 ADD MSTORE PUSH14 0x139BDD08185D5D1A1BDC9A5E9959 PUSH1 0x92 SHL PUSH1 0x44 DUP3 ADD MSTORE PUSH1 0x64 ADD PUSH2 0x307 JUMP JUMPDEST PUSH1 0x5 SLOAD DUP2 LT PUSH2 0xE23 JUMPI PUSH1 0x40 MLOAD PUSH3 0x461BCD PUSH1 0xE5 SHL DUP2 MSTORE PUSH1 0x4 ADD PUSH2 0x307 SWAP1 PUSH2 0x155C JUMP JUMPDEST PUSH1 0x0 PUSH1 0x5 DUP3 DUP2 SLOAD DUP2 LT PUSH2 0xE38 JUMPI PUSH2 0xE38 PUSH2 0x1447 JUMP JUMPDEST PUSH1 0x0 SWAP2 DUP3 MSTORE PUSH1 0x20 SWAP1 SWAP2 KECCAK256 PUSH1 0x5 SWAP1 SWAP2 MUL ADD SWAP1 POP PUSH1 0x1 PUSH1 0x2 DUP3 ADD SLOAD PUSH1 0xFF AND PUSH1 0x4 DUP2 GT ISZERO PUSH2 0xE65 JUMPI PUSH2 0xE65 PUSH2 0x13A7 JUMP JUMPDEST EQ PUSH2 0xEA2 JUMPI PUSH1 0x40 MLOAD PUSH3 0x461BCD PUSH1 0xE5 SHL DUP2 MSTORE PUSH1 0x20 PUSH1 0x4 DUP3 ADD MSTORE PUSH1 0xD PUSH1 0x24 DUP3 ADD MSTORE PUSH13 0x139BDD081CDD589B5A5D1D1959 PUSH1 0x9A SHL PUSH1 0x44 DUP3 ADD MSTORE PUSH1 0x64 ADD PUSH2 0x307 JUMP JUMPDEST PUSH1 0x2 DUP2 DUP2 ADD DUP1 SLOAD PUSH1 0xFF NOT AND PUSH1 0x1 DUP4 MUL OR SWAP1 SSTORE POP PUSH1 0x4 DUP2 ADD DUP1 SLOAD PUSH16 0xFFFFFFFFFFFFFFFF0000000000000000 NOT AND PUSH1 0x1 PUSH1 0x40 SHL TIMESTAMP PUSH8 0xFFFFFFFFFFFFFFFF AND MUL OR SWAP1 SSTORE PUSH1 0x40 MLOAD DUP3 SWAP1 PUSH32 0xADFFE31A62A9E7E5068BDD6F839470D57DD0E18FAC8A8D525196283EB9B392A SWAP1 PUSH1 0x0 SWAP1 LOG2 POP POP JUMP JUMPDEST CALLER PUSH1 0x1 PUSH1 0x1 PUSH1 0xA0 SHL SUB PUSH32 0x0 AND EQ PUSH2 0xF59 JUMPI PUSH1 0x40 MLOAD PUSH3 0x461BCD PUSH1 0xE5 SHL DUP2 MSTORE PUSH1 0x4 ADD PUSH2 0x307 SWAP1 PUSH2 0x141F JUMP JUMPDEST PUSH1 0x5 SLOAD DUP4 LT PUSH2 0xF7A JUMPI PUSH1 0x40 MLOAD PUSH3 0x461BCD PUSH1 0xE5 SHL DUP2 MSTORE PUSH1 0x4 ADD PUSH2 0x307 SWAP1 PUSH2 0x155C JUMP JUMPDEST PUSH1 0x0 PUSH1 0x5 DUP5 DUP2 SLOAD DUP2 LT PUSH2 0xF8F JUMPI PUSH2 0xF8F PUSH2 0x1447 JUMP JUMPDEST PUSH1 0x0 SWAP2 DUP3 MSTORE PUSH1 0x20 SWAP1 SWAP2 KECCAK256 PUSH1 0x5 SWAP1 SWAP2 MUL ADD SWAP1 POP PUSH1 0x1 PUSH1 0x2 DUP3 ADD SLOAD PUSH1 0xFF AND PUSH1 0x4 DUP2 GT ISZERO PUSH2 0xFBC JUMPI PUSH2 0xFBC PUSH2 0x13A7 JUMP JUMPDEST EQ DUP1 PUSH2 0xFDF JUMPI POP PUSH1 0x2 DUP1 DUP3 ADD SLOAD PUSH1 0xFF AND PUSH1 0x4 DUP2 GT ISZERO PUSH2 0xFDD JUMPI PUSH2 0xFDD PUSH2 0x13A7 JUMP JUMPDEST EQ JUMPDEST PUSH2 0x101C JUMPI PUSH1 0x40 MLOAD PUSH3 0x461BCD PUSH1 0xE5 SHL DUP2 MSTORE PUSH1 0x20 PUSH1 0x4 DUP3 ADD MSTORE PUSH1 0xE PUSH1 0x24 DUP3 ADD MSTORE PUSH14 0x4E6F742064697370757461626C65 PUSH1 0x90 SHL PUSH1 0x44 DUP3 ADD MSTORE PUSH1 0x64 ADD PUSH2 0x307 JUMP JUMPDEST PUSH1 0x2 DUP2 ADD DUP1 SLOAD PUSH1 0xFF NOT AND PUSH1 0x4 OR SWAP1 SSTORE PUSH1 0x40 MLOAD DUP5 SWAP1 PUSH32 0x365D08FF2DF448EC87654CBDA15EC8F08A648E967A4492300F4A05869512B3F8 SWAP1 PUSH2 0xB9F SWAP1 DUP7 SWAP1 DUP7 SWAP1 PUSH2 0x1580 JUMP JUMPDEST PUSH1 0x0 CALLER PUSH1 0x1 PUSH1 0x1 PUSH1 0xA0 SHL SUB PUSH32 0x0 AND EQ PUSH2 0x10A9 JUMPI PUSH1 0x40 MLOAD PUSH3 0x461BCD PUSH1 0xE5 SHL DUP2 MSTORE PUSH1 0x4 ADD PUSH2 0x307 SWAP1 PUSH2 0x141F JUMP JUMPDEST PUSH1 0x0 DUP3 GT PUSH2 0x10E4 JUMPI PUSH1 0x40 MLOAD PUSH3 0x461BCD PUSH1 0xE5 SHL DUP2 MSTORE PUSH1 0x20 PUSH1 0x4 DUP3 ADD MSTORE PUSH1 0x8 PUSH1 0x24 DUP3 ADD MSTORE PUSH8 0x416D6F756E743D3 PUSH1 0xC4 SHL PUSH1 0x44 DUP3 ADD MSTORE PUSH1 0x64 ADD PUSH2 0x307 JUMP JUMPDEST PUSH1 0x0 PUSH2 0x2710 PUSH2 0x1113 PUSH32 0x0 DUP6 PUSH2 0x14A5 JUMP JUMPDEST PUSH2 0x111D SWAP2 SWAP1 PUSH2 0x14BC JUMP JUMPDEST SWAP1 POP PUSH1 0x0 PUSH2 0x112B DUP3 DUP6 PUSH2 0x148C JUMP JUMPDEST SWAP1 POP PUSH1 0x5 PUSH1 0x40 MLOAD DUP1 PUSH1 0xE0 ADD PUSH1 0x40 MSTORE DUP1 DUP7 DUP2 MSTORE PUSH1 0x20 ADD DUP4 DUP2 MSTORE PUSH1 0x20 ADD PUSH1 0x0 PUSH1 0x4 DUP2 GT ISZERO PUSH2 0x1159 JUMPI PUSH2 0x1159 PUSH2 0x13A7 JUMP JUMPDEST DUP2 MSTORE PUSH1 0x0 PUSH1 0x20 DUP1 DUP4 ADD DUP3 SWAP1 MSTORE PUSH1 0x40 DUP1 DUP5 ADD DUP4 SWAP1 MSTORE PUSH1 0x60 DUP5 ADD DUP4 SWAP1 MSTORE PUSH1 0x80 SWAP1 SWAP4 ADD DUP3 SWAP1 MSTORE DUP5 SLOAD PUSH1 0x1 DUP2 DUP2 ADD DUP8 SSTORE SWAP6 DUP4 MSTORE SWAP2 DUP2 SWAP1 KECCAK256 DUP5 MLOAD PUSH1 0x5 SWAP1 SWAP4 MUL ADD SWAP2 DUP3 SSTORE DUP4 ADD MLOAD DUP2 DUP6 ADD SSTORE SWAP1 DUP3 ADD MLOAD PUSH1 0x2 DUP3 ADD DUP1 SLOAD SWAP4 SWAP5 SWAP3 SWAP4 SWAP2 SWAP3 SWAP1 SWAP2 PUSH1 0xFF NOT AND SWAP1 DUP4 PUSH1 0x4 DUP2 GT ISZERO PUSH2 0x11C7 JUMPI PUSH2 0x11C7 PUSH2 0x13A7 JUMP JUMPDEST MUL OR SWAP1 SSTORE POP PUSH1 0x60 DUP3 ADD MLOAD PUSH1 0x3 DUP3 ADD SSTORE PUSH1 0x80 DUP3 ADD MLOAD PUSH1 0x4 SWAP1 SWAP2 ADD DUP1 SLOAD PUSH1 0xA0 DUP5 ADD MLOAD PUSH1 0xC0 SWAP1 SWAP5 ADD MLOAD PUSH8 0xFFFFFFFFFFFFFFFF SWAP1 DUP2 AND PUSH1 0x1 PUSH1 0x80 SHL MUL PUSH8 0xFFFFFFFFFFFFFFFF PUSH1 0x80 SHL NOT SWAP6 DUP3 AND PUSH1 0x1 PUSH1 0x40 SHL MUL PUSH16 0xFFFFFFFFFFFFFFFFFFFFFFFFFFFFFFFF NOT SWAP1 SWAP4 AND SWAP2 SWAP1 SWAP5 AND OR OR SWAP3 SWAP1 SWAP3 AND OR SWAP1 SSTORE PUSH1 0x5 SLOAD PUSH2 0x1246 SWAP1 PUSH1 0x1 SWAP1 PUSH2 0x148C JUMP JUMPDEST PUSH1 0x40 DUP1 MLOAD DUP7 DUP2 MSTORE PUSH1 0x20 DUP2 ADD DUP5 SWAP1 MSTORE SWAP2 SWAP5 POP DUP5 SWAP2 PUSH32 0xB59C2D823E6CA395C24829D80F43A97D9C6FD711596372C5A4663AF872F4B9D2 SWAP2 ADD PUSH1 0x40 MLOAD DUP1 SWAP2 SUB SWAP1 LOG2 POP POP SWAP2 SWAP1 POP JUMP JUMPDEST PUSH1 0x5 DUP2 DUP2 SLOAD DUP2 LT PUSH2 0x129B JUMPI PUSH1 0x0 DUP1 REVERT JUMPDEST PUSH1 0x0 SWAP2 DUP3 MSTORE PUSH1 0x20 SWAP1 SWAP2 KECCAK256 PUSH1 0x5 SWAP1 SWAP2 MUL ADD DUP1 SLOAD PUSH1 0x1 DUP3 ADD SLOAD PUSH1 0x2 DUP4 ADD SLOAD PUSH1 0x3 DUP5 ADD SLOAD PUSH1 0x4 SWAP1 SWAP5 ADD SLOAD SWAP3 SWAP5 POP SWAP1 SWAP3 PUSH1 0xFF SWAP1 SWAP2 AND SWAP2 PUSH8 0xFFFFFFFFFFFFFFFF DUP1 DUP3 AND SWAP2 PUSH1 0x1 PUSH1 0x40 SHL DUP2 DIV DUP3 AND SWAP2 PUSH1 0x1 PUSH1 0x80 SHL SWAP1 SWAP2 DIV AND DUP8 JUMP JUMPDEST PUSH1 0x0 PUSH1 0x20 DUP3 DUP5 SUB SLT ISZERO PUSH2 0x1302 JUMPI PUSH1 0x0 DUP1 REVERT JUMPDEST POP CALLDATALOAD SWAP2 SWAP1 POP JUMP JUMPDEST PUSH1 0x0 DUP1 PUSH1 0x40 DUP4 DUP6 SUB SLT ISZERO PUSH2 0x131C JUMPI PUSH1 0x0 DUP1 REVERT JUMPDEST POP POP DUP1 CALLDATALOAD SWAP3 PUSH1 0x20 SWAP1 SWAP2 ADD CALLDATALOAD SWAP2 POP JUMP JUMPDEST PUSH1 0x0 DUP1 PUSH1 0x0 PUSH1 0x40 DUP5 DUP7 SUB SLT ISZERO PUSH2 0x1340 JUMPI PUSH1 0x0 DUP1 REVERT JUMPDEST DUP4 CALLDATALOAD SWAP3 POP PUSH1 0x20 DUP5 ADD CALLDATALOAD PUSH8 0xFFFFFFFFFFFFFFFF DUP1 DUP3 GT ISZERO PUSH2 0x135F JUMPI PUSH1 0x0 DUP1 REVERT JUMPDEST DUP2 DUP7 ADD SWAP2 POP DUP7 PUSH1 0x1F DUP4 ADD SLT PUSH2 0x1373 JUMPI PUSH1 0x0 DUP1 REVERT JUMPDEST DUP2 CALLDATALOAD DUP2 DUP2 GT ISZERO PUSH2 0x1382 JUMPI PUSH1 0x0 DUP1 REVERT JUMPDEST DUP8 PUSH1 0x20 DUP3 DUP6 ADD ADD GT ISZERO PUSH2 0x1394 JUMPI PUSH1 0x0 DUP1 REVERT JUMPDEST PUSH1 0x20 DUP4 ADD SWAP5 POP DUP1 SWAP4 POP POP POP POP SWAP3 POP SWAP3 POP SWAP3 JUMP JUMPDEST PUSH4 0x4E487B71 PUSH1 0xE0 SHL PUSH1 0x0 MSTORE PUSH1 0x21 PUSH1 0x4 MSTORE PUSH1 0x24 PUSH1 0x0 REVERT JUMPDEST DUP8 DUP2 MSTORE PUSH1 0x20 DUP2 ADD DUP8 SWAP1 MSTORE PUSH1 0xE0 DUP2 ADD PUSH1 0x5 DUP8 LT PUSH2 0x13E9 JUMPI PUSH4 0x4E487B71 PUSH1 0xE0 SHL PUSH1 0x0 MSTORE PUSH1 0x21 PUSH1 0x4 MSTORE PUSH1 0x24 PUSH1 0x0 REVERT JUMPDEST PUSH1 0x40 DUP3 ADD SWAP7 SWAP1 SWAP7 MSTORE PUSH1 0x60 DUP2 ADD SWAP5 SWAP1 SWAP5 MSTORE PUSH8 0xFFFFFFFFFFFFFFFF SWAP3 DUP4 AND PUSH1 0x80 DUP6 ADD MSTORE SWAP1 DUP3 AND PUSH1 0xA0 DUP5 ADD MSTORE AND PUSH1 0xC0 SWAP1 SWAP2 ADD MSTORE SWAP3 SWAP2 POP POP JUMP JUMPDEST PUSH1 0x20 DUP1 DUP3 MSTORE PUSH1 0xE SWAP1 DUP3 ADD MSTORE PUSH14 0x27B7363C903232BB32B637B832B9 PUSH1 0x91 SHL PUSH1 0x40 DUP3 ADD MSTORE PUSH1 0x60 ADD SWAP1 JUMP JUMPDEST PUSH4 0x4E487B71 PUSH1 0xE0 SHL PUSH1 0x0 MSTORE PUSH1 0x32 PUSH1 0x4 MSTORE PUSH1 0x24 PUSH1 0x0 REVERT JUMPDEST PUSH4 0x4E487B71 PUSH1 0xE0 SHL PUSH1 0x0 MSTORE PUSH1 0x11 PUSH1 0x4 MSTORE PUSH1 0x24 PUSH1 0x0 REVERT JUMPDEST PUSH1 0x0 PUSH1 0x1 DUP3 ADD PUSH2 0x1485 JUMPI PUSH2 0x1485 PUSH2 0x145D JUMP JUMPDEST POP PUSH1 0x1 ADD SWAP1 JUMP JUMPDEST DUP2 DUP2 SUB DUP2 DUP2 GT ISZERO PUSH2 0x149F JUMPI PUSH2 0x149F PUSH2 0x145D JUMP JUMPDEST SWAP3 SWAP2 POP POP JUMP JUMPDEST DUP1 DUP3 MUL DUP2 ISZERO DUP3 DUP3 DIV DUP5 EQ OR PUSH2 0x149F JUMPI PUSH2 0x149F PUSH2 0x145D JUMP JUMPDEST PUSH1 0x0 DUP3 PUSH2 0x14D9 JUMPI PUSH4 0x4E487B71 PUSH1 0xE0 SHL PUSH1 0x0 MSTORE PUSH1 0x12 PUSH1 0x4 MSTORE PUSH1 0x24 PUSH1 0x0 REVERT JUMPDEST POP DIV SWAP1 JUMP JUMPDEST PUSH1 0x0 PUSH1 0x20 DUP3 DUP5 SUB SLT ISZERO PUSH2 0x14F0 JUMPI PUSH1 0x0 DUP1 REVERT JUMPDEST POP MLOAD SWAP2 SWAP1 POP JUMP JUMPDEST PUSH1 0x0 PUSH1 0x20 DUP3 DUP5 SUB SLT ISZERO PUSH2 0x1509 JUMPI PUSH1 0x0 DUP1 REVERT JUMPDEST DUP2 MLOAD DUP1 ISZERO ISZERO DUP2 EQ PUSH2 0x1519 JUMPI PUSH1 0x0 DUP1 REVERT JUMPDEST SWAP4 SWAP3 POP POP POP JUMP JUMPDEST PUSH1 0x20 DUP1 DUP3 MSTORE PUSH1 0xF SWAP1 DUP3 ADD MSTORE PUSH15 0x151C985B9CD9995C8819985A5B1959 PUSH1 0x8A SHL PUSH1 0x40 DUP3 ADD MSTORE PUSH1 0x60 ADD SWAP1 JUMP JUMPDEST DUP1 DUP3 ADD DUP1 DUP3 GT ISZERO PUSH2 0x149F JUMPI PUSH2 0x149F PUSH2 0x145D JUMP JUMPDEST PUSH1 0x20 DUP1 DUP3 MSTORE PUSH1 0xA SWAP1 DUP3 ADD MSTORE PUSH10 0x125B9D985B1A59081A59 PUSH1 0xB2 SHL PUSH1 0x40 DUP3 ADD MSTORE PUSH1 0x60 ADD SWAP1 JUMP JUMPDEST PUSH1 0x20 DUP2 MSTORE DUP2 PUSH1 0x20 DUP3 ADD MSTORE DUP2 DUP4 PUSH1 0x40 DUP4 ADD CALLDATACOPY PUSH1 0x0 DUP2 DUP4 ADD PUSH1 0x40 SWAP1 DUP2 ADD SWAP2 SWAP1 SWAP2 MSTORE PUSH1 0x1F SWAP1 SWAP3 ADD PUSH1 0x1F NOT AND ADD ADD SWAP2 SWAP1 POP JUMP INVALID LOG2 PUSH5 0x6970667358 0x22 SLT KECCAK256 CALLDATALOAD SIGNEXTEND SWAP7 0xD1 DUP15 0x21 0xD0 0xE1 0xAC KECCAK256 PUSH24 0x5A6E2C583A75C9D0A870C2A0B9C0E266505C15AA3364736F PUSH13 0x63430008140033000000000000 "},"methodIdentifiers":{"approveMilestone(uint256)":"c438b40f","contractor()":"fbfd2045","createMilestone(uint256)":"d2bd56d0","depositFunds(uint256)":"3b76594d","developer()":"ca4b208b","disputeMilestone(uint256,string)":"c4f5cae0","milestoneCount()":"0681ca55","milestones(uint256)":"e89e4ed6","oracleApprover()":"83fd54b5","payMilestone(uint256)":"69db0a7e","releaseRetainage()":"04e265b3","retainageBps()":"9e453d8c","retainageHeld()":"cbe39ad0","retainageReleaseThresholdBps()":"f6a28073","submitMilestone(uint256,bytes32)":"78b69604","totalDeposited()":"ff50abdc","totalPaid()":"e7b0f666","usdc()":"3e413bee"}}}}}