{"contracts/BuildLinkFunctionsConsumer.sol":{"BuildLinkFunctionsConsumer":{"abi":[{"inputs":[{"internalType":"address","name":"_admin","type":"address"}],"stateMutability":"nonpayable","type":"constructor"},{"inputs":[],"name":"EmptyArgs","type":"error"},{"inputs":[],"name":"EmptySource","type":"error"},{"inputs":[],"name":"NoInlineSecrets","type":"error"},{"inputs":[],"name":"OnlyAdmin","type":"error"},{"inputs":[],"name":"OnlyRouterCanFulfill","type":"error"},{"anonymous":false,"inputs":[{"indexed":true,"internalType":"address","name":"vault","type":"address"},{"indexed":true,"internalType":"uint256","name":"milestoneIndex","type":"uint256"}],"name":"MilestoneVerified","type":"event"},{"anonymous":false,"inputs":[{"indexed":true,"internalType":"bytes32","name":"requestId","type":"bytes32"},{"indexed":false,"internalType":"bytes","name":"response","type":"bytes"},{"indexed":false,"internalType":"bytes","name":"err","type":"bytes"}],"name":"OracleResponse","type":"event"},{"anonymous":false,"inputs":[{"indexed":true,"internalType":"bytes32","name":"id","type":"bytes32"}],"name":"RequestFulfilled","type":"event"},{"anonymous":false,"inputs":[{"indexed":true,"internalType":"bytes32","name":"id","type":"bytes32"}],"name":"RequestSent","type":"event"},{"inputs":[],"name":"CALLBACK_GAS_LIMIT","outputs":[{"internalType":"uint32","name":"","type":"uint32"}],"stateMutability":"view","type":"function"},{"inputs":[],"name":"DON_ID","outputs":[{"internalType":"bytes32","name":"","type":"bytes32"}],"stateMutability":"view","type":"function"},{"inputs":[],"name":"SUBSCRIPTION_ID","outputs":[{"internalType":"uint64","name":"","type":"uint64"}],"stateMutability":"view","type":"function"},{"inputs":[],"name":"admin","outputs":[{"internalType":"address","name":"","type":"address"}],"stateMutability":"view","type":"function"},{"inputs":[{"internalType":"bytes32","name":"requestId","type":"bytes32"},{"internalType":"bytes","name":"response","type":"bytes"},{"internalType":"bytes","name":"err","type":"bytes"}],"name":"handleOracleFulfillment","outputs":[],"stateMutability":"nonpayable","type":"function"},{"inputs":[],"name":"latestError","outputs":[{"internalType":"bytes","name":"","type":"bytes"}],"stateMutability":"view","type":"function"},{"inputs":[],"name":"latestRequestId","outputs":[{"internalType":"bytes32","name":"","type":"bytes32"}],"stateMutability":"view","type":"function"},{"inputs":[],"name":"latestResponse","outputs":[{"internalType":"bytes","name":"","type":"bytes"}],"stateMutability":"view","type":"function"},{"inputs":[{"internalType":"bytes32","name":"","type":"bytes32"}],"name":"pendingRequests","outputs":[{"internalType":"address","name":"vault","type":"address"},{"internalType":"uint256","name":"milestoneIndex","type":"uint256"}],"stateMutability":"view","type":"function"},{"inputs":[{"internalType":"address","name":"vaultAddress","type":"address"},{"internalType":"uint256","name":"milestoneIndex","type":"uint256"},{"internalType":"string","name":"procoreProjectId","type":"string"}],"name":"sendRequest","outputs":[{"internalType":"bytes32","name":"requestId","type":"bytes32"}],"stateMutability":"nonpayable","type":"function"}],"evm":{"bytecode":{"linkReferences":{},"object":"60c060405234801561001057600080fd5b506040516119b73803806119b783398101604081905261002f916100a2565b73f9b8fc078197181c841c296c876945aaa425b2786080526001600160a01b0381166100915760405162461bcd60e51b815260206004820152600d60248201526c24b73b30b634b21030b236b4b760991b604482015260640160405180910390fd5b6001600160a01b031660a0526100d2565b6000602082840312156100b457600080fd5b81516001600160a01b03811681146100cb57600080fd5b9392505050565b60805160a0516118b2610105600039600081816101ae01526102810152600081816101fb0152610aaa01526118b26000f3fe608060405234801561001057600080fd5b506004361061009e5760003560e01c80632795ad20116100665780632795ad201461012357806333d608f114610175578063bef3a2f014610194578063f851a440146101a9578063fffeb84e146101e857600080fd5b8063030932bb146100a35780630ca76175146100c85780630cde9f3c146100dd5780631aa46f59146101075780631b1f5c2414610110575b600080fd5b6100ab608f81565b6040516001600160401b0390911681526020015b60405180910390f35b6100db6100d6366004611141565b6101f0565b005b6100f97166756e2d626173652d6d61696e6e65742d3160701b81565b6040519081526020016100bf565b6100f960015481565b6100f961011e3660046111ad565b610274565b610156610131366004611241565b600060208190529081526040902080546001909101546001600160a01b039091169082565b604080516001600160a01b0390931683526020830191909152016100bf565b61017f620493e081565b60405163ffffffff90911681526020016100bf565b61019c6104a8565b6040516100bf91906112a0565b6101d07f000000000000000000000000000000000000000000000000000000000000000081565b6040516001600160a01b0390911681526020016100bf565b61019c610536565b336001600160a01b037f000000000000000000000000000000000000000000000000000000000000000016146102395760405163c6829f8360e01b815260040160405180910390fd5b610244838383610543565b60405183907f85e1543bf2f84fe80c6badbce3648c8539ad1df4d2b3d822938ca0538be727e690600090a2505050565b6000336001600160a01b037f000000000000000000000000000000000000000000000000000000000000000016146102bf57604051634755657960e01b815260040160405180910390fd5b6001600160a01b0385166103095760405162461bcd60e51b815260206004820152600d60248201526c125b9d985b1a59081d985d5b1d609a1b604482015260640160405180910390fd5b61034a6040805160e0810190915280600081526020016000815260200160008152602001606081526020016060815260200160608152602001606081525090565b61037060405180610260016040528061022c815260200161165161022c9139829061068a565b60408051600280825260608201909252600091816020015b606081526020019060019003908161038857905050905084848080601f01602080910402602001604051908101604052809392919081815260200183838082843760009201829052508551869450909250151590506103e9576103e96112b3565b60200260200101819052506103fd8661069b565b81600181518110610410576104106112b3565b602090810291909101015261042582826107a3565b610452610431836107cd565b608f620493e07166756e2d626173652d6d61696e6e65742d3160701b610aa5565b6040805180820182526001600160a01b03998a1681526020808201998a5260008481529081905291909120905181546001600160a01b031916991698909817885595516001978801555050509282905550919050565b600280546104b5906112c9565b80601f01602080910402602001604051908101604052809291908181526020018280546104e1906112c9565b801561052e5780601f106105035761010080835404028352916020019161052e565b820191906000526020600020905b81548152906001019060200180831161051157829003601f168201915b505050505081565b600380546104b5906112c9565b600261054f8382611351565b50600361055c8282611351565b50827fa676854a79f96561744d5f417f3f050b4e3590ddc0f25140205c77f69d1daee9838360405161058f929190611410565b60405180910390a280511580156105ea5750604080518082019091526008815267185c1c1c9bdd995960c21b6020918201528251908301207f2b29265fc125740ae6bbc5035ae7af720b6932f4a3e44ba5ac02955c21ca9a05145b156106665760008381526020818152604091829020825180840190935280546001600160a01b0316808452600190910154918301919091521561066457602081015181516040516001600160a01b03909116907f4633ed43e960eab00c94e71920ad1775bd86ec373f63649db940d18a424de79690600090a35b505b5050600090815260208190526040812080546001600160a01b031916815560010155565b6106978260008084610b77565b5050565b6060816000036106c25750506040805180820190915260018152600360fc1b602082015290565b8160005b81156106ec57806106d681611454565b91506106e59050600a83611483565b91506106c6565b6000816001600160401b038111156107065761070661109f565b6040519080825280601f01601f191660200182016040528015610730576020820181803683370190505b5090505b841561079b57610745600183611497565b9150610752600a866114aa565b61075d9060306114be565b60f81b818381518110610772576107726112b3565b60200101906001600160f81b031916908160001a905350610794600a86611483565b9450610734565b949350505050565b80516000036107c55760405163fe936cb760e01b815260040160405180910390fd5b60a090910152565b606060006107dc610100610bf5565b90506108156040518060400160405280600c81526020016b31b7b232a637b1b0ba34b7b760a11b81525082610c1690919063ffffffff16565b825161083390600281111561082c5761082c6114d1565b8290610c34565b6040805180820190915260088152676c616e677561676560c01b602082015261085d908290610c16565b604083015161087490801561082c5761082c6114d1565b604080518082019091526006815265736f7572636560d01b602082015261089c908290610c16565b60608301516108ac908290610c16565b60a08301515115610940576040805180820190915260048152636172677360e01b60208201526108dd908290610c16565b6108e681610c6d565b60005b8360a0015151811015610936576109268460a00151828151811061090f5761090f6112b3565b602002602001015183610c1690919063ffffffff16565b61092f81611454565b90506108e9565b5061094081610c91565b60808301515115610a0457600083602001516002811115610963576109636114d1565b036109815760405163a80d31f760e01b815260040160405180910390fd5b60408051808201909152600f81526e39b2b1b932ba39a637b1b0ba34b7b760891b60208201526109b2908290610c16565b6109cb8360200151600281111561082c5761082c6114d1565b6040805180820190915260078152667365637265747360c81b60208201526109f4908290610c16565b6080830151610a04908290610caf565b60c08301515115610a9d5760408051808201909152600981526862797465734172677360b81b6020820152610a3a908290610c16565b610a4381610c6d565b60005b8360c0015151811015610a9357610a838460c001518281518110610a6c57610a6c6112b3565b602002602001015183610caf90919063ffffffff16565b610a8c81611454565b9050610a46565b50610a9d81610c91565b515192915050565b6000807f00000000000000000000000000000000000000000000000000000000000000006001600160a01b031663461d27628688600188886040518663ffffffff1660e01b8152600401610afd9594939291906114e7565b6020604051808303816000875af1158015610b1c573d6000803e3d6000fd5b505050506040513d601f19601f82011682018060405250810190610b409190611530565b60405190915081907f1131472297a800fee664d1d89cfa8f7676ff07189ecc53f80bbb5f4969099db890600090a295945050505050565b8051600003610b99576040516322ce3edd60e01b815260040160405180910390fd5b83836002811115610bac57610bac6114d1565b90816002811115610bbf57610bbf6114d1565b90525060408401828015610bd557610bd56114d1565b90818015610be557610be56114d1565b9052506060909301929092525050565b610bfd61106a565b8051610c099083610cbc565b5060006020820152919050565b610c238260038351610d36565b8151610c2f9082610e55565b505050565b8151610c419060c2610e7d565b506106978282604051602001610c5991815260200190565b604051602081830303815290604052610caf565b610c78816004610ee6565b600181602001818151610c8b91906114be565b90525050565b610c9c816007610ee6565b600181602001818151610c8b9190611497565b610c238260028351610d36565b604080518082019091526060815260006020820152610cdc6020836114aa565b15610d0457610cec6020836114aa565b610cf7906020611497565b610d0190836114be565b91505b602080840183905260405180855260008152908184010181811015610d2857600080fd5b604052508290505b92915050565b6017816001600160401b031611610d62578251610d5c9060e0600585901b168317610e7d565b50505050565b60ff816001600160401b031611610da2578251610d8a906018611fe0600586901b1617610e7d565b508251610d5c906001600160401b0383166001610efd565b61ffff816001600160401b031611610de3578251610dcb906019611fe0600586901b1617610e7d565b508251610d5c906001600160401b0383166002610efd565b63ffffffff816001600160401b031611610e26578251610e0e90601a611fe0600586901b1617610e7d565b508251610d5c906001600160401b0383166004610efd565b8251610e3d90601b611fe0600586901b1617610e7d565b508251610d5c906001600160401b0383166008610efd565b604080518082019091526060815260006020820152610e7683838451610f82565b9392505050565b6040805180820190915260608152600060208201528251516000610ea28260016114be565b905084602001518210610ec357610ec385610ebe836002611549565b611053565b8451602083820101858153508051821115610edc578181525b5093949350505050565b8151610c2f90601f611fe0600585901b1617610e7d565b6040805180820190915260608152600060208201528351516000610f2182856114be565b90508560200151811115610f3e57610f3e86610ebe836002611549565b60006001610f4e86610100611644565b610f589190611497565b90508651828101878319825116178152508051831115610f76578281525b50959695505050505050565b6040805180820190915260608152600060208201528251821115610fa557600080fd5b8351516000610fb484836114be565b90508560200151811115610fd157610fd186610ebe836002611549565b855180518382016020019160009180851115610feb578482525b505050602086015b6020861061102b578051825261100a6020836114be565b91506110176020826114be565b9050611024602087611497565b9550610ff3565b51815160001960208890036101000a0190811690199190911617905250849150509392505050565b815161105f8383610cbc565b50610d5c8382610e55565b6040518060400160405280611092604051806040016040528060608152602001600081525090565b8152602001600081525090565b634e487b7160e01b600052604160045260246000fd5b600082601f8301126110c657600080fd5b81356001600160401b03808211156110e0576110e061109f565b604051601f8301601f19908116603f011681019082821181831017156111085761110861109f565b8160405283815286602085880101111561112157600080fd5b836020870160208301376000602085830101528094505050505092915050565b60008060006060848603121561115657600080fd5b8335925060208401356001600160401b038082111561117457600080fd5b611180878388016110b5565b9350604086013591508082111561119657600080fd5b506111a3868287016110b5565b9150509250925092565b600080600080606085870312156111c357600080fd5b84356001600160a01b03811681146111da57600080fd5b93506020850135925060408501356001600160401b03808211156111fd57600080fd5b818701915087601f83011261121157600080fd5b81358181111561122057600080fd5b88602082850101111561123257600080fd5b95989497505060200194505050565b60006020828403121561125357600080fd5b5035919050565b6000815180845260005b8181101561128057602081850181015186830182015201611264565b506000602082860101526020601f19601f83011685010191505092915050565b602081526000610e76602083018461125a565b634e487b7160e01b600052603260045260246000fd5b600181811c908216806112dd57607f821691505b6020821081036112fd57634e487b7160e01b600052602260045260246000fd5b50919050565b601f821115610c2f57600081815260208120601f850160051c8101602086101561132a5750805b601f850160051c820191505b8181101561134957828155600101611336565b505050505050565b81516001600160401b0381111561136a5761136a61109f565b61137e8161137884546112c9565b84611303565b602080601f8311600181146113b3576000841561139b5750858301515b600019600386901b1c1916600185901b178555611349565b600085815260208120601f198616915b828110156113e2578886015182559484019460019091019084016113c3565b50858210156114005787850151600019600388901b60f8161c191681555b5050505050600190811b01905550565b604081526000611423604083018561125a565b8281036020840152611435818561125a565b95945050505050565b634e487b7160e01b600052601160045260246000fd5b6000600182016114665761146661143e565b5060010190565b634e487b7160e01b600052601260045260246000fd5b6000826114925761149261146d565b500490565b81810381811115610d3057610d3061143e565b6000826114b9576114b961146d565b500690565b80820180821115610d3057610d3061143e565b634e487b7160e01b600052602160045260246000fd5b6001600160401b038616815260a06020820152600061150960a083018761125a565b61ffff9590951660408301525063ffffffff92909216606083015260809091015292915050565b60006020828403121561154257600080fd5b5051919050565b8082028115828204841417610d3057610d3061143e565b600181815b8085111561159b5781600019048211156115815761158161143e565b8085161561158e57918102915b93841c9390800290611565565b509250929050565b6000826115b257506001610d30565b816115bf57506000610d30565b81600181146115d557600281146115df576115fb565b6001915050610d30565b60ff8411156115f0576115f061143e565b50506001821b610d30565b5060208310610133831016604e8410600b841016171561161e575081810a610d30565b6116288383611560565b806000190482111561163c5761163c61143e565b029392505050565b6000610e7683836115a356fe636f6e73742070726f636f726550726f6a6563744964203d20617267735b305d3b636f6e7374206d696c6573746f6e65496e646578203d20617267735b315d3b636f6e737420726573203d2061776169742046756e6374696f6e732e6d616b654874747052657175657374287b202075726c3a202768747470733a2f2f6275696c646c696e6b2d66726f6e74656e642e76657263656c2e6170702f6170692f70726f636f72652f776562686f6f6b272c20206d6574686f643a2027504f5354272c2020686561646572733a207b2027436f6e74656e742d54797065273a20276170706c69636174696f6e2f6a736f6e27207d2c2020646174613a207b2070726f636f726550726f6a65637449643a2070726f636f726550726f6a65637449642c206d696c6573746f6e65496e6465783a207061727365496e74286d696c6573746f6e65496e64657829207d7d293b696620287265732e6572726f7229207468726f77204572726f722827576562686f6f6b2072657175657374206661696c65643a2027202b207265732e6d657373616765293b636f6e737420737461747573203d207265732e64617461202626207265732e646174612e737461747573203f207265732e646174612e737461747573203a202772656a6563746564273b72657475726e2046756e6374696f6e732e656e636f6465537472696e6728737461747573203d3d3d2027617070726f76656427203f2027617070726f76656427203a202772656a656374656427293ba26469706673582212201b7c216ac542cd4840a754a86ba7d29aec6f0959eb6da0e328630cdfd9267cab64736f6c63430008140033","opcodes":"PUSH1 0xC0 PUSH1 0x40 MSTORE CALLVALUE DUP1 ISZERO PUSH2 0x10 JUMPI PUSH1 0x0 DUP1 REVERT JUMPDEST POP PUSH1 0x40 MLOAD PUSH2 0x19B7 CODESIZE SUB DUP1 PUSH2 0x19B7 DUP4 CODECOPY DUP2 ADD PUSH1 0x40 DUP2 SWAP1 MSTORE PUSH2 0x2F SWAP2 PUSH2 0xA2 JUMP JUMPDEST PUSH20 0xF9B8FC078197181C841C296C876945AAA425B278 PUSH1 0x80 MSTORE PUSH1 0x1 PUSH1 0x1 PUSH1 0xA0 SHL SUB DUP2 AND PUSH2 0x91 JUMPI PUSH1 0x40 MLOAD PUSH3 0x461BCD PUSH1 0xE5 SHL DUP2 MSTORE PUSH1 0x20 PUSH1 0x4 DUP3 ADD MSTORE PUSH1 0xD PUSH1 0x24 DUP3 ADD MSTORE PUSH13 0x24B73B30B634B21030B236B4B7 PUSH1 0x99 SHL PUSH1 0x44 DUP3 ADD MSTORE PUSH1 0x64 ADD PUSH1 0x40 MLOAD DUP1 SWAP2 SUB SWAP1 REVERT JUMPDEST PUSH1 0x1 PUSH1 0x1 PUSH1 0xA0 SHL SUB AND PUSH1 0xA0 MSTORE PUSH2 0xD2 JUMP JUMPDEST PUSH1 0x0 PUSH1 0x20 DUP3 DUP5 SUB SLT ISZERO PUSH2 0xB4 JUMPI PUSH1 0x0 DUP1 REVERT JUMPDEST DUP2 MLOAD PUSH1 0x1 PUSH1 0x1 PUSH1 0xA0 SHL SUB DUP2 AND DUP2 EQ PUSH2 0xCB JUMPI PUSH1 0x0 DUP1 REVERT JUMPDEST SWAP4 SWAP3 POP POP POP JUMP JUMPDEST PUSH1 0x80 MLOAD PUSH1 0xA0 MLOAD PUSH2 0x18B2 PUSH2 0x105 PUSH1 0x0 CODECOPY PUSH1 0x0 DUP2 DUP2 PUSH2 0x1AE ADD MSTORE PUSH2 0x281 ADD MSTORE PUSH1 0x0 DUP2 DUP2 PUSH2 0x1FB ADD MSTORE PUSH2 0xAAA ADD MSTORE PUSH2 0x18B2 PUSH1 0x0 RETURN INVALID PUSH1 0x80 PUSH1 0x40 MSTORE CALLVALUE DUP1 ISZERO PUSH2 0x10 JUMPI PUSH1 0x0 DUP1 REVERT JUMPDEST POP PUSH1 0x4 CALLDATASIZE LT PUSH2 0x9E JUMPI PUSH1 0x0 CALLDATALOAD PUSH1 0xE0 SHR DUP1 PUSH4 0x2795AD20 GT PUSH2 0x66 JUMPI DUP1 PUSH4 0x2795AD20 EQ PUSH2 0x123 JUMPI DUP1 PUSH4 0x33D608F1 EQ PUSH2 0x175 JUMPI DUP1 PUSH4 0xBEF3A2F0 EQ PUSH2 0x194 JUMPI DUP1 PUSH4 0xF851A440 EQ PUSH2 0x1A9 JUMPI DUP1 PUSH4 0xFFFEB84E EQ PUSH2 0x1E8 JUMPI PUSH1 0x0 DUP1 REVERT JUMPDEST DUP1 PUSH4 0x30932BB EQ PUSH2 0xA3 JUMPI DUP1 PUSH4 0xCA76175 EQ PUSH2 0xC8 JUMPI DUP1 PUSH4 0xCDE9F3C EQ PUSH2 0xDD JUMPI DUP1 PUSH4 0x1AA46F59 EQ PUSH2 0x107 JUMPI DUP1 PUSH4 0x1B1F5C24 EQ PUSH2 0x110 JUMPI JUMPDEST PUSH1 0x0 DUP1 REVERT JUMPDEST PUSH2 0xAB PUSH1 0x8F DUP2 JUMP JUMPDEST PUSH1 0x40 MLOAD PUSH1 0x1 PUSH1 0x1 PUSH1 0x40 SHL SUB SWAP1 SWAP2 AND DUP2 MSTORE PUSH1 0x20 ADD JUMPDEST PUSH1 0x40 MLOAD DUP1 SWAP2 SUB SWAP1 RETURN JUMPDEST PUSH2 0xDB PUSH2 0xD6 CALLDATASIZE PUSH1 0x4 PUSH2 0x1141 JUMP JUMPDEST PUSH2 0x1F0 JUMP JUMPDEST STOP JUMPDEST PUSH2 0xF9 PUSH18 0x66756E2D626173652D6D61696E6E65742D31 PUSH1 0x70 SHL DUP2 JUMP JUMPDEST PUSH1 0x40 MLOAD SWAP1 DUP2 MSTORE PUSH1 0x20 ADD PUSH2 0xBF JUMP JUMPDEST PUSH2 0xF9 PUSH1 0x1 SLOAD DUP2 JUMP JUMPDEST PUSH2 0xF9 PUSH2 0x11E CALLDATASIZE PUSH1 0x4 PUSH2 0x11AD JUMP JUMPDEST PUSH2 0x274 JUMP JUMPDEST PUSH2 0x156 PUSH2 0x131 CALLDATASIZE PUSH1 0x4 PUSH2 0x1241 JUMP JUMPDEST PUSH1 0x0 PUSH1 0x20 DUP2 SWAP1 MSTORE SWAP1 DUP2 MSTORE PUSH1 0x40 SWAP1 KECCAK256 DUP1 SLOAD PUSH1 0x1 SWAP1 SWAP2 ADD SLOAD PUSH1 0x1 PUSH1 0x1 PUSH1 0xA0 SHL SUB SWAP1 SWAP2 AND SWAP1 DUP3 JUMP JUMPDEST PUSH1 0x40 DUP1 MLOAD PUSH1 0x1 PUSH1 0x1 PUSH1 0xA0 SHL SUB SWAP1 SWAP4 AND DUP4 MSTORE PUSH1 0x20 DUP4 ADD SWAP2 SWAP1 SWAP2 MSTORE ADD PUSH2 0xBF JUMP JUMPDEST PUSH2 0x17F PUSH3 0x493E0 DUP2 JUMP JUMPDEST PUSH1 0x40 MLOAD PUSH4 0xFFFFFFFF SWAP1 SWAP2 AND DUP2 MSTORE PUSH1 0x20 ADD PUSH2 0xBF JUMP JUMPDEST PUSH2 0x19C PUSH2 0x4A8 JUMP JUMPDEST PUSH1 0x40 MLOAD PUSH2 0xBF SWAP2 SWAP1 PUSH2 0x12A0 JUMP JUMPDEST PUSH2 0x1D0 PUSH32 0x0 DUP2 JUMP JUMPDEST PUSH1 0x40 MLOAD PUSH1 0x1 PUSH1 0x1 PUSH1 0xA0 SHL SUB SWAP1 SWAP2 AND DUP2 MSTORE PUSH1 0x20 ADD PUSH2 0xBF JUMP JUMPDEST PUSH2 0x19C PUSH2 0x536 JUMP JUMPDEST CALLER PUSH1 0x1 PUSH1 0x1 PUSH1 0xA0 SHL SUB PUSH32 0x0 AND EQ PUSH2 0x239 JUMPI PUSH1 0x40 MLOAD PUSH4 0xC6829F83 PUSH1 0xE0 SHL DUP2 MSTORE PUSH1 0x4 ADD PUSH1 0x40 MLOAD DUP1 SWAP2 SUB SWAP1 REVERT JUMPDEST PUSH2 0x244 DUP4 DUP4 DUP4 PUSH2 0x543 JUMP JUMPDEST PUSH1 0x40 MLOAD DUP4 SWAP1 PUSH32 0x85E1543BF2F84FE80C6BADBCE3648C8539AD1DF4D2B3D822938CA0538BE727E6 SWAP1 PUSH1 0x0 SWAP1 LOG2 POP POP POP JUMP JUMPDEST PUSH1 0x0 CALLER PUSH1 0x1 PUSH1 0x1 PUSH1 0xA0 SHL SUB PUSH32 0x0 AND EQ PUSH2 0x2BF JUMPI PUSH1 0x40 MLOAD PUSH4 0x47556579 PUSH1 0xE0 SHL DUP2 MSTORE PUSH1 0x4 ADD PUSH1 0x40 MLOAD DUP1 SWAP2 SUB SWAP1 REVERT JUMPDEST PUSH1 0x1 PUSH1 0x1 PUSH1 0xA0 SHL SUB DUP6 AND PUSH2 0x309 JUMPI PUSH1 0x40 MLOAD PUSH3 0x461BCD PUSH1 0xE5 SHL DUP2 MSTORE PUSH1 0x20 PUSH1 0x4 DUP3 ADD MSTORE PUSH1 0xD PUSH1 0x24 DUP3 ADD MSTORE PUSH13 0x125B9D985B1A59081D985D5B1D PUSH1 0x9A SHL PUSH1 0x44 DUP3 ADD MSTORE PUSH1 0x64 ADD PUSH1 0x40 MLOAD DUP1 SWAP2 SUB SWAP1 REVERT JUMPDEST PUSH2 0x34A PUSH1 0x40 DUP1 MLOAD PUSH1 0xE0 DUP2 ADD SWAP1 SWAP2 MSTORE DUP1 PUSH1 0x0 DUP2 MSTORE PUSH1 0x20 ADD PUSH1 0x0 DUP2 MSTORE PUSH1 0x20 ADD PUSH1 0x0 DUP2 MSTORE PUSH1 0x20 ADD PUSH1 0x60 DUP2 MSTORE PUSH1 0x20 ADD PUSH1 0x60 DUP2 MSTORE PUSH1 0x20 ADD PUSH1 0x60 DUP2 MSTORE PUSH1 0x20 ADD PUSH1 0x60 DUP2 MSTORE POP SWAP1 JUMP JUMPDEST PUSH2 0x370 PUSH1 0x40 MLOAD DUP1 PUSH2 0x260 ADD PUSH1 0x40 MSTORE DUP1 PUSH2 0x22C DUP2 MSTORE PUSH1 0x20 ADD PUSH2 0x1651 PUSH2 0x22C SWAP2 CODECOPY DUP3 SWAP1 PUSH2 0x68A JUMP JUMPDEST PUSH1 0x40 DUP1 MLOAD PUSH1 0x2 DUP1 DUP3 MSTORE PUSH1 0x60 DUP3 ADD SWAP1 SWAP3 MSTORE PUSH1 0x0 SWAP2 DUP2 PUSH1 0x20 ADD JUMPDEST PUSH1 0x60 DUP2 MSTORE PUSH1 0x20 ADD SWAP1 PUSH1 0x1 SWAP1 SUB SWAP1 DUP2 PUSH2 0x388 JUMPI SWAP1 POP POP SWAP1 POP DUP5 DUP5 DUP1 DUP1 PUSH1 0x1F ADD PUSH1 0x20 DUP1 SWAP2 DIV MUL PUSH1 0x20 ADD PUSH1 0x40 MLOAD SWAP1 DUP2 ADD PUSH1 0x40 MSTORE DUP1 SWAP4 SWAP3 SWAP2 SWAP1 DUP2 DUP2 MSTORE PUSH1 0x20 ADD DUP4 DUP4 DUP1 DUP3 DUP5 CALLDATACOPY PUSH1 0x0 SWAP3 ADD DUP3 SWAP1 MSTORE POP DUP6 MLOAD DUP7 SWAP5 POP SWAP1 SWAP3 POP ISZERO ISZERO SWAP1 POP PUSH2 0x3E9 JUMPI PUSH2 0x3E9 PUSH2 0x12B3 JUMP JUMPDEST PUSH1 0x20 MUL PUSH1 0x20 ADD ADD DUP2 SWAP1 MSTORE POP PUSH2 0x3FD DUP7 PUSH2 0x69B JUMP JUMPDEST DUP2 PUSH1 0x1 DUP2 MLOAD DUP2 LT PUSH2 0x410 JUMPI PUSH2 0x410 PUSH2 0x12B3 JUMP JUMPDEST PUSH1 0x20 SWAP1 DUP2 MUL SWAP2 SWAP1 SWAP2 ADD ADD MSTORE PUSH2 0x425 DUP3 DUP3 PUSH2 0x7A3 JUMP JUMPDEST PUSH2 0x452 PUSH2 0x431 DUP4 PUSH2 0x7CD JUMP JUMPDEST PUSH1 0x8F PUSH3 0x493E0 PUSH18 0x66756E2D626173652D6D61696E6E65742D31 PUSH1 0x70 SHL PUSH2 0xAA5 JUMP JUMPDEST PUSH1 0x40 DUP1 MLOAD DUP1 DUP3 ADD DUP3 MSTORE PUSH1 0x1 PUSH1 0x1 PUSH1 0xA0 SHL SUB SWAP10 DUP11 AND DUP2 MSTORE PUSH1 0x20 DUP1 DUP3 ADD SWAP10 DUP11 MSTORE PUSH1 0x0 DUP5 DUP2 MSTORE SWAP1 DUP2 SWAP1 MSTORE SWAP2 SWAP1 SWAP2 KECCAK256 SWAP1 MLOAD DUP2 SLOAD PUSH1 0x1 PUSH1 0x1 PUSH1 0xA0 SHL SUB NOT AND SWAP10 AND SWAP9 SWAP1 SWAP9 OR DUP9 SSTORE SWAP6 MLOAD PUSH1 0x1 SWAP8 DUP9 ADD SSTORE POP POP POP SWAP3 DUP3 SWAP1 SSTORE POP SWAP2 SWAP1 POP JUMP JUMPDEST PUSH1 0x2 DUP1 SLOAD PUSH2 0x4B5 SWAP1 PUSH2 0x12C9 JUMP JUMPDEST DUP1 PUSH1 0x1F ADD PUSH1 0x20 DUP1 SWAP2 DIV MUL PUSH1 0x20 ADD PUSH1 0x40 MLOAD SWAP1 DUP2 ADD PUSH1 0x40 MSTORE DUP1 SWAP3 SWAP2 SWAP1 DUP2 DUP2 MSTORE PUSH1 0x20 ADD DUP3 DUP1 SLOAD PUSH2 0x4E1 SWAP1 PUSH2 0x12C9 JUMP JUMPDEST DUP1 ISZERO PUSH2 0x52E JUMPI DUP1 PUSH1 0x1F LT PUSH2 0x503 JUMPI PUSH2 0x100 DUP1 DUP4 SLOAD DIV MUL DUP4 MSTORE SWAP2 PUSH1 0x20 ADD SWAP2 PUSH2 0x52E JUMP JUMPDEST DUP3 ADD SWAP2 SWAP1 PUSH1 0x0 MSTORE PUSH1 0x20 PUSH1 0x0 KECCAK256 SWAP1 JUMPDEST DUP2 SLOAD DUP2 MSTORE SWAP1 PUSH1 0x1 ADD SWAP1 PUSH1 0x20 ADD DUP1 DUP4 GT PUSH2 0x511 JUMPI DUP3 SWAP1 SUB PUSH1 0x1F AND DUP3 ADD SWAP2 JUMPDEST POP POP POP POP POP DUP2 JUMP JUMPDEST PUSH1 0x3 DUP1 SLOAD PUSH2 0x4B5 SWAP1 PUSH2 0x12C9 JUMP JUMPDEST PUSH1 0x2 PUSH2 0x54F DUP4 DUP3 PUSH2 0x1351 JUMP JUMPDEST POP PUSH1 0x3 PUSH2 0x55C DUP3 DUP3 PUSH2 0x1351 JUMP JUMPDEST POP DUP3 PUSH32 0xA676854A79F96561744D5F417F3F050B4E3590DDC0F25140205C77F69D1DAEE9 DUP4 DUP4 PUSH1 0x40 MLOAD PUSH2 0x58F SWAP3 SWAP2 SWAP1 PUSH2 0x1410 JUMP JUMPDEST PUSH1 0x40 MLOAD DUP1 SWAP2 SUB SWAP1 LOG2 DUP1 MLOAD ISZERO DUP1 ISZERO PUSH2 0x5EA JUMPI POP PUSH1 0x40 DUP1 MLOAD DUP1 DUP3 ADD SWAP1 SWAP2 MSTORE PUSH1 0x8 DUP2 MSTORE PUSH8 0x185C1C1C9BDD9959 PUSH1 0xC2 SHL PUSH1 0x20 SWAP2 DUP3 ADD MSTORE DUP3 MLOAD SWAP1 DUP4 ADD KECCAK256 PUSH32 0x2B29265FC125740AE6BBC5035AE7AF720B6932F4A3E44BA5AC02955C21CA9A05 EQ JUMPDEST ISZERO PUSH2 0x666 JUMPI PUSH1 0x0 DUP4 DUP2 MSTORE PUSH1 0x20 DUP2 DUP2 MSTORE PUSH1 0x40 SWAP2 DUP3 SWAP1 KECCAK256 DUP3 MLOAD DUP1 DUP5 ADD SWAP1 SWAP4 MSTORE DUP1 SLOAD PUSH1 0x1 PUSH1 0x1 PUSH1 0xA0 SHL SUB AND DUP1 DUP5 MSTORE PUSH1 0x1 SWAP1 SWAP2 ADD SLOAD SWAP2 DUP4 ADD SWAP2 SWAP1 SWAP2 MSTORE ISZERO PUSH2 0x664 JUMPI PUSH1 0x20 DUP2 ADD MLOAD DUP2 MLOAD PUSH1 0x40 MLOAD PUSH1 0x1 PUSH1 0x1 PUSH1 0xA0 SHL SUB SWAP1 SWAP2 AND SWAP1 PUSH32 0x4633ED43E960EAB00C94E71920AD1775BD86EC373F63649DB940D18A424DE796 SWAP1 PUSH1 0x0 SWAP1 LOG3 JUMPDEST POP JUMPDEST POP POP PUSH1 0x0 SWAP1 DUP2 MSTORE PUSH1 0x20 DUP2 SWAP1 MSTORE PUSH1 0x40 DUP2 KECCAK256 DUP1 SLOAD PUSH1 0x1 PUSH1 0x1 PUSH1 0xA0 SHL SUB NOT AND DUP2 SSTORE PUSH1 0x1 ADD SSTORE JUMP JUMPDEST PUSH2 0x697 DUP3 PUSH1 0x0 DUP1 DUP5 PUSH2 0xB77 JUMP JUMPDEST POP POP JUMP JUMPDEST PUSH1 0x60 DUP2 PUSH1 0x0 SUB PUSH2 0x6C2 JUMPI POP POP PUSH1 0x40 DUP1 MLOAD DUP1 DUP3 ADD SWAP1 SWAP2 MSTORE PUSH1 0x1 DUP2 MSTORE PUSH1 0x3 PUSH1 0xFC SHL PUSH1 0x20 DUP3 ADD MSTORE SWAP1 JUMP JUMPDEST DUP2 PUSH1 0x0 JUMPDEST DUP2 ISZERO PUSH2 0x6EC JUMPI DUP1 PUSH2 0x6D6 DUP2 PUSH2 0x1454 JUMP JUMPDEST SWAP2 POP PUSH2 0x6E5 SWAP1 POP PUSH1 0xA DUP4 PUSH2 0x1483 JUMP JUMPDEST SWAP2 POP PUSH2 0x6C6 JUMP JUMPDEST PUSH1 0x0 DUP2 PUSH1 0x1 PUSH1 0x1 PUSH1 0x40 SHL SUB DUP2 GT ISZERO PUSH2 0x706 JUMPI PUSH2 0x706 PUSH2 0x109F JUMP JUMPDEST PUSH1 0x40 MLOAD SWAP1 DUP1 DUP3 MSTORE DUP1 PUSH1 0x1F ADD PUSH1 0x1F NOT AND PUSH1 0x20 ADD DUP3 ADD PUSH1 0x40 MSTORE DUP1 ISZERO PUSH2 0x730 JUMPI PUSH1 0x20 DUP3 ADD DUP2 DUP1 CALLDATASIZE DUP4 CALLDATACOPY ADD SWAP1 POP JUMPDEST POP SWAP1 POP JUMPDEST DUP5 ISZERO PUSH2 0x79B JUMPI PUSH2 0x745 PUSH1 0x1 DUP4 PUSH2 0x1497 JUMP JUMPDEST SWAP2 POP PUSH2 0x752 PUSH1 0xA DUP7 PUSH2 0x14AA JUMP JUMPDEST PUSH2 0x75D SWAP1 PUSH1 0x30 PUSH2 0x14BE JUMP JUMPDEST PUSH1 0xF8 SHL DUP2 DUP4 DUP2 MLOAD DUP2 LT PUSH2 0x772 JUMPI PUSH2 0x772 PUSH2 0x12B3 JUMP JUMPDEST PUSH1 0x20 ADD ADD SWAP1 PUSH1 0x1 PUSH1 0x1 PUSH1 0xF8 SHL SUB NOT AND SWAP1 DUP2 PUSH1 0x0 BYTE SWAP1 MSTORE8 POP PUSH2 0x794 PUSH1 0xA DUP7 PUSH2 0x1483 JUMP JUMPDEST SWAP5 POP PUSH2 0x734 JUMP JUMPDEST SWAP5 SWAP4 POP POP POP POP JUMP JUMPDEST DUP1 MLOAD PUSH1 0x0 SUB PUSH2 0x7C5 JUMPI PUSH1 0x40 MLOAD PUSH4 0xFE936CB7 PUSH1 0xE0 SHL DUP2 MSTORE PUSH1 0x4 ADD PUSH1 0x40 MLOAD DUP1 SWAP2 SUB SWAP1 REVERT JUMPDEST PUSH1 0xA0 SWAP1 SWAP2 ADD MSTORE JUMP JUMPDEST PUSH1 0x60 PUSH1 0x0 PUSH2 0x7DC PUSH2 0x100 PUSH2 0xBF5 JUMP JUMPDEST SWAP1 POP PUSH2 0x815 PUSH1 0x40 MLOAD DUP1 PUSH1 0x40 ADD PUSH1 0x40 MSTORE DUP1 PUSH1 0xC DUP2 MSTORE PUSH1 0x20 ADD PUSH12 0x31B7B232A637B1B0BA34B7B7 PUSH1 0xA1 SHL DUP2 MSTORE POP DUP3 PUSH2 0xC16 SWAP1 SWAP2 SWAP1 PUSH4 0xFFFFFFFF AND JUMP JUMPDEST DUP3 MLOAD PUSH2 0x833 SWAP1 PUSH1 0x2 DUP2 GT ISZERO PUSH2 0x82C JUMPI PUSH2 0x82C PUSH2 0x14D1 JUMP JUMPDEST DUP3 SWAP1 PUSH2 0xC34 JUMP JUMPDEST PUSH1 0x40 DUP1 MLOAD DUP1 DUP3 ADD SWAP1 SWAP2 MSTORE PUSH1 0x8 DUP2 MSTORE PUSH8 0x6C616E6775616765 PUSH1 0xC0 SHL PUSH1 0x20 DUP3 ADD MSTORE PUSH2 0x85D SWAP1 DUP3 SWAP1 PUSH2 0xC16 JUMP JUMPDEST PUSH1 0x40 DUP4 ADD MLOAD PUSH2 0x874 SWAP1 DUP1 ISZERO PUSH2 0x82C JUMPI PUSH2 0x82C PUSH2 0x14D1 JUMP JUMPDEST PUSH1 0x40 DUP1 MLOAD DUP1 DUP3 ADD SWAP1 SWAP2 MSTORE PUSH1 0x6 DUP2 MSTORE PUSH6 0x736F75726365 PUSH1 0xD0 SHL PUSH1 0x20 DUP3 ADD MSTORE PUSH2 0x89C SWAP1 DUP3 SWAP1 PUSH2 0xC16 JUMP JUMPDEST PUSH1 0x60 DUP4 ADD MLOAD PUSH2 0x8AC SWAP1 DUP3 SWAP1 PUSH2 0xC16 JUMP JUMPDEST PUSH1 0xA0 DUP4 ADD MLOAD MLOAD ISZERO PUSH2 0x940 JUMPI PUSH1 0x40 DUP1 MLOAD DUP1 DUP3 ADD SWAP1 SWAP2 MSTORE PUSH1 0x4 DUP2 MSTORE PUSH4 0x61726773 PUSH1 0xE0 SHL PUSH1 0x20 DUP3 ADD MSTORE PUSH2 0x8DD SWAP1 DUP3 SWAP1 PUSH2 0xC16 JUMP JUMPDEST PUSH2 0x8E6 DUP2 PUSH2 0xC6D JUMP JUMPDEST PUSH1 0x0 JUMPDEST DUP4 PUSH1 0xA0 ADD MLOAD MLOAD DUP2 LT ISZERO PUSH2 0x936 JUMPI PUSH2 0x926 DUP5 PUSH1 0xA0 ADD MLOAD DUP3 DUP2 MLOAD DUP2 LT PUSH2 0x90F JUMPI PUSH2 0x90F PUSH2 0x12B3 JUMP JUMPDEST PUSH1 0x20 MUL PUSH1 0x20 ADD ADD MLOAD DUP4 PUSH2 0xC16 SWAP1 SWAP2 SWAP1 PUSH4 0xFFFFFFFF AND JUMP JUMPDEST PUSH2 0x92F DUP2 PUSH2 0x1454 JUMP JUMPDEST SWAP1 POP PUSH2 0x8E9 JUMP JUMPDEST POP PUSH2 0x940 DUP2 PUSH2 0xC91 JUMP JUMPDEST PUSH1 0x80 DUP4 ADD MLOAD MLOAD ISZERO PUSH2 0xA04 JUMPI PUSH1 0x0 DUP4 PUSH1 0x20 ADD MLOAD PUSH1 0x2 DUP2 GT ISZERO PUSH2 0x963 JUMPI PUSH2 0x963 PUSH2 0x14D1 JUMP JUMPDEST SUB PUSH2 0x981 JUMPI PUSH1 0x40 MLOAD PUSH4 0xA80D31F7 PUSH1 0xE0 SHL DUP2 MSTORE PUSH1 0x4 ADD PUSH1 0x40 MLOAD DUP1 SWAP2 SUB SWAP1 REVERT JUMPDEST PUSH1 0x40 DUP1 MLOAD DUP1 DUP3 ADD SWAP1 SWAP2 MSTORE PUSH1 0xF DUP2 MSTORE PUSH15 0x39B2B1B932BA39A637B1B0BA34B7B7 PUSH1 0x89 SHL PUSH1 0x20 DUP3 ADD MSTORE PUSH2 0x9B2 SWAP1 DUP3 SWAP1 PUSH2 0xC16 JUMP JUMPDEST PUSH2 0x9CB DUP4 PUSH1 0x20 ADD MLOAD PUSH1 0x2 DUP2 GT ISZERO PUSH2 0x82C JUMPI PUSH2 0x82C PUSH2 0x14D1 JUMP JUMPDEST PUSH1 0x40 DUP1 MLOAD DUP1 DUP3 ADD SWAP1 SWAP2 MSTORE PUSH1 0x7 DUP2 MSTORE PUSH7 0x73656372657473 PUSH1 0xC8 SHL PUSH1 0x20 DUP3 ADD MSTORE PUSH2 0x9F4 SWAP1 DUP3 SWAP1 PUSH2 0xC16 JUMP JUMPDEST PUSH1 0x80 DUP4 ADD MLOAD PUSH2 0xA04 SWAP1 DUP3 SWAP1 PUSH2 0xCAF JUMP JUMPDEST PUSH1 0xC0 DUP4 ADD MLOAD MLOAD ISZERO PUSH2 0xA9D JUMPI PUSH1 0x40 DUP1 MLOAD DUP1 DUP3 ADD SWAP1 SWAP2 MSTORE PUSH1 0x9 DUP2 MSTORE PUSH9 0x627974657341726773 PUSH1 0xB8 SHL PUSH1 0x20 DUP3 ADD MSTORE PUSH2 0xA3A SWAP1 DUP3 SWAP1 PUSH2 0xC16 JUMP JUMPDEST PUSH2 0xA43 DUP2 PUSH2 0xC6D JUMP JUMPDEST PUSH1 0x0 JUMPDEST DUP4 PUSH1 0xC0 ADD MLOAD MLOAD DUP2 LT ISZERO PUSH2 0xA93 JUMPI PUSH2 0xA83 DUP5 PUSH1 0xC0 ADD MLOAD DUP3 DUP2 MLOAD DUP2 LT PUSH2 0xA6C JUMPI PUSH2 0xA6C PUSH2 0x12B3 JUMP JUMPDEST PUSH1 0x20 MUL PUSH1 0x20 ADD ADD MLOAD DUP4 PUSH2 0xCAF SWAP1 SWAP2 SWAP1 PUSH4 0xFFFFFFFF AND JUMP JUMPDEST PUSH2 0xA8C DUP2 PUSH2 0x1454 JUMP JUMPDEST SWAP1 POP PUSH2 0xA46 JUMP JUMPDEST POP PUSH2 0xA9D DUP2 PUSH2 0xC91 JUMP JUMPDEST MLOAD MLOAD SWAP3 SWAP2 POP POP JUMP JUMPDEST PUSH1 0x0 DUP1 PUSH32 0x0 PUSH1 0x1 PUSH1 0x1 PUSH1 0xA0 SHL SUB AND PUSH4 0x461D2762 DUP7 DUP9 PUSH1 0x1 DUP9 DUP9 PUSH1 0x40 MLOAD DUP7 PUSH4 0xFFFFFFFF AND PUSH1 0xE0 SHL DUP2 MSTORE PUSH1 0x4 ADD PUSH2 0xAFD SWAP6 SWAP5 SWAP4 SWAP3 SWAP2 SWAP1 PUSH2 0x14E7 JUMP JUMPDEST PUSH1 0x20 PUSH1 0x40 MLOAD DUP1 DUP4 SUB DUP2 PUSH1 0x0 DUP8 GAS CALL ISZERO DUP1 ISZERO PUSH2 0xB1C JUMPI RETURNDATASIZE PUSH1 0x0 DUP1 RETURNDATACOPY RETURNDATASIZE PUSH1 0x0 REVERT JUMPDEST POP POP POP POP PUSH1 0x40 MLOAD RETURNDATASIZE PUSH1 0x1F NOT PUSH1 0x1F DUP3 ADD AND DUP3 ADD DUP1 PUSH1 0x40 MSTORE POP DUP2 ADD SWAP1 PUSH2 0xB40 SWAP2 SWAP1 PUSH2 0x1530 JUMP JUMPDEST PUSH1 0x40 MLOAD SWAP1 SWAP2 POP DUP2 SWAP1 PUSH32 0x1131472297A800FEE664D1D89CFA8F7676FF07189ECC53F80BBB5F4969099DB8 SWAP1 PUSH1 0x0 SWAP1 LOG2 SWAP6 SWAP5 POP POP POP POP POP JUMP JUMPDEST DUP1 MLOAD PUSH1 0x0 SUB PUSH2 0xB99 JUMPI PUSH1 0x40 MLOAD PUSH4 0x22CE3EDD PUSH1 0xE0 SHL DUP2 MSTORE PUSH1 0x4 ADD PUSH1 0x40 MLOAD DUP1 SWAP2 SUB SWAP1 REVERT JUMPDEST DUP4 DUP4 PUSH1 0x2 DUP2 GT ISZERO PUSH2 0xBAC JUMPI PUSH2 0xBAC PUSH2 0x14D1 JUMP JUMPDEST SWAP1 DUP2 PUSH1 0x2 DUP2 GT ISZERO PUSH2 0xBBF JUMPI PUSH2 0xBBF PUSH2 0x14D1 JUMP JUMPDEST SWAP1 MSTORE POP PUSH1 0x40 DUP5 ADD DUP3 DUP1 ISZERO PUSH2 0xBD5 JUMPI PUSH2 0xBD5 PUSH2 0x14D1 JUMP JUMPDEST SWAP1 DUP2 DUP1 ISZERO PUSH2 0xBE5 JUMPI PUSH2 0xBE5 PUSH2 0x14D1 JUMP JUMPDEST SWAP1 MSTORE POP PUSH1 0x60 SWAP1 SWAP4 ADD SWAP3 SWAP1 SWAP3 MSTORE POP POP JUMP JUMPDEST PUSH2 0xBFD PUSH2 0x106A JUMP JUMPDEST DUP1 MLOAD PUSH2 0xC09 SWAP1 DUP4 PUSH2 0xCBC JUMP JUMPDEST POP PUSH1 0x0 PUSH1 0x20 DUP3 ADD MSTORE SWAP2 SWAP1 POP JUMP JUMPDEST PUSH2 0xC23 DUP3 PUSH1 0x3 DUP4 MLOAD PUSH2 0xD36 JUMP JUMPDEST DUP2 MLOAD PUSH2 0xC2F SWAP1 DUP3 PUSH2 0xE55 JUMP JUMPDEST POP POP POP JUMP JUMPDEST DUP2 MLOAD PUSH2 0xC41 SWAP1 PUSH1 0xC2 PUSH2 0xE7D JUMP JUMPDEST POP PUSH2 0x697 DUP3 DUP3 PUSH1 0x40 MLOAD PUSH1 0x20 ADD PUSH2 0xC59 SWAP2 DUP2 MSTORE PUSH1 0x20 ADD SWAP1 JUMP JUMPDEST PUSH1 0x40 MLOAD PUSH1 0x20 DUP2 DUP4 SUB SUB DUP2 MSTORE SWAP1 PUSH1 0x40 MSTORE PUSH2 0xCAF JUMP JUMPDEST PUSH2 0xC78 DUP2 PUSH1 0x4 PUSH2 0xEE6 JUMP JUMPDEST PUSH1 0x1 DUP2 PUSH1 0x20 ADD DUP2 DUP2 MLOAD PUSH2 0xC8B SWAP2 SWAP1 PUSH2 0x14BE JUMP JUMPDEST SWAP1 MSTORE POP POP JUMP JUMPDEST PUSH2 0xC9C DUP2 PUSH1 0x7 PUSH2 0xEE6 JUMP JUMPDEST PUSH1 0x1 DUP2 PUSH1 0x20 ADD DUP2 DUP2 MLOAD PUSH2 0xC8B SWAP2 SWAP1 PUSH2 0x1497 JUMP JUMPDEST PUSH2 0xC23 DUP3 PUSH1 0x2 DUP4 MLOAD PUSH2 0xD36 JUMP JUMPDEST PUSH1 0x40 DUP1 MLOAD DUP1 DUP3 ADD SWAP1 SWAP2 MSTORE PUSH1 0x60 DUP2 MSTORE PUSH1 0x0 PUSH1 0x20 DUP3 ADD MSTORE PUSH2 0xCDC PUSH1 0x20 DUP4 PUSH2 0x14AA JUMP JUMPDEST ISZERO PUSH2 0xD04 JUMPI PUSH2 0xCEC PUSH1 0x20 DUP4 PUSH2 0x14AA JUMP JUMPDEST PUSH2 0xCF7 SWAP1 PUSH1 0x20 PUSH2 0x1497 JUMP JUMPDEST PUSH2 0xD01 SWAP1 DUP4 PUSH2 0x14BE JUMP JUMPDEST SWAP2 POP JUMPDEST PUSH1 0x20 DUP1 DUP5 ADD DUP4 SWAP1 MSTORE PUSH1 0x40 MLOAD DUP1 DUP6 MSTORE PUSH1 0x0 DUP2 MSTORE SWAP1 DUP2 DUP5 ADD ADD DUP2 DUP2 LT ISZERO PUSH2 0xD28 JUMPI PUSH1 0x0 DUP1 REVERT JUMPDEST PUSH1 0x40 MSTORE POP DUP3 SWAP1 POP JUMPDEST SWAP3 SWAP2 POP POP JUMP JUMPDEST PUSH1 0x17 DUP2 PUSH1 0x1 PUSH1 0x1 PUSH1 0x40 SHL SUB AND GT PUSH2 0xD62 JUMPI DUP3 MLOAD PUSH2 0xD5C SWAP1 PUSH1 0xE0 PUSH1 0x5 DUP6 SWAP1 SHL AND DUP4 OR PUSH2 0xE7D JUMP JUMPDEST POP POP POP POP JUMP JUMPDEST PUSH1 0xFF DUP2 PUSH1 0x1 PUSH1 0x1 PUSH1 0x40 SHL SUB AND GT PUSH2 0xDA2 JUMPI DUP3 MLOAD PUSH2 0xD8A SWAP1 PUSH1 0x18 PUSH2 0x1FE0 PUSH1 0x5 DUP7 SWAP1 SHL AND OR PUSH2 0xE7D JUMP JUMPDEST POP DUP3 MLOAD PUSH2 0xD5C SWAP1 PUSH1 0x1 PUSH1 0x1 PUSH1 0x40 SHL SUB DUP4 AND PUSH1 0x1 PUSH2 0xEFD JUMP JUMPDEST PUSH2 0xFFFF DUP2 PUSH1 0x1 PUSH1 0x1 PUSH1 0x40 SHL SUB AND GT PUSH2 0xDE3 JUMPI DUP3 MLOAD PUSH2 0xDCB SWAP1 PUSH1 0x19 PUSH2 0x1FE0 PUSH1 0x5 DUP7 SWAP1 SHL AND OR PUSH2 0xE7D JUMP JUMPDEST POP DUP3 MLOAD PUSH2 0xD5C SWAP1 PUSH1 0x1 PUSH1 0x1 PUSH1 0x40 SHL SUB DUP4 AND PUSH1 0x2 PUSH2 0xEFD JUMP JUMPDEST PUSH4 0xFFFFFFFF DUP2 PUSH1 0x1 PUSH1 0x1 PUSH1 0x40 SHL SUB AND GT PUSH2 0xE26 JUMPI DUP3 MLOAD PUSH2 0xE0E SWAP1 PUSH1 0x1A PUSH2 0x1FE0 PUSH1 0x5 DUP7 SWAP1 SHL AND OR PUSH2 0xE7D JUMP JUMPDEST POP DUP3 MLOAD PUSH2 0xD5C SWAP1 PUSH1 0x1 PUSH1 0x1 PUSH1 0x40 SHL SUB DUP4 AND PUSH1 0x4 PUSH2 0xEFD JUMP JUMPDEST DUP3 MLOAD PUSH2 0xE3D SWAP1 PUSH1 0x1B PUSH2 0x1FE0 PUSH1 0x5 DUP7 SWAP1 SHL AND OR PUSH2 0xE7D JUMP JUMPDEST POP DUP3 MLOAD PUSH2 0xD5C SWAP1 PUSH1 0x1 PUSH1 0x1 PUSH1 0x40 SHL SUB DUP4 AND PUSH1 0x8 PUSH2 0xEFD JUMP JUMPDEST PUSH1 0x40 DUP1 MLOAD DUP1 DUP3 ADD SWAP1 SWAP2 MSTORE PUSH1 0x60 DUP2 MSTORE PUSH1 0x0 PUSH1 0x20 DUP3 ADD MSTORE PUSH2 0xE76 DUP4 DUP4 DUP5 MLOAD PUSH2 0xF82 JUMP JUMPDEST SWAP4 SWAP3 POP POP POP JUMP JUMPDEST PUSH1 0x40 DUP1 MLOAD DUP1 DUP3 ADD SWAP1 SWAP2 MSTORE PUSH1 0x60 DUP2 MSTORE PUSH1 0x0 PUSH1 0x20 DUP3 ADD MSTORE DUP3 MLOAD MLOAD PUSH1 0x0 PUSH2 0xEA2 DUP3 PUSH1 0x1 PUSH2 0x14BE JUMP JUMPDEST SWAP1 POP DUP5 PUSH1 0x20 ADD MLOAD DUP3 LT PUSH2 0xEC3 JUMPI PUSH2 0xEC3 DUP6 PUSH2 0xEBE DUP4 PUSH1 0x2 PUSH2 0x1549 JUMP JUMPDEST PUSH2 0x1053 JUMP JUMPDEST DUP5 MLOAD PUSH1 0x20 DUP4 DUP3 ADD ADD DUP6 DUP2 MSTORE8 POP DUP1 MLOAD DUP3 GT ISZERO PUSH2 0xEDC JUMPI DUP2 DUP2 MSTORE JUMPDEST POP SWAP4 SWAP5 SWAP4 POP POP POP POP JUMP JUMPDEST DUP2 MLOAD PUSH2 0xC2F SWAP1 PUSH1 0x1F PUSH2 0x1FE0 PUSH1 0x5 DUP6 SWAP1 SHL AND OR PUSH2 0xE7D JUMP JUMPDEST PUSH1 0x40 DUP1 MLOAD DUP1 DUP3 ADD SWAP1 SWAP2 MSTORE PUSH1 0x60 DUP2 MSTORE PUSH1 0x0 PUSH1 0x20 DUP3 ADD MSTORE DUP4 MLOAD MLOAD PUSH1 0x0 PUSH2 0xF21 DUP3 DUP6 PUSH2 0x14BE JUMP JUMPDEST SWAP1 POP DUP6 PUSH1 0x20 ADD MLOAD DUP2 GT ISZERO PUSH2 0xF3E JUMPI PUSH2 0xF3E DUP7 PUSH2 0xEBE DUP4 PUSH1 0x2 PUSH2 0x1549 JUMP JUMPDEST PUSH1 0x0 PUSH1 0x1 PUSH2 0xF4E DUP7 PUSH2 0x100 PUSH2 0x1644 JUMP JUMPDEST PUSH2 0xF58 SWAP2 SWAP1 PUSH2 0x1497 JUMP JUMPDEST SWAP1 POP DUP7 MLOAD DUP3 DUP2 ADD DUP8 DUP4 NOT DUP3 MLOAD AND OR DUP2 MSTORE POP DUP1 MLOAD DUP4 GT ISZERO PUSH2 0xF76 JUMPI DUP3 DUP2 MSTORE JUMPDEST POP SWAP6 SWAP7 SWAP6 POP POP POP POP POP POP JUMP JUMPDEST PUSH1 0x40 DUP1 MLOAD DUP1 DUP3 ADD SWAP1 SWAP2 MSTORE PUSH1 0x60 DUP2 MSTORE PUSH1 0x0 PUSH1 0x20 DUP3 ADD MSTORE DUP3 MLOAD DUP3 GT ISZERO PUSH2 0xFA5 JUMPI PUSH1 0x0 DUP1 REVERT JUMPDEST DUP4 MLOAD MLOAD PUSH1 0x0 PUSH2 0xFB4 DUP5 DUP4 PUSH2 0x14BE JUMP JUMPDEST SWAP1 POP DUP6 PUSH1 0x20 ADD MLOAD DUP2 GT ISZERO PUSH2 0xFD1 JUMPI PUSH2 0xFD1 DUP7 PUSH2 0xEBE DUP4 PUSH1 0x2 PUSH2 0x1549 JUMP JUMPDEST DUP6 MLOAD DUP1 MLOAD DUP4 DUP3 ADD PUSH1 0x20 ADD SWAP2 PUSH1 0x0 SWAP2 DUP1 DUP6 GT ISZERO PUSH2 0xFEB JUMPI DUP5 DUP3 MSTORE JUMPDEST POP POP POP PUSH1 0x20 DUP7 ADD JUMPDEST PUSH1 0x20 DUP7 LT PUSH2 0x102B JUMPI DUP1 MLOAD DUP3 MSTORE PUSH2 0x100A PUSH1 0x20 DUP4 PUSH2 0x14BE JUMP JUMPDEST SWAP2 POP PUSH2 0x1017 PUSH1 0x20 DUP3 PUSH2 0x14BE JUMP JUMPDEST SWAP1 POP PUSH2 0x1024 PUSH1 0x20 DUP8 PUSH2 0x1497 JUMP JUMPDEST SWAP6 POP PUSH2 0xFF3 JUMP JUMPDEST MLOAD DUP2 MLOAD PUSH1 0x0 NOT PUSH1 0x20 DUP9 SWAP1 SUB PUSH2 0x100 EXP ADD SWAP1 DUP2 AND SWAP1 NOT SWAP2 SWAP1 SWAP2 AND OR SWAP1 MSTORE POP DUP5 SWAP2 POP POP SWAP4 SWAP3 POP POP POP JUMP JUMPDEST DUP2 MLOAD PUSH2 0x105F DUP4 DUP4 PUSH2 0xCBC JUMP JUMPDEST POP PUSH2 0xD5C DUP4 DUP3 PUSH2 0xE55 JUMP JUMPDEST PUSH1 0x40 MLOAD DUP1 PUSH1 0x40 ADD PUSH1 0x40 MSTORE DUP1 PUSH2 0x1092 PUSH1 0x40 MLOAD DUP1 PUSH1 0x40 ADD PUSH1 0x40 MSTORE DUP1 PUSH1 0x60 DUP2 MSTORE PUSH1 0x20 ADD PUSH1 0x0 DUP2 MSTORE POP SWAP1 JUMP JUMPDEST DUP2 MSTORE PUSH1 0x20 ADD PUSH1 0x0 DUP2 MSTORE POP SWAP1 JUMP JUMPDEST PUSH4 0x4E487B71 PUSH1 0xE0 SHL PUSH1 0x0 MSTORE PUSH1 0x41 PUSH1 0x4 MSTORE PUSH1 0x24 PUSH1 0x0 REVERT JUMPDEST PUSH1 0x0 DUP3 PUSH1 0x1F DUP4 ADD SLT PUSH2 0x10C6 JUMPI PUSH1 0x0 DUP1 REVERT JUMPDEST DUP2 CALLDATALOAD PUSH1 0x1 PUSH1 0x1 PUSH1 0x40 SHL SUB DUP1 DUP3 GT ISZERO PUSH2 0x10E0 JUMPI PUSH2 0x10E0 PUSH2 0x109F JUMP JUMPDEST PUSH1 0x40 MLOAD PUSH1 0x1F DUP4 ADD PUSH1 0x1F NOT SWAP1 DUP2 AND PUSH1 0x3F ADD AND DUP2 ADD SWAP1 DUP3 DUP3 GT DUP2 DUP4 LT OR ISZERO PUSH2 0x1108 JUMPI PUSH2 0x1108 PUSH2 0x109F JUMP JUMPDEST DUP2 PUSH1 0x40 MSTORE DUP4 DUP2 MSTORE DUP7 PUSH1 0x20 DUP6 DUP9 ADD ADD GT ISZERO PUSH2 0x1121 JUMPI PUSH1 0x0 DUP1 REVERT JUMPDEST DUP4 PUSH1 0x20 DUP8 ADD PUSH1 0x20 DUP4 ADD CALLDATACOPY PUSH1 0x0 PUSH1 0x20 DUP6 DUP4 ADD ADD MSTORE DUP1 SWAP5 POP POP POP POP POP SWAP3 SWAP2 POP POP JUMP JUMPDEST PUSH1 0x0 DUP1 PUSH1 0x0 PUSH1 0x60 DUP5 DUP7 SUB SLT ISZERO PUSH2 0x1156 JUMPI PUSH1 0x0 DUP1 REVERT JUMPDEST DUP4 CALLDATALOAD SWAP3 POP PUSH1 0x20 DUP5 ADD CALLDATALOAD PUSH1 0x1 PUSH1 0x1 PUSH1 0x40 SHL SUB DUP1 DUP3 GT ISZERO PUSH2 0x1174 JUMPI PUSH1 0x0 DUP1 REVERT JUMPDEST PUSH2 0x1180 DUP8 DUP4 DUP9 ADD PUSH2 0x10B5 JUMP JUMPDEST SWAP4 POP PUSH1 0x40 DUP7 ADD CALLDATALOAD SWAP2 POP DUP1 DUP3 GT ISZERO PUSH2 0x1196 JUMPI PUSH1 0x0 DUP1 REVERT JUMPDEST POP PUSH2 0x11A3 DUP7 DUP3 DUP8 ADD PUSH2 0x10B5 JUMP JUMPDEST SWAP2 POP POP SWAP3 POP SWAP3 POP SWAP3 JUMP JUMPDEST PUSH1 0x0 DUP1 PUSH1 0x0 DUP1 PUSH1 0x60 DUP6 DUP8 SUB SLT ISZERO PUSH2 0x11C3 JUMPI PUSH1 0x0 DUP1 REVERT JUMPDEST DUP5 CALLDATALOAD PUSH1 0x1 PUSH1 0x1 PUSH1 0xA0 SHL SUB DUP2 AND DUP2 EQ PUSH2 0x11DA JUMPI PUSH1 0x0 DUP1 REVERT JUMPDEST SWAP4 POP PUSH1 0x20 DUP6 ADD CALLDATALOAD SWAP3 POP PUSH1 0x40 DUP6 ADD CALLDATALOAD PUSH1 0x1 PUSH1 0x1 PUSH1 0x40 SHL SUB DUP1 DUP3 GT ISZERO PUSH2 0x11FD JUMPI PUSH1 0x0 DUP1 REVERT JUMPDEST DUP2 DUP8 ADD SWAP2 POP DUP8 PUSH1 0x1F DUP4 ADD SLT PUSH2 0x1211 JUMPI PUSH1 0x0 DUP1 REVERT JUMPDEST DUP2 CALLDATALOAD DUP2 DUP2 GT ISZERO PUSH2 0x1220 JUMPI PUSH1 0x0 DUP1 REVERT JUMPDEST DUP9 PUSH1 0x20 DUP3 DUP6 ADD ADD GT ISZERO PUSH2 0x1232 JUMPI PUSH1 0x0 DUP1 REVERT JUMPDEST SWAP6 SWAP9 SWAP5 SWAP8 POP POP PUSH1 0x20 ADD SWAP5 POP POP POP JUMP JUMPDEST PUSH1 0x0 PUSH1 0x20 DUP3 DUP5 SUB SLT ISZERO PUSH2 0x1253 JUMPI PUSH1 0x0 DUP1 REVERT JUMPDEST POP CALLDATALOAD SWAP2 SWAP1 POP JUMP JUMPDEST PUSH1 0x0 DUP2 MLOAD DUP1 DUP5 MSTORE PUSH1 0x0 JUMPDEST DUP2 DUP2 LT ISZERO PUSH2 0x1280 JUMPI PUSH1 0x20 DUP2 DUP6 ADD DUP2 ADD MLOAD DUP7 DUP4 ADD DUP3 ADD MSTORE ADD PUSH2 0x1264 JUMP JUMPDEST POP PUSH1 0x0 PUSH1 0x20 DUP3 DUP7 ADD ADD MSTORE PUSH1 0x20 PUSH1 0x1F NOT PUSH1 0x1F DUP4 ADD AND DUP6 ADD ADD SWAP2 POP POP SWAP3 SWAP2 POP POP JUMP JUMPDEST PUSH1 0x20 DUP2 MSTORE PUSH1 0x0 PUSH2 0xE76 PUSH1 0x20 DUP4 ADD DUP5 PUSH2 0x125A JUMP JUMPDEST PUSH4 0x4E487B71 PUSH1 0xE0 SHL PUSH1 0x0 MSTORE PUSH1 0x32 PUSH1 0x4 MSTORE PUSH1 0x24 PUSH1 0x0 REVERT JUMPDEST PUSH1 0x1 DUP2 DUP2 SHR SWAP1 DUP3 AND DUP1 PUSH2 0x12DD JUMPI PUSH1 0x7F DUP3 AND SWAP2 POP JUMPDEST PUSH1 0x20 DUP3 LT DUP2 SUB PUSH2 0x12FD JUMPI PUSH4 0x4E487B71 PUSH1 0xE0 SHL PUSH1 0x0 MSTORE PUSH1 0x22 PUSH1 0x4 MSTORE PUSH1 0x24 PUSH1 0x0 REVERT JUMPDEST POP SWAP2 SWAP1 POP JUMP JUMPDEST PUSH1 0x1F DUP3 GT ISZERO PUSH2 0xC2F JUMPI PUSH1 0x0 DUP2 DUP2 MSTORE PUSH1 0x20 DUP2 KECCAK256 PUSH1 0x1F DUP6 ADD PUSH1 0x5 SHR DUP2 ADD PUSH1 0x20 DUP7 LT ISZERO PUSH2 0x132A JUMPI POP DUP1 JUMPDEST PUSH1 0x1F DUP6 ADD PUSH1 0x5 SHR DUP3 ADD SWAP2 POP JUMPDEST DUP2 DUP2 LT ISZERO PUSH2 0x1349 JUMPI DUP3 DUP2 SSTORE PUSH1 0x1 ADD PUSH2 0x1336 JUMP JUMPDEST POP POP POP POP POP POP JUMP JUMPDEST DUP2 MLOAD PUSH1 0x1 PUSH1 0x1 PUSH1 0x40 SHL SUB DUP2 GT ISZERO PUSH2 0x136A JUMPI PUSH2 0x136A PUSH2 0x109F JUMP JUMPDEST PUSH2 0x137E DUP2 PUSH2 0x1378 DUP5 SLOAD PUSH2 0x12C9 JUMP JUMPDEST DUP5 PUSH2 0x1303 JUMP JUMPDEST PUSH1 0x20 DUP1 PUSH1 0x1F DUP4 GT PUSH1 0x1 DUP2 EQ PUSH2 0x13B3 JUMPI PUSH1 0x0 DUP5 ISZERO PUSH2 0x139B JUMPI POP DUP6 DUP4 ADD MLOAD JUMPDEST PUSH1 0x0 NOT PUSH1 0x3 DUP7 SWAP1 SHL SHR NOT AND PUSH1 0x1 DUP6 SWAP1 SHL OR DUP6 SSTORE PUSH2 0x1349 JUMP JUMPDEST PUSH1 0x0 DUP6 DUP2 MSTORE PUSH1 0x20 DUP2 KECCAK256 PUSH1 0x1F NOT DUP7 AND SWAP2 JUMPDEST DUP3 DUP2 LT ISZERO PUSH2 0x13E2 JUMPI DUP9 DUP7 ADD MLOAD DUP3 SSTORE SWAP5 DUP5 ADD SWAP5 PUSH1 0x1 SWAP1 SWAP2 ADD SWAP1 DUP5 ADD PUSH2 0x13C3 JUMP JUMPDEST POP DUP6 DUP3 LT ISZERO PUSH2 0x1400 JUMPI DUP8 DUP6 ADD MLOAD PUSH1 0x0 NOT PUSH1 0x3 DUP9 SWAP1 SHL PUSH1 0xF8 AND SHR NOT AND DUP2 SSTORE JUMPDEST POP POP POP POP POP PUSH1 0x1 SWAP1 DUP2 SHL ADD SWAP1 SSTORE POP JUMP JUMPDEST PUSH1 0x40 DUP2 MSTORE PUSH1 0x0 PUSH2 0x1423 PUSH1 0x40 DUP4 ADD DUP6 PUSH2 0x125A JUMP JUMPDEST DUP3 DUP2 SUB PUSH1 0x20 DUP5 ADD MSTORE PUSH2 0x1435 DUP2 DUP6 PUSH2 0x125A JUMP JUMPDEST SWAP6 SWAP5 POP POP POP POP POP JUMP JUMPDEST PUSH4 0x4E487B71 PUSH1 0xE0 SHL PUSH1 0x0 MSTORE PUSH1 0x11 PUSH1 0x4 MSTORE PUSH1 0x24 PUSH1 0x0 REVERT JUMPDEST PUSH1 0x0 PUSH1 0x1 DUP3 ADD PUSH2 0x1466 JUMPI PUSH2 0x1466 PUSH2 0x143E JUMP JUMPDEST POP PUSH1 0x1 ADD SWAP1 JUMP JUMPDEST PUSH4 0x4E487B71 PUSH1 0xE0 SHL PUSH1 0x0 MSTORE PUSH1 0x12 PUSH1 0x4 MSTORE PUSH1 0x24 PUSH1 0x0 REVERT JUMPDEST PUSH1 0x0 DUP3 PUSH2 0x1492 JUMPI PUSH2 0x1492 PUSH2 0x146D JUMP JUMPDEST POP DIV SWAP1 JUMP JUMPDEST DUP2 DUP2 SUB DUP2 DUP2 GT ISZERO PUSH2 0xD30 JUMPI PUSH2 0xD30 PUSH2 0x143E JUMP JUMPDEST PUSH1 0x0 DUP3 PUSH2 0x14B9 JUMPI PUSH2 0x14B9 PUSH2 0x146D JUMP JUMPDEST POP MOD SWAP1 JUMP JUMPDEST DUP1 DUP3 ADD DUP1 DUP3 GT ISZERO PUSH2 0xD30 JUMPI PUSH2 0xD30 PUSH2 0x143E JUMP JUMPDEST PUSH4 0x4E487B71 PUSH1 0xE0 SHL PUSH1 0x0 MSTORE PUSH1 0x21 PUSH1 0x4 MSTORE PUSH1 0x24 PUSH1 0x0 REVERT JUMPDEST PUSH1 0x1 PUSH1 0x1 PUSH1 0x40 SHL SUB DUP7 AND DUP2 MSTORE PUSH1 0xA0 PUSH1 0x20 DUP3 ADD MSTORE PUSH1 0x0 PUSH2 0x1509 PUSH1 0xA0 DUP4 ADD DUP8 PUSH2 0x125A JUMP JUMPDEST PUSH2 0xFFFF SWAP6 SWAP1 SWAP6 AND PUSH1 0x40 DUP4 ADD MSTORE POP PUSH4 0xFFFFFFFF SWAP3 SWAP1 SWAP3 AND PUSH1 0x60 DUP4 ADD MSTORE PUSH1 0x80 SWAP1 SWAP2 ADD MSTORE SWAP3 SWAP2 POP POP JUMP JUMPDEST PUSH1 0x0 PUSH1 0x20 DUP3 DUP5 SUB SLT ISZERO PUSH2 0x1542 JUMPI PUSH1 0x0 DUP1 REVERT JUMPDEST POP MLOAD SWAP2 SWAP1 POP JUMP JUMPDEST DUP1 DUP3 MUL DUP2 ISZERO DUP3 DUP3 DIV DUP5 EQ OR PUSH2 0xD30 JUMPI PUSH2 0xD30 PUSH2 0x143E JUMP JUMPDEST PUSH1 0x1 DUP2 DUP2 JUMPDEST DUP1 DUP6 GT ISZERO PUSH2 0x159B JUMPI DUP2 PUSH1 0x0 NOT DIV DUP3 GT ISZERO PUSH2 0x1581 JUMPI PUSH2 0x1581 PUSH2 0x143E JUMP JUMPDEST DUP1 DUP6 AND ISZERO PUSH2 0x158E JUMPI SWAP2 DUP2 MUL SWAP2 JUMPDEST SWAP4 DUP5 SHR SWAP4 SWAP1 DUP1 MUL SWAP1 PUSH2 0x1565 JUMP JUMPDEST POP SWAP3 POP SWAP3 SWAP1 POP JUMP JUMPDEST PUSH1 0x0 DUP3 PUSH2 0x15B2 JUMPI POP PUSH1 0x1 PUSH2 0xD30 JUMP JUMPDEST DUP2 PUSH2 0x15BF JUMPI POP PUSH1 0x0 PUSH2 0xD30 JUMP JUMPDEST DUP2 PUSH1 0x1 DUP2 EQ PUSH2 0x15D5 JUMPI PUSH1 0x2 DUP2 EQ PUSH2 0x15DF JUMPI PUSH2 0x15FB JUMP JUMPDEST PUSH1 0x1 SWAP2 POP POP PUSH2 0xD30 JUMP JUMPDEST PUSH1 0xFF DUP5 GT ISZERO PUSH2 0x15F0 JUMPI PUSH2 0x15F0 PUSH2 0x143E JUMP JUMPDEST POP POP PUSH1 0x1 DUP3 SHL PUSH2 0xD30 JUMP JUMPDEST POP PUSH1 0x20 DUP4 LT PUSH2 0x133 DUP4 LT AND PUSH1 0x4E DUP5 LT PUSH1 0xB DUP5 LT AND OR ISZERO PUSH2 0x161E JUMPI POP DUP2 DUP2 EXP PUSH2 0xD30 JUMP JUMPDEST PUSH2 0x1628 DUP4 DUP4 PUSH2 0x1560 JUMP JUMPDEST DUP1 PUSH1 0x0 NOT DIV DUP3 GT ISZERO PUSH2 0x163C JUMPI PUSH2 0x163C PUSH2 0x143E JUMP JUMPDEST MUL SWAP4 SWAP3 POP POP POP JUMP JUMPDEST PUSH1 0x0 PUSH2 0xE76 DUP4 DUP4 PUSH2 0x15A3 JUMP INVALID PUSH4 0x6F6E7374 KECCAK256 PUSH17 0x726F636F726550726F6A6563744964203D KECCAK256 PUSH2 0x7267 PUSH20 0x5B305D3B636F6E7374206D696C6573746F6E6549 PUSH15 0x646578203D20617267735B315D3B63 PUSH16 0x6E737420726573203D20617761697420 CHAINID PUSH22 0x6E6374696F6E732E6D616B6548747470526571756573 PUSH21 0x287B202075726C3A202768747470733A2F2F627569 PUSH13 0x646C696E6B2D66726F6E74656E PUSH5 0x2E76657263 PUSH6 0x6C2E6170702F PUSH2 0x7069 0x2F PUSH17 0x726F636F72652F776562686F6F6B272C20 KECCAK256 PUSH14 0x6574686F643A2027504F5354272C KECCAK256 KECCAK256 PUSH9 0x6561646572733A207B KECCAK256 0x27 NUMBER PUSH16 0x6E74656E742D54797065273A20276170 PUSH17 0x6C69636174696F6E2F6A736F6E27207D2C KECCAK256 KECCAK256 PUSH5 0x6174613A20 PUSH28 0x2070726F636F726550726F6A65637449643A2070726F636F72655072 PUSH16 0x6A65637449642C206D696C6573746F6E PUSH6 0x496E6465783A KECCAK256 PUSH17 0x61727365496E74286D696C6573746F6E65 0x49 PUSH15 0x64657829207D7D293B696620287265 PUSH20 0x2E6572726F7229207468726F77204572726F7228 0x27 JUMPI PUSH6 0x62686F6F6B20 PUSH19 0x657175657374206661696C65643A2027202B20 PUSH19 0x65732E6D657373616765293B636F6E73742073 PUSH21 0x61747573203D207265732E64617461202626207265 PUSH20 0x2E646174612E737461747573203F207265732E64 PUSH2 0x7461 0x2E PUSH20 0x7461747573203A202772656A6563746564273B72 PUSH6 0x7475726E2046 PUSH22 0x6E6374696F6E732E656E636F6465537472696E672873 PUSH21 0x61747573203D3D3D2027617070726F76656427203F KECCAK256 0x27 PUSH2 0x7070 PUSH19 0x6F76656427203A202772656A65637465642729 EXTCODESIZE LOG2 PUSH5 0x6970667358 0x22 SLT KECCAK256 SHL PUSH29 0x216AC542CD4840A754A86BA7D29AEC6F0959EB6DA0E328630CDFD9267C 0xAB PUSH5 0x736F6C6343 STOP ADDMOD EQ STOP CALLER "},"methodIdentifiers":{"CALLBACK_GAS_LIMIT()":"33d608f1","DON_ID()":"0cde9f3c","SUBSCRIPTION_ID()":"030932bb","admin()":"f851a440","handleOracleFulfillment(bytes32,bytes,bytes)":"0ca76175","latestError()":"fffeb84e","latestRequestId()":"1aa46f59","latestResponse()":"bef3a2f0","pendingRequests(bytes32)":"2795ad20","sendRequest(address,uint256,string)":"1b1f5c24"}}}}}