{
  "_format": "hh-sol-artifact-1",
  "contractName": "BuildLinkFunctionsConsumer",
  "sourceName": "contracts/BuildLinkFunctionsConsumer.sol",
  "abi": [
    {
      "inputs": [
        {
          "internalType": "address",
          "name": "_admin",
          "type": "address"
        }
      ],
      "stateMutability": "nonpayable",
      "type": "constructor"
    },
    {
      "inputs": [],
      "name": "EmptyArgs",
      "type": "error"
    },
    {
      "inputs": [],
      "name": "EmptySource",
      "type": "error"
    },
    {
      "inputs": [],
      "name": "NoInlineSecrets",
      "type": "error"
    },
    {
      "inputs": [],
      "name": "OnlyAdmin",
      "type": "error"
    },
    {
      "inputs": [],
      "name": "OnlyRouterCanFulfill",
      "type": "error"
    },
    {
      "anonymous": false,
      "inputs": [
        {
          "indexed": true,
          "internalType": "address",
          "name": "vault",
          "type": "address"
        },
        {
          "indexed": true,
          "internalType": "uint256",
          "name": "milestoneIndex",
          "type": "uint256"
        }
      ],
      "name": "ApprovalFailed",
      "type": "event"
    },
    {
      "anonymous": false,
      "inputs": [
        {
          "indexed": true,
          "internalType": "address",
          "name": "vault",
          "type": "address"
        },
        {
          "indexed": true,
          "internalType": "uint256",
          "name": "milestoneIndex",
          "type": "uint256"
        }
      ],
      "name": "MilestonePaid",
      "type": "event"
    },
    {
      "anonymous": false,
      "inputs": [
        {
          "indexed": true,
          "internalType": "address",
          "name": "vault",
          "type": "address"
        },
        {
          "indexed": true,
          "internalType": "uint256",
          "name": "milestoneIndex",
          "type": "uint256"
        }
      ],
      "name": "MilestoneVerified",
      "type": "event"
    },
    {
      "anonymous": false,
      "inputs": [
        {
          "indexed": true,
          "internalType": "bytes32",
          "name": "requestId",
          "type": "bytes32"
        },
        {
          "indexed": false,
          "internalType": "bytes",
          "name": "response",
          "type": "bytes"
        },
        {
          "indexed": false,
          "internalType": "bytes",
          "name": "err",
          "type": "bytes"
        }
      ],
      "name": "OracleResponse",
      "type": "event"
    },
    {
      "anonymous": false,
      "inputs": [
        {
          "indexed": true,
          "internalType": "address",
          "name": "vault",
          "type": "address"
        },
        {
          "indexed": true,
          "internalType": "uint256",
          "name": "milestoneIndex",
          "type": "uint256"
        }
      ],
      "name": "PaymentFailed",
      "type": "event"
    },
    {
      "anonymous": false,
      "inputs": [
        {
          "indexed": true,
          "internalType": "bytes32",
          "name": "id",
          "type": "bytes32"
        }
      ],
      "name": "RequestFulfilled",
      "type": "event"
    },
    {
      "anonymous": false,
      "inputs": [
        {
          "indexed": true,
          "internalType": "bytes32",
          "name": "id",
          "type": "bytes32"
        }
      ],
      "name": "RequestSent",
      "type": "event"
    },
    {
      "inputs": [],
      "name": "CALLBACK_GAS_LIMIT",
      "outputs": [
        {
          "internalType": "uint32",
          "name": "",
          "type": "uint32"
        }
      ],
      "stateMutability": "view",
      "type": "function"
    },
    {
      "inputs": [],
      "name": "DON_ID",
      "outputs": [
        {
          "internalType": "bytes32",
          "name": "",
          "type": "bytes32"
        }
      ],
      "stateMutability": "view",
      "type": "function"
    },
    {
      "inputs": [],
      "name": "SUBSCRIPTION_ID",
      "outputs": [
        {
          "internalType": "uint64",
          "name": "",
          "type": "uint64"
        }
      ],
      "stateMutability": "view",
      "type": "function"
    },
    {
      "inputs": [],
      "name": "admin",
      "outputs": [
        {
          "internalType": "address",
          "name": "",
          "type": "address"
        }
      ],
      "stateMutability": "view",
      "type": "function"
    },
    {
      "inputs": [
        {
          "internalType": "bytes32",
          "name": "requestId",
          "type": "bytes32"
        },
        {
          "internalType": "bytes",
          "name": "response",
          "type": "bytes"
        },
        {
          "internalType": "bytes",
          "name": "err",
          "type": "bytes"
        }
      ],
      "name": "handleOracleFulfillment",
      "outputs": [],
      "stateMutability": "nonpayable",
      "type": "function"
    },
    {
      "inputs": [],
      "name": "latestError",
      "outputs": [
        {
          "internalType": "bytes",
          "name": "",
          "type": "bytes"
        }
      ],
      "stateMutability": "view",
      "type": "function"
    },
    {
      "inputs": [],
      "name": "latestRequestId",
      "outputs": [
        {
          "internalType": "bytes32",
          "name": "",
          "type": "bytes32"
        }
      ],
      "stateMutability": "view",
      "type": "function"
    },
    {
      "inputs": [],
      "name": "latestResponse",
      "outputs": [
        {
          "internalType": "bytes",
          "name": "",
          "type": "bytes"
        }
      ],
      "stateMutability": "view",
      "type": "function"
    },
    {
      "inputs": [
        {
          "internalType": "bytes32",
          "name": "",
          "type": "bytes32"
        }
      ],
      "name": "pendingRequests",
      "outputs": [
        {
          "internalType": "address",
          "name": "vault",
          "type": "address"
        },
        {
          "internalType": "uint256",
          "name": "milestoneIndex",
          "type": "uint256"
        }
      ],
      "stateMutability": "view",
      "type": "function"
    },
    {
      "inputs": [
        {
          "internalType": "address",
          "name": "vaultAddress",
          "type": "address"
        },
        {
          "internalType": "uint256",
          "name": "milestoneIndex",
          "type": "uint256"
        },
        {
          "internalType": "string",
          "name": "procoreProjectId",
          "type": "string"
        },
        {
          "internalType": "string",
          "name": "proofHash",
          "type": "string"
        }
      ],
      "name": "sendRequest",
      "outputs": [
        {
          "internalType": "bytes32",
          "name": "requestId",
          "type": "bytes32"
        }
      ],
      "stateMutability": "nonpayable",
      "type": "function"
    }
  ],
  "bytecode": "0x60c060405234801561001057600080fd5b50604051611cda380380611cda83398101604081905261002f916100a2565b73f9b8fc078197181c841c296c876945aaa425b2786080526001600160a01b0381166100915760405162461bcd60e51b815260206004820152600d60248201526c24b73b30b634b21030b236b4b760991b604482015260640160405180910390fd5b6001600160a01b031660a0526100d2565b6000602082840312156100b457600080fd5b81516001600160a01b03811681146100cb57600080fd5b9392505050565b60805160a051611bd5610105600039600081816101ae015261035a0152600081816101fb0152610d290152611bd56000f3fe608060405234801561001057600080fd5b506004361061009e5760003560e01c806333d608f11161006657806333d608f114610162578063bef3a2f014610181578063de20060d14610196578063f851a440146101a9578063fffeb84e146101e857600080fd5b8063030932bb146100a35780630ca76175146100c85780630cde9f3c146100dd5780631aa46f59146101075780632795ad2014610110575b600080fd5b6100ab608f81565b6040516001600160401b0390911681526020015b60405180910390f35b6100db6100d63660046113c0565b6101f0565b005b6100f97166756e2d626173652d6d61696e6e65742d3160701b81565b6040519081526020016100bf565b6100f960015481565b61014361011e36600461142c565b600060208190529081526040902080546001909101546001600160a01b039091169082565b604080516001600160a01b0390931683526020830191909152016100bf565b61016c620493e081565b60405163ffffffff90911681526020016100bf565b610189610274565b6040516100bf919061148b565b6100f96101a43660046114fe565b610302565b6101d07f000000000000000000000000000000000000000000000000000000000000000081565b6040516001600160a01b0390911681526020016100bf565b61018961062d565b336001600160a01b037f000000000000000000000000000000000000000000000000000000000000000016146102395760405163c6829f8360e01b815260040160405180910390fd5b61024483838361063a565b60405183907f85e1543bf2f84fe80c6badbce3648c8539ad1df4d2b3d822938ca0538be727e690600090a2505050565b6002805461028190611589565b80601f01602080910402602001604051908101604052809291908181526020018280546102ad90611589565b80156102fa5780601f106102cf576101008083540402835291602001916102fa565b820191906000526020600020905b8154815290600101906020018083116102dd57829003601f168201915b505050505081565b60006001600160a01b03871661034f5760405162461bcd60e51b815260206004820152600d60248201526c125b9d985b1a59081d985d5b1d609a1b60448201526064015b60405180910390fd5b336001600160a01b037f00000000000000000000000000000000000000000000000000000000000000001614806103f85750336001600160a01b0316876001600160a01b031663ca4b208b6040518163ffffffff1660e01b8152600401602060405180830381865afa1580156103c9573d6000803e3d6000fd5b505050506040513d601f19601f820116820180604052508101906103ed91906115c3565b6001600160a01b0316145b6104355760405162461bcd60e51b815260206004820152600e60248201526d139bdd08185d5d1a1bdc9a5e995960921b6044820152606401610346565b6104766040805160e0810190915280600081526020016000815260200160008152602001606081526020016060815260200160608152602001606081525090565b61049c60405180610280016040528061025c815260200161194461025c91398290610909565b60408051600380825260808201909252600091816020015b60608152602001906001900390816104b457905050905086868080601f0160208091040260200160405190810160405280939291908181526020018383808284376000920182905250855186945090925015159050610515576105156115e0565b60200260200101819052506105298861091a565b8160018151811061053c5761053c6115e0565b602002602001018190525084848080601f016020809104026020016040519081016040528093929190818152602001838380828437600092019190915250508351849250600291508110610592576105926115e0565b60209081029190910101526105a78282610a22565b6105d46105b383610a4c565b608f620493e07166756e2d626173652d6d61696e6e65742d3160701b610d24565b6040805180820182526001600160a01b039b8c16815260208082019b8c5260008481529081905291909120905181546001600160a01b0319169b169a909a178a5597516001998a01555050509484905550919392505050565b6003805461028190611589565b60026106468382611644565b5060036106538282611644565b50827fa676854a79f96561744d5f417f3f050b4e3590ddc0f25140205c77f69d1daee98383604051610686929190611703565b60405180910390a280511580156106e15750604080518082019091526008815267185c1c1c9bdd995960c21b6020918201528251908301207f2b29265fc125740ae6bbc5035ae7af720b6932f4a3e44ba5ac02955c21ca9a05145b156108e55760008381526020818152604091829020825180840190935280546001600160a01b031680845260019091015491830191909152156108e357602081015181516040516001600160a01b03909116907f4633ed43e960eab00c94e71920ad1775bd86ec373f63649db940d18a424de79690600090a38051602082015160405163c438b40f60e01b81526001600160a01b039092169163c438b40f916107909160040190815260200190565b600060405180830381600087803b1580156107aa57600080fd5b505af19250505080156107bb575060015b61080057602081015181516040516001600160a01b03909116907f8bcfaecc80bd05f8635fa1b1446e0f622abffe311dabb5b372ee72876d2c8cd290600090a36108e3565b805160208201516040516334ed853f60e11b81526001600160a01b03909216916369db0a7e916108369160040190815260200190565b600060405180830381600087803b15801561085057600080fd5b505af1925050508015610861575060015b6108a657602081015181516040516001600160a01b03909116907fa09e6165f4dcdc4e418edf5d4543c54cdb7d7a2166ff3723d856102f4f4a3c4d90600090a36108e3565b602081015181516040516001600160a01b03909116907f033fba43df3fa13d441046ea4e2eb05796d0b1a8a182e0af05940257ba1ff57d90600090a35b505b5050600090815260208190526040812080546001600160a01b031916815560010155565b6109168260008084610df6565b5050565b6060816000036109415750506040805180820190915260018152600360fc1b602082015290565b8160005b811561096b578061095581611747565b91506109649050600a83611776565b9150610945565b6000816001600160401b038111156109855761098561131e565b6040519080825280601f01601f1916602001820160405280156109af576020820181803683370190505b5090505b8415610a1a576109c460018361178a565b91506109d1600a8661179d565b6109dc9060306117b1565b60f81b8183815181106109f1576109f16115e0565b60200101906001600160f81b031916908160001a905350610a13600a86611776565b94506109b3565b949350505050565b8051600003610a445760405163fe936cb760e01b815260040160405180910390fd5b60a090910152565b60606000610a5b610100610e74565b9050610a946040518060400160405280600c81526020016b31b7b232a637b1b0ba34b7b760a11b81525082610e9590919063ffffffff16565b8251610ab2906002811115610aab57610aab6117c4565b8290610eb3565b6040805180820190915260088152676c616e677561676560c01b6020820152610adc908290610e95565b6040830151610af3908015610aab57610aab6117c4565b604080518082019091526006815265736f7572636560d01b6020820152610b1b908290610e95565b6060830151610b2b908290610e95565b60a08301515115610bbf576040805180820190915260048152636172677360e01b6020820152610b5c908290610e95565b610b6581610eec565b60005b8360a0015151811015610bb557610ba58460a001518281518110610b8e57610b8e6115e0565b602002602001015183610e9590919063ffffffff16565b610bae81611747565b9050610b68565b50610bbf81610f10565b60808301515115610c8357600083602001516002811115610be257610be26117c4565b03610c005760405163a80d31f760e01b815260040160405180910390fd5b60408051808201909152600f81526e39b2b1b932ba39a637b1b0ba34b7b760891b6020820152610c31908290610e95565b610c4a83602001516002811115610aab57610aab6117c4565b6040805180820190915260078152667365637265747360c81b6020820152610c73908290610e95565b6080830151610c83908290610f2e565b60c08301515115610d1c5760408051808201909152600981526862797465734172677360b81b6020820152610cb9908290610e95565b610cc281610eec565b60005b8360c0015151811015610d1257610d028460c001518281518110610ceb57610ceb6115e0565b602002602001015183610f2e90919063ffffffff16565b610d0b81611747565b9050610cc5565b50610d1c81610f10565b515192915050565b6000807f00000000000000000000000000000000000000000000000000000000000000006001600160a01b031663461d27628688600188886040518663ffffffff1660e01b8152600401610d7c9594939291906117da565b6020604051808303816000875af1158015610d9b573d6000803e3d6000fd5b505050506040513d601f19601f82011682018060405250810190610dbf9190611823565b60405190915081907f1131472297a800fee664d1d89cfa8f7676ff07189ecc53f80bbb5f4969099db890600090a295945050505050565b8051600003610e18576040516322ce3edd60e01b815260040160405180910390fd5b83836002811115610e2b57610e2b6117c4565b90816002811115610e3e57610e3e6117c4565b90525060408401828015610e5457610e546117c4565b90818015610e6457610e646117c4565b9052506060909301929092525050565b610e7c6112e9565b8051610e889083610f3b565b5060006020820152919050565b610ea28260038351610fb5565b8151610eae90826110d4565b505050565b8151610ec09060c26110fc565b506109168282604051602001610ed891815260200190565b604051602081830303815290604052610f2e565b610ef7816004611165565b600181602001818151610f0a91906117b1565b90525050565b610f1b816007611165565b600181602001818151610f0a919061178a565b610ea28260028351610fb5565b604080518082019091526060815260006020820152610f5b60208361179d565b15610f8357610f6b60208361179d565b610f7690602061178a565b610f8090836117b1565b91505b602080840183905260405180855260008152908184010181811015610fa757600080fd5b604052508290505b92915050565b6017816001600160401b031611610fe1578251610fdb9060e0600585901b1683176110fc565b50505050565b60ff816001600160401b031611611021578251611009906018611fe0600586901b16176110fc565b508251610fdb906001600160401b038316600161117c565b61ffff816001600160401b03161161106257825161104a906019611fe0600586901b16176110fc565b508251610fdb906001600160401b038316600261117c565b63ffffffff816001600160401b0316116110a557825161108d90601a611fe0600586901b16176110fc565b508251610fdb906001600160401b038316600461117c565b82516110bc90601b611fe0600586901b16176110fc565b508251610fdb906001600160401b038316600861117c565b6040805180820190915260608152600060208201526110f583838451611201565b9392505050565b60408051808201909152606081526000602082015282515160006111218260016117b1565b905084602001518210611142576111428561113d83600261183c565b6112d2565b845160208382010185815350805182111561115b578181525b5093949350505050565b8151610eae90601f611fe0600585901b16176110fc565b60408051808201909152606081526000602082015283515160006111a082856117b1565b905085602001518111156111bd576111bd8661113d83600261183c565b600060016111cd86610100611937565b6111d7919061178a565b905086518281018783198251161781525080518311156111f5578281525b50959695505050505050565b604080518082019091526060815260006020820152825182111561122457600080fd5b835151600061123384836117b1565b90508560200151811115611250576112508661113d83600261183c565b85518051838201602001916000918085111561126a578482525b505050602086015b602086106112aa57805182526112896020836117b1565b91506112966020826117b1565b90506112a360208761178a565b9550611272565b51815160001960208890036101000a0190811690199190911617905250849150509392505050565b81516112de8383610f3b565b50610fdb83826110d4565b6040518060400160405280611311604051806040016040528060608152602001600081525090565b8152602001600081525090565b634e487b7160e01b600052604160045260246000fd5b600082601f83011261134557600080fd5b81356001600160401b038082111561135f5761135f61131e565b604051601f8301601f19908116603f011681019082821181831017156113875761138761131e565b816040528381528660208588010111156113a057600080fd5b836020870160208301376000602085830101528094505050505092915050565b6000806000606084860312156113d557600080fd5b8335925060208401356001600160401b03808211156113f357600080fd5b6113ff87838801611334565b9350604086013591508082111561141557600080fd5b5061142286828701611334565b9150509250925092565b60006020828403121561143e57600080fd5b5035919050565b6000815180845260005b8181101561146b5760208185018101518683018201520161144f565b506000602082860101526020601f19601f83011685010191505092915050565b6020815260006110f56020830184611445565b6001600160a01b03811681146114b357600080fd5b50565b60008083601f8401126114c857600080fd5b5081356001600160401b038111156114df57600080fd5b6020830191508360208285010111156114f757600080fd5b9250929050565b6000806000806000806080878903121561151757600080fd5b86356115228161149e565b95506020870135945060408701356001600160401b038082111561154557600080fd5b6115518a838b016114b6565b9096509450606089013591508082111561156a57600080fd5b5061157789828a016114b6565b979a9699509497509295939492505050565b600181811c9082168061159d57607f821691505b6020821081036115bd57634e487b7160e01b600052602260045260246000fd5b50919050565b6000602082840312156115d557600080fd5b81516110f58161149e565b634e487b7160e01b600052603260045260246000fd5b601f821115610eae57600081815260208120601f850160051c8101602086101561161d5750805b601f850160051c820191505b8181101561163c57828155600101611629565b505050505050565b81516001600160401b0381111561165d5761165d61131e565b6116718161166b8454611589565b846115f6565b602080601f8311600181146116a6576000841561168e5750858301515b600019600386901b1c1916600185901b17855561163c565b600085815260208120601f198616915b828110156116d5578886015182559484019460019091019084016116b6565b50858210156116f35787850151600019600388901b60f8161c191681555b5050505050600190811b01905550565b6040815260006117166040830185611445565b82810360208401526117288185611445565b95945050505050565b634e487b7160e01b600052601160045260246000fd5b60006001820161175957611759611731565b5060010190565b634e487b7160e01b600052601260045260246000fd5b60008261178557611785611760565b500490565b81810381811115610faf57610faf611731565b6000826117ac576117ac611760565b500690565b80820180821115610faf57610faf611731565b634e487b7160e01b600052602160045260246000fd5b6001600160401b038616815260a0602082015260006117fc60a0830187611445565b61ffff9590951660408301525063ffffffff92909216606083015260809091015292915050565b60006020828403121561183557600080fd5b5051919050565b8082028115828204841417610faf57610faf611731565b600181815b8085111561188e57816000190482111561187457611874611731565b8085161561188157918102915b93841c9390800290611858565b509250929050565b6000826118a557506001610faf565b816118b257506000610faf565b81600181146118c857600281146118d2576118ee565b6001915050610faf565b60ff8411156118e3576118e3611731565b50506001821b610faf565b5060208310610133831016604e8410600b8410161715611911575081810a610faf565b61191b8383611853565b806000190482111561192f5761192f611731565b029392505050565b60006110f5838361189656fe636f6e73742070726f636f726550726f6a6563744964203d20617267735b305d3b636f6e7374206d696c6573746f6e65496e646578203d20617267735b315d3b636f6e73742070726f6f6648617368203d20617267735b325d3b636f6e737420726573203d2061776169742046756e6374696f6e732e6d616b654874747052657175657374287b202075726c3a202768747470733a2f2f6275696c646c696e6b2d66726f6e74656e642e76657263656c2e6170702f6170692f70726f636f72652f776562686f6f6b272c20206d6574686f643a2027504f5354272c2020686561646572733a207b2027436f6e74656e742d54797065273a20276170706c69636174696f6e2f6a736f6e27207d2c2020646174613a207b2070726f636f726550726f6a65637449643a2070726f636f726550726f6a65637449642c206d696c6573746f6e65496e6465783a207061727365496e74286d696c6573746f6e65496e646578292c2070726f6f66486173683a2070726f6f6648617368207d7d293b696620287265732e6572726f7229207468726f77204572726f722827576562686f6f6b2072657175657374206661696c65643a2027202b207265732e6d657373616765293b636f6e737420737461747573203d207265732e64617461202626207265732e646174612e737461747573203f207265732e646174612e737461747573203a202772656a6563746564273b72657475726e2046756e6374696f6e732e656e636f6465537472696e6728737461747573203d3d3d2027617070726f76656427203f2027617070726f76656427203a202772656a656374656427293ba2646970667358221220ea8eaa428e402b3b9e2f74f7fb1a5cae1e04a316a5551348fdcfd8dbe205713364736f6c63430008140033",
  "linkReferences": {},
  "deployedLinkReferences": {}
}