{
  "_format": "hh-sol-artifact-1",
  "contractName": "BuildLinkFunctionsConsumer",
  "sourceName": "contracts/BuildLinkFunctionsConsumer.sol",
  "abi": [
    {
      "inputs": [
        {
          "internalType": "address",
          "name": "_admin",
          "type": "address"
        }
      ],
      "stateMutability": "nonpayable",
      "type": "constructor"
    },
    {
      "inputs": [],
      "name": "EmptyArgs",
      "type": "error"
    },
    {
      "inputs": [],
      "name": "EmptySource",
      "type": "error"
    },
    {
      "inputs": [],
      "name": "NoInlineSecrets",
      "type": "error"
    },
    {
      "inputs": [],
      "name": "OnlyAdmin",
      "type": "error"
    },
    {
      "inputs": [],
      "name": "OnlyRouterCanFulfill",
      "type": "error"
    },
    {
      "anonymous": false,
      "inputs": [
        {
          "indexed": true,
          "internalType": "address",
          "name": "vault",
          "type": "address"
        },
        {
          "indexed": true,
          "internalType": "uint256",
          "name": "milestoneIndex",
          "type": "uint256"
        }
      ],
      "name": "ApprovalFailed",
      "type": "event"
    },
    {
      "anonymous": false,
      "inputs": [
        {
          "indexed": true,
          "internalType": "address",
          "name": "vault",
          "type": "address"
        },
        {
          "indexed": true,
          "internalType": "uint256",
          "name": "milestoneIndex",
          "type": "uint256"
        }
      ],
      "name": "MilestoneVerified",
      "type": "event"
    },
    {
      "anonymous": false,
      "inputs": [
        {
          "indexed": true,
          "internalType": "bytes32",
          "name": "requestId",
          "type": "bytes32"
        },
        {
          "indexed": false,
          "internalType": "bytes",
          "name": "response",
          "type": "bytes"
        },
        {
          "indexed": false,
          "internalType": "bytes",
          "name": "err",
          "type": "bytes"
        }
      ],
      "name": "OracleResponse",
      "type": "event"
    },
    {
      "anonymous": false,
      "inputs": [
        {
          "indexed": true,
          "internalType": "bytes32",
          "name": "id",
          "type": "bytes32"
        }
      ],
      "name": "RequestFulfilled",
      "type": "event"
    },
    {
      "anonymous": false,
      "inputs": [
        {
          "indexed": true,
          "internalType": "bytes32",
          "name": "id",
          "type": "bytes32"
        }
      ],
      "name": "RequestSent",
      "type": "event"
    },
    {
      "inputs": [],
      "name": "CALLBACK_GAS_LIMIT",
      "outputs": [
        {
          "internalType": "uint32",
          "name": "",
          "type": "uint32"
        }
      ],
      "stateMutability": "view",
      "type": "function"
    },
    {
      "inputs": [],
      "name": "DON_ID",
      "outputs": [
        {
          "internalType": "bytes32",
          "name": "",
          "type": "bytes32"
        }
      ],
      "stateMutability": "view",
      "type": "function"
    },
    {
      "inputs": [],
      "name": "SUBSCRIPTION_ID",
      "outputs": [
        {
          "internalType": "uint64",
          "name": "",
          "type": "uint64"
        }
      ],
      "stateMutability": "view",
      "type": "function"
    },
    {
      "inputs": [],
      "name": "admin",
      "outputs": [
        {
          "internalType": "address",
          "name": "",
          "type": "address"
        }
      ],
      "stateMutability": "view",
      "type": "function"
    },
    {
      "inputs": [
        {
          "internalType": "bytes32",
          "name": "requestId",
          "type": "bytes32"
        },
        {
          "internalType": "bytes",
          "name": "response",
          "type": "bytes"
        },
        {
          "internalType": "bytes",
          "name": "err",
          "type": "bytes"
        }
      ],
      "name": "handleOracleFulfillment",
      "outputs": [],
      "stateMutability": "nonpayable",
      "type": "function"
    },
    {
      "inputs": [],
      "name": "latestError",
      "outputs": [
        {
          "internalType": "bytes",
          "name": "",
          "type": "bytes"
        }
      ],
      "stateMutability": "view",
      "type": "function"
    },
    {
      "inputs": [],
      "name": "latestRequestId",
      "outputs": [
        {
          "internalType": "bytes32",
          "name": "",
          "type": "bytes32"
        }
      ],
      "stateMutability": "view",
      "type": "function"
    },
    {
      "inputs": [],
      "name": "latestResponse",
      "outputs": [
        {
          "internalType": "bytes",
          "name": "",
          "type": "bytes"
        }
      ],
      "stateMutability": "view",
      "type": "function"
    },
    {
      "inputs": [
        {
          "internalType": "bytes32",
          "name": "",
          "type": "bytes32"
        }
      ],
      "name": "pendingRequests",
      "outputs": [
        {
          "internalType": "address",
          "name": "vault",
          "type": "address"
        },
        {
          "internalType": "uint256",
          "name": "milestoneIndex",
          "type": "uint256"
        }
      ],
      "stateMutability": "view",
      "type": "function"
    },
    {
      "inputs": [
        {
          "internalType": "address",
          "name": "vaultAddress",
          "type": "address"
        },
        {
          "internalType": "uint256",
          "name": "milestoneIndex",
          "type": "uint256"
        },
        {
          "internalType": "string",
          "name": "procoreProjectId",
          "type": "string"
        }
      ],
      "name": "sendRequest",
      "outputs": [
        {
          "internalType": "bytes32",
          "name": "requestId",
          "type": "bytes32"
        }
      ],
      "stateMutability": "nonpayable",
      "type": "function"
    }
  ],
  "bytecode": "0x60c060405234801561001057600080fd5b50604051611a58380380611a5883398101604081905261002f916100a2565b73f9b8fc078197181c841c296c876945aaa425b2786080526001600160a01b0381166100915760405162461bcd60e51b815260206004820152600d60248201526c24b73b30b634b21030b236b4b760991b604482015260640160405180910390fd5b6001600160a01b031660a0526100d2565b6000602082840312156100b457600080fd5b81516001600160a01b03811681146100cb57600080fd5b9392505050565b60805160a051611953610105600039600081816101ae01526102810152600081816101fb0152610b4b01526119536000f3fe608060405234801561001057600080fd5b506004361061009e5760003560e01c80632795ad20116100665780632795ad201461012357806333d608f114610175578063bef3a2f014610194578063f851a440146101a9578063fffeb84e146101e857600080fd5b8063030932bb146100a35780630ca76175146100c85780630cde9f3c146100dd5780631aa46f59146101075780631b1f5c2414610110575b600080fd5b6100ab608f81565b6040516001600160401b0390911681526020015b60405180910390f35b6100db6100d63660046111e2565b6101f0565b005b6100f97166756e2d626173652d6d61696e6e65742d3160701b81565b6040519081526020016100bf565b6100f960015481565b6100f961011e36600461124e565b610274565b6101566101313660046112e2565b600060208190529081526040902080546001909101546001600160a01b039091169082565b604080516001600160a01b0390931683526020830191909152016100bf565b61017f620493e081565b60405163ffffffff90911681526020016100bf565b61019c6104a8565b6040516100bf9190611341565b6101d07f000000000000000000000000000000000000000000000000000000000000000081565b6040516001600160a01b0390911681526020016100bf565b61019c610536565b336001600160a01b037f000000000000000000000000000000000000000000000000000000000000000016146102395760405163c6829f8360e01b815260040160405180910390fd5b610244838383610543565b60405183907f85e1543bf2f84fe80c6badbce3648c8539ad1df4d2b3d822938ca0538be727e690600090a2505050565b6000336001600160a01b037f000000000000000000000000000000000000000000000000000000000000000016146102bf57604051634755657960e01b815260040160405180910390fd5b6001600160a01b0385166103095760405162461bcd60e51b815260206004820152600d60248201526c125b9d985b1a59081d985d5b1d609a1b604482015260640160405180910390fd5b61034a6040805160e0810190915280600081526020016000815260200160008152602001606081526020016060815260200160608152602001606081525090565b61037060405180610260016040528061022c81526020016116f261022c9139829061072b565b60408051600280825260608201909252600091816020015b606081526020019060019003908161038857905050905084848080601f01602080910402602001604051908101604052809392919081815260200183838082843760009201829052508551869450909250151590506103e9576103e9611354565b60200260200101819052506103fd8661073c565b8160018151811061041057610410611354565b60209081029190910101526104258282610844565b6104526104318361086e565b608f620493e07166756e2d626173652d6d61696e6e65742d3160701b610b46565b6040805180820182526001600160a01b03998a1681526020808201998a5260008481529081905291909120905181546001600160a01b031916991698909817885595516001978801555050509282905550919050565b600280546104b59061136a565b80601f01602080910402602001604051908101604052809291908181526020018280546104e19061136a565b801561052e5780601f106105035761010080835404028352916020019161052e565b820191906000526020600020905b81548152906001019060200180831161051157829003601f168201915b505050505081565b600380546104b59061136a565b600261054f83826113f2565b50600361055c82826113f2565b50827fa676854a79f96561744d5f417f3f050b4e3590ddc0f25140205c77f69d1daee9838360405161058f9291906114b1565b60405180910390a280511580156105ea5750604080518082019091526008815267185c1c1c9bdd995960c21b6020918201528251908301207f2b29265fc125740ae6bbc5035ae7af720b6932f4a3e44ba5ac02955c21ca9a05145b156107075760008381526020818152604091829020825180840190935280546001600160a01b0316808452600190910154918301919091521561070557602081015181516040516001600160a01b03909116907f4633ed43e960eab00c94e71920ad1775bd86ec373f63649db940d18a424de79690600090a38051602082015160405163c438b40f60e01b81526001600160a01b039092169163c438b40f916106999160040190815260200190565b600060405180830381600087803b1580156106b357600080fd5b505af19250505080156106c4575060015b61070557602081015181516040516001600160a01b03909116907f8bcfaecc80bd05f8635fa1b1446e0f622abffe311dabb5b372ee72876d2c8cd290600090a35b505b5050600090815260208190526040812080546001600160a01b031916815560010155565b6107388260008084610c18565b5050565b6060816000036107635750506040805180820190915260018152600360fc1b602082015290565b8160005b811561078d5780610777816114f5565b91506107869050600a83611524565b9150610767565b6000816001600160401b038111156107a7576107a7611140565b6040519080825280601f01601f1916602001820160405280156107d1576020820181803683370190505b5090505b841561083c576107e6600183611538565b91506107f3600a8661154b565b6107fe90603061155f565b60f81b81838151811061081357610813611354565b60200101906001600160f81b031916908160001a905350610835600a86611524565b94506107d5565b949350505050565b80516000036108665760405163fe936cb760e01b815260040160405180910390fd5b60a090910152565b6060600061087d610100610c96565b90506108b66040518060400160405280600c81526020016b31b7b232a637b1b0ba34b7b760a11b81525082610cb790919063ffffffff16565b82516108d49060028111156108cd576108cd611572565b8290610cd5565b6040805180820190915260088152676c616e677561676560c01b60208201526108fe908290610cb7565b60408301516109159080156108cd576108cd611572565b604080518082019091526006815265736f7572636560d01b602082015261093d908290610cb7565b606083015161094d908290610cb7565b60a083015151156109e1576040805180820190915260048152636172677360e01b602082015261097e908290610cb7565b61098781610d0e565b60005b8360a00151518110156109d7576109c78460a0015182815181106109b0576109b0611354565b602002602001015183610cb790919063ffffffff16565b6109d0816114f5565b905061098a565b506109e181610d32565b60808301515115610aa557600083602001516002811115610a0457610a04611572565b03610a225760405163a80d31f760e01b815260040160405180910390fd5b60408051808201909152600f81526e39b2b1b932ba39a637b1b0ba34b7b760891b6020820152610a53908290610cb7565b610a6c836020015160028111156108cd576108cd611572565b6040805180820190915260078152667365637265747360c81b6020820152610a95908290610cb7565b6080830151610aa5908290610d50565b60c08301515115610b3e5760408051808201909152600981526862797465734172677360b81b6020820152610adb908290610cb7565b610ae481610d0e565b60005b8360c0015151811015610b3457610b248460c001518281518110610b0d57610b0d611354565b602002602001015183610d5090919063ffffffff16565b610b2d816114f5565b9050610ae7565b50610b3e81610d32565b515192915050565b6000807f00000000000000000000000000000000000000000000000000000000000000006001600160a01b031663461d27628688600188886040518663ffffffff1660e01b8152600401610b9e959493929190611588565b6020604051808303816000875af1158015610bbd573d6000803e3d6000fd5b505050506040513d601f19601f82011682018060405250810190610be191906115d1565b60405190915081907f1131472297a800fee664d1d89cfa8f7676ff07189ecc53f80bbb5f4969099db890600090a295945050505050565b8051600003610c3a576040516322ce3edd60e01b815260040160405180910390fd5b83836002811115610c4d57610c4d611572565b90816002811115610c6057610c60611572565b90525060408401828015610c7657610c76611572565b90818015610c8657610c86611572565b9052506060909301929092525050565b610c9e61110b565b8051610caa9083610d5d565b5060006020820152919050565b610cc48260038351610dd7565b8151610cd09082610ef6565b505050565b8151610ce29060c2610f1e565b506107388282604051602001610cfa91815260200190565b604051602081830303815290604052610d50565b610d19816004610f87565b600181602001818151610d2c919061155f565b90525050565b610d3d816007610f87565b600181602001818151610d2c9190611538565b610cc48260028351610dd7565b604080518082019091526060815260006020820152610d7d60208361154b565b15610da557610d8d60208361154b565b610d98906020611538565b610da2908361155f565b91505b602080840183905260405180855260008152908184010181811015610dc957600080fd5b604052508290505b92915050565b6017816001600160401b031611610e03578251610dfd9060e0600585901b168317610f1e565b50505050565b60ff816001600160401b031611610e43578251610e2b906018611fe0600586901b1617610f1e565b508251610dfd906001600160401b0383166001610f9e565b61ffff816001600160401b031611610e84578251610e6c906019611fe0600586901b1617610f1e565b508251610dfd906001600160401b0383166002610f9e565b63ffffffff816001600160401b031611610ec7578251610eaf90601a611fe0600586901b1617610f1e565b508251610dfd906001600160401b0383166004610f9e565b8251610ede90601b611fe0600586901b1617610f1e565b508251610dfd906001600160401b0383166008610f9e565b604080518082019091526060815260006020820152610f1783838451611023565b9392505050565b6040805180820190915260608152600060208201528251516000610f4382600161155f565b905084602001518210610f6457610f6485610f5f8360026115ea565b6110f4565b8451602083820101858153508051821115610f7d578181525b5093949350505050565b8151610cd090601f611fe0600585901b1617610f1e565b6040805180820190915260608152600060208201528351516000610fc2828561155f565b90508560200151811115610fdf57610fdf86610f5f8360026115ea565b60006001610fef866101006116e5565b610ff99190611538565b90508651828101878319825116178152508051831115611017578281525b50959695505050505050565b604080518082019091526060815260006020820152825182111561104657600080fd5b8351516000611055848361155f565b905085602001518111156110725761107286610f5f8360026115ea565b85518051838201602001916000918085111561108c578482525b505050602086015b602086106110cc57805182526110ab60208361155f565b91506110b860208261155f565b90506110c5602087611538565b9550611094565b51815160001960208890036101000a0190811690199190911617905250849150509392505050565b81516111008383610d5d565b50610dfd8382610ef6565b6040518060400160405280611133604051806040016040528060608152602001600081525090565b8152602001600081525090565b634e487b7160e01b600052604160045260246000fd5b600082601f83011261116757600080fd5b81356001600160401b038082111561118157611181611140565b604051601f8301601f19908116603f011681019082821181831017156111a9576111a9611140565b816040528381528660208588010111156111c257600080fd5b836020870160208301376000602085830101528094505050505092915050565b6000806000606084860312156111f757600080fd5b8335925060208401356001600160401b038082111561121557600080fd5b61122187838801611156565b9350604086013591508082111561123757600080fd5b5061124486828701611156565b9150509250925092565b6000806000806060858703121561126457600080fd5b84356001600160a01b038116811461127b57600080fd5b93506020850135925060408501356001600160401b038082111561129e57600080fd5b818701915087601f8301126112b257600080fd5b8135818111156112c157600080fd5b8860208285010111156112d357600080fd5b95989497505060200194505050565b6000602082840312156112f457600080fd5b5035919050565b6000815180845260005b8181101561132157602081850181015186830182015201611305565b506000602082860101526020601f19601f83011685010191505092915050565b602081526000610f1760208301846112fb565b634e487b7160e01b600052603260045260246000fd5b600181811c9082168061137e57607f821691505b60208210810361139e57634e487b7160e01b600052602260045260246000fd5b50919050565b601f821115610cd057600081815260208120601f850160051c810160208610156113cb5750805b601f850160051c820191505b818110156113ea578281556001016113d7565b505050505050565b81516001600160401b0381111561140b5761140b611140565b61141f81611419845461136a565b846113a4565b602080601f831160018114611454576000841561143c5750858301515b600019600386901b1c1916600185901b1785556113ea565b600085815260208120601f198616915b8281101561148357888601518255948401946001909101908401611464565b50858210156114a15787850151600019600388901b60f8161c191681555b5050505050600190811b01905550565b6040815260006114c460408301856112fb565b82810360208401526114d681856112fb565b95945050505050565b634e487b7160e01b600052601160045260246000fd5b600060018201611507576115076114df565b5060010190565b634e487b7160e01b600052601260045260246000fd5b6000826115335761153361150e565b500490565b81810381811115610dd157610dd16114df565b60008261155a5761155a61150e565b500690565b80820180821115610dd157610dd16114df565b634e487b7160e01b600052602160045260246000fd5b6001600160401b038616815260a0602082015260006115aa60a08301876112fb565b61ffff9590951660408301525063ffffffff92909216606083015260809091015292915050565b6000602082840312156115e357600080fd5b5051919050565b8082028115828204841417610dd157610dd16114df565b600181815b8085111561163c578160001904821115611622576116226114df565b8085161561162f57918102915b93841c9390800290611606565b509250929050565b60008261165357506001610dd1565b8161166057506000610dd1565b816001811461167657600281146116805761169c565b6001915050610dd1565b60ff841115611691576116916114df565b50506001821b610dd1565b5060208310610133831016604e8410600b84101617156116bf575081810a610dd1565b6116c98383611601565b80600019048211156116dd576116dd6114df565b029392505050565b6000610f17838361164456fe636f6e73742070726f636f726550726f6a6563744964203d20617267735b305d3b636f6e7374206d696c6573746f6e65496e646578203d20617267735b315d3b636f6e737420726573203d2061776169742046756e6374696f6e732e6d616b654874747052657175657374287b202075726c3a202768747470733a2f2f6275696c646c696e6b2d66726f6e74656e642e76657263656c2e6170702f6170692f70726f636f72652f776562686f6f6b272c20206d6574686f643a2027504f5354272c2020686561646572733a207b2027436f6e74656e742d54797065273a20276170706c69636174696f6e2f6a736f6e27207d2c2020646174613a207b2070726f636f726550726f6a65637449643a2070726f636f726550726f6a65637449642c206d696c6573746f6e65496e6465783a207061727365496e74286d696c6573746f6e65496e64657829207d7d293b696620287265732e6572726f7229207468726f77204572726f722827576562686f6f6b2072657175657374206661696c65643a2027202b207265732e6d657373616765293b636f6e737420737461747573203d207265732e64617461202626207265732e646174612e737461747573203f207265732e646174612e737461747573203a202772656a6563746564273b72657475726e2046756e6374696f6e732e656e636f6465537472696e6728737461747573203d3d3d2027617070726f76656427203f2027617070726f76656427203a202772656a656374656427293ba264697066735822122097845e0e268be5024a6c8dc9e259e41eb966cef24c079373053d45794a1f87fb64736f6c63430008140033",
  "linkReferences": {},
  "deployedLinkReferences": {}
}