{
  "_format": "hh-sol-artifact-1",
  "contractName": "BuildLinkFunctionsConsumer",
  "sourceName": "contracts/BuildLinkFunctionsConsumer.sol",
  "abi": [
    {
      "inputs": [
        {
          "internalType": "address",
          "name": "_admin",
          "type": "address"
        }
      ],
      "stateMutability": "nonpayable",
      "type": "constructor"
    },
    {
      "inputs": [],
      "name": "EmptyArgs",
      "type": "error"
    },
    {
      "inputs": [],
      "name": "EmptySource",
      "type": "error"
    },
    {
      "inputs": [],
      "name": "NoInlineSecrets",
      "type": "error"
    },
    {
      "inputs": [],
      "name": "OnlyAdmin",
      "type": "error"
    },
    {
      "inputs": [],
      "name": "OnlyRouterCanFulfill",
      "type": "error"
    },
    {
      "anonymous": false,
      "inputs": [
        {
          "indexed": true,
          "internalType": "address",
          "name": "vault",
          "type": "address"
        },
        {
          "indexed": true,
          "internalType": "uint256",
          "name": "milestoneIndex",
          "type": "uint256"
        }
      ],
      "name": "MilestoneVerified",
      "type": "event"
    },
    {
      "anonymous": false,
      "inputs": [
        {
          "indexed": true,
          "internalType": "bytes32",
          "name": "requestId",
          "type": "bytes32"
        },
        {
          "indexed": false,
          "internalType": "bytes",
          "name": "response",
          "type": "bytes"
        },
        {
          "indexed": false,
          "internalType": "bytes",
          "name": "err",
          "type": "bytes"
        }
      ],
      "name": "OracleResponse",
      "type": "event"
    },
    {
      "anonymous": false,
      "inputs": [
        {
          "indexed": true,
          "internalType": "bytes32",
          "name": "id",
          "type": "bytes32"
        }
      ],
      "name": "RequestFulfilled",
      "type": "event"
    },
    {
      "anonymous": false,
      "inputs": [
        {
          "indexed": true,
          "internalType": "bytes32",
          "name": "id",
          "type": "bytes32"
        }
      ],
      "name": "RequestSent",
      "type": "event"
    },
    {
      "inputs": [],
      "name": "CALLBACK_GAS_LIMIT",
      "outputs": [
        {
          "internalType": "uint32",
          "name": "",
          "type": "uint32"
        }
      ],
      "stateMutability": "view",
      "type": "function"
    },
    {
      "inputs": [],
      "name": "DON_ID",
      "outputs": [
        {
          "internalType": "bytes32",
          "name": "",
          "type": "bytes32"
        }
      ],
      "stateMutability": "view",
      "type": "function"
    },
    {
      "inputs": [],
      "name": "SUBSCRIPTION_ID",
      "outputs": [
        {
          "internalType": "uint64",
          "name": "",
          "type": "uint64"
        }
      ],
      "stateMutability": "view",
      "type": "function"
    },
    {
      "inputs": [],
      "name": "admin",
      "outputs": [
        {
          "internalType": "address",
          "name": "",
          "type": "address"
        }
      ],
      "stateMutability": "view",
      "type": "function"
    },
    {
      "inputs": [
        {
          "internalType": "bytes32",
          "name": "requestId",
          "type": "bytes32"
        },
        {
          "internalType": "bytes",
          "name": "response",
          "type": "bytes"
        },
        {
          "internalType": "bytes",
          "name": "err",
          "type": "bytes"
        }
      ],
      "name": "handleOracleFulfillment",
      "outputs": [],
      "stateMutability": "nonpayable",
      "type": "function"
    },
    {
      "inputs": [],
      "name": "latestError",
      "outputs": [
        {
          "internalType": "bytes",
          "name": "",
          "type": "bytes"
        }
      ],
      "stateMutability": "view",
      "type": "function"
    },
    {
      "inputs": [],
      "name": "latestRequestId",
      "outputs": [
        {
          "internalType": "bytes32",
          "name": "",
          "type": "bytes32"
        }
      ],
      "stateMutability": "view",
      "type": "function"
    },
    {
      "inputs": [],
      "name": "latestResponse",
      "outputs": [
        {
          "internalType": "bytes",
          "name": "",
          "type": "bytes"
        }
      ],
      "stateMutability": "view",
      "type": "function"
    },
    {
      "inputs": [
        {
          "internalType": "bytes32",
          "name": "",
          "type": "bytes32"
        }
      ],
      "name": "pendingRequests",
      "outputs": [
        {
          "internalType": "address",
          "name": "vault",
          "type": "address"
        },
        {
          "internalType": "uint256",
          "name": "milestoneIndex",
          "type": "uint256"
        }
      ],
      "stateMutability": "view",
      "type": "function"
    },
    {
      "inputs": [
        {
          "internalType": "address",
          "name": "vaultAddress",
          "type": "address"
        },
        {
          "internalType": "uint256",
          "name": "milestoneIndex",
          "type": "uint256"
        },
        {
          "internalType": "string",
          "name": "procoreProjectId",
          "type": "string"
        }
      ],
      "name": "sendRequest",
      "outputs": [
        {
          "internalType": "bytes32",
          "name": "requestId",
          "type": "bytes32"
        }
      ],
      "stateMutability": "nonpayable",
      "type": "function"
    }
  ],
  "bytecode": "0x60c060405234801561001057600080fd5b506040516119b73803806119b783398101604081905261002f916100a2565b73f9b8fc078197181c841c296c876945aaa425b2786080526001600160a01b0381166100915760405162461bcd60e51b815260206004820152600d60248201526c24b73b30b634b21030b236b4b760991b604482015260640160405180910390fd5b6001600160a01b031660a0526100d2565b6000602082840312156100b457600080fd5b81516001600160a01b03811681146100cb57600080fd5b9392505050565b60805160a0516118b2610105600039600081816101ae01526102810152600081816101fb0152610aaa01526118b26000f3fe608060405234801561001057600080fd5b506004361061009e5760003560e01c80632795ad20116100665780632795ad201461012357806333d608f114610175578063bef3a2f014610194578063f851a440146101a9578063fffeb84e146101e857600080fd5b8063030932bb146100a35780630ca76175146100c85780630cde9f3c146100dd5780631aa46f59146101075780631b1f5c2414610110575b600080fd5b6100ab608f81565b6040516001600160401b0390911681526020015b60405180910390f35b6100db6100d6366004611141565b6101f0565b005b6100f97166756e2d626173652d6d61696e6e65742d3160701b81565b6040519081526020016100bf565b6100f960015481565b6100f961011e3660046111ad565b610274565b610156610131366004611241565b600060208190529081526040902080546001909101546001600160a01b039091169082565b604080516001600160a01b0390931683526020830191909152016100bf565b61017f620493e081565b60405163ffffffff90911681526020016100bf565b61019c6104a8565b6040516100bf91906112a0565b6101d07f000000000000000000000000000000000000000000000000000000000000000081565b6040516001600160a01b0390911681526020016100bf565b61019c610536565b336001600160a01b037f000000000000000000000000000000000000000000000000000000000000000016146102395760405163c6829f8360e01b815260040160405180910390fd5b610244838383610543565b60405183907f85e1543bf2f84fe80c6badbce3648c8539ad1df4d2b3d822938ca0538be727e690600090a2505050565b6000336001600160a01b037f000000000000000000000000000000000000000000000000000000000000000016146102bf57604051634755657960e01b815260040160405180910390fd5b6001600160a01b0385166103095760405162461bcd60e51b815260206004820152600d60248201526c125b9d985b1a59081d985d5b1d609a1b604482015260640160405180910390fd5b61034a6040805160e0810190915280600081526020016000815260200160008152602001606081526020016060815260200160608152602001606081525090565b61037060405180610260016040528061022c815260200161165161022c9139829061068a565b60408051600280825260608201909252600091816020015b606081526020019060019003908161038857905050905084848080601f01602080910402602001604051908101604052809392919081815260200183838082843760009201829052508551869450909250151590506103e9576103e96112b3565b60200260200101819052506103fd8661069b565b81600181518110610410576104106112b3565b602090810291909101015261042582826107a3565b610452610431836107cd565b608f620493e07166756e2d626173652d6d61696e6e65742d3160701b610aa5565b6040805180820182526001600160a01b03998a1681526020808201998a5260008481529081905291909120905181546001600160a01b031916991698909817885595516001978801555050509282905550919050565b600280546104b5906112c9565b80601f01602080910402602001604051908101604052809291908181526020018280546104e1906112c9565b801561052e5780601f106105035761010080835404028352916020019161052e565b820191906000526020600020905b81548152906001019060200180831161051157829003601f168201915b505050505081565b600380546104b5906112c9565b600261054f8382611351565b50600361055c8282611351565b50827fa676854a79f96561744d5f417f3f050b4e3590ddc0f25140205c77f69d1daee9838360405161058f929190611410565b60405180910390a280511580156105ea5750604080518082019091526008815267185c1c1c9bdd995960c21b6020918201528251908301207f2b29265fc125740ae6bbc5035ae7af720b6932f4a3e44ba5ac02955c21ca9a05145b156106665760008381526020818152604091829020825180840190935280546001600160a01b0316808452600190910154918301919091521561066457602081015181516040516001600160a01b03909116907f4633ed43e960eab00c94e71920ad1775bd86ec373f63649db940d18a424de79690600090a35b505b5050600090815260208190526040812080546001600160a01b031916815560010155565b6106978260008084610b77565b5050565b6060816000036106c25750506040805180820190915260018152600360fc1b602082015290565b8160005b81156106ec57806106d681611454565b91506106e59050600a83611483565b91506106c6565b6000816001600160401b038111156107065761070661109f565b6040519080825280601f01601f191660200182016040528015610730576020820181803683370190505b5090505b841561079b57610745600183611497565b9150610752600a866114aa565b61075d9060306114be565b60f81b818381518110610772576107726112b3565b60200101906001600160f81b031916908160001a905350610794600a86611483565b9450610734565b949350505050565b80516000036107c55760405163fe936cb760e01b815260040160405180910390fd5b60a090910152565b606060006107dc610100610bf5565b90506108156040518060400160405280600c81526020016b31b7b232a637b1b0ba34b7b760a11b81525082610c1690919063ffffffff16565b825161083390600281111561082c5761082c6114d1565b8290610c34565b6040805180820190915260088152676c616e677561676560c01b602082015261085d908290610c16565b604083015161087490801561082c5761082c6114d1565b604080518082019091526006815265736f7572636560d01b602082015261089c908290610c16565b60608301516108ac908290610c16565b60a08301515115610940576040805180820190915260048152636172677360e01b60208201526108dd908290610c16565b6108e681610c6d565b60005b8360a0015151811015610936576109268460a00151828151811061090f5761090f6112b3565b602002602001015183610c1690919063ffffffff16565b61092f81611454565b90506108e9565b5061094081610c91565b60808301515115610a0457600083602001516002811115610963576109636114d1565b036109815760405163a80d31f760e01b815260040160405180910390fd5b60408051808201909152600f81526e39b2b1b932ba39a637b1b0ba34b7b760891b60208201526109b2908290610c16565b6109cb8360200151600281111561082c5761082c6114d1565b6040805180820190915260078152667365637265747360c81b60208201526109f4908290610c16565b6080830151610a04908290610caf565b60c08301515115610a9d5760408051808201909152600981526862797465734172677360b81b6020820152610a3a908290610c16565b610a4381610c6d565b60005b8360c0015151811015610a9357610a838460c001518281518110610a6c57610a6c6112b3565b602002602001015183610caf90919063ffffffff16565b610a8c81611454565b9050610a46565b50610a9d81610c91565b515192915050565b6000807f00000000000000000000000000000000000000000000000000000000000000006001600160a01b031663461d27628688600188886040518663ffffffff1660e01b8152600401610afd9594939291906114e7565b6020604051808303816000875af1158015610b1c573d6000803e3d6000fd5b505050506040513d601f19601f82011682018060405250810190610b409190611530565b60405190915081907f1131472297a800fee664d1d89cfa8f7676ff07189ecc53f80bbb5f4969099db890600090a295945050505050565b8051600003610b99576040516322ce3edd60e01b815260040160405180910390fd5b83836002811115610bac57610bac6114d1565b90816002811115610bbf57610bbf6114d1565b90525060408401828015610bd557610bd56114d1565b90818015610be557610be56114d1565b9052506060909301929092525050565b610bfd61106a565b8051610c099083610cbc565b5060006020820152919050565b610c238260038351610d36565b8151610c2f9082610e55565b505050565b8151610c419060c2610e7d565b506106978282604051602001610c5991815260200190565b604051602081830303815290604052610caf565b610c78816004610ee6565b600181602001818151610c8b91906114be565b90525050565b610c9c816007610ee6565b600181602001818151610c8b9190611497565b610c238260028351610d36565b604080518082019091526060815260006020820152610cdc6020836114aa565b15610d0457610cec6020836114aa565b610cf7906020611497565b610d0190836114be565b91505b602080840183905260405180855260008152908184010181811015610d2857600080fd5b604052508290505b92915050565b6017816001600160401b031611610d62578251610d5c9060e0600585901b168317610e7d565b50505050565b60ff816001600160401b031611610da2578251610d8a906018611fe0600586901b1617610e7d565b508251610d5c906001600160401b0383166001610efd565b61ffff816001600160401b031611610de3578251610dcb906019611fe0600586901b1617610e7d565b508251610d5c906001600160401b0383166002610efd565b63ffffffff816001600160401b031611610e26578251610e0e90601a611fe0600586901b1617610e7d565b508251610d5c906001600160401b0383166004610efd565b8251610e3d90601b611fe0600586901b1617610e7d565b508251610d5c906001600160401b0383166008610efd565b604080518082019091526060815260006020820152610e7683838451610f82565b9392505050565b6040805180820190915260608152600060208201528251516000610ea28260016114be565b905084602001518210610ec357610ec385610ebe836002611549565b611053565b8451602083820101858153508051821115610edc578181525b5093949350505050565b8151610c2f90601f611fe0600585901b1617610e7d565b6040805180820190915260608152600060208201528351516000610f2182856114be565b90508560200151811115610f3e57610f3e86610ebe836002611549565b60006001610f4e86610100611644565b610f589190611497565b90508651828101878319825116178152508051831115610f76578281525b50959695505050505050565b6040805180820190915260608152600060208201528251821115610fa557600080fd5b8351516000610fb484836114be565b90508560200151811115610fd157610fd186610ebe836002611549565b855180518382016020019160009180851115610feb578482525b505050602086015b6020861061102b578051825261100a6020836114be565b91506110176020826114be565b9050611024602087611497565b9550610ff3565b51815160001960208890036101000a0190811690199190911617905250849150509392505050565b815161105f8383610cbc565b50610d5c8382610e55565b6040518060400160405280611092604051806040016040528060608152602001600081525090565b8152602001600081525090565b634e487b7160e01b600052604160045260246000fd5b600082601f8301126110c657600080fd5b81356001600160401b03808211156110e0576110e061109f565b604051601f8301601f19908116603f011681019082821181831017156111085761110861109f565b8160405283815286602085880101111561112157600080fd5b836020870160208301376000602085830101528094505050505092915050565b60008060006060848603121561115657600080fd5b8335925060208401356001600160401b038082111561117457600080fd5b611180878388016110b5565b9350604086013591508082111561119657600080fd5b506111a3868287016110b5565b9150509250925092565b600080600080606085870312156111c357600080fd5b84356001600160a01b03811681146111da57600080fd5b93506020850135925060408501356001600160401b03808211156111fd57600080fd5b818701915087601f83011261121157600080fd5b81358181111561122057600080fd5b88602082850101111561123257600080fd5b95989497505060200194505050565b60006020828403121561125357600080fd5b5035919050565b6000815180845260005b8181101561128057602081850181015186830182015201611264565b506000602082860101526020601f19601f83011685010191505092915050565b602081526000610e76602083018461125a565b634e487b7160e01b600052603260045260246000fd5b600181811c908216806112dd57607f821691505b6020821081036112fd57634e487b7160e01b600052602260045260246000fd5b50919050565b601f821115610c2f57600081815260208120601f850160051c8101602086101561132a5750805b601f850160051c820191505b8181101561134957828155600101611336565b505050505050565b81516001600160401b0381111561136a5761136a61109f565b61137e8161137884546112c9565b84611303565b602080601f8311600181146113b3576000841561139b5750858301515b600019600386901b1c1916600185901b178555611349565b600085815260208120601f198616915b828110156113e2578886015182559484019460019091019084016113c3565b50858210156114005787850151600019600388901b60f8161c191681555b5050505050600190811b01905550565b604081526000611423604083018561125a565b8281036020840152611435818561125a565b95945050505050565b634e487b7160e01b600052601160045260246000fd5b6000600182016114665761146661143e565b5060010190565b634e487b7160e01b600052601260045260246000fd5b6000826114925761149261146d565b500490565b81810381811115610d3057610d3061143e565b6000826114b9576114b961146d565b500690565b80820180821115610d3057610d3061143e565b634e487b7160e01b600052602160045260246000fd5b6001600160401b038616815260a06020820152600061150960a083018761125a565b61ffff9590951660408301525063ffffffff92909216606083015260809091015292915050565b60006020828403121561154257600080fd5b5051919050565b8082028115828204841417610d3057610d3061143e565b600181815b8085111561159b5781600019048211156115815761158161143e565b8085161561158e57918102915b93841c9390800290611565565b509250929050565b6000826115b257506001610d30565b816115bf57506000610d30565b81600181146115d557600281146115df576115fb565b6001915050610d30565b60ff8411156115f0576115f061143e565b50506001821b610d30565b5060208310610133831016604e8410600b841016171561161e575081810a610d30565b6116288383611560565b806000190482111561163c5761163c61143e565b029392505050565b6000610e7683836115a356fe636f6e73742070726f636f726550726f6a6563744964203d20617267735b305d3b636f6e7374206d696c6573746f6e65496e646578203d20617267735b315d3b636f6e737420726573203d2061776169742046756e6374696f6e732e6d616b654874747052657175657374287b202075726c3a202768747470733a2f2f6275696c646c696e6b2d66726f6e74656e642e76657263656c2e6170702f6170692f70726f636f72652f776562686f6f6b272c20206d6574686f643a2027504f5354272c2020686561646572733a207b2027436f6e74656e742d54797065273a20276170706c69636174696f6e2f6a736f6e27207d2c2020646174613a207b2070726f636f726550726f6a65637449643a2070726f636f726550726f6a65637449642c206d696c6573746f6e65496e6465783a207061727365496e74286d696c6573746f6e65496e64657829207d7d293b696620287265732e6572726f7229207468726f77204572726f722827576562686f6f6b2072657175657374206661696c65643a2027202b207265732e6d657373616765293b636f6e737420737461747573203d207265732e64617461202626207265732e646174612e737461747573203f207265732e646174612e737461747573203a202772656a6563746564273b72657475726e2046756e6374696f6e732e656e636f6465537472696e6728737461747573203d3d3d2027617070726f76656427203f2027617070726f76656427203a202772656a656374656427293ba26469706673582212201b7c216ac542cd4840a754a86ba7d29aec6f0959eb6da0e328630cdfd9267cab64736f6c63430008140033",
  "linkReferences": {},
  "deployedLinkReferences": {}
}