{
  "_format": "hh-sol-artifact-1",
  "contractName": "BuildLinkFunctionsConsumer",
  "sourceName": "contracts/BuildLinkFunctionsConsumer.sol",
  "abi": [
    {
      "inputs": [
        {
          "internalType": "address",
          "name": "_admin",
          "type": "address"
        }
      ],
      "stateMutability": "nonpayable",
      "type": "constructor"
    },
    {
      "inputs": [],
      "name": "EmptyArgs",
      "type": "error"
    },
    {
      "inputs": [],
      "name": "EmptySource",
      "type": "error"
    },
    {
      "inputs": [],
      "name": "NoInlineSecrets",
      "type": "error"
    },
    {
      "inputs": [],
      "name": "OnlyAdmin",
      "type": "error"
    },
    {
      "inputs": [],
      "name": "OnlyRouterCanFulfill",
      "type": "error"
    },
    {
      "anonymous": false,
      "inputs": [
        {
          "indexed": true,
          "internalType": "address",
          "name": "vault",
          "type": "address"
        },
        {
          "indexed": true,
          "internalType": "uint256",
          "name": "milestoneIndex",
          "type": "uint256"
        }
      ],
      "name": "ApprovalFailed",
      "type": "event"
    },
    {
      "anonymous": false,
      "inputs": [
        {
          "indexed": true,
          "internalType": "address",
          "name": "vault",
          "type": "address"
        },
        {
          "indexed": true,
          "internalType": "uint256",
          "name": "milestoneIndex",
          "type": "uint256"
        }
      ],
      "name": "MilestoneVerified",
      "type": "event"
    },
    {
      "anonymous": false,
      "inputs": [
        {
          "indexed": true,
          "internalType": "bytes32",
          "name": "requestId",
          "type": "bytes32"
        },
        {
          "indexed": false,
          "internalType": "bytes",
          "name": "response",
          "type": "bytes"
        },
        {
          "indexed": false,
          "internalType": "bytes",
          "name": "err",
          "type": "bytes"
        }
      ],
      "name": "OracleResponse",
      "type": "event"
    },
    {
      "anonymous": false,
      "inputs": [
        {
          "indexed": true,
          "internalType": "bytes32",
          "name": "id",
          "type": "bytes32"
        }
      ],
      "name": "RequestFulfilled",
      "type": "event"
    },
    {
      "anonymous": false,
      "inputs": [
        {
          "indexed": true,
          "internalType": "bytes32",
          "name": "id",
          "type": "bytes32"
        }
      ],
      "name": "RequestSent",
      "type": "event"
    },
    {
      "inputs": [],
      "name": "CALLBACK_GAS_LIMIT",
      "outputs": [
        {
          "internalType": "uint32",
          "name": "",
          "type": "uint32"
        }
      ],
      "stateMutability": "view",
      "type": "function"
    },
    {
      "inputs": [],
      "name": "DON_ID",
      "outputs": [
        {
          "internalType": "bytes32",
          "name": "",
          "type": "bytes32"
        }
      ],
      "stateMutability": "view",
      "type": "function"
    },
    {
      "inputs": [],
      "name": "SUBSCRIPTION_ID",
      "outputs": [
        {
          "internalType": "uint64",
          "name": "",
          "type": "uint64"
        }
      ],
      "stateMutability": "view",
      "type": "function"
    },
    {
      "inputs": [],
      "name": "admin",
      "outputs": [
        {
          "internalType": "address",
          "name": "",
          "type": "address"
        }
      ],
      "stateMutability": "view",
      "type": "function"
    },
    {
      "inputs": [
        {
          "internalType": "bytes32",
          "name": "requestId",
          "type": "bytes32"
        },
        {
          "internalType": "bytes",
          "name": "response",
          "type": "bytes"
        },
        {
          "internalType": "bytes",
          "name": "err",
          "type": "bytes"
        }
      ],
      "name": "handleOracleFulfillment",
      "outputs": [],
      "stateMutability": "nonpayable",
      "type": "function"
    },
    {
      "inputs": [],
      "name": "latestError",
      "outputs": [
        {
          "internalType": "bytes",
          "name": "",
          "type": "bytes"
        }
      ],
      "stateMutability": "view",
      "type": "function"
    },
    {
      "inputs": [],
      "name": "latestRequestId",
      "outputs": [
        {
          "internalType": "bytes32",
          "name": "",
          "type": "bytes32"
        }
      ],
      "stateMutability": "view",
      "type": "function"
    },
    {
      "inputs": [],
      "name": "latestResponse",
      "outputs": [
        {
          "internalType": "bytes",
          "name": "",
          "type": "bytes"
        }
      ],
      "stateMutability": "view",
      "type": "function"
    },
    {
      "inputs": [
        {
          "internalType": "bytes32",
          "name": "",
          "type": "bytes32"
        }
      ],
      "name": "pendingRequests",
      "outputs": [
        {
          "internalType": "address",
          "name": "vault",
          "type": "address"
        },
        {
          "internalType": "uint256",
          "name": "milestoneIndex",
          "type": "uint256"
        }
      ],
      "stateMutability": "view",
      "type": "function"
    },
    {
      "inputs": [
        {
          "internalType": "address",
          "name": "vaultAddress",
          "type": "address"
        },
        {
          "internalType": "uint256",
          "name": "milestoneIndex",
          "type": "uint256"
        },
        {
          "internalType": "string",
          "name": "procoreProjectId",
          "type": "string"
        },
        {
          "internalType": "string",
          "name": "proofHash",
          "type": "string"
        }
      ],
      "name": "sendRequest",
      "outputs": [
        {
          "internalType": "bytes32",
          "name": "requestId",
          "type": "bytes32"
        }
      ],
      "stateMutability": "nonpayable",
      "type": "function"
    }
  ],
  "bytecode": "0x60c060405234801561001057600080fd5b50604051611bf3380380611bf383398101604081905261002f916100a2565b73f9b8fc078197181c841c296c876945aaa425b2786080526001600160a01b0381166100915760405162461bcd60e51b815260206004820152600d60248201526c24b73b30b634b21030b236b4b760991b604482015260640160405180910390fd5b6001600160a01b031660a0526100d2565b6000602082840312156100b457600080fd5b81516001600160a01b03811681146100cb57600080fd5b9392505050565b60805160a051611aee610105600039600081816101ae015261035a0152600081816101fb0152610c420152611aee6000f3fe608060405234801561001057600080fd5b506004361061009e5760003560e01c806333d608f11161006657806333d608f114610162578063bef3a2f014610181578063de20060d14610196578063f851a440146101a9578063fffeb84e146101e857600080fd5b8063030932bb146100a35780630ca76175146100c85780630cde9f3c146100dd5780631aa46f59146101075780632795ad2014610110575b600080fd5b6100ab608f81565b6040516001600160401b0390911681526020015b60405180910390f35b6100db6100d63660046112d9565b6101f0565b005b6100f97166756e2d626173652d6d61696e6e65742d3160701b81565b6040519081526020016100bf565b6100f960015481565b61014361011e366004611345565b600060208190529081526040902080546001909101546001600160a01b039091169082565b604080516001600160a01b0390931683526020830191909152016100bf565b61016c620493e081565b60405163ffffffff90911681526020016100bf565b610189610274565b6040516100bf91906113a4565b6100f96101a4366004611417565b610302565b6101d07f000000000000000000000000000000000000000000000000000000000000000081565b6040516001600160a01b0390911681526020016100bf565b61018961062d565b336001600160a01b037f000000000000000000000000000000000000000000000000000000000000000016146102395760405163c6829f8360e01b815260040160405180910390fd5b61024483838361063a565b60405183907f85e1543bf2f84fe80c6badbce3648c8539ad1df4d2b3d822938ca0538be727e690600090a2505050565b60028054610281906114a2565b80601f01602080910402602001604051908101604052809291908181526020018280546102ad906114a2565b80156102fa5780601f106102cf576101008083540402835291602001916102fa565b820191906000526020600020905b8154815290600101906020018083116102dd57829003601f168201915b505050505081565b60006001600160a01b03871661034f5760405162461bcd60e51b815260206004820152600d60248201526c125b9d985b1a59081d985d5b1d609a1b60448201526064015b60405180910390fd5b336001600160a01b037f00000000000000000000000000000000000000000000000000000000000000001614806103f85750336001600160a01b0316876001600160a01b031663ca4b208b6040518163ffffffff1660e01b8152600401602060405180830381865afa1580156103c9573d6000803e3d6000fd5b505050506040513d601f19601f820116820180604052508101906103ed91906114dc565b6001600160a01b0316145b6104355760405162461bcd60e51b815260206004820152600e60248201526d139bdd08185d5d1a1bdc9a5e995960921b6044820152606401610346565b6104766040805160e0810190915280600081526020016000815260200160008152602001606081526020016060815260200160608152602001606081525090565b61049c60405180610280016040528061025c815260200161185d61025c91398290610822565b60408051600380825260808201909252600091816020015b60608152602001906001900390816104b457905050905086868080601f0160208091040260200160405190810160405280939291908181526020018383808284376000920182905250855186945090925015159050610515576105156114f9565b602002602001018190525061052988610833565b8160018151811061053c5761053c6114f9565b602002602001018190525084848080601f016020809104026020016040519081016040528093929190818152602001838380828437600092019190915250508351849250600291508110610592576105926114f9565b60209081029190910101526105a7828261093b565b6105d46105b383610965565b608f620493e07166756e2d626173652d6d61696e6e65742d3160701b610c3d565b6040805180820182526001600160a01b039b8c16815260208082019b8c5260008481529081905291909120905181546001600160a01b0319169b169a909a178a5597516001998a01555050509484905550919392505050565b60038054610281906114a2565b6002610646838261155d565b506003610653828261155d565b50827fa676854a79f96561744d5f417f3f050b4e3590ddc0f25140205c77f69d1daee9838360405161068692919061161c565b60405180910390a280511580156106e15750604080518082019091526008815267185c1c1c9bdd995960c21b6020918201528251908301207f2b29265fc125740ae6bbc5035ae7af720b6932f4a3e44ba5ac02955c21ca9a05145b156107fe5760008381526020818152604091829020825180840190935280546001600160a01b031680845260019091015491830191909152156107fc57602081015181516040516001600160a01b03909116907f4633ed43e960eab00c94e71920ad1775bd86ec373f63649db940d18a424de79690600090a38051602082015160405163c438b40f60e01b81526001600160a01b039092169163c438b40f916107909160040190815260200190565b600060405180830381600087803b1580156107aa57600080fd5b505af19250505080156107bb575060015b6107fc57602081015181516040516001600160a01b03909116907f8bcfaecc80bd05f8635fa1b1446e0f622abffe311dabb5b372ee72876d2c8cd290600090a35b505b5050600090815260208190526040812080546001600160a01b031916815560010155565b61082f8260008084610d0f565b5050565b60608160000361085a5750506040805180820190915260018152600360fc1b602082015290565b8160005b8115610884578061086e81611660565b915061087d9050600a8361168f565b915061085e565b6000816001600160401b0381111561089e5761089e611237565b6040519080825280601f01601f1916602001820160405280156108c8576020820181803683370190505b5090505b8415610933576108dd6001836116a3565b91506108ea600a866116b6565b6108f59060306116ca565b60f81b81838151811061090a5761090a6114f9565b60200101906001600160f81b031916908160001a90535061092c600a8661168f565b94506108cc565b949350505050565b805160000361095d5760405163fe936cb760e01b815260040160405180910390fd5b60a090910152565b60606000610974610100610d8d565b90506109ad6040518060400160405280600c81526020016b31b7b232a637b1b0ba34b7b760a11b81525082610dae90919063ffffffff16565b82516109cb9060028111156109c4576109c46116dd565b8290610dcc565b6040805180820190915260088152676c616e677561676560c01b60208201526109f5908290610dae565b6040830151610a0c9080156109c4576109c46116dd565b604080518082019091526006815265736f7572636560d01b6020820152610a34908290610dae565b6060830151610a44908290610dae565b60a08301515115610ad8576040805180820190915260048152636172677360e01b6020820152610a75908290610dae565b610a7e81610e05565b60005b8360a0015151811015610ace57610abe8460a001518281518110610aa757610aa76114f9565b602002602001015183610dae90919063ffffffff16565b610ac781611660565b9050610a81565b50610ad881610e29565b60808301515115610b9c57600083602001516002811115610afb57610afb6116dd565b03610b195760405163a80d31f760e01b815260040160405180910390fd5b60408051808201909152600f81526e39b2b1b932ba39a637b1b0ba34b7b760891b6020820152610b4a908290610dae565b610b63836020015160028111156109c4576109c46116dd565b6040805180820190915260078152667365637265747360c81b6020820152610b8c908290610dae565b6080830151610b9c908290610e47565b60c08301515115610c355760408051808201909152600981526862797465734172677360b81b6020820152610bd2908290610dae565b610bdb81610e05565b60005b8360c0015151811015610c2b57610c1b8460c001518281518110610c0457610c046114f9565b602002602001015183610e4790919063ffffffff16565b610c2481611660565b9050610bde565b50610c3581610e29565b515192915050565b6000807f00000000000000000000000000000000000000000000000000000000000000006001600160a01b031663461d27628688600188886040518663ffffffff1660e01b8152600401610c959594939291906116f3565b6020604051808303816000875af1158015610cb4573d6000803e3d6000fd5b505050506040513d601f19601f82011682018060405250810190610cd8919061173c565b60405190915081907f1131472297a800fee664d1d89cfa8f7676ff07189ecc53f80bbb5f4969099db890600090a295945050505050565b8051600003610d31576040516322ce3edd60e01b815260040160405180910390fd5b83836002811115610d4457610d446116dd565b90816002811115610d5757610d576116dd565b90525060408401828015610d6d57610d6d6116dd565b90818015610d7d57610d7d6116dd565b9052506060909301929092525050565b610d95611202565b8051610da19083610e54565b5060006020820152919050565b610dbb8260038351610ece565b8151610dc79082610fed565b505050565b8151610dd99060c2611015565b5061082f8282604051602001610df191815260200190565b604051602081830303815290604052610e47565b610e1081600461107e565b600181602001818151610e2391906116ca565b90525050565b610e3481600761107e565b600181602001818151610e2391906116a3565b610dbb8260028351610ece565b604080518082019091526060815260006020820152610e746020836116b6565b15610e9c57610e846020836116b6565b610e8f9060206116a3565b610e9990836116ca565b91505b602080840183905260405180855260008152908184010181811015610ec057600080fd5b604052508290505b92915050565b6017816001600160401b031611610efa578251610ef49060e0600585901b168317611015565b50505050565b60ff816001600160401b031611610f3a578251610f22906018611fe0600586901b1617611015565b508251610ef4906001600160401b0383166001611095565b61ffff816001600160401b031611610f7b578251610f63906019611fe0600586901b1617611015565b508251610ef4906001600160401b0383166002611095565b63ffffffff816001600160401b031611610fbe578251610fa690601a611fe0600586901b1617611015565b508251610ef4906001600160401b0383166004611095565b8251610fd590601b611fe0600586901b1617611015565b508251610ef4906001600160401b0383166008611095565b60408051808201909152606081526000602082015261100e8383845161111a565b9392505050565b604080518082019091526060815260006020820152825151600061103a8260016116ca565b90508460200151821061105b5761105b85611056836002611755565b6111eb565b8451602083820101858153508051821115611074578181525b5093949350505050565b8151610dc790601f611fe0600585901b1617611015565b60408051808201909152606081526000602082015283515160006110b982856116ca565b905085602001518111156110d6576110d686611056836002611755565b600060016110e686610100611850565b6110f091906116a3565b9050865182810187831982511617815250805183111561110e578281525b50959695505050505050565b604080518082019091526060815260006020820152825182111561113d57600080fd5b835151600061114c84836116ca565b905085602001518111156111695761116986611056836002611755565b855180518382016020019160009180851115611183578482525b505050602086015b602086106111c357805182526111a26020836116ca565b91506111af6020826116ca565b90506111bc6020876116a3565b955061118b565b51815160001960208890036101000a0190811690199190911617905250849150509392505050565b81516111f78383610e54565b50610ef48382610fed565b604051806040016040528061122a604051806040016040528060608152602001600081525090565b8152602001600081525090565b634e487b7160e01b600052604160045260246000fd5b600082601f83011261125e57600080fd5b81356001600160401b038082111561127857611278611237565b604051601f8301601f19908116603f011681019082821181831017156112a0576112a0611237565b816040528381528660208588010111156112b957600080fd5b836020870160208301376000602085830101528094505050505092915050565b6000806000606084860312156112ee57600080fd5b8335925060208401356001600160401b038082111561130c57600080fd5b6113188783880161124d565b9350604086013591508082111561132e57600080fd5b5061133b8682870161124d565b9150509250925092565b60006020828403121561135757600080fd5b5035919050565b6000815180845260005b8181101561138457602081850181015186830182015201611368565b506000602082860101526020601f19601f83011685010191505092915050565b60208152600061100e602083018461135e565b6001600160a01b03811681146113cc57600080fd5b50565b60008083601f8401126113e157600080fd5b5081356001600160401b038111156113f857600080fd5b60208301915083602082850101111561141057600080fd5b9250929050565b6000806000806000806080878903121561143057600080fd5b863561143b816113b7565b95506020870135945060408701356001600160401b038082111561145e57600080fd5b61146a8a838b016113cf565b9096509450606089013591508082111561148357600080fd5b5061149089828a016113cf565b979a9699509497509295939492505050565b600181811c908216806114b657607f821691505b6020821081036114d657634e487b7160e01b600052602260045260246000fd5b50919050565b6000602082840312156114ee57600080fd5b815161100e816113b7565b634e487b7160e01b600052603260045260246000fd5b601f821115610dc757600081815260208120601f850160051c810160208610156115365750805b601f850160051c820191505b8181101561155557828155600101611542565b505050505050565b81516001600160401b0381111561157657611576611237565b61158a8161158484546114a2565b8461150f565b602080601f8311600181146115bf57600084156115a75750858301515b600019600386901b1c1916600185901b178555611555565b600085815260208120601f198616915b828110156115ee578886015182559484019460019091019084016115cf565b508582101561160c5787850151600019600388901b60f8161c191681555b5050505050600190811b01905550565b60408152600061162f604083018561135e565b8281036020840152611641818561135e565b95945050505050565b634e487b7160e01b600052601160045260246000fd5b6000600182016116725761167261164a565b5060010190565b634e487b7160e01b600052601260045260246000fd5b60008261169e5761169e611679565b500490565b81810381811115610ec857610ec861164a565b6000826116c5576116c5611679565b500690565b80820180821115610ec857610ec861164a565b634e487b7160e01b600052602160045260246000fd5b6001600160401b038616815260a06020820152600061171560a083018761135e565b61ffff9590951660408301525063ffffffff92909216606083015260809091015292915050565b60006020828403121561174e57600080fd5b5051919050565b8082028115828204841417610ec857610ec861164a565b600181815b808511156117a757816000190482111561178d5761178d61164a565b8085161561179a57918102915b93841c9390800290611771565b509250929050565b6000826117be57506001610ec8565b816117cb57506000610ec8565b81600181146117e157600281146117eb57611807565b6001915050610ec8565b60ff8411156117fc576117fc61164a565b50506001821b610ec8565b5060208310610133831016604e8410600b841016171561182a575081810a610ec8565b611834838361176c565b80600019048211156118485761184861164a565b029392505050565b600061100e83836117af56fe636f6e73742070726f636f726550726f6a6563744964203d20617267735b305d3b636f6e7374206d696c6573746f6e65496e646578203d20617267735b315d3b636f6e73742070726f6f6648617368203d20617267735b325d3b636f6e737420726573203d2061776169742046756e6374696f6e732e6d616b654874747052657175657374287b202075726c3a202768747470733a2f2f6275696c646c696e6b2d66726f6e74656e642e76657263656c2e6170702f6170692f70726f636f72652f776562686f6f6b272c20206d6574686f643a2027504f5354272c2020686561646572733a207b2027436f6e74656e742d54797065273a20276170706c69636174696f6e2f6a736f6e27207d2c2020646174613a207b2070726f636f726550726f6a65637449643a2070726f636f726550726f6a65637449642c206d696c6573746f6e65496e6465783a207061727365496e74286d696c6573746f6e65496e646578292c2070726f6f66486173683a2070726f6f6648617368207d7d293b696620287265732e6572726f7229207468726f77204572726f722827576562686f6f6b2072657175657374206661696c65643a2027202b207265732e6d657373616765293b636f6e737420737461747573203d207265732e64617461202626207265732e646174612e737461747573203f207265732e646174612e737461747573203a202772656a6563746564273b72657475726e2046756e6374696f6e732e656e636f6465537472696e6728737461747573203d3d3d2027617070726f76656427203f2027617070726f76656427203a202772656a656374656427293ba264697066735822122074e042ad3ecf7da488dffe7e96d07da847faaecd64457269b12fae4f1d99d4a264736f6c63430008140033",
  "linkReferences": {},
  "deployedLinkReferences": {}
}