{
  "_format": "hh-sol-artifact-1",
  "contractName": "EscrowVaultUSDC",
  "sourceName": "contracts/EscrowVaultUSDC.sol",
  "abi": [
    {
      "inputs": [
        {
          "internalType": "address",
          "name": "_usdc",
          "type": "address"
        },
        {
          "internalType": "address",
          "name": "_contractor",
          "type": "address"
        },
        {
          "internalType": "uint256",
          "name": "_retainageBps",
          "type": "uint256"
        },
        {
          "internalType": "uint256",
          "name": "_retainageReleaseThresholdBps",
          "type": "uint256"
        }
      ],
      "stateMutability": "nonpayable",
      "type": "constructor"
    },
    {
      "anonymous": false,
      "inputs": [
        {
          "indexed": true,
          "internalType": "address",
          "name": "from",
          "type": "address"
        },
        {
          "indexed": false,
          "internalType": "uint256",
          "name": "amount",
          "type": "uint256"
        }
      ],
      "name": "Funded",
      "type": "event"
    },
    {
      "anonymous": false,
      "inputs": [
        {
          "indexed": true,
          "internalType": "uint256",
          "name": "milestoneId",
          "type": "uint256"
        }
      ],
      "name": "MilestoneApproved",
      "type": "event"
    },
    {
      "anonymous": false,
      "inputs": [
        {
          "indexed": true,
          "internalType": "uint256",
          "name": "milestoneId",
          "type": "uint256"
        },
        {
          "indexed": false,
          "internalType": "uint256",
          "name": "amount",
          "type": "uint256"
        },
        {
          "indexed": false,
          "internalType": "uint256",
          "name": "netPayable",
          "type": "uint256"
        }
      ],
      "name": "MilestoneCreated",
      "type": "event"
    },
    {
      "anonymous": false,
      "inputs": [
        {
          "indexed": true,
          "internalType": "uint256",
          "name": "milestoneId",
          "type": "uint256"
        },
        {
          "indexed": false,
          "internalType": "string",
          "name": "reason",
          "type": "string"
        }
      ],
      "name": "MilestoneDisputed",
      "type": "event"
    },
    {
      "anonymous": false,
      "inputs": [
        {
          "indexed": true,
          "internalType": "uint256",
          "name": "milestoneId",
          "type": "uint256"
        },
        {
          "indexed": false,
          "internalType": "uint256",
          "name": "netAmount",
          "type": "uint256"
        },
        {
          "indexed": false,
          "internalType": "uint256",
          "name": "retainageAmount",
          "type": "uint256"
        }
      ],
      "name": "MilestonePaid",
      "type": "event"
    },
    {
      "anonymous": false,
      "inputs": [
        {
          "indexed": true,
          "internalType": "uint256",
          "name": "milestoneId",
          "type": "uint256"
        },
        {
          "indexed": false,
          "internalType": "bytes32",
          "name": "proofHash",
          "type": "bytes32"
        }
      ],
      "name": "MilestoneSubmitted",
      "type": "event"
    },
    {
      "anonymous": false,
      "inputs": [
        {
          "indexed": false,
          "internalType": "uint256",
          "name": "amount",
          "type": "uint256"
        }
      ],
      "name": "RetainageReleased",
      "type": "event"
    },
    {
      "inputs": [
        {
          "internalType": "uint256",
          "name": "milestoneId",
          "type": "uint256"
        }
      ],
      "name": "approveMilestone",
      "outputs": [],
      "stateMutability": "nonpayable",
      "type": "function"
    },
    {
      "inputs": [],
      "name": "contractor",
      "outputs": [
        {
          "internalType": "address",
          "name": "",
          "type": "address"
        }
      ],
      "stateMutability": "view",
      "type": "function"
    },
    {
      "inputs": [
        {
          "internalType": "uint256",
          "name": "amount",
          "type": "uint256"
        }
      ],
      "name": "createMilestone",
      "outputs": [
        {
          "internalType": "uint256",
          "name": "id",
          "type": "uint256"
        }
      ],
      "stateMutability": "nonpayable",
      "type": "function"
    },
    {
      "inputs": [
        {
          "internalType": "uint256",
          "name": "amount",
          "type": "uint256"
        }
      ],
      "name": "depositFunds",
      "outputs": [],
      "stateMutability": "nonpayable",
      "type": "function"
    },
    {
      "inputs": [],
      "name": "developer",
      "outputs": [
        {
          "internalType": "address",
          "name": "",
          "type": "address"
        }
      ],
      "stateMutability": "view",
      "type": "function"
    },
    {
      "inputs": [
        {
          "internalType": "uint256",
          "name": "milestoneId",
          "type": "uint256"
        },
        {
          "internalType": "string",
          "name": "reason",
          "type": "string"
        }
      ],
      "name": "disputeMilestone",
      "outputs": [],
      "stateMutability": "nonpayable",
      "type": "function"
    },
    {
      "inputs": [],
      "name": "milestoneCount",
      "outputs": [
        {
          "internalType": "uint256",
          "name": "",
          "type": "uint256"
        }
      ],
      "stateMutability": "view",
      "type": "function"
    },
    {
      "inputs": [
        {
          "internalType": "uint256",
          "name": "",
          "type": "uint256"
        }
      ],
      "name": "milestones",
      "outputs": [
        {
          "internalType": "uint256",
          "name": "amount",
          "type": "uint256"
        },
        {
          "internalType": "uint256",
          "name": "netPayable",
          "type": "uint256"
        },
        {
          "internalType": "enum EscrowVaultUSDC.MilestoneStatus",
          "name": "status",
          "type": "uint8"
        },
        {
          "internalType": "bytes32",
          "name": "proofHash",
          "type": "bytes32"
        },
        {
          "internalType": "uint64",
          "name": "submittedAt",
          "type": "uint64"
        },
        {
          "internalType": "uint64",
          "name": "approvedAt",
          "type": "uint64"
        },
        {
          "internalType": "uint64",
          "name": "paidAt",
          "type": "uint64"
        }
      ],
      "stateMutability": "view",
      "type": "function"
    },
    {
      "inputs": [
        {
          "internalType": "uint256",
          "name": "milestoneId",
          "type": "uint256"
        }
      ],
      "name": "payMilestone",
      "outputs": [],
      "stateMutability": "nonpayable",
      "type": "function"
    },
    {
      "inputs": [],
      "name": "releaseRetainage",
      "outputs": [],
      "stateMutability": "nonpayable",
      "type": "function"
    },
    {
      "inputs": [],
      "name": "retainageBps",
      "outputs": [
        {
          "internalType": "uint256",
          "name": "",
          "type": "uint256"
        }
      ],
      "stateMutability": "view",
      "type": "function"
    },
    {
      "inputs": [],
      "name": "retainageHeld",
      "outputs": [
        {
          "internalType": "uint256",
          "name": "",
          "type": "uint256"
        }
      ],
      "stateMutability": "view",
      "type": "function"
    },
    {
      "inputs": [],
      "name": "retainageReleaseThresholdBps",
      "outputs": [
        {
          "internalType": "uint256",
          "name": "",
          "type": "uint256"
        }
      ],
      "stateMutability": "view",
      "type": "function"
    },
    {
      "inputs": [
        {
          "internalType": "uint256",
          "name": "milestoneId",
          "type": "uint256"
        },
        {
          "internalType": "bytes32",
          "name": "proofHash",
          "type": "bytes32"
        }
      ],
      "name": "submitMilestone",
      "outputs": [],
      "stateMutability": "nonpayable",
      "type": "function"
    },
    {
      "inputs": [],
      "name": "totalDeposited",
      "outputs": [
        {
          "internalType": "uint256",
          "name": "",
          "type": "uint256"
        }
      ],
      "stateMutability": "view",
      "type": "function"
    },
    {
      "inputs": [],
      "name": "totalPaid",
      "outputs": [
        {
          "internalType": "uint256",
          "name": "",
          "type": "uint256"
        }
      ],
      "stateMutability": "view",
      "type": "function"
    },
    {
      "inputs": [],
      "name": "usdc",
      "outputs": [
        {
          "internalType": "contract IERC20",
          "name": "",
          "type": "address"
        }
      ],
      "stateMutability": "view",
      "type": "function"
    }
  ],
  "bytecode": "0x6101006040523480156200001257600080fd5b50604051620017dc380380620017dc83398101604081905262000035916200015b565b6001600160a01b038416620000805760405162461bcd60e51b815260206004820152600c60248201526b496e76616c6964205553444360a01b60448201526064015b60405180910390fd5b6001600160a01b038316620000cd5760405162461bcd60e51b815260206004820152601260248201527124b73b30b634b21031b7b73a3930b1ba37b960711b604482015260640162000077565b6107d0821115620001165760405162461bcd60e51b81526020600482015260126024820152710a4cae8c2d2dcc2ceca40e8dede40d0d2ced60731b604482015260640162000077565b6001600160a01b039384166080523360a0529190921660c05260e091909152600055620001a3565b80516001600160a01b03811681146200015657600080fd5b919050565b600080600080608085870312156200017257600080fd5b6200017d856200013e565b93506200018d602086016200013e565b6040860151606090960151949790965092505050565b60805160a05160c05160e05161158f6200024d600039600081816101ae015281816108f901526110990152600081816102760152818161059501528181610a940152610b990152600081816101fb015281816102ac015281816106920152818161081701528181610d7001528181610ec70152611017015260008181610149015281816104c1015281816105c401528181610743015281816109510152610ac3015261158f6000f3fe608060405234801561001057600080fd5b506004361061010b5760003560e01c8063c4f5cae0116100a2578063e7b0f66611610071578063e7b0f66614610239578063e89e4ed614610242578063f6a2807314610268578063fbfd204514610271578063ff50abdc1461029857600080fd5b8063c4f5cae0146101e3578063ca4b208b146101f6578063cbe39ad01461021d578063d2bd56d01461022657600080fd5b806369db0a7e116100de57806369db0a7e1461018357806378b69604146101965780639e453d8c146101a9578063c438b40f146101d057600080fd5b806304e265b3146101105780630681ca551461011a5780633b76594d146101315780633e413bee14610144575b600080fd5b6101186102a1565b005b6004545b6040519081526020015b60405180910390f35b61011861013f36600461129a565b610687565b61016b7f000000000000000000000000000000000000000000000000000000000000000081565b6040516001600160a01b039091168152602001610128565b61011861019136600461129a565b61080c565b6101186101a43660046112b3565b610b8e565b61011e7f000000000000000000000000000000000000000000000000000000000000000081565b6101186101de36600461129a565b610d65565b6101186101f13660046112d5565b610ebc565b61016b7f000000000000000000000000000000000000000000000000000000000000000081565b61011e60035481565b61011e61023436600461129a565b61100a565b61011e60025481565b61025561025036600461129a565b611235565b6040516101289796959493929190611367565b61011e60005481565b61016b7f000000000000000000000000000000000000000000000000000000000000000081565b61011e60015481565b336001600160a01b037f000000000000000000000000000000000000000000000000000000000000000016146102f25760405162461bcd60e51b81526004016102e9906113c9565b60405180910390fd5b600454600080805b838110156103b757600360048281548110610317576103176113f1565b600091825260209091206002600590920201015460ff16600481111561033f5761033f611351565b03610356578261034e8161141d565b9350506103a5565b600480828154811061036a5761036a6113f1565b600091825260209091206002600590920201015460ff16600481111561039257610392611351565b036103a557816103a18161141d565b9250505b806103af8161141d565b9150506102fa565b5060006103c48285611436565b90506000811161040f5760405162461bcd60e51b81526020600482015260166024820152754e6f20656c696769626c65206d696c6573746f6e657360501b60448201526064016102e9565b6000548161041f8561271061144f565b6104299190611466565b101561046b5760405162461bcd60e51b8152602060048201526011602482015270151a1c995cda1bdb19081b9bdd081b595d607a1b60448201526064016102e9565b600354806104aa5760405162461bcd60e51b815260206004820152600c60248201526b4e6f2072657461696e61676560a01b60448201526064016102e9565b6040516370a0823160e01b815230600482015281907f00000000000000000000000000000000000000000000000000000000000000006001600160a01b0316906370a0823190602401602060405180830381865afa158015610510573d6000803e3d6000fd5b505050506040513d601f19601f820116820180604052508101906105349190611488565b10156105795760405162461bcd60e51b8152602060048201526014602482015273496e73756666696369656e742062616c616e636560601b60448201526064016102e9565b600060035560405163a9059cbb60e01b81526001600160a01b037f000000000000000000000000000000000000000000000000000000000000000081166004830152602482018390527f0000000000000000000000000000000000000000000000000000000000000000169063a9059cbb906044016020604051808303816000875af115801561060d573d6000803e3d6000fd5b505050506040513d601f19601f8201168201806040525081019061063191906114a1565b61064d5760405162461bcd60e51b81526004016102e9906114ca565b6040518181527f7da60aef752d91c97b4a6dc4bcddf55a6492fa61f1a65132e1472a1760a751b29060200160405180910390a15050505050565b336001600160a01b037f000000000000000000000000000000000000000000000000000000000000000016146106cf5760405162461bcd60e51b81526004016102e9906113c9565b6000811161070a5760405162461bcd60e51b81526020600482015260086024820152670416d6f756e743d360c41b60448201526064016102e9565b806001600082825461071c91906114f3565b90915550506040516323b872dd60e01b8152336004820152306024820152604481018290527f00000000000000000000000000000000000000000000000000000000000000006001600160a01b0316906323b872dd906064016020604051808303816000875af1158015610794573d6000803e3d6000fd5b505050506040513d601f19601f820116820180604052508101906107b891906114a1565b6107d45760405162461bcd60e51b81526004016102e9906114ca565b60405181815233907f5af8184bef8e4b45eb9f6ed7734d04da38ced226495548f46e0c8ff8d7d9a5249060200160405180910390a250565b336001600160a01b037f000000000000000000000000000000000000000000000000000000000000000016146108545760405162461bcd60e51b81526004016102e9906113c9565b60045481106108755760405162461bcd60e51b81526004016102e990611506565b60006004828154811061088a5761088a6113f1565b60009182526020909120600590910201905060028082015460ff1660048111156108b6576108b6611351565b146108f25760405162461bcd60e51b815260206004820152600c60248201526b139bdd08185c1c1c9bdd995960a21b60448201526064016102e9565b60006127107f00000000000000000000000000000000000000000000000000000000000000008360000154610927919061144f565b6109319190611466565b60018301546040516370a0823160e01b81523060048201529192509081907f00000000000000000000000000000000000000000000000000000000000000006001600160a01b0316906370a0823190602401602060405180830381865afa1580156109a0573d6000803e3d6000fd5b505050506040513d601f19601f820116820180604052508101906109c49190611488565b1015610a125760405162461bcd60e51b815260206004820152601b60248201527f496e73756666696369656e7420657363726f772062616c616e6365000000000060448201526064016102e9565b6002838101805460ff1916600317905560048401805467ffffffffffffffff4216600160801b0267ffffffffffffffff60801b199091161790558054829190600090610a5f9084906114f3565b925050819055508160036000828254610a7891906114f3565b909155505060405163a9059cbb60e01b81526001600160a01b037f000000000000000000000000000000000000000000000000000000000000000081166004830152602482018390527f0000000000000000000000000000000000000000000000000000000000000000169063a9059cbb906044016020604051808303816000875af1158015610b0c573d6000803e3d6000fd5b505050506040513d601f19601f82011682018060405250810190610b3091906114a1565b610b4c5760405162461bcd60e51b81526004016102e9906114ca565b604080518281526020810184905285917fafc8fc5dd6037bf38d34d9d51bb5ecc0af143248332c63ae9e83bbef6d4638d991015b60405180910390a250505050565b336001600160a01b037f00000000000000000000000000000000000000000000000000000000000000001614610bf85760405162461bcd60e51b815260206004820152600f60248201526e27b7363c9031b7b73a3930b1ba37b960891b60448201526064016102e9565b6004548210610c195760405162461bcd60e51b81526004016102e990611506565b80610c565760405162461bcd60e51b815260206004820152600d60248201526c24b73b30b634b210383937b7b360991b60448201526064016102e9565b600060048381548110610c6b57610c6b6113f1565b6000918252602082206005909102019150600282015460ff166004811115610c9557610c95611351565b1480610cb957506004600282015460ff166004811115610cb757610cb7611351565b145b610cf45760405162461bcd60e51b815260206004820152600c60248201526b57726f6e672073746174757360a01b60448201526064016102e9565b60028101805460ff191660011790556003810182905560048101805467ffffffffffffffff421667ffffffffffffffff1990911617905560405182815283907f7287d4e2124e164c3e1c3f79240dfe987824d65cbde320cca075a436de20a0589060200160405180910390a2505050565b336001600160a01b037f00000000000000000000000000000000000000000000000000000000000000001614610dad5760405162461bcd60e51b81526004016102e9906113c9565b6004548110610dce5760405162461bcd60e51b81526004016102e990611506565b600060048281548110610de357610de36113f1565b6000918252602090912060059091020190506001600282015460ff166004811115610e1057610e10611351565b14610e4d5760405162461bcd60e51b815260206004820152600d60248201526c139bdd081cdd589b5a5d1d1959609a1b60448201526064016102e9565b6002818101805460ff191660018302179055506004810180546fffffffffffffffff00000000000000001916600160401b4267ffffffffffffffff160217905560405182907f0adffe31a62a9e7e5068bdd6f839470d57dd0e18fac8a8d525196283eb9b392a90600090a25050565b336001600160a01b037f00000000000000000000000000000000000000000000000000000000000000001614610f045760405162461bcd60e51b81526004016102e9906113c9565b6004548310610f255760405162461bcd60e51b81526004016102e990611506565b600060048481548110610f3a57610f3a6113f1565b6000918252602090912060059091020190506001600282015460ff166004811115610f6757610f67611351565b1480610f8a575060028082015460ff166004811115610f8857610f88611351565b145b610fc75760405162461bcd60e51b815260206004820152600e60248201526d4e6f742064697370757461626c6560901b60448201526064016102e9565b60028101805460ff1916600417905560405184907f365d08ff2df448ec87654cbda15ec8f08a648e967a4492300f4a05869512b3f890610b80908690869061152a565b6000336001600160a01b037f000000000000000000000000000000000000000000000000000000000000000016146110545760405162461bcd60e51b81526004016102e9906113c9565b6000821161108f5760405162461bcd60e51b81526020600482015260086024820152670416d6f756e743d360c41b60448201526064016102e9565b60006127106110be7f00000000000000000000000000000000000000000000000000000000000000008561144f565b6110c89190611466565b905060006110d68285611436565b905060046040518060e001604052808681526020018381526020016000600481111561110457611104611351565b81526000602080830182905260408084018390526060840183905260809093018290528454600181810187559583529181902084516005909302019182558301518185015590820151600282018054939492939192909160ff19169083600481111561117257611172611351565b02179055506060820151600382015560808201516004918201805460a085015160c09095015167ffffffffffffffff908116600160801b0267ffffffffffffffff60801b19968216600160401b026fffffffffffffffffffffffffffffffff199093169190941617179390931617909155546111f090600190611436565b604080518681526020810184905291945084917fb59c2d823e6ca395c24829d80f43a97d9c6fd711596372c5a4663af872f4b9d2910160405180910390a25050919050565b6004818154811061124557600080fd5b600091825260209091206005909102018054600182015460028301546003840154600490940154929450909260ff9091169167ffffffffffffffff80821691600160401b8104821691600160801b9091041687565b6000602082840312156112ac57600080fd5b5035919050565b600080604083850312156112c657600080fd5b50508035926020909101359150565b6000806000604084860312156112ea57600080fd5b83359250602084013567ffffffffffffffff8082111561130957600080fd5b818601915086601f83011261131d57600080fd5b81358181111561132c57600080fd5b87602082850101111561133e57600080fd5b6020830194508093505050509250925092565b634e487b7160e01b600052602160045260246000fd5b8781526020810187905260e081016005871061139357634e487b7160e01b600052602160045260246000fd5b6040820196909652606081019490945267ffffffffffffffff928316608085015290821660a08401521660c09091015292915050565b6020808252600e908201526d27b7363c903232bb32b637b832b960911b604082015260600190565b634e487b7160e01b600052603260045260246000fd5b634e487b7160e01b600052601160045260246000fd5b60006001820161142f5761142f611407565b5060010190565b8181038181111561144957611449611407565b92915050565b808202811582820484141761144957611449611407565b60008261148357634e487b7160e01b600052601260045260246000fd5b500490565b60006020828403121561149a57600080fd5b5051919050565b6000602082840312156114b357600080fd5b815180151581146114c357600080fd5b9392505050565b6020808252600f908201526e151c985b9cd9995c8819985a5b1959608a1b604082015260600190565b8082018082111561144957611449611407565b6020808252600a9082015269125b9d985b1a59081a5960b21b604082015260600190565b60208152816020820152818360408301376000818301604090810191909152601f909201601f1916010191905056fea2646970667358221220dfc52b6192e1f47068fd6df7b95a68eb833f80fc404d639a081bb663e6af18a064736f6c63430008140033",
  "linkReferences": {},
  "deployedLinkReferences": {}
}