{
  "_format": "hh-sol-artifact-1",
  "contractName": "EscrowFactoryUSDC",
  "sourceName": "contracts/EscrowFactoryUSDC.sol",
  "abi": [
    {
      "inputs": [
        {
          "internalType": "address",
          "name": "_usdc",
          "type": "address"
        }
      ],
      "stateMutability": "nonpayable",
      "type": "constructor"
    },
    {
      "anonymous": false,
      "inputs": [
        {
          "indexed": true,
          "internalType": "uint256",
          "name": "projectId",
          "type": "uint256"
        },
        {
          "indexed": true,
          "internalType": "address",
          "name": "vault",
          "type": "address"
        },
        {
          "indexed": true,
          "internalType": "address",
          "name": "developer",
          "type": "address"
        },
        {
          "indexed": false,
          "internalType": "address",
          "name": "contractor",
          "type": "address"
        },
        {
          "indexed": false,
          "internalType": "uint256",
          "name": "retainageBps",
          "type": "uint256"
        },
        {
          "indexed": false,
          "internalType": "string",
          "name": "name",
          "type": "string"
        }
      ],
      "name": "ProjectCreated",
      "type": "event"
    },
    {
      "inputs": [
        {
          "internalType": "address",
          "name": "contractor",
          "type": "address"
        },
        {
          "internalType": "uint256",
          "name": "retainageBps",
          "type": "uint256"
        },
        {
          "internalType": "string",
          "name": "name",
          "type": "string"
        },
        {
          "internalType": "address",
          "name": "oracleApprover",
          "type": "address"
        }
      ],
      "name": "createProject",
      "outputs": [
        {
          "internalType": "address",
          "name": "vault",
          "type": "address"
        },
        {
          "internalType": "uint256",
          "name": "projectId",
          "type": "uint256"
        }
      ],
      "stateMutability": "nonpayable",
      "type": "function"
    },
    {
      "inputs": [],
      "name": "projectCount",
      "outputs": [
        {
          "internalType": "uint256",
          "name": "",
          "type": "uint256"
        }
      ],
      "stateMutability": "view",
      "type": "function"
    },
    {
      "inputs": [
        {
          "internalType": "uint256",
          "name": "",
          "type": "uint256"
        }
      ],
      "name": "projects",
      "outputs": [
        {
          "internalType": "address",
          "name": "vault",
          "type": "address"
        },
        {
          "internalType": "address",
          "name": "developer",
          "type": "address"
        },
        {
          "internalType": "address",
          "name": "contractor",
          "type": "address"
        },
        {
          "internalType": "uint256",
          "name": "retainageBps",
          "type": "uint256"
        },
        {
          "internalType": "uint64",
          "name": "createdAt",
          "type": "uint64"
        },
        {
          "internalType": "string",
          "name": "name",
          "type": "string"
        }
      ],
      "stateMutability": "view",
      "type": "function"
    },
    {
      "inputs": [],
      "name": "usdc",
      "outputs": [
        {
          "internalType": "address",
          "name": "",
          "type": "address"
        }
      ],
      "stateMutability": "view",
      "type": "function"
    }
  ],
  "bytecode": "0x60a060405234801561001057600080fd5b5060405161212038038061212083398101604081905261002f91610089565b6001600160a01b0381166100785760405162461bcd60e51b815260206004820152600c60248201526b496e76616c6964205553444360a01b604482015260640160405180910390fd5b6001600160a01b03166080526100b9565b60006020828403121561009b57600080fd5b81516001600160a01b03811681146100b257600080fd5b9392505050565b6080516120466100da6000396000818160c701526101f601526120466000f3fe608060405234801561001057600080fd5b506004361061004c5760003560e01c8063107046bd14610051578063351fd5121461007f57806336fbad26146100b15780633e413bee146100c2575b600080fd5b61006461005f366004610424565b610101565b6040516100769695949392919061043d565b60405180910390f35b61009261008d3660046104e4565b6101ef565b604080516001600160a01b039093168352602083019190915201610076565b600054604051908152602001610076565b6100e97f000000000000000000000000000000000000000000000000000000000000000081565b6040516001600160a01b039091168152602001610076565b6000818154811061011157600080fd5b60009182526020909120600690910201805460018201546002830154600384015460048501546005860180546001600160a01b039687169850948616969590931694919367ffffffffffffffff909116929061016c90610582565b80601f016020809104026020016040519081016040528092919081815260200182805461019890610582565b80156101e55780601f106101ba576101008083540402835291602001916101e5565b820191906000526020600020905b8154815290600101906020018083116101c857829003601f168201915b5050505050905086565b60008060007f00000000000000000000000000000000000000000000000000000000000000008888611f408760405161022790610417565b6001600160a01b039586168152938516602085015260408401929092526060830152909116608082015260a001604051809103906000f080158015610270573d6000803e3d6000fd5b50905060006040518060c00160405280836001600160a01b03168152602001336001600160a01b031681526020018a6001600160a01b031681526020018981526020014267ffffffffffffffff16815260200188888080601f0160208091040260200160405190810160405280939291908181526020018383808284376000920182905250939094525050835460018082018655948252602091829020845160069092020180546001600160a01b03199081166001600160a01b03938416178255928501519581018054841696831696909617909555604084015160028601805490931691161790555060608101516003830155608081015160048301805467ffffffffffffffff191667ffffffffffffffff90921691909117905560a081015190919060058201906103a39082610621565b50506000546103b591506001906106e1565b9150809250336001600160a01b0316836001600160a01b0316837f257f4c57b7c43fb83295aca8e474635e595aaecc54f803c1e5ef06d7c484385f8b8b8b8b6040516104049493929190610708565b60405180910390a4509550959350505050565b6118c08061075183390190565b60006020828403121561043657600080fd5b5035919050565b600060018060a01b038089168352602081891681850152818816604085015286606085015267ffffffffffffffff8616608085015260c060a0850152845191508160c085015260005b828110156104a25785810182015185820160e001528101610486565b5050600060e0828501015260e0601f19601f830116840101915050979650505050505050565b80356001600160a01b03811681146104df57600080fd5b919050565b6000806000806000608086880312156104fc57600080fd5b610505866104c8565b945060208601359350604086013567ffffffffffffffff8082111561052957600080fd5b818801915088601f83011261053d57600080fd5b81358181111561054c57600080fd5b89602082850101111561055e57600080fd5b602083019550809450505050610576606087016104c8565b90509295509295909350565b600181811c9082168061059657607f821691505b6020821081036105b657634e487b7160e01b600052602260045260246000fd5b50919050565b634e487b7160e01b600052604160045260246000fd5b601f82111561061c57600081815260208120601f850160051c810160208610156105f95750805b601f850160051c820191505b8181101561061857828155600101610605565b5050505b505050565b815167ffffffffffffffff81111561063b5761063b6105bc565b61064f816106498454610582565b846105d2565b602080601f831160018114610684576000841561066c5750858301515b600019600386901b1c1916600185901b178555610618565b600085815260208120601f198616915b828110156106b357888601518255948401946001909101908401610694565b50858210156106d15787850151600019600388901b60f8161c191681555b5050505050600190811b01905550565b8181038181111561070257634e487b7160e01b600052601160045260246000fd5b92915050565b6001600160a01b0385168152602081018490526060604082018190528101829052818360808301376000818301608090810191909152601f909201601f19160101939250505056fe6101006040523480156200001257600080fd5b50604051620018c0380380620018c083398101604081905262000035916200019d565b6001600160a01b038516620000805760405162461bcd60e51b815260206004820152600c60248201526b496e76616c6964205553444360a01b60448201526064015b60405180910390fd5b6001600160a01b038416620000cd5760405162461bcd60e51b815260206004820152601260248201527124b73b30b634b21031b7b73a3930b1ba37b960711b604482015260640162000077565b6107d0831115620001165760405162461bcd60e51b81526020600482015260126024820152710a4cae8c2d2dcc2ceca40e8dede40d0d2ced60731b604482015260640162000077565b6001600160a01b038581166080523360a05284811660c05260e08490526000838155600480546001600160a01b03191692841692831790556040517ff44ac5d53b2f4dc13a9ac53c7cdd41aa1f6a24ca01e1e8604cd68be903db46cd9190a25050505050620001fb565b80516001600160a01b03811681146200019857600080fd5b919050565b600080600080600060a08688031215620001b657600080fd5b620001c18662000180565b9450620001d16020870162000180565b93506040860151925060608601519150620001ef6080870162000180565b90509295509295909350565b60805160a05160c05160e05161161b620002a5600039600081816101cc0152818161094e0152611124015260008181610294015281816105b401528181610ae90152610bee015260008181610219015281816102ca015281816106b10152818161083601528181610dc501528181610f5201526110a2015260008181610154015281816104e0015281816105e301528181610762015281816109a60152610b18015261161b6000f3fe608060405234801561001057600080fd5b50600436106101165760003560e01c8063c4f5cae0116100a2578063e7b0f66611610071578063e7b0f66614610257578063e89e4ed614610260578063f6a2807314610286578063fbfd20451461028f578063ff50abdc146102b657600080fd5b8063c4f5cae014610201578063ca4b208b14610214578063cbe39ad01461023b578063d2bd56d01461024457600080fd5b806369db0a7e116100e957806369db0a7e1461018e57806378b69604146101a157806383fd54b5146101b45780639e453d8c146101c7578063c438b40f146101ee57600080fd5b806304e265b31461011b5780630681ca55146101255780633b76594d1461013c5780633e413bee1461014f575b600080fd5b6101236102bf565b005b6005545b6040519081526020015b60405180910390f35b61012361014a366004611326565b6106a6565b6101767f000000000000000000000000000000000000000000000000000000000000000081565b6040516001600160a01b039091168152602001610133565b61012361019c366004611326565b61082b565b6101236101af36600461133f565b610be3565b600454610176906001600160a01b031681565b6101297f000000000000000000000000000000000000000000000000000000000000000081565b6101236101fc366004611326565b610dba565b61012361020f366004611361565b610f47565b6101767f000000000000000000000000000000000000000000000000000000000000000081565b61012960035481565b610129610252366004611326565b611095565b61012960025481565b61027361026e366004611326565b6112c1565b60405161013397969594939291906113f3565b61012960005481565b6101767f000000000000000000000000000000000000000000000000000000000000000081565b61012960015481565b336001600160a01b037f000000000000000000000000000000000000000000000000000000000000000016146103105760405162461bcd60e51b815260040161030790611455565b60405180910390fd5b600554600080805b838110156103d6576003600582815481106103355761033561147d565b600091825260209091206002600590920201015460ff16600481111561035d5761035d6113dd565b03610374578261036c816114a9565b9350506103c4565b6004600582815481106103895761038961147d565b600091825260209091206002600590920201015460ff1660048111156103b1576103b16113dd565b036103c457816103c0816114a9565b9250505b806103ce816114a9565b915050610318565b5060006103e382856114c2565b90506000811161042e5760405162461bcd60e51b81526020600482015260166024820152754e6f20656c696769626c65206d696c6573746f6e657360501b6044820152606401610307565b6000548161043e856127106114db565b61044891906114f2565b101561048a5760405162461bcd60e51b8152602060048201526011602482015270151a1c995cda1bdb19081b9bdd081b595d607a1b6044820152606401610307565b600354806104c95760405162461bcd60e51b815260206004820152600c60248201526b4e6f2072657461696e61676560a01b6044820152606401610307565b6040516370a0823160e01b815230600482015281907f00000000000000000000000000000000000000000000000000000000000000006001600160a01b0316906370a0823190602401602060405180830381865afa15801561052f573d6000803e3d6000fd5b505050506040513d601f19601f820116820180604052508101906105539190611514565b10156105985760405162461bcd60e51b8152602060048201526014602482015273496e73756666696369656e742062616c616e636560601b6044820152606401610307565b600060035560405163a9059cbb60e01b81526001600160a01b037f000000000000000000000000000000000000000000000000000000000000000081166004830152602482018390527f0000000000000000000000000000000000000000000000000000000000000000169063a9059cbb906044016020604051808303816000875af115801561062c573d6000803e3d6000fd5b505050506040513d601f19601f82011682018060405250810190610650919061152d565b61066c5760405162461bcd60e51b815260040161030790611556565b6040518181527f7da60aef752d91c97b4a6dc4bcddf55a6492fa61f1a65132e1472a1760a751b29060200160405180910390a15050505050565b336001600160a01b037f000000000000000000000000000000000000000000000000000000000000000016146106ee5760405162461bcd60e51b815260040161030790611455565b600081116107295760405162461bcd60e51b81526020600482015260086024820152670416d6f756e743d360c41b6044820152606401610307565b806001600082825461073b919061157f565b90915550506040516323b872dd60e01b8152336004820152306024820152604481018290527f00000000000000000000000000000000000000000000000000000000000000006001600160a01b0316906323b872dd906064016020604051808303816000875af11580156107b3573d6000803e3d6000fd5b505050506040513d601f19601f820116820180604052508101906107d7919061152d565b6107f35760405162461bcd60e51b815260040161030790611556565b60405181815233907f5af8184bef8e4b45eb9f6ed7734d04da38ced226495548f46e0c8ff8d7d9a5249060200160405180910390a250565b336001600160a01b037f000000000000000000000000000000000000000000000000000000000000000016148061086c57506004546001600160a01b031633145b6108a95760405162461bcd60e51b815260206004820152600e60248201526d139bdd08185d5d1a1bdc9a5e995960921b6044820152606401610307565b60055481106108ca5760405162461bcd60e51b815260040161030790611592565b6000600582815481106108df576108df61147d565b60009182526020909120600590910201905060028082015460ff16600481111561090b5761090b6113dd565b146109475760405162461bcd60e51b815260206004820152600c60248201526b139bdd08185c1c1c9bdd995960a21b6044820152606401610307565b60006127107f0000000000000000000000000000000000000000000000000000000000000000836000015461097c91906114db565b61098691906114f2565b60018301546040516370a0823160e01b81523060048201529192509081907f00000000000000000000000000000000000000000000000000000000000000006001600160a01b0316906370a0823190602401602060405180830381865afa1580156109f5573d6000803e3d6000fd5b505050506040513d601f19601f82011682018060405250810190610a199190611514565b1015610a675760405162461bcd60e51b815260206004820152601b60248201527f496e73756666696369656e7420657363726f772062616c616e636500000000006044820152606401610307565b6002838101805460ff1916600317905560048401805467ffffffffffffffff4216600160801b0267ffffffffffffffff60801b199091161790558054829190600090610ab490849061157f565b925050819055508160036000828254610acd919061157f565b909155505060405163a9059cbb60e01b81526001600160a01b037f000000000000000000000000000000000000000000000000000000000000000081166004830152602482018390527f0000000000000000000000000000000000000000000000000000000000000000169063a9059cbb906044016020604051808303816000875af1158015610b61573d6000803e3d6000fd5b505050506040513d601f19601f82011682018060405250810190610b85919061152d565b610ba15760405162461bcd60e51b815260040161030790611556565b604080518281526020810184905285917fafc8fc5dd6037bf38d34d9d51bb5ecc0af143248332c63ae9e83bbef6d4638d991015b60405180910390a250505050565b336001600160a01b037f00000000000000000000000000000000000000000000000000000000000000001614610c4d5760405162461bcd60e51b815260206004820152600f60248201526e27b7363c9031b7b73a3930b1ba37b960891b6044820152606401610307565b6005548210610c6e5760405162461bcd60e51b815260040161030790611592565b80610cab5760405162461bcd60e51b815260206004820152600d60248201526c24b73b30b634b210383937b7b360991b6044820152606401610307565b600060058381548110610cc057610cc061147d565b6000918252602082206005909102019150600282015460ff166004811115610cea57610cea6113dd565b1480610d0e57506004600282015460ff166004811115610d0c57610d0c6113dd565b145b610d495760405162461bcd60e51b815260206004820152600c60248201526b57726f6e672073746174757360a01b6044820152606401610307565b60028101805460ff191660011790556003810182905560048101805467ffffffffffffffff421667ffffffffffffffff1990911617905560405182815283907f7287d4e2124e164c3e1c3f79240dfe987824d65cbde320cca075a436de20a0589060200160405180910390a2505050565b336001600160a01b037f0000000000000000000000000000000000000000000000000000000000000000161480610dfb57506004546001600160a01b031633145b610e385760405162461bcd60e51b815260206004820152600e60248201526d139bdd08185d5d1a1bdc9a5e995960921b6044820152606401610307565b6005548110610e595760405162461bcd60e51b815260040161030790611592565b600060058281548110610e6e57610e6e61147d565b6000918252602090912060059091020190506001600282015460ff166004811115610e9b57610e9b6113dd565b14610ed85760405162461bcd60e51b815260206004820152600d60248201526c139bdd081cdd589b5a5d1d1959609a1b6044820152606401610307565b6002818101805460ff191660018302179055506004810180546fffffffffffffffff00000000000000001916600160401b4267ffffffffffffffff160217905560405182907f0adffe31a62a9e7e5068bdd6f839470d57dd0e18fac8a8d525196283eb9b392a90600090a25050565b336001600160a01b037f00000000000000000000000000000000000000000000000000000000000000001614610f8f5760405162461bcd60e51b815260040161030790611455565b6005548310610fb05760405162461bcd60e51b815260040161030790611592565b600060058481548110610fc557610fc561147d565b6000918252602090912060059091020190506001600282015460ff166004811115610ff257610ff26113dd565b1480611015575060028082015460ff166004811115611013576110136113dd565b145b6110525760405162461bcd60e51b815260206004820152600e60248201526d4e6f742064697370757461626c6560901b6044820152606401610307565b60028101805460ff1916600417905560405184907f365d08ff2df448ec87654cbda15ec8f08a648e967a4492300f4a05869512b3f890610bd590869086906115b6565b6000336001600160a01b037f000000000000000000000000000000000000000000000000000000000000000016146110df5760405162461bcd60e51b815260040161030790611455565b6000821161111a5760405162461bcd60e51b81526020600482015260086024820152670416d6f756e743d360c41b6044820152606401610307565b60006127106111497f0000000000000000000000000000000000000000000000000000000000000000856114db565b61115391906114f2565b9050600061116182856114c2565b905060056040518060e001604052808681526020018381526020016000600481111561118f5761118f6113dd565b81526000602080830182905260408084018390526060840183905260809093018290528454600181810187559583529181902084516005909302019182558301518185015590820151600282018054939492939192909160ff1916908360048111156111fd576111fd6113dd565b02179055506060820151600382015560808201516004909101805460a084015160c09094015167ffffffffffffffff908116600160801b0267ffffffffffffffff60801b19958216600160401b026fffffffffffffffffffffffffffffffff199093169190941617179290921617905560055461127c906001906114c2565b604080518681526020810184905291945084917fb59c2d823e6ca395c24829d80f43a97d9c6fd711596372c5a4663af872f4b9d2910160405180910390a25050919050565b600581815481106112d157600080fd5b600091825260209091206005909102018054600182015460028301546003840154600490940154929450909260ff9091169167ffffffffffffffff80821691600160401b8104821691600160801b9091041687565b60006020828403121561133857600080fd5b5035919050565b6000806040838503121561135257600080fd5b50508035926020909101359150565b60008060006040848603121561137657600080fd5b83359250602084013567ffffffffffffffff8082111561139557600080fd5b818601915086601f8301126113a957600080fd5b8135818111156113b857600080fd5b8760208285010111156113ca57600080fd5b6020830194508093505050509250925092565b634e487b7160e01b600052602160045260246000fd5b8781526020810187905260e081016005871061141f57634e487b7160e01b600052602160045260246000fd5b6040820196909652606081019490945267ffffffffffffffff928316608085015290821660a08401521660c09091015292915050565b6020808252600e908201526d27b7363c903232bb32b637b832b960911b604082015260600190565b634e487b7160e01b600052603260045260246000fd5b634e487b7160e01b600052601160045260246000fd5b6000600182016114bb576114bb611493565b5060010190565b818103818111156114d5576114d5611493565b92915050565b80820281158282048414176114d5576114d5611493565b60008261150f57634e487b7160e01b600052601260045260246000fd5b500490565b60006020828403121561152657600080fd5b5051919050565b60006020828403121561153f57600080fd5b8151801515811461154f57600080fd5b9392505050565b6020808252600f908201526e151c985b9cd9995c8819985a5b1959608a1b604082015260600190565b808201808211156114d5576114d5611493565b6020808252600a9082015269125b9d985b1a59081a5960b21b604082015260600190565b60208152816020820152818360408301376000818301604090810191909152601f909201601f1916010191905056fea2646970667358221220238359670077af4ee446a40f691fa075bae7273c8e0246a9feb4a6948c0cb31c64736f6c63430008140033a2646970667358221220a064100270349bf1335db376f60afa5c3f4e678a2d319b4834b91f464f4d39f864736f6c63430008140033",
  "linkReferences": {},
  "deployedLinkReferences": {}
}