{
  "_format": "hh-sol-artifact-1",
  "contractName": "EscrowFactory",
  "sourceName": "contracts/EscrowFactory.sol",
  "abi": [
    {
      "anonymous": false,
      "inputs": [
        {
          "indexed": true,
          "internalType": "uint256",
          "name": "projectId",
          "type": "uint256"
        },
        {
          "indexed": true,
          "internalType": "address",
          "name": "vault",
          "type": "address"
        },
        {
          "indexed": true,
          "internalType": "address",
          "name": "developer",
          "type": "address"
        },
        {
          "indexed": false,
          "internalType": "address",
          "name": "contractor",
          "type": "address"
        },
        {
          "indexed": false,
          "internalType": "uint256",
          "name": "retainageBps",
          "type": "uint256"
        },
        {
          "indexed": false,
          "internalType": "string",
          "name": "name",
          "type": "string"
        }
      ],
      "name": "ProjectCreated",
      "type": "event"
    },
    {
      "inputs": [
        {
          "internalType": "address",
          "name": "contractor",
          "type": "address"
        },
        {
          "internalType": "uint256",
          "name": "retainageBps",
          "type": "uint256"
        },
        {
          "internalType": "string",
          "name": "name",
          "type": "string"
        }
      ],
      "name": "createProject",
      "outputs": [
        {
          "internalType": "address",
          "name": "vault",
          "type": "address"
        },
        {
          "internalType": "uint256",
          "name": "projectId",
          "type": "uint256"
        }
      ],
      "stateMutability": "payable",
      "type": "function"
    },
    {
      "inputs": [],
      "name": "projectCount",
      "outputs": [
        {
          "internalType": "uint256",
          "name": "",
          "type": "uint256"
        }
      ],
      "stateMutability": "view",
      "type": "function"
    },
    {
      "inputs": [
        {
          "internalType": "uint256",
          "name": "",
          "type": "uint256"
        }
      ],
      "name": "projects",
      "outputs": [
        {
          "internalType": "address",
          "name": "vault",
          "type": "address"
        },
        {
          "internalType": "address",
          "name": "developer",
          "type": "address"
        },
        {
          "internalType": "address",
          "name": "contractor",
          "type": "address"
        },
        {
          "internalType": "uint256",
          "name": "retainageBps",
          "type": "uint256"
        },
        {
          "internalType": "uint64",
          "name": "createdAt",
          "type": "uint64"
        },
        {
          "internalType": "string",
          "name": "name",
          "type": "string"
        }
      ],
      "stateMutability": "view",
      "type": "function"
    }
  ],
  "bytecode": "0x608060405234801561001057600080fd5b50611c25806100206000396000f3fe6080604052600436106100345760003560e01c8063107046bd1461003957806336fbad261461007457806387f4d73214610092575b600080fd5b34801561004557600080fd5b506100596100543660046103b6565b6100c4565b60405161006b969594939291906103cf565b60405180910390f35b34801561008057600080fd5b5060005460405190815260200161006b565b6100a56100a036600461045a565b6101b2565b604080516001600160a01b03909316835260208301919091520161006b565b600081815481106100d457600080fd5b60009182526020909120600690910201805460018201546002830154600384015460048501546005860180546001600160a01b039687169850948616969590931694919367ffffffffffffffff909116929061012f906104ef565b80601f016020809104026020016040519081016040528092919081815260200182805461015b906104ef565b80156101a85780601f1061017d576101008083540402835291602001916101a8565b820191906000526020600020905b81548152906001019060200180831161018b57829003601f168201915b5050505050905086565b6000806000348787611f406040516101c9906103a9565b6001600160a01b039093168352602083019190915260408201526060016040518091039082f0905080158015610203573d6000803e3d6000fd5b50905060006040518060c00160405280836001600160a01b03168152602001336001600160a01b03168152602001896001600160a01b031681526020018881526020014267ffffffffffffffff16815260200187878080601f0160208091040260200160405190810160405280939291908181526020018383808284376000920182905250939094525050835460018082018655948252602091829020845160069092020180546001600160a01b03199081166001600160a01b03938416178255928501519581018054841696831696909617909555604084015160028601805490931691161790555060608101516003830155608081015160048301805467ffffffffffffffff191667ffffffffffffffff90921691909117905560a08101519091906005820190610336908261058e565b5050600054610348915060019061064e565b9150809250336001600160a01b0316836001600160a01b0316837f257f4c57b7c43fb83295aca8e474635e595aaecc54f803c1e5ef06d7c484385f8a8a8a8a6040516103979493929190610675565b60405180910390a45094509492505050565b611532806106be83390190565b6000602082840312156103c857600080fd5b5035919050565b600060018060a01b038089168352602081891681850152818816604085015286606085015267ffffffffffffffff8616608085015260c060a0850152845191508160c085015260005b828110156104345785810182015185820160e001528101610418565b5050600060e0828501015260e0601f19601f830116840101915050979650505050505050565b6000806000806060858703121561047057600080fd5b84356001600160a01b038116811461048757600080fd5b935060208501359250604085013567ffffffffffffffff808211156104ab57600080fd5b818701915087601f8301126104bf57600080fd5b8135818111156104ce57600080fd5b8860208285010111156104e057600080fd5b95989497505060200194505050565b600181811c9082168061050357607f821691505b60208210810361052357634e487b7160e01b600052602260045260246000fd5b50919050565b634e487b7160e01b600052604160045260246000fd5b601f82111561058957600081815260208120601f850160051c810160208610156105665750805b601f850160051c820191505b8181101561058557828155600101610572565b5050505b505050565b815167ffffffffffffffff8111156105a8576105a8610529565b6105bc816105b684546104ef565b8461053f565b602080601f8311600181146105f157600084156105d95750858301515b600019600386901b1c1916600185901b178555610585565b600085815260208120601f198616915b8281101561062057888601518255948401946001909101908401610601565b508582101561063e5787850151600019600388901b60f8161c191681555b5050505050600190811b01905550565b8181038181111561066f57634e487b7160e01b600052601160045260246000fd5b92915050565b6001600160a01b0385168152602081018490526060604082018190528101829052818360808301376000818301608090810191909152601f909201601f19160101939250505056fe60e0604052604051620015323803806200153283398101604081905261002491610131565b6001600160a01b0383166100745760405162461bcd60e51b815260206004820152601260248201527124b73b30b634b21031b7b73a3930b1ba37b960711b60448201526064015b60405180910390fd5b6107d08211156100bb5760405162461bcd60e51b81526020600482015260126024820152710a4cae8c2d2dcc2ceca40e8dede40d0d2ced60731b604482015260640161006b565b336080526001600160a01b03831660a05260c0829052600081905534156101295734600160008282546100ee9190610174565b909155505060405134815233907f5af8184bef8e4b45eb9f6ed7734d04da38ced226495548f46e0c8ff8d7d9a5249060200160405180910390a25b50505061019b565b60008060006060848603121561014657600080fd5b83516001600160a01b038116811461015d57600080fd5b602085015160409095015190969495509392505050565b8082018082111561019557634e487b7160e01b600052601160045260246000fd5b92915050565b60805160a05160c05161132162000211600039600081816101d10152818161078d0152610e96015260008181610326015281816105c201528181610898015261098801526000818161024501528181610369015281816106ab01528181610b5f01528181610cb60152610e1401526113216000f3fe6080604052600436106100ec5760003560e01c8063ca4b208b1161008a578063e89e4ed611610059578063e89e4ed6146102cb578063f6a28073146102fe578063fbfd204514610314578063ff50abdc1461034857600080fd5b8063ca4b208b14610233578063cbe39ad01461027f578063d2bd56d014610295578063e7b0f666146102b557600080fd5b806378b69604116100c657806378b696041461019f5780639e453d8c146101bf578063c438b40f146101f3578063c4f5cae01461021357600080fd5b806304e265b3146101445780630681ca551461015b57806369db0a7e1461017f57600080fd5b3661013f57346001600082825461010391906110ad565b909155505060405134815233907f5af8184bef8e4b45eb9f6ed7734d04da38ced226495548f46e0c8ff8d7d9a5249060200160405180910390a2005b600080fd5b34801561015057600080fd5b5061015961035e565b005b34801561016757600080fd5b506004545b6040519081526020015b60405180910390f35b34801561018b57600080fd5b5061015961019a3660046110c6565b6106a0565b3480156101ab57600080fd5b506101596101ba3660046110df565b61097d565b3480156101cb57600080fd5b5061016c7f000000000000000000000000000000000000000000000000000000000000000081565b3480156101ff57600080fd5b5061015961020e3660046110c6565b610b54565b34801561021f57600080fd5b5061015961022e366004611101565b610cab565b34801561023f57600080fd5b506102677f000000000000000000000000000000000000000000000000000000000000000081565b6040516001600160a01b039091168152602001610176565b34801561028b57600080fd5b5061016c60035481565b3480156102a157600080fd5b5061016c6102b03660046110c6565b610e07565b3480156102c157600080fd5b5061016c60025481565b3480156102d757600080fd5b506102eb6102e63660046110c6565b611032565b6040516101769796959493929190611193565b34801561030a57600080fd5b5061016c60005481565b34801561032057600080fd5b506102677f000000000000000000000000000000000000000000000000000000000000000081565b34801561035457600080fd5b5061016c60015481565b336001600160a01b037f000000000000000000000000000000000000000000000000000000000000000016146103af5760405162461bcd60e51b81526004016103a6906111f5565b60405180910390fd5b600454600080805b83811015610474576003600482815481106103d4576103d461121d565b600091825260209091206002600590920201015460ff1660048111156103fc576103fc61117d565b03610413578261040b81611233565b935050610462565b60048082815481106104275761042761121d565b600091825260209091206002600590920201015460ff16600481111561044f5761044f61117d565b03610462578161045e81611233565b9250505b8061046c81611233565b9150506103b7565b506000610481828561124c565b9050600081116104cc5760405162461bcd60e51b81526020600482015260166024820152754e6f20656c696769626c65206d696c6573746f6e657360501b60448201526064016103a6565b600054816104dc8561271061125f565b6104e69190611276565b10156105285760405162461bcd60e51b8152602060048201526011602482015270151a1c995cda1bdb19081b9bdd081b595d607a1b60448201526064016103a6565b600354806105675760405162461bcd60e51b815260206004820152600c60248201526b4e6f2072657461696e61676560a01b60448201526064016103a6565b804710156105ae5760405162461bcd60e51b8152602060048201526014602482015273496e73756666696369656e742062616c616e636560601b60448201526064016103a6565b600060038190556040516001600160a01b037f0000000000000000000000000000000000000000000000000000000000000000169083908381818185875af1925050503d806000811461061d576040519150601f19603f3d011682016040523d82523d6000602084013e610622565b606091505b50509050806106655760405162461bcd60e51b815260206004820152600f60248201526e151c985b9cd9995c8819985a5b1959608a1b60448201526064016103a6565b6040518281527f7da60aef752d91c97b4a6dc4bcddf55a6492fa61f1a65132e1472a1760a751b29060200160405180910390a1505050505050565b336001600160a01b037f000000000000000000000000000000000000000000000000000000000000000016146106e85760405162461bcd60e51b81526004016103a6906111f5565b60045481106107095760405162461bcd60e51b81526004016103a690611298565b60006004828154811061071e5761071e61121d565b60009182526020909120600590910201905060028082015460ff16600481111561074a5761074a61117d565b146107865760405162461bcd60e51b815260206004820152600c60248201526b139bdd08185c1c1c9bdd995960a21b60448201526064016103a6565b60006127107f000000000000000000000000000000000000000000000000000000000000000083600001546107bb919061125f565b6107c59190611276565b60018301549091504781111561081d5760405162461bcd60e51b815260206004820152601b60248201527f496e73756666696369656e7420657363726f772062616c616e6365000000000060448201526064016103a6565b6002838101805460ff1916600317905560048401805467ffffffffffffffff4216600160801b0267ffffffffffffffff60801b19909116179055805482919060009061086a9084906110ad565b92505081905550816003600082825461088391906110ad565b90915550506040516000906001600160a01b037f0000000000000000000000000000000000000000000000000000000000000000169083908381818185875af1925050503d80600081146108f3576040519150601f19603f3d011682016040523d82523d6000602084013e6108f8565b606091505b505090508061093b5760405162461bcd60e51b815260206004820152600f60248201526e151c985b9cd9995c8819985a5b1959608a1b60448201526064016103a6565b604080518381526020810185905286917fafc8fc5dd6037bf38d34d9d51bb5ecc0af143248332c63ae9e83bbef6d4638d9910160405180910390a25050505050565b336001600160a01b037f000000000000000000000000000000000000000000000000000000000000000016146109e75760405162461bcd60e51b815260206004820152600f60248201526e27b7363c9031b7b73a3930b1ba37b960891b60448201526064016103a6565b6004548210610a085760405162461bcd60e51b81526004016103a690611298565b80610a455760405162461bcd60e51b815260206004820152600d60248201526c24b73b30b634b210383937b7b360991b60448201526064016103a6565b600060048381548110610a5a57610a5a61121d565b6000918252602082206005909102019150600282015460ff166004811115610a8457610a8461117d565b1480610aa857506004600282015460ff166004811115610aa657610aa661117d565b145b610ae35760405162461bcd60e51b815260206004820152600c60248201526b57726f6e672073746174757360a01b60448201526064016103a6565b60028101805460ff191660011790556003810182905560048101805467ffffffffffffffff421667ffffffffffffffff1990911617905560405182815283907f7287d4e2124e164c3e1c3f79240dfe987824d65cbde320cca075a436de20a0589060200160405180910390a2505050565b336001600160a01b037f00000000000000000000000000000000000000000000000000000000000000001614610b9c5760405162461bcd60e51b81526004016103a6906111f5565b6004548110610bbd5760405162461bcd60e51b81526004016103a690611298565b600060048281548110610bd257610bd261121d565b6000918252602090912060059091020190506001600282015460ff166004811115610bff57610bff61117d565b14610c3c5760405162461bcd60e51b815260206004820152600d60248201526c139bdd081cdd589b5a5d1d1959609a1b60448201526064016103a6565b6002818101805460ff191660018302179055506004810180546fffffffffffffffff00000000000000001916600160401b4267ffffffffffffffff160217905560405182907f0adffe31a62a9e7e5068bdd6f839470d57dd0e18fac8a8d525196283eb9b392a90600090a25050565b336001600160a01b037f00000000000000000000000000000000000000000000000000000000000000001614610cf35760405162461bcd60e51b81526004016103a6906111f5565b6004548310610d145760405162461bcd60e51b81526004016103a690611298565b600060048481548110610d2957610d2961121d565b6000918252602090912060059091020190506001600282015460ff166004811115610d5657610d5661117d565b1480610d79575060028082015460ff166004811115610d7757610d7761117d565b145b610db65760405162461bcd60e51b815260206004820152600e60248201526d4e6f742064697370757461626c6560901b60448201526064016103a6565b60028101805460ff1916600417905560405184907f365d08ff2df448ec87654cbda15ec8f08a648e967a4492300f4a05869512b3f890610df990869086906112bc565b60405180910390a250505050565b6000336001600160a01b037f00000000000000000000000000000000000000000000000000000000000000001614610e515760405162461bcd60e51b81526004016103a6906111f5565b60008211610e8c5760405162461bcd60e51b81526020600482015260086024820152670416d6f756e743d360c41b60448201526064016103a6565b6000612710610ebb7f00000000000000000000000000000000000000000000000000000000000000008561125f565b610ec59190611276565b90506000610ed3828561124c565b905060046040518060e0016040528086815260200183815260200160006004811115610f0157610f0161117d565b81526000602080830182905260408084018390526060840183905260809093018290528454600181810187559583529181902084516005909302019182558301518185015590820151600282018054939492939192909160ff191690836004811115610f6f57610f6f61117d565b02179055506060820151600382015560808201516004918201805460a085015160c09095015167ffffffffffffffff908116600160801b0267ffffffffffffffff60801b19968216600160401b026fffffffffffffffffffffffffffffffff19909316919094161717939093161790915554610fed9060019061124c565b604080518681526020810184905291945084917fb59c2d823e6ca395c24829d80f43a97d9c6fd711596372c5a4663af872f4b9d2910160405180910390a25050919050565b6004818154811061104257600080fd5b600091825260209091206005909102018054600182015460028301546003840154600490940154929450909260ff9091169167ffffffffffffffff80821691600160401b8104821691600160801b9091041687565b634e487b7160e01b600052601160045260246000fd5b808201808211156110c0576110c0611097565b92915050565b6000602082840312156110d857600080fd5b5035919050565b600080604083850312156110f257600080fd5b50508035926020909101359150565b60008060006040848603121561111657600080fd5b83359250602084013567ffffffffffffffff8082111561113557600080fd5b818601915086601f83011261114957600080fd5b81358181111561115857600080fd5b87602082850101111561116a57600080fd5b6020830194508093505050509250925092565b634e487b7160e01b600052602160045260246000fd5b8781526020810187905260e08101600587106111bf57634e487b7160e01b600052602160045260246000fd5b6040820196909652606081019490945267ffffffffffffffff928316608085015290821660a08401521660c09091015292915050565b6020808252600e908201526d27b7363c903232bb32b637b832b960911b604082015260600190565b634e487b7160e01b600052603260045260246000fd5b60006001820161124557611245611097565b5060010190565b818103818111156110c0576110c0611097565b80820281158282048414176110c0576110c0611097565b60008261129357634e487b7160e01b600052601260045260246000fd5b500490565b6020808252600a9082015269125b9d985b1a59081a5960b21b604082015260600190565b60208152816020820152818360408301376000818301604090810191909152601f909201601f1916010191905056fea26469706673582212209ed30e72b9cebd77d84866cf6a9d1805c63b3cf113c568741364ba6674ee34ee64736f6c63430008140033a264697066735822122000f3945cde64712ca17b7c0ffbabe9395bc91c3b6270b654c645a638063672e664736f6c63430008140033",
  "linkReferences": {},
  "deployedLinkReferences": {}
}